{
    "contractName": "CirclePotV1",
    "abi": [
        {
            "inputs": [],
            "stateMutability": "nonpayable",
            "type": "constructor"
        },
        {
            "inputs": [
                {
                    "internalType": "address",
                    "name": "target",
                    "type": "address"
                }
            ],
            "name": "AddressEmptyCode",
            "type": "error"
        },
        {
            "inputs": [],
            "name": "AddressZeroNotAllowed",
            "type": "error"
        },
        {
            "inputs": [],
            "name": "AlreadyContributed",
            "type": "error"
        },
        {
            "inputs": [],
            "name": "AlreadyJoined",
            "type": "error"
        },
        {
            "inputs": [],
            "name": "AlreadyVoted",
            "type": "error"
        },
        {
            "inputs": [],
            "name": "CircleFull",
            "type": "error"
        },
        {
            "inputs": [],
            "name": "CircleNotActive",
            "type": "error"
        },
        {
            "inputs": [],
            "name": "CircleNotExist",
            "type": "error"
        },
        {
            "inputs": [],
            "name": "CircleNotOpen",
            "type": "error"
        },
        {
            "inputs": [],
            "name": "CircleNotPrivate",
            "type": "error"
        },
        {
            "inputs": [
                {
                    "internalType": "address",
                    "name": "implementation",
                    "type": "address"
                }
            ],
            "name": "ERC1967InvalidImplementation",
            "type": "error"
        },
        {
            "inputs": [],
            "name": "ERC1967NonPayable",
            "type": "error"
        },
        {
            "inputs": [],
            "name": "FailedCall",
            "type": "error"
        },
        {
            "inputs": [],
            "name": "GoalNotActive",
            "type": "error"
        },
        {
            "inputs": [],
            "name": "InsufficientBalance",
            "type": "error"
        },
        {
            "inputs": [],
            "name": "InvalidCircle",
            "type": "error"
        },
        {
            "inputs": [],
            "name": "InvalidContributionAmount",
            "type": "error"
        },
        {
            "inputs": [],
            "name": "InvalidDeadline",
            "type": "error"
        },
        {
            "inputs": [],
            "name": "InvalidGoalAmount",
            "type": "error"
        },
        {
            "inputs": [],
            "name": "InvalidInitialization",
            "type": "error"
        },
        {
            "inputs": [],
            "name": "InvalidMemberCount",
            "type": "error"
        },
        {
            "inputs": [],
            "name": "InvalidSavingGoal",
            "type": "error"
        },
        {
            "inputs": [],
            "name": "InvalidTreasuryAddress",
            "type": "error"
        },
        {
            "inputs": [],
            "name": "InvalidVoteChoice",
            "type": "error"
        },
        {
            "inputs": [],
            "name": "MinMembersNotReached",
            "type": "error"
        },
        {
            "inputs": [],
            "name": "NotActiveMember",
            "type": "error"
        },
        {
            "inputs": [],
            "name": "NotGoalOwner",
            "type": "error"
        },
        {
            "inputs": [],
            "name": "NotInitializing",
            "type": "error"
        },
        {
            "inputs": [],
            "name": "NotInvited",
            "type": "error"
        },
        {
            "inputs": [],
            "name": "OnlyCreator",
            "type": "error"
        },
        {
            "inputs": [
                {
                    "internalType": "address",
                    "name": "owner",
                    "type": "address"
                }
            ],
            "name": "OwnableInvalidOwner",
            "type": "error"
        },
        {
            "inputs": [
                {
                    "internalType": "address",
                    "name": "account",
                    "type": "address"
                }
            ],
            "name": "OwnableUnauthorizedAccount",
            "type": "error"
        },
        {
            "inputs": [],
            "name": "ReentrancyGuardReentrantCall",
            "type": "error"
        },
        {
            "inputs": [
                {
                    "internalType": "address",
                    "name": "token",
                    "type": "address"
                }
            ],
            "name": "SafeERC20FailedOperation",
            "type": "error"
        },
        {
            "inputs": [],
            "name": "SameVisibility",
            "type": "error"
        },
        {
            "inputs": [],
            "name": "UUPSUnauthorizedCallContext",
            "type": "error"
        },
        {
            "inputs": [
                {
                    "internalType": "bytes32",
                    "name": "slot",
                    "type": "bytes32"
                }
            ],
            "name": "UUPSUnsupportedProxiableUUID",
            "type": "error"
        },
        {
            "inputs": [],
            "name": "UltimatumNotPassed",
            "type": "error"
        },
        {
            "inputs": [],
            "name": "UltimatumNotReached",
            "type": "error"
        },
        {
            "inputs": [],
            "name": "VoteAlreadyExecuted",
            "type": "error"
        },
        {
            "inputs": [],
            "name": "VotingAlreadyExecuted",
            "type": "error"
        },
        {
            "inputs": [],
            "name": "VotingNotActive",
            "type": "error"
        },
        {
            "inputs": [],
            "name": "VotingPeriodEnded",
            "type": "error"
        },
        {
            "inputs": [],
            "name": "VotingStillActive",
            "type": "error"
        },
        {
            "anonymous": false,
            "inputs": [
                {
                    "indexed": true,
                    "internalType": "uint256",
                    "name": "circleId",
                    "type": "uint256"
                }
            ],
            "name": "CircleCompleted",
            "type": "event"
        },
        {
            "anonymous": false,
            "inputs": [
                {
                    "indexed": false,
                    "internalType": "uint256",
                    "name": "circleId",
                    "type": "uint256"
                },
                {
                    "indexed": false,
                    "internalType": "address",
                    "name": "creator",
                    "type": "address"
                },
                {
                    "indexed": false,
                    "internalType": "uint256",
                    "name": "contributionAmount",
                    "type": "uint256"
                }
            ],
            "name": "CircleCreated",
            "type": "event"
        },
        {
            "anonymous": false,
            "inputs": [
                {
                    "indexed": true,
                    "internalType": "uint256",
                    "name": "circleId",
                    "type": "uint256"
                },
                {
                    "indexed": true,
                    "internalType": "address",
                    "name": "member",
                    "type": "address"
                }
            ],
            "name": "CircleJoined",
            "type": "event"
        },
        {
            "anonymous": false,
            "inputs": [
                {
                    "indexed": true,
                    "internalType": "uint256",
                    "name": "circleId",
                    "type": "uint256"
                },
                {
                    "indexed": false,
                    "internalType": "uint256",
                    "name": "startedAt",
                    "type": "uint256"
                }
            ],
            "name": "CircleStarted",
            "type": "event"
        },
        {
            "anonymous": false,
            "inputs": [
                {
                    "indexed": true,
                    "internalType": "uint256",
                    "name": "circleId",
                    "type": "uint256"
                },
                {
                    "indexed": true,
                    "internalType": "address",
                    "name": "member",
                    "type": "address"
                },
                {
                    "indexed": false,
                    "internalType": "uint256",
                    "name": "amount",
                    "type": "uint256"
                }
            ],
            "name": "CollateralWithdrawn",
            "type": "event"
        },
        {
            "anonymous": false,
            "inputs": [
                {
                    "indexed": true,
                    "internalType": "address",
                    "name": "newImplementation",
                    "type": "address"
                },
                {
                    "indexed": false,
                    "internalType": "uint8",
                    "name": "version",
                    "type": "uint8"
                }
            ],
            "name": "ContractUpgraded",
            "type": "event"
        },
        {
            "anonymous": false,
            "inputs": [
                {
                    "indexed": true,
                    "internalType": "uint256",
                    "name": "circleId",
                    "type": "uint256"
                },
                {
                    "indexed": false,
                    "internalType": "uint8",
                    "name": "round",
                    "type": "uint8"
                },
                {
                    "indexed": false,
                    "internalType": "address",
                    "name": "member",
                    "type": "address"
                },
                {
                    "indexed": true,
                    "internalType": "uint256",
                    "name": "amount",
                    "type": "uint256"
                }
            ],
            "name": "ContributionMade",
            "type": "event"
        },
        {
            "anonymous": false,
            "inputs": [
                {
                    "indexed": true,
                    "internalType": "uint256",
                    "name": "goalId",
                    "type": "uint256"
                },
                {
                    "indexed": true,
                    "internalType": "address",
                    "name": "owner",
                    "type": "address"
                }
            ],
            "name": "GoalCompleted",
            "type": "event"
        },
        {
            "anonymous": false,
            "inputs": [
                {
                    "indexed": true,
                    "internalType": "uint256",
                    "name": "goalId",
                    "type": "uint256"
                },
                {
                    "indexed": true,
                    "internalType": "address",
                    "name": "owner",
                    "type": "address"
                },
                {
                    "indexed": false,
                    "internalType": "uint256",
                    "name": "amount",
                    "type": "uint256"
                }
            ],
            "name": "GoalContribution",
            "type": "event"
        },
        {
            "anonymous": false,
            "inputs": [
                {
                    "indexed": true,
                    "internalType": "uint256",
                    "name": "goalId",
                    "type": "uint256"
                },
                {
                    "indexed": true,
                    "internalType": "address",
                    "name": "owner",
                    "type": "address"
                },
                {
                    "indexed": false,
                    "internalType": "uint256",
                    "name": "_amount",
                    "type": "uint256"
                },
                {
                    "indexed": false,
                    "internalType": "uint256",
                    "name": "penalty",
                    "type": "uint256"
                }
            ],
            "name": "GoalWithdrawn",
            "type": "event"
        },
        {
            "anonymous": false,
            "inputs": [
                {
                    "indexed": false,
                    "internalType": "uint64",
                    "name": "version",
                    "type": "uint64"
                }
            ],
            "name": "Initialized",
            "type": "event"
        },
        {
            "anonymous": false,
            "inputs": [
                {
                    "indexed": true,
                    "internalType": "uint256",
                    "name": "circleId",
                    "type": "uint256"
                },
                {
                    "indexed": false,
                    "internalType": "uint8",
                    "name": "round",
                    "type": "uint8"
                },
                {
                    "indexed": false,
                    "internalType": "address",
                    "name": "member",
                    "type": "address"
                },
                {
                    "indexed": true,
                    "internalType": "uint256",
                    "name": "fee",
                    "type": "uint256"
                }
            ],
            "name": "LatePayment",
            "type": "event"
        },
        {
            "anonymous": false,
            "inputs": [
                {
                    "indexed": true,
                    "internalType": "uint256",
                    "name": "circleId",
                    "type": "uint256"
                },
                {
                    "indexed": true,
                    "internalType": "address",
                    "name": "_invitee",
                    "type": "address"
                }
            ],
            "name": "MemberInvited",
            "type": "event"
        },
        {
            "anonymous": false,
            "inputs": [
                {
                    "indexed": true,
                    "internalType": "address",
                    "name": "previousOwner",
                    "type": "address"
                },
                {
                    "indexed": true,
                    "internalType": "address",
                    "name": "newOwner",
                    "type": "address"
                }
            ],
            "name": "OwnershipTransferred",
            "type": "event"
        },
        {
            "anonymous": false,
            "inputs": [
                {
                    "indexed": true,
                    "internalType": "uint256",
                    "name": "circleId",
                    "type": "uint256"
                },
                {
                    "indexed": true,
                    "internalType": "uint256",
                    "name": "round",
                    "type": "uint256"
                },
                {
                    "indexed": true,
                    "internalType": "address",
                    "name": "recipient",
                    "type": "address"
                },
                {
                    "indexed": false,
                    "internalType": "uint256",
                    "name": "amount",
                    "type": "uint256"
                }
            ],
            "name": "PayoutDistributed",
            "type": "event"
        },
        {
            "anonymous": false,
            "inputs": [
                {
                    "indexed": true,
                    "internalType": "uint256",
                    "name": "goalId",
                    "type": "uint256"
                },
                {
                    "indexed": true,
                    "internalType": "address",
                    "name": "owner",
                    "type": "address"
                },
                {
                    "indexed": false,
                    "internalType": "string",
                    "name": "name",
                    "type": "string"
                },
                {
                    "indexed": true,
                    "internalType": "uint256",
                    "name": "amount",
                    "type": "uint256"
                }
            ],
            "name": "PersonalGoalCreated",
            "type": "event"
        },
        {
            "anonymous": false,
            "inputs": [
                {
                    "indexed": true,
                    "internalType": "uint256",
                    "name": "circledId",
                    "type": "uint256"
                },
                {
                    "indexed": true,
                    "internalType": "address",
                    "name": "member",
                    "type": "address"
                },
                {
                    "indexed": false,
                    "internalType": "uint256",
                    "name": "position",
                    "type": "uint256"
                }
            ],
            "name": "PositionAssigned",
            "type": "event"
        },
        {
            "anonymous": false,
            "inputs": [
                {
                    "indexed": true,
                    "internalType": "address",
                    "name": "implementation",
                    "type": "address"
                }
            ],
            "name": "Upgraded",
            "type": "event"
        },
        {
            "anonymous": false,
            "inputs": [
                {
                    "indexed": true,
                    "internalType": "uint256",
                    "name": "circleId",
                    "type": "uint256"
                },
                {
                    "indexed": true,
                    "internalType": "address",
                    "name": "creator",
                    "type": "address"
                }
            ],
            "name": "VisibilityUpdated",
            "type": "event"
        },
        {
            "anonymous": false,
            "inputs": [
                {
                    "indexed": true,
                    "internalType": "uint256",
                    "name": "circleId",
                    "type": "uint256"
                },
                {
                    "indexed": true,
                    "internalType": "address",
                    "name": "voter",
                    "type": "address"
                },
                {
                    "indexed": false,
                    "internalType": "enum CirclePotV1.VoteChoice",
                    "name": "choice",
                    "type": "uint8"
                }
            ],
            "name": "VoteCast",
            "type": "event"
        },
        {
            "anonymous": false,
            "inputs": [
                {
                    "indexed": true,
                    "internalType": "uint256",
                    "name": "circleId",
                    "type": "uint256"
                },
                {
                    "indexed": false,
                    "internalType": "bool",
                    "name": "circleStarted",
                    "type": "bool"
                },
                {
                    "indexed": false,
                    "internalType": "uint256",
                    "name": "startVoteCount",
                    "type": "uint256"
                },
                {
                    "indexed": false,
                    "internalType": "uint256",
                    "name": "withdrawVoteCount",
                    "type": "uint256"
                }
            ],
            "name": "VoteExecuted",
            "type": "event"
        },
        {
            "anonymous": false,
            "inputs": [
                {
                    "indexed": true,
                    "internalType": "uint256",
                    "name": "circleId",
                    "type": "uint256"
                },
                {
                    "indexed": true,
                    "internalType": "uint256",
                    "name": "votingEndTime",
                    "type": "uint256"
                }
            ],
            "name": "VotingInitiated",
            "type": "event"
        },
        {
            "inputs": [
                {
                    "internalType": "uint256",
                    "name": "_goalId",
                    "type": "uint256"
                }
            ],
            "name": "CompleteGoal",
            "outputs": [],
            "stateMutability": "nonpayable",
            "type": "function"
        },
        {
            "inputs": [
                {
                    "internalType": "uint256",
                    "name": "_goalId",
                    "type": "uint256"
                }
            ],
            "name": "ContributeToGoal",
            "outputs": [],
            "stateMutability": "nonpayable",
            "type": "function"
        },
        {
            "inputs": [],
            "name": "LATE_FEE_BPS",
            "outputs": [
                {
                    "internalType": "uint256",
                    "name": "",
                    "type": "uint256"
                }
            ],
            "stateMutability": "view",
            "type": "function"
        },
        {
            "inputs": [],
            "name": "MAX_CONTRIBUTION",
            "outputs": [
                {
                    "internalType": "uint256",
                    "name": "",
                    "type": "uint256"
                }
            ],
            "stateMutability": "view",
            "type": "function"
        },
        {
            "inputs": [],
            "name": "MAX_MEMBERS",
            "outputs": [
                {
                    "internalType": "uint8",
                    "name": "",
                    "type": "uint8"
                }
            ],
            "stateMutability": "view",
            "type": "function"
        },
        {
            "inputs": [],
            "name": "MIN_CONTRIBUTION",
            "outputs": [
                {
                    "internalType": "uint256",
                    "name": "",
                    "type": "uint256"
                }
            ],
            "stateMutability": "view",
            "type": "function"
        },
        {
            "inputs": [],
            "name": "MIN_MEMBERS",
            "outputs": [
                {
                    "internalType": "uint8",
                    "name": "",
                    "type": "uint8"
                }
            ],
            "stateMutability": "view",
            "type": "function"
        },
        {
            "inputs": [],
            "name": "PLATFORM_FEE_BPS",
            "outputs": [
                {
                    "internalType": "uint256",
                    "name": "",
                    "type": "uint256"
                }
            ],
            "stateMutability": "view",
            "type": "function"
        },
        {
            "inputs": [],
            "name": "START_VOTE_THRESHOLD",
            "outputs": [
                {
                    "internalType": "uint256",
                    "name": "",
                    "type": "uint256"
                }
            ],
            "stateMutability": "view",
            "type": "function"
        },
        {
            "inputs": [],
            "name": "UPGRADE_INTERFACE_VERSION",
            "outputs": [
                {
                    "internalType": "string",
                    "name": "",
                    "type": "string"
                }
            ],
            "stateMutability": "view",
            "type": "function"
        },
        {
            "inputs": [],
            "name": "VERSION",
            "outputs": [
                {
                    "internalType": "uint8",
                    "name": "",
                    "type": "uint8"
                }
            ],
            "stateMutability": "view",
            "type": "function"
        },
        {
            "inputs": [],
            "name": "VISIBILITY_UPDATE_FEE",
            "outputs": [
                {
                    "internalType": "uint256",
                    "name": "",
                    "type": "uint256"
                }
            ],
            "stateMutability": "view",
            "type": "function"
        },
        {
            "inputs": [],
            "name": "VOTING_PERIOD",
            "outputs": [
                {
                    "internalType": "uint256",
                    "name": "",
                    "type": "uint256"
                }
            ],
            "stateMutability": "view",
            "type": "function"
        },
        {
            "inputs": [
                {
                    "internalType": "uint256",
                    "name": "_circleId",
                    "type": "uint256"
                }
            ],
            "name": "WithdrawCollateral",
            "outputs": [],
            "stateMutability": "nonpayable",
            "type": "function"
        },
        {
            "inputs": [
                {
                    "internalType": "enum CirclePotV1.Frequency",
                    "name": "f",
                    "type": "uint8"
                }
            ],
            "name": "_getGracePeriod",
            "outputs": [
                {
                    "internalType": "uint256",
                    "name": "",
                    "type": "uint256"
                }
            ],
            "stateMutability": "pure",
            "type": "function"
        },
        {
            "inputs": [],
            "name": "cUSDToken",
            "outputs": [
                {
                    "internalType": "address",
                    "name": "",
                    "type": "address"
                }
            ],
            "stateMutability": "view",
            "type": "function"
        },
        {
            "inputs": [
                {
                    "internalType": "uint256",
                    "name": "_circleId",
                    "type": "uint256"
                }
            ],
            "name": "canWithdrawAfterVote",
            "outputs": [
                {
                    "internalType": "bool",
                    "name": "",
                    "type": "bool"
                }
            ],
            "stateMutability": "view",
            "type": "function"
        },
        {
            "inputs": [
                {
                    "internalType": "uint256",
                    "name": "_circleId",
                    "type": "uint256"
                },
                {
                    "internalType": "enum CirclePotV1.VoteChoice",
                    "name": "_choice",
                    "type": "uint8"
                }
            ],
            "name": "castVote",
            "outputs": [],
            "stateMutability": "nonpayable",
            "type": "function"
        },
        {
            "inputs": [],
            "name": "circleCounter",
            "outputs": [
                {
                    "internalType": "uint256",
                    "name": "",
                    "type": "uint256"
                }
            ],
            "stateMutability": "view",
            "type": "function"
        },
        {
            "inputs": [
                {
                    "internalType": "uint256",
                    "name": "",
                    "type": "uint256"
                },
                {
                    "internalType": "address",
                    "name": "",
                    "type": "address"
                }
            ],
            "name": "circleInvitations",
            "outputs": [
                {
                    "internalType": "bool",
                    "name": "",
                    "type": "bool"
                }
            ],
            "stateMutability": "view",
            "type": "function"
        },
        {
            "inputs": [
                {
                    "internalType": "uint256",
                    "name": "",
                    "type": "uint256"
                },
                {
                    "internalType": "uint256",
                    "name": "",
                    "type": "uint256"
                }
            ],
            "name": "circleMemberList",
            "outputs": [
                {
                    "internalType": "address",
                    "name": "",
                    "type": "address"
                }
            ],
            "stateMutability": "view",
            "type": "function"
        },
        {
            "inputs": [
                {
                    "internalType": "uint256",
                    "name": "",
                    "type": "uint256"
                },
                {
                    "internalType": "address",
                    "name": "",
                    "type": "address"
                }
            ],
            "name": "circleMembers",
            "outputs": [
                {
                    "internalType": "uint8",
                    "name": "position",
                    "type": "uint8"
                },
                {
                    "internalType": "uint256",
                    "name": "totalContributed",
                    "type": "uint256"
                },
                {
                    "internalType": "bool",
                    "name": "hasReceivedPayout",
                    "type": "bool"
                },
                {
                    "internalType": "bool",
                    "name": "isActive",
                    "type": "bool"
                },
                {
                    "internalType": "uint256",
                    "name": "collateralLocked",
                    "type": "uint256"
                },
                {
                    "internalType": "uint256",
                    "name": "joinedAt",
                    "type": "uint256"
                }
            ],
            "stateMutability": "view",
            "type": "function"
        },
        {
            "inputs": [
                {
                    "internalType": "uint256",
                    "name": "",
                    "type": "uint256"
                },
                {
                    "internalType": "uint256",
                    "name": "",
                    "type": "uint256"
                }
            ],
            "name": "circleRoundDeadlines",
            "outputs": [
                {
                    "internalType": "uint256",
                    "name": "",
                    "type": "uint256"
                }
            ],
            "stateMutability": "view",
            "type": "function"
        },
        {
            "inputs": [
                {
                    "internalType": "uint256",
                    "name": "",
                    "type": "uint256"
                }
            ],
            "name": "circleVotes",
            "outputs": [
                {
                    "internalType": "uint256",
                    "name": "votingStartTime",
                    "type": "uint256"
                },
                {
                    "internalType": "uint256",
                    "name": "votingEndTime",
                    "type": "uint256"
                },
                {
                    "internalType": "uint8",
                    "name": "startVoteCount",
                    "type": "uint8"
                },
                {
                    "internalType": "uint8",
                    "name": "withdrawVoteCount",
                    "type": "uint8"
                },
                {
                    "internalType": "bool",
                    "name": "votingActive",
                    "type": "bool"
                },
                {
                    "internalType": "bool",
                    "name": "voteExecuted",
                    "type": "bool"
                }
            ],
            "stateMutability": "view",
            "type": "function"
        },
        {
            "inputs": [
                {
                    "internalType": "uint256",
                    "name": "",
                    "type": "uint256"
                }
            ],
            "name": "circles",
            "outputs": [
                {
                    "internalType": "uint256",
                    "name": "circleId",
                    "type": "uint256"
                },
                {
                    "internalType": "address",
                    "name": "creator",
                    "type": "address"
                },
                {
                    "internalType": "uint256",
                    "name": "contributionAmount",
                    "type": "uint256"
                },
                {
                    "internalType": "enum CirclePotV1.Frequency",
                    "name": "frequency",
                    "type": "uint8"
                },
                {
                    "internalType": "uint8",
                    "name": "maxMembers",
                    "type": "uint8"
                },
                {
                    "internalType": "uint8",
                    "name": "currentMembers",
                    "type": "uint8"
                },
                {
                    "internalType": "uint8",
                    "name": "currentRound",
                    "type": "uint8"
                },
                {
                    "internalType": "uint8",
                    "name": "totalRounds",
                    "type": "uint8"
                },
                {
                    "internalType": "enum CirclePotV1.CircleState",
                    "name": "state",
                    "type": "uint8"
                },
                {
                    "internalType": "enum CirclePotV1.Visibility",
                    "name": "visibility",
                    "type": "uint8"
                },
                {
                    "internalType": "uint256",
                    "name": "createdAt",
                    "type": "uint256"
                },
                {
                    "internalType": "uint256",
                    "name": "startedAt",
                    "type": "uint256"
                },
                {
                    "internalType": "uint256",
                    "name": "totalPot",
                    "type": "uint256"
                }
            ],
            "stateMutability": "view",
            "type": "function"
        },
        {
            "inputs": [
                {
                    "internalType": "address",
                    "name": "",
                    "type": "address"
                }
            ],
            "name": "completedCircles",
            "outputs": [
                {
                    "internalType": "uint256",
                    "name": "",
                    "type": "uint256"
                }
            ],
            "stateMutability": "view",
            "type": "function"
        },
        {
            "inputs": [
                {
                    "internalType": "uint256",
                    "name": "_circleId",
                    "type": "uint256"
                }
            ],
            "name": "contribute",
            "outputs": [],
            "stateMutability": "nonpayable",
            "type": "function"
        },
        {
            "inputs": [
                {
                    "components": [
                        {
                            "internalType": "uint256",
                            "name": "contributionAmount",
                            "type": "uint256"
                        },
                        {
                            "internalType": "enum CirclePotV1.Frequency",
                            "name": "frequency",
                            "type": "uint8"
                        },
                        {
                            "internalType": "uint8",
                            "name": "maxMembers",
                            "type": "uint8"
                        },
                        {
                            "internalType": "enum CirclePotV1.Visibility",
                            "name": "visibility",
                            "type": "uint8"
                        }
                    ],
                    "internalType": "struct CirclePotV1.CreateCircleParams",
                    "name": "params",
                    "type": "tuple"
                }
            ],
            "name": "createCircle",
            "outputs": [
                {
                    "internalType": "uint256",
                    "name": "",
                    "type": "uint256"
                }
            ],
            "stateMutability": "nonpayable",
            "type": "function"
        },
        {
            "inputs": [
                {
                    "components": [
                        {
                            "internalType": "string",
                            "name": "name",
                            "type": "string"
                        },
                        {
                            "internalType": "uint256",
                            "name": "targetAmount",
                            "type": "uint256"
                        },
                        {
                            "internalType": "uint256",
                            "name": "contributionAmount",
                            "type": "uint256"
                        },
                        {
                            "internalType": "enum CirclePotV1.Frequency",
                            "name": "frequency",
                            "type": "uint8"
                        },
                        {
                            "internalType": "uint256",
                            "name": "deadline",
                            "type": "uint256"
                        }
                    ],
                    "internalType": "struct CirclePotV1.CreateGoalParams",
                    "name": "params",
                    "type": "tuple"
                }
            ],
            "name": "createPersonalGoal",
            "outputs": [
                {
                    "internalType": "uint256",
                    "name": "",
                    "type": "uint256"
                }
            ],
            "stateMutability": "nonpayable",
            "type": "function"
        },
        {
            "inputs": [
                {
                    "internalType": "uint256",
                    "name": "_circleId",
                    "type": "uint256"
                }
            ],
            "name": "executeVote",
            "outputs": [],
            "stateMutability": "nonpayable",
            "type": "function"
        },
        {
            "inputs": [
                {
                    "internalType": "uint256",
                    "name": "_circleId",
                    "type": "uint256"
                }
            ],
            "name": "getCircleDetails",
            "outputs": [
                {
                    "components": [
                        {
                            "internalType": "uint256",
                            "name": "circleId",
                            "type": "uint256"
                        },
                        {
                            "internalType": "address",
                            "name": "creator",
                            "type": "address"
                        },
                        {
                            "internalType": "uint256",
                            "name": "contributionAmount",
                            "type": "uint256"
                        },
                        {
                            "internalType": "enum CirclePotV1.Frequency",
                            "name": "frequency",
                            "type": "uint8"
                        },
                        {
                            "internalType": "uint8",
                            "name": "maxMembers",
                            "type": "uint8"
                        },
                        {
                            "internalType": "uint8",
                            "name": "currentMembers",
                            "type": "uint8"
                        },
                        {
                            "internalType": "uint8",
                            "name": "currentRound",
                            "type": "uint8"
                        },
                        {
                            "internalType": "uint8",
                            "name": "totalRounds",
                            "type": "uint8"
                        },
                        {
                            "internalType": "enum CirclePotV1.CircleState",
                            "name": "state",
                            "type": "uint8"
                        },
                        {
                            "internalType": "enum CirclePotV1.Visibility",
                            "name": "visibility",
                            "type": "uint8"
                        },
                        {
                            "internalType": "uint256",
                            "name": "createdAt",
                            "type": "uint256"
                        },
                        {
                            "internalType": "uint256",
                            "name": "startedAt",
                            "type": "uint256"
                        },
                        {
                            "internalType": "uint256",
                            "name": "totalPot",
                            "type": "uint256"
                        }
                    ],
                    "internalType": "struct CirclePotV1.Circle",
                    "name": "circle",
                    "type": "tuple"
                },
                {
                    "internalType": "uint256",
                    "name": "membersJoined",
                    "type": "uint256"
                },
                {
                    "internalType": "uint256",
                    "name": "currentDeadline",
                    "type": "uint256"
                },
                {
                    "internalType": "bool",
                    "name": "canStart",
                    "type": "bool"
                }
            ],
            "stateMutability": "view",
            "type": "function"
        },
        {
            "inputs": [
                {
                    "internalType": "uint256",
                    "name": "_circleId",
                    "type": "uint256"
                }
            ],
            "name": "getCircleMembers",
            "outputs": [
                {
                    "internalType": "address[]",
                    "name": "",
                    "type": "address[]"
                }
            ],
            "stateMutability": "view",
            "type": "function"
        },
        {
            "inputs": [
                {
                    "internalType": "uint256",
                    "name": "_circleId",
                    "type": "uint256"
                }
            ],
            "name": "getCircleProgress",
            "outputs": [
                {
                    "internalType": "uint8",
                    "name": "currentRound",
                    "type": "uint8"
                },
                {
                    "internalType": "uint8",
                    "name": "totalRounds",
                    "type": "uint8"
                },
                {
                    "internalType": "uint256",
                    "name": "contributionsThisRound",
                    "type": "uint256"
                },
                {
                    "internalType": "uint8",
                    "name": "totalMembers",
                    "type": "uint8"
                }
            ],
            "stateMutability": "view",
            "type": "function"
        },
        {
            "inputs": [
                {
                    "internalType": "uint256",
                    "name": "_circleId",
                    "type": "uint256"
                },
                {
                    "internalType": "address",
                    "name": "_member",
                    "type": "address"
                }
            ],
            "name": "getMemberInfo",
            "outputs": [
                {
                    "components": [
                        {
                            "internalType": "uint8",
                            "name": "position",
                            "type": "uint8"
                        },
                        {
                            "internalType": "uint256",
                            "name": "totalContributed",
                            "type": "uint256"
                        },
                        {
                            "internalType": "bool",
                            "name": "hasReceivedPayout",
                            "type": "bool"
                        },
                        {
                            "internalType": "bool",
                            "name": "isActive",
                            "type": "bool"
                        },
                        {
                            "internalType": "uint256",
                            "name": "collateralLocked",
                            "type": "uint256"
                        },
                        {
                            "internalType": "uint256",
                            "name": "joinedAt",
                            "type": "uint256"
                        }
                    ],
                    "internalType": "struct CirclePotV1.Member",
                    "name": "memberInfo",
                    "type": "tuple"
                },
                {
                    "internalType": "bool",
                    "name": "hasContributedThisRound",
                    "type": "bool"
                },
                {
                    "internalType": "uint256",
                    "name": "nextDeadline",
                    "type": "uint256"
                }
            ],
            "stateMutability": "view",
            "type": "function"
        },
        {
            "inputs": [
                {
                    "internalType": "address",
                    "name": "_user",
                    "type": "address"
                }
            ],
            "name": "getUserCircles",
            "outputs": [
                {
                    "internalType": "uint256[]",
                    "name": "",
                    "type": "uint256[]"
                }
            ],
            "stateMutability": "view",
            "type": "function"
        },
        {
            "inputs": [
                {
                    "internalType": "address",
                    "name": "_user",
                    "type": "address"
                }
            ],
            "name": "getUserGoals",
            "outputs": [
                {
                    "internalType": "uint256[]",
                    "name": "",
                    "type": "uint256[]"
                }
            ],
            "stateMutability": "view",
            "type": "function"
        },
        {
            "inputs": [
                {
                    "internalType": "address",
                    "name": "_user",
                    "type": "address"
                }
            ],
            "name": "getUserReputation",
            "outputs": [
                {
                    "internalType": "uint256",
                    "name": "reputation",
                    "type": "uint256"
                },
                {
                    "internalType": "uint256",
                    "name": "circlesCompleted",
                    "type": "uint256"
                },
                {
                    "internalType": "uint256",
                    "name": "latePaymentsCount",
                    "type": "uint256"
                }
            ],
            "stateMutability": "view",
            "type": "function"
        },
        {
            "inputs": [
                {
                    "internalType": "uint256",
                    "name": "_circleId",
                    "type": "uint256"
                }
            ],
            "name": "getVoteInfo",
            "outputs": [
                {
                    "internalType": "uint256",
                    "name": "votingEndTime",
                    "type": "uint256"
                },
                {
                    "internalType": "uint8",
                    "name": "startVoteCount",
                    "type": "uint8"
                },
                {
                    "internalType": "uint8",
                    "name": "withdrawVoteCount",
                    "type": "uint8"
                },
                {
                    "internalType": "bool",
                    "name": "votingActive",
                    "type": "bool"
                },
                {
                    "internalType": "bool",
                    "name": "voteExecuted",
                    "type": "bool"
                },
                {
                    "internalType": "enum CirclePotV1.VoteChoice",
                    "name": "userVote",
                    "type": "uint8"
                }
            ],
            "stateMutability": "view",
            "type": "function"
        },
        {
            "inputs": [],
            "name": "goalCounter",
            "outputs": [
                {
                    "internalType": "uint256",
                    "name": "",
                    "type": "uint256"
                }
            ],
            "stateMutability": "view",
            "type": "function"
        },
        {
            "inputs": [
                {
                    "internalType": "address",
                    "name": "_cUSDToken",
                    "type": "address"
                },
                {
                    "internalType": "address",
                    "name": "_treasury",
                    "type": "address"
                },
                {
                    "internalType": "address",
                    "name": "initialOwner",
                    "type": "address"
                }
            ],
            "name": "initialize",
            "outputs": [],
            "stateMutability": "nonpayable",
            "type": "function"
        },
        {
            "inputs": [
                {
                    "internalType": "uint256",
                    "name": "_circleId",
                    "type": "uint256"
                }
            ],
            "name": "initiateVoting",
            "outputs": [],
            "stateMutability": "nonpayable",
            "type": "function"
        },
        {
            "inputs": [
                {
                    "internalType": "uint256",
                    "name": "_circleId",
                    "type": "uint256"
                },
                {
                    "internalType": "address[]",
                    "name": "_invitees",
                    "type": "address[]"
                }
            ],
            "name": "inviteMembers",
            "outputs": [],
            "stateMutability": "nonpayable",
            "type": "function"
        },
        {
            "inputs": [
                {
                    "internalType": "uint256",
                    "name": "_circleId",
                    "type": "uint256"
                },
                {
                    "internalType": "address",
                    "name": "_user",
                    "type": "address"
                }
            ],
            "name": "isInvited",
            "outputs": [
                {
                    "internalType": "bool",
                    "name": "",
                    "type": "bool"
                }
            ],
            "stateMutability": "view",
            "type": "function"
        },
        {
            "inputs": [
                {
                    "internalType": "uint256",
                    "name": "_circleId",
                    "type": "uint256"
                }
            ],
            "name": "joinCircle",
            "outputs": [],
            "stateMutability": "nonpayable",
            "type": "function"
        },
        {
            "inputs": [
                {
                    "internalType": "address",
                    "name": "",
                    "type": "address"
                }
            ],
            "name": "latePayments",
            "outputs": [
                {
                    "internalType": "uint256",
                    "name": "",
                    "type": "uint256"
                }
            ],
            "stateMutability": "view",
            "type": "function"
        },
        {
            "inputs": [
                {
                    "internalType": "uint256",
                    "name": "",
                    "type": "uint256"
                },
                {
                    "internalType": "address",
                    "name": "",
                    "type": "address"
                }
            ],
            "name": "memberVotes",
            "outputs": [
                {
                    "internalType": "enum CirclePotV1.VoteChoice",
                    "name": "",
                    "type": "uint8"
                }
            ],
            "stateMutability": "view",
            "type": "function"
        },
        {
            "inputs": [],
            "name": "owner",
            "outputs": [
                {
                    "internalType": "address",
                    "name": "",
                    "type": "address"
                }
            ],
            "stateMutability": "view",
            "type": "function"
        },
        {
            "inputs": [
                {
                    "internalType": "uint256",
                    "name": "",
                    "type": "uint256"
                }
            ],
            "name": "personalGoals",
            "outputs": [
                {
                    "internalType": "address",
                    "name": "owner",
                    "type": "address"
                },
                {
                    "internalType": "string",
                    "name": "name",
                    "type": "string"
                },
                {
                    "internalType": "uint256",
                    "name": "targetAmount",
                    "type": "uint256"
                },
                {
                    "internalType": "uint256",
                    "name": "currentAmount",
                    "type": "uint256"
                },
                {
                    "internalType": "uint256",
                    "name": "contributionAmount",
                    "type": "uint256"
                },
                {
                    "internalType": "enum CirclePotV1.Frequency",
                    "name": "frequency",
                    "type": "uint8"
                },
                {
                    "internalType": "uint256",
                    "name": "deadline",
                    "type": "uint256"
                },
                {
                    "internalType": "uint256",
                    "name": "createdAt",
                    "type": "uint256"
                },
                {
                    "internalType": "bool",
                    "name": "isActive",
                    "type": "bool"
                },
                {
                    "internalType": "uint256",
                    "name": "lastContributionAt",
                    "type": "uint256"
                }
            ],
            "stateMutability": "view",
            "type": "function"
        },
        {
            "inputs": [],
            "name": "platformFeeBps",
            "outputs": [
                {
                    "internalType": "uint256",
                    "name": "",
                    "type": "uint256"
                }
            ],
            "stateMutability": "view",
            "type": "function"
        },
        {
            "inputs": [],
            "name": "proxiableUUID",
            "outputs": [
                {
                    "internalType": "bytes32",
                    "name": "",
                    "type": "bytes32"
                }
            ],
            "stateMutability": "view",
            "type": "function"
        },
        {
            "inputs": [],
            "name": "renounceOwnership",
            "outputs": [],
            "stateMutability": "nonpayable",
            "type": "function"
        },
        {
            "inputs": [
                {
                    "internalType": "uint256",
                    "name": "",
                    "type": "uint256"
                },
                {
                    "internalType": "uint8",
                    "name": "",
                    "type": "uint8"
                },
                {
                    "internalType": "address",
                    "name": "",
                    "type": "address"
                }
            ],
            "name": "roundContributions",
            "outputs": [
                {
                    "internalType": "bool",
                    "name": "",
                    "type": "bool"
                }
            ],
            "stateMutability": "view",
            "type": "function"
        },
        {
            "inputs": [
                {
                    "internalType": "uint256",
                    "name": "_newBps",
                    "type": "uint256"
                }
            ],
            "name": "setPlatformFeeBps",
            "outputs": [],
            "stateMutability": "nonpayable",
            "type": "function"
        },
        {
            "inputs": [
                {
                    "internalType": "uint256",
                    "name": "_circleId",
                    "type": "uint256"
                }
            ],
            "name": "startCircle",
            "outputs": [],
            "stateMutability": "nonpayable",
            "type": "function"
        },
        {
            "inputs": [],
            "name": "totalPlatformFees",
            "outputs": [
                {
                    "internalType": "uint256",
                    "name": "",
                    "type": "uint256"
                }
            ],
            "stateMutability": "view",
            "type": "function"
        },
        {
            "inputs": [
                {
                    "internalType": "address",
                    "name": "newOwner",
                    "type": "address"
                }
            ],
            "name": "transferOwnership",
            "outputs": [],
            "stateMutability": "nonpayable",
            "type": "function"
        },
        {
            "inputs": [],
            "name": "treasury",
            "outputs": [
                {
                    "internalType": "address",
                    "name": "",
                    "type": "address"
                }
            ],
            "stateMutability": "view",
            "type": "function"
        },
        {
            "inputs": [
                {
                    "internalType": "uint256",
                    "name": "_circleId",
                    "type": "uint256"
                },
                {
                    "internalType": "enum CirclePotV1.Visibility",
                    "name": "_newVisibility",
                    "type": "uint8"
                }
            ],
            "name": "updateCircleVisibility",
            "outputs": [],
            "stateMutability": "nonpayable",
            "type": "function"
        },
        {
            "inputs": [
                {
                    "internalType": "address",
                    "name": "_new",
                    "type": "address"
                }
            ],
            "name": "updateTreasury",
            "outputs": [],
            "stateMutability": "nonpayable",
            "type": "function"
        },
        {
            "inputs": [
                {
                    "internalType": "address",
                    "name": "_cUSDToken",
                    "type": "address"
                },
                {
                    "internalType": "address",
                    "name": "_treasury",
                    "type": "address"
                },
                {
                    "internalType": "uint8",
                    "name": "_version",
                    "type": "uint8"
                }
            ],
            "name": "upgrade",
            "outputs": [],
            "stateMutability": "nonpayable",
            "type": "function"
        },
        {
            "inputs": [
                {
                    "internalType": "address",
                    "name": "newImplementation",
                    "type": "address"
                },
                {
                    "internalType": "bytes",
                    "name": "data",
                    "type": "bytes"
                }
            ],
            "name": "upgradeToAndCall",
            "outputs": [],
            "stateMutability": "payable",
            "type": "function"
        },
        {
            "inputs": [
                {
                    "internalType": "address",
                    "name": "",
                    "type": "address"
                },
                {
                    "internalType": "uint256",
                    "name": "",
                    "type": "uint256"
                }
            ],
            "name": "userGoals",
            "outputs": [
                {
                    "internalType": "uint256",
                    "name": "",
                    "type": "uint256"
                }
            ],
            "stateMutability": "view",
            "type": "function"
        },
        {
            "inputs": [
                {
                    "internalType": "address",
                    "name": "",
                    "type": "address"
                }
            ],
            "name": "userReputation",
            "outputs": [
                {
                    "internalType": "uint256",
                    "name": "",
                    "type": "uint256"
                }
            ],
            "stateMutability": "view",
            "type": "function"
        },
        {
            "inputs": [],
            "name": "version",
            "outputs": [
                {
                    "internalType": "string",
                    "name": "",
                    "type": "string"
                }
            ],
            "stateMutability": "pure",
            "type": "function"
        },
        {
            "inputs": [
                {
                    "internalType": "uint256",
                    "name": "_goalId",
                    "type": "uint256"
                },
                {
                    "internalType": "uint256",
                    "name": "_amount",
                    "type": "uint256"
                }
            ],
            "name": "withdrawFromGoal",
            "outputs": [],
            "stateMutability": "nonpayable",
            "type": "function"
        },
        {
            "inputs": [],
            "name": "withdrawPlatformFees",
            "outputs": [],
            "stateMutability": "nonpayable",
            "type": "function"
        }
    ],
    "bytecode": "60a080604052346100c257306080525f5160206149b55f395f51905f525460ff8160401c166100b3576002600160401b03196001600160401b03821601610060575b6040516148ee90816100c78239608051818181612f480152612fea0152f35b6001600160401b0319166001600160401b039081175f5160206149b55f395f51905f525581527fc7f505b2f371ae2175ee4913f4499e1f2633a7b5936321eed1cdaeb6115181d290602090a15f80610041565b63f92ee8a960e01b5f5260045ffd5b5f80fdfe6080806040526004361015610012575f80fd5b5f3560e01c9081630ea86ad8146137a5575080630f8019881461376d57806312e81b80146119aa578063157a7ec7146136115780631e67939e1461348457806322dcd13e146134675780632c2b97a4146133e25780632dfa6768146133ba57806335742c631461333c57806340650c911461331a57806345714684146131ed57806346c39a1d146131cb5780634f1ef28614612f9c57806352d1902d14612f36578063539aa77f14610acb57806354fd4d5014612eef5780635678138814612d1f57806358f8d6ff14612d035780635fcd98e214612bac57806361a524a114612b4857806361d027b314612b2057806363fc152e14612ad057806369be46bf14612aa15780636cd5bf8f1461282b578063715018a6146127c457806373705573146124205780637ee839c4146122cc5780637f51bb1f146122855780638261efa714611e9f57806386d6cfb314611c0b57806388e81d8a14611b255780638d82427314611a935780638da5cb5b14611a5f5780638fda34bf14611a1757806394d95f8f146119f357806398d4c1dd146119aa578063a8c930571461198f578063ad3cb1cc14611944578063ad5a6982146117ee578063b1610d7e146117d1578063b6b3eedf14611779578063baccbfdb14611722578063bc38b8f71461161e578063bc5e0f3014611542578063c0c53b8b14611300578063c1cbbca714610e97578063c4ce74e014610e2e578063c580c94214610dd1578063cb815ab914610d19578063d0b7830b14610cdc578063d3631fa514610cbf578063d4bf578c14610b69578063d4cfc5dc14610b39578063d9a6722014610b1e578063e503bb0514610ae6578063ea0e35b114610acb578063ec6b733f146109f0578063efc80c161461090b578063f2fde38b146108e0578063f3890e1f146108c3578063f98a4eca14610721578063f9d040b814610540578063f9e9ad3914610523578063fc226bcc14610349578063fd81593f146103115763ffa1ad74146102f2575f80fd5b3461030d575f36600319011261030d57602060405160018152f35b5f80fd5b3461030d57602036600319011261030d576001600160a01b036103326137c7565b165f52600f602052602060405f2054604051908152f35b3461030d57602036600319011261030d57600435610365613c7d565b80158015610517575b61050857805f52600460205260405f209060038201549160ff8360281c1660058110156104f4576001036104e557815f52600560205260405f2060018060a01b0333165f5260205260405f20600281019182549460ff8660081c16156104d657845f52600960205260405f209160ff60025f94015460181c16806104c7575b1561046f5750505060015b1561046057600301925f8454945561ff0019169055610421823360018060a01b035f5416614191565b6040519182527f7c5e5cb62e5ed3caf3764e4b0afedfedef533e27809d43367799787ad2abcd4160203393a360015f5160206148795f395f51905f5255005b630c2eba2560e21b5f5260045ffd5b61048990600461048160ff8516613cf9565b9101546139aa565b421115610497575b506103f8565b60ff806064816104ab818660081c16613abb565b1604169160101c16106104bf575b85610491565b5060016104b9565b506104d186613a32565b6103ed565b631687e47360e31b5f5260045ffd5b63d883bee960e01b5f5260045ffd5b634e487b7160e01b5f52602160045260245ffd5b632fb08c4f60e11b5f5260045ffd5b5060025481101561036e565b3461030d575f36600319011261030d576020600354604051908152f35b3461030d5761054e36613919565b610556613c7d565b81158015610715575b610706575f828152600c6020526040902080549091906001600160a01b031633036106f757600882019260ff845416156106e85760038301928354908184116106d95761271082029082820461271014831517156106ab57600201549081156106c5576105dc6105d66106069361271093046141cc565b86613c5d565b04916105f2856105ec8582613c70565b92613c70565b86555f5433906001600160a01b0316614191565b610612816011546139aa565b601155335f52600e602052600560405f2054115f146106bf57335f52600e60205260405f205460041981019081116106ab575b335f52600e60205260405f205560405192835260208301527f9afd0ee3a19cb2b48004294a6891077bc04e270308738449a2798cd3cc7aa60b60403393a3541561069d575b60015f5160206148795f395f51905f5255005b805460ff191690558061068a565b634e487b7160e01b5f52601160045260245ffd5b5f610645565b634e487b7160e01b5f52601260045260245ffd5b631e9acf1760e31b5f5260045ffd5b637cc648f160e01b5f5260045ffd5b632be0096160e11b5f5260045ffd5b631bc5b4e960e11b5f5260045ffd5b5060035482101561055f565b3461030d57602036600319011261030d57600435801580156108b7575b61050857805f526004602052600360405f200160ff815460281c1660058110156104f4576002036108a857815f52600960205260405f206002810180549160ff8360101c16156108a857600101544211156108995760ff8260181c1661088a577f7da55ba157db41984697c3f1b900905283b3f9673437a67da9e3bfc9662c3a049260609260ff6107e88180630100000063ffff00001986161794858855169360081c16836139f2565b16801561087c5761080761ffff916108026113ec94613a06565b613a1e565b161061084a57805465ff000000000019166501000000000017905561082b84613e17565b5460ff6040519160018352818116602084015260081c166040820152a2005b6501000000000060ff60281b198254161790555460ff6040519160018352818116602084015260081c166040820152a2005b50506113ec61ffff5f610807565b63745266fd60e11b5f5260045ffd5b633483eb6360e01b5f5260045ffd5b639b8cc47560e01b5f5260045ffd5b5060025481101561073e565b3461030d575f36600319011261030d576020600254604051908152f35b3461030d57602036600319011261030d576109096108fc6137c7565b610904613d62565b613c30565b005b3461030d57602036600319011261030d57600435610927613c7d565b801580156109e4575b610706575f818152600c6020526040902080546001600160a01b031633036106f7576008810190815460ff8116156106e857600382016002815493015483106106d957610990935f9260ff19169055553360018060a01b035f5416614191565b335f52600e60205260405f20805490600a82018092116106ab575533907fdbd2de8162656b063ee98bde00a4a9cbcf05c27bca773cf331c6c4a39bab5e185f80a360015f5160206148795f395f51905f5255005b50600354811015610930565b3461030d57602036600319011261030d5760043580158015610abf575b610508575f81815260046020526040902060018101546001600160a01b03163303610ab05760038101549060ff8260281c1660058110156104f4576001036104e55760ff606481610a62818660081c16613abb565b16041660ff8360101c1610610aa157600461048160ff610a829416613cf9565b421115610a925761090990613e17565b63a217083960e01b5f5260045ffd5b63505768b960e11b5f5260045ffd5b6308f78f9960e31b5f5260045ffd5b50600254811015610a0d565b3461030d575f36600319011261030d57602060405160148152f35b3461030d57602036600319011261030d576001600160a01b03610b076137c7565b165f52600e602052602060405f2054604051908152f35b3461030d575f36600319011261030d57602060405160058152f35b3461030d57602036600319011261030d57600435600381101561030d57610b61602091613c17565b604051908152f35b3461030d57604036600319011261030d576004356024356001600160401b03811161030d573660238201121561030d578060040135916001600160401b03831161030d576024820191602436918560051b01011161030d5780158015610cb3575b610508575f81815260046020526040902060018101546001600160a01b03163303610ab0576003015460ff8160301c1660028110156104f457610ca45760281c60ff1660058110156104f4576001036104e5575f5b838110610c2857005b600190825f52600b60205260405f20610c4a610c45838888613bf3565b613c03565b838060a01b03165f5260205260405f208260ff19825416179055818060a01b03610c78610c45838888613bf3565b16837f6e32da99952e6892c42b54eec8c835d9a2e0a6c879c0219cc693229e6894175a5f80a301610c1f565b633a46c93160e01b5f5260045ffd5b50600254811015610bca565b3461030d575f36600319011261030d576020601154604051908152f35b3461030d575f36600319011261030d57610cf4613d62565b601180545f91829055905460015461090992916001600160a01b039182169116614191565b3461030d57602036600319011261030d576004355f52600660205260405f20604051806020835491828152019081935f5260205f20905f5b818110610db25750505081610d67910382613879565b604051918291602083019060208452518091526040830191905f5b818110610d90575050500390f35b82516001600160a01b0316845285945060209384019390920191600101610d82565b82546001600160a01b0316845260209093019260019283019201610d51565b3461030d57602036600319011261030d57600435610ded613d62565b60648111610dfa57601255005b60405162461bcd60e51b815260206004820152600c60248201526b0cccaca40e8dede40d0d2ced60a31b6044820152606490fd5b3461030d57602036600319011261030d576004355f52600960205260c060405f2060ff815491600260018201549101549060405193845260208401528181166040840152818160081c166060840152818160101c161515608084015260181c16151560a0820152f35b3461030d57602036600319011261030d57600435801580156112f4575b61050857805f52600460205260405f2060038101805460ff8160281c1660058110156104f4576003036112e557835f52600560205260405f2060018060a01b0333165f5260205260405f209060ff600283015460081c16156104d65760ff9060181c1692845f52600760205260405f2060ff85165f5260205260405f2060018060a01b0333165f5260205260ff60405f2054166112d6575f546002820180549094879492610f9c92610f7291309033906001600160a01b0316613cb5565b845f52600860205260405f20875f52602052610f9660ff60405f2054925416613c17565b906139aa565b42111561128657505050805460648102818104606414821517156106ab57612710900490845f52600560205260405f2060018060a01b0333165f5260205260405f206003610fea84846139aa565b910190808254115f1461127d57611002908254613c70565b90555b845f52600460205261101f600660405f20019182546139aa565b905561102d816011546139aa565b601155335f52600e60205283600560405f2054115f146112505750335f52600e60205260405f205460041981019081116106ab5784927fe424be6ebafcdee4341d3bfb4024c9ccd11789227ab9b4c8f5d4cb8db8d1188392611131925b335f52600e60205260405f2055335f52601060205260405f206110ad8154613aed565b90556040805160ff8816815233602082015286917fadfae21200a077d32929aeac100ac5a5390ce655175dd0f2982da63acd823ae791a35b5f84815260076020908152604080832060ff989098168084529782528083203380855290835292819020805460ff19166001179055925483519788529087019190915294918291820190565b0390a35f818152600460209081526040808320600690925282208054939190835b8560ff82161061118e575050600301549169ffffffffffffffffffff60ff8460101c1691161461117e57005b60ff6109099260181c1690614541565b6111988183613949565b90545f86815260056020908152604080832060039590951b9390931c6001600160a01b0316808352939052206002015460081c60ff169081611210575b506111e9575b6111e490613ad0565b611152565b9369ffffffffffffffffffff1669ffffffffffffffffffff81146106ab57600101936111db565b9050845f52600760205260405f2060ff80600387015460181c16165f5260205260405f209060018060a01b03165f5260205260ff60405f205416876111d5565b91611131907fe424be6ebafcdee4341d3bfb4024c9ccd11789227ab9b4c8f5d4cb8db8d11883925f61108a565b505f9055611005565b92611131916112cf60017fe424be6ebafcdee4341d3bfb4024c9ccd11789227ab9b4c8f5d4cb8db8d1188395966006855494016112c48582546139aa565b9055019182546139aa565b90556110e5565b6305d252c360e01b5f5260045ffd5b633fe6c08b60e21b5f5260045ffd5b50600254811015610eb4565b3461030d57606036600319011261030d576113196137c7565b6113216137dd565b6113296137f3565b905f5160206148995f395f51905f5254926001600160401b0360ff8560401c161594168015908161153a575b6001149081611530575b159081611527575b50611518578360016001600160401b03195f5160206148995f395f51905f525416175f5160206148995f395f51905f52556114e8575b6113a5614717565b6113ad614717565b6113b683613c30565b6113be614717565b6113c6614717565b60015f5160206148795f395f51905f52556113df614717565b6001600160a01b0316801580156114d7575b6114c8575f80546001600160a01b0319908116929092179055600180549091166001600160a01b0392831617815560028190556003556014601255811680151590816114a6575b50611497575b5061144557005b60ff60401b195f5160206148995f395f51905f5254165f5160206148995f395f51905f52557fc7f505b2f371ae2175ee4913f4499e1f2633a7b5936321eed1cdaeb6115181d2602060405160018152a1005b6114a090613d95565b8161143e565b5f5160206148395f395f51905f52546001600160a01b03161415905083611438565b63cfe2ea6360e01b5f5260045ffd5b506001600160a01b038216156113f1565b600160401b60ff60401b195f5160206148995f395f51905f525416175f5160206148995f395f51905f525561139d565b63f92ee8a960e01b5f5260045ffd5b90501585611367565b303b15915061135f565b859150611355565b3461030d57602036600319011261030d576004355f5260046020526101a060405f2080549060018060a01b0360018201541690600281015461160a600383015460ff81166004850154936006600587015496015496604051988952602089015260408801526115b08161390f565b606087015260ff8160081c16608087015260ff8160101c1660a087015260ff8160181c1660c087015260ff8160201c1660e08701526115f9610100870160ff8360281c1661392f565b60ff61012087019160301c1661393c565b610140840152610160830152610180820152f35b3461030d57602036600319011261030d576004355f90805f526004602052600360405f2001549160ff8360181c169160ff8460281c1660058110156104f45760031461168d575b5060809260ff91604051938452828260201c166020850152604084015260101c166060820152f35b805f52600660205260405f205f81549260ff8616915b8460ff8216106116b65750505050611665565b815f52600760205260405f20835f5260205260405f206116d68286613949565b905460039190911b1c6001600160a01b03165f908152602091909152604090205460ff1661170d575b61170890613ad0565b6116a3565b9461171a61170891613aed565b9590506116ff565b3461030d57602036600319011261030d5760606001600160a01b036117456137c7565b165f908152600e6020908152604080832054600f835281842054601084529382902054825191825292810193909352820152f35b3461030d57604036600319011261030d576117926137c7565b6001600160a01b03165f908152600d602052604090208054602435919082101561030d576020916117c291613949565b90549060031b1c604051908152f35b3461030d575f36600319011261030d5760206040516202a3008152f35b3461030d57602036600319011261030d576004355f52600c60205260405f2060018060a01b03815416600182019160405192835f82549261182e84613972565b808452936001811690811561192257506001146118de575b5061185392500384613879565b600281015490600381015490600481015460ff600583015416600683015490600784015492600960ff600887015416950154956118a46040519a8b9a8b5261014060208c01526101408b01906138eb565b9760408a0152606089015260808801526118bd8161390f565b60a087015260c086015260e085015215156101008401526101208301520390f35b90505f9291925260205f20905f915b8183106119065750509060206118539282010186611846565b6020919350806001915483858a010152019101909185926118ed565b90506020925061185394915060ff191682840152151560051b82010186611846565b3461030d575f36600319011261030d5761198b604051611965604082613879565b60058152640352e302e360dc1b60208201526040519182916020835260208301906138eb565b0390f35b3461030d575f36600319011261030d57602060405160648152f35b3461030d57604036600319011261030d576119c36137dd565b6004355f52600b60205260405f209060018060a01b03165f52602052602060ff60405f2054166040519015158152f35b3461030d575f36600319011261030d57602060405169010f0cf064dd592000008152f35b3461030d57611a2536613919565b905f52600660205260405f20805482101561030d57602091611a4691613949565b905460405160039290921b1c6001600160a01b03168152f35b3461030d575f36600319011261030d575f5160206148395f395f51905f52546040516001600160a01b039091168152602090f35b3461030d57602036600319011261030d5760c0600435805f52600960205260405f209060026001830154920154905f52600a60205260405f2060018060a01b0333165f5260205260ff8060405f205416916040519384528181166020850152818160081c166040850152818160101c161515606085015260181c1615156080830152611b1e8161390f565b60a0820152f35b3461030d57602036600319011261030d57611b3e6137c7565b6002546001600160a01b03909116905f60015b828110611bca5750611b6290613bad565b915f9060015b838110611b7d576040518061198b8782613809565b805f52600560205260405f20825f5260205260ff600260405f20015460081c16611baa575b600101611b68565b91611bc2816001611bbc819489613bdf565b52613aed565b929050611ba2565b805f52600560205260405f20845f5260205260ff600260405f20015460081c16611bf7575b600101611b51565b90611c03600191613aed565b919050611bef565b3461030d57602036600319011261030d57600435611c27613c7d565b80158015611e93575b61050857805f52600460205260405f206003810190815460ff8160281c1660058110156104f4576001036104e55760ff8160081c16908160ff8260101c1614611e84575f85815260056020908152604080832033845290915290206002015460081c60ff16611e765760301c60ff1660028110156104f45715611e47575b6002611cbb920154613de9565b5f54611cd5908290309033906001600160a01b0316613cb5565b600460405191611ce483613842565b5f835260208301905f8252611d78604085015f815260608601600181526080870193845260a0870194428652895f52600560205260405f2060018060a01b0333165f5260205260ff8060405f209951161660ff19895416178855516001880155611d616002880192511515839060ff801983541691151516179055565b51815461ff00191690151560081b61ff0016179055565b51600384015551910155815f526006602052611d973360405f20613b55565b611dc2611daa60ff835460101c16613ad0565b825462ff0000191660109190911b62ff000016178255565b33827fa7858a1f19449eeaf5fbe2692047577d00116ecb460791549c018c79e3ce483b5f80a35460ff808260081c169160101c1614611e0e5760015f5160206148795f395f51905f5255005b611e1781613e17565b7faf0f41c2e769faca4f3422a53417b14043b989e8d29fd8aa1f0fb10273d20f1f6020604051428152a28061068a565b5f848152600b6020908152604080832033845290915290205460ff16611cae5763779a6f4160e01b5f5260045ffd5b621d934160e11b5f5260045ffd5b63f277526560e01b5f5260045ffd5b50600254811015611c30565b3461030d57608036600319011261030d57611eb8613c7d565b331561227657600435670de0b6b3a764000081108015612263575b61225457600560ff611ee3613b45565b16108015612240575b61223157600254611efc81613aed565b600255611f1360ff611f0c613b45565b1683613de9565b9160643590600282101561030d57600182146121e2575b5f54611f44908590309033906001600160a01b0316613cb5565b60243590600382101561030d57611f59613b45565b94611f62613b45565b938560405191611f718361385d565b8183526020830198338a5260408401978689526060850197611f928161390f565b8852608085019160ff16825260a085016001815260c08601905f825260e087019260ff16835261010087019360018552610120880195611fd29087613ae1565b4261014089019081525f6101608a018181526101808b018281529982526004602052604090912099518a559e5160018a0180546001600160a01b0319166001600160a01b03929092169190911790559b5160028901559951600388019a906120398161390f565b612043908c613b2d565b518a5461ff00191660089190911b61ff0016178a5551895462ff0000191660109190911b62ff00001617895551885463ff000000191660189190911b63ff000000161788555187549060201b64ff00000000169064ff0000000019161787555160058110156104f45760ff60281b87549160281b169060ff60281b1916178655519060028210156104f4576020987f83b945859e19f480c406ac4e6ac635d422aad2665c1d65da9419b81d51ba61a8976121016006946060996139b7565b5160048501555160058401555191015560046040519161212083613842565b5f8352878301905f8252612199604085015f8152878601600181526080870193845260a08701944286528b5f5260058d5260405f2060018060a01b0333165f528d5260ff8060405f209951161660ff19895416178855516001880155611d616002880192511515839060ff801983541691151516179055565b51600384015551910155835f52600685526121b73360405f20613b55565b6040519084825233868301526040820152a160015f5160206148795f395f51905f5255604051908152f35b6706f05b59d3b20000840184116106ab576011546706f05b59d3b200008101106106ab5733837f46fc58301c2ea9f88a47be840edd44559d82b3c0a69ed37ac62f63b313540b615f80a3611f2a565b63027ee80d60e51b5f5260045ffd5b50601460ff61224d613b45565b1611611eec565b631717aceb60e31b5f5260045ffd5b5069010f0cf064dd592000008111611ed3565b6302154e0360e21b5f5260045ffd5b3461030d57602036600319011261030d5761229e6137c7565b6122a6613d62565b6001600160a01b031680156114c8576001600160601b0360a01b60015416176001555f80f35b3461030d57606036600319011261030d576122e56137c7565b6122ed6137dd565b60443560ff811680910361030d575f5160206148995f395f51905f52548160ff8260401c1691821561240c575b5050611518577fc7f505b2f371ae2175ee4913f4499e1f2633a7b5936321eed1cdaeb6115181d292602092826001600160401b03195f5160206148995f395f51905f525416175f5160206148995f395f51905f525560ff60401b195f5160206148995f395f51905f52541691600160401b83175f5160206148995f395f51905f52556123a4613d62565b6001600160a01b0316806123f5575b506001600160a01b0316806123dc575b505f5160206148995f395f51905f5255604051908152a1005b6001600160601b0360a01b6001541617600155846123c3565b6001600160601b0360a01b5f5416175f55856123b3565b6001600160401b031610159050818561231a565b3461030d57602036600319011261030d576004356001600160401b03811161030d57806004019060a0600319823603011261030d576024810135678ac7230489e80000811080156127b1575b6127a2576044820135918215612254576084810135428111156127935760646003549461249886613aed565b6003556124a58780613afb565b929094013591600383101561030d57604051946101408601918683106001600160401b038411176126bb576124e19260405233875236916138b5565b9260208501938452604085019286845260608601925f84526080870190815260a087019161250e8161390f565b825260c087019283524260e08801908152600161010089018181525f6101208b018181528d8252600c60205260409091209a518b546001600160a01b0319166001600160a01b0391909116178b55985180519198939793928b0191906001600160401b0382116126bb576125828354613972565b601f811161274e575b50602090601f83116001146126da5792826125ef96936126139b99969360099e9d9b99965f926126cf575b50508160011b915f199060031b1c19161790555b5160028c01555160038b01555160048a0155516125e68161390f565b60058901613b2d565b516006870155516007860155511515600885019060ff801983541691151516179055565b51910155335f52600d60205260405f2092835493600160401b8510156126bb576126857fb47a43768ee11a2c39a20c45e1527daa1433176193efb66ef41b41811516b4d49261266b878794600160209a018155613949565b81549060031b9085821b915f19901b191617905580613afb565b92908360405191888352818984015260408301375f604085830101526040813395601f80199101168101030190a4604051908152f35b634e487b7160e01b5f52604160045260245ffd5b015190505f806125b6565b90601f19831691845f52815f20925f5b8181106127365750936126139b99969360099e9d9b999693600193836125ef9b981061271e575b505050811b0190556125ca565b01515f1960f88460031b161c191690555f8080612711565b929360206001819287860151815501950193016126ea565b835f5260205f20601f840160051c81019160208510612789575b601f0160051c01905b81811061277e575061258b565b5f8155600101612771565b9091508190612768565b631da7447960e21b5f5260045ffd5b631f5aab1b60e21b5f5260045ffd5b50690a968163f0a57b400000811161246c565b3461030d575f36600319011261030d576127dc613d62565b5f5160206148395f395f51905f5280546001600160a01b031981169091555f906001600160a01b03167f8be0079c531659141344cd1fd0a4f28419497f9722a3daafe3b4186f6b6457e08280a3005b3461030d57602036600319011261030d576004355f61018060405161284f8161385d565b8281528260208201528260408201528260608201528260808201528260a08201528260c08201528260e08201528261010082015282610120820152826101408201528261016082015201525f815f52600460205260405f2090604051916128b58361385d565b8054835260018101546001600160a01b031660208401526002810154604084015260038101549060ff82166128e98161390f565b606085015260ff8260081c16608085015260ff8260101c1660a085015260ff8260181c1660c085015260ff8260201c1660e085015260ff8260281c169160058310156104f45760ff61294c9160069461010088015260301c166101208601613ae1565b60048101546101408501526005810154610160850152015461018083015260ff60a0830151166101008301519360058510156104f45760036102009514612a78575b5060ff908160a085015116926064836129ac81608089015116613abb565b160491610180604051968051885260018060a01b0360208201511660208901526040810151604089015260608101516129e48161390f565b60608901528560808201511660808901528560a08201511660a08901528560c08201511660c08901528560e08201511660e0890152612a2d6101008201516101008a019061392f565b612a416101208201516101208a019061393c565b61014081015161014089015261016081015161016089015201516101808701526101a08601526101c08501521611156101e0820152f35b9091505f52600860205260405f2060ff60c0840151165f5260205260ff60405f2054919061298e565b3461030d57612aaf36613919565b905f52600860205260405f20905f52602052602060405f2054604051908152f35b3461030d57604036600319011261030d57612ae96137dd565b6004355f52600a60205260405f209060018060a01b03165f52602052602060ff60405f20541660405190612b1c8161390f565b8152f35b3461030d575f36600319011261030d576001546040516001600160a01b039091168152602090f35b3461030d57606036600319011261030d5760243560ff8116810361030d57612b6e6137f3565b906004355f52600760205260ff60405f2091165f5260205260405f209060018060a01b03165f52602052602060ff60405f2054166040519015158152f35b3461030d57602036600319011261030d57600435612bc8613c7d565b80158015612cf7575b610706575f818152600c6020526040902080546001600160a01b031633036106f75760ff600882015416156106e8576009810190815480612cd7575b505f5460048201805460029392612c319190309033906001600160a01b0316613cb5565b546003820193612c428286546139aa565b809555429055604051908152847ff8dcd2004b46a5e4335af67b6a35f66ce85cdb18dd62428d855d7630f46e275760203393a301541115612c905760015f5160206148795f395f51905f5255005b335f52600e60205260405f20805490600a82018092116106ab575533907fdbd2de8162656b063ee98bde00a4a9cbcf05c27bca773cf331c6c4a39bab5e185f80a38061068a565b612ceb90610f9660ff600585015416613d33565b42116112d65783612c0d565b50600354811015612bd1565b3461030d575f36600319011261030d5760206040516113ec8152f35b3461030d57604036600319011261030d57602435600435600382101561030d5780158015612ee3575b61050857612d558261390f565b8115612ed457805f52600460205260ff600360405f20015460281c1660058110156104f4576002036108a8575f81815260056020908152604080832033845290915290206002015460081c60ff16156104d657805f52600960205260405f20600281019060ff825460101c16156108a857600101544211612ec5575f828152600a6020908152604080832033845290915290205460ff16612df58161390f565b612eb6575f828152600a602090815260408083203384529091529020612e1a8461390f565b60ff1981541660ff8516179055612e308361390f565b60018303612e885760ff612e4681835416613ad0565b1660ff198254161790555b60405191612e5e8161390f565b82527feba4866100b822f0f391e610e7edfab790b9e8766c0012733c26b2f1858e8dd760203393a3005b80612e9c60ff612eb1935460081c16613ad0565b61ff0082549160081b169061ff001916179055565b612e51565b637c9a1cf960e01b5f5260045ffd5b63370ec37160e21b5f5260045ffd5b6364a2c03160e11b5f5260045ffd5b50600254811015612d48565b3461030d575f36600319011261030d5761198b604051612f10604082613879565b60058152640312e302e360dc1b60208201526040519182916020835260208301906138eb565b3461030d575f36600319011261030d577f00000000000000000000000000000000000000000000000000000000000000006001600160a01b03163003612f8d5760206040515f5160206148595f395f51905f528152f35b63703e46dd60e11b5f5260045ffd5b604036600319011261030d57612fb06137c7565b6024356001600160401b03811161030d573660238201121561030d57612fe09036906024816004013591016138b5565b6001600160a01b037f0000000000000000000000000000000000000000000000000000000000000000163081149081156131a9575b50612f8d57613022613d62565b60018060a01b03821691827f8c26ec1c89a900331babb88eefa754f9b9ed370abe61944d6874e37612764c3f602060405160018152a26040516352d1902d60e01b8152602081600481875afa5f9181613175575b5061308e5783634c9c8ce360e01b5f5260045260245ffd5b805f5160206148595f395f51905f528592036131635750813b15613151575f5160206148595f395f51905f5280546001600160a01b031916821790557fbc7cd75a20ee27fd9adebab32041f755214dbc6bffa90cc0225b39da2e5c2d3b5f80a2815115613139575f8083602061090995519101845af43d15613131573d916131158361389a565b926131236040519485613879565b83523d5f602085013e6147da565b6060916147da565b50503461314257005b63b398979f60e01b5f5260045ffd5b634c9c8ce360e01b5f5260045260245ffd5b632a87526960e21b5f5260045260245ffd5b9091506020813d6020116131a1575b8161319160209383613879565b8101031261030d57519085613076565b3d9150613184565b5f5160206148595f395f51905f52546001600160a01b03161415905083613015565b3461030d575f36600319011261030d5760206040516706f05b59d3b200008152f35b3461030d57602036600319011261030d576004358015801561330e575b61050857805f52600460205260405f20600381019081549060ff8260281c1660058110156104f4576001036104e55760ff60648161324c818660081c16613abb565b16041660ff8360101c1610610aa157600461048160ff61326c9416613cf9565b421015610a9257815f52600960205260405f209060028201805460ff8160101c166108995760181c60ff166132ff574283556202a3004201928342116106ab57600101928355805463ffffffff191662010000179055805465ff000000000019166502000000000017905554907ff4e39a27c6c29179b6afb3a070360307cdbda13933023287f5ca10a69b3628e25f80a3005b63f792f8f960e01b5f5260045ffd5b5060025481101561320a565b3461030d575f36600319011261030d576020604051670de0b6b3a76400008152f35b3461030d57602036600319011261030d576001600160a01b0361335d6137c7565b165f52600d60205260405f206040519081602082549182815201915f5260205f20905f5b8181106133a45761198b8561339881870382613879565b60405191829182613809565b8254845260209093019260019283019201613381565b3461030d57602036600319011261030d5760206133d8600435613a32565b6040519015158152f35b3461030d57604036600319011261030d576133fb6137dd565b6004355f52600560205260405f209060018060a01b03165f5260205260c060405f2060ff8154169060018101549060ff6002820154600460038401549301549360405195865260208601528181161515604086015260081c1615156060840152608083015260a0820152f35b3461030d575f36600319011261030d576020601254604051908152f35b3461030d57604036600319011261030d576004356134a06137dd565b905f60a06040516134b081613842565b82815282602082015282604082015282606082015282608082015201525f5f90825f52600560205260405f2060018060a01b0385165f5260205260405f2092604051936134fc85613842565b60ff8154168552600181015460208601908152600282015490604087019060ff83161515825260ff606089019360081c1615158352600460038501549460808a0195865201549460a08901958652805f526004602052600360405f20015460ff8160281c169a60058c10156104f45760036101009c146135b4575b50505060ff6040519851168852516020880152511515604087015251151560608601525160808501525160a0840152151560c083015260e0820152f35b919750919750865f52600760205260ff60405f209260181c169160ff83165f5260205260405f209060018060a01b03165f5260205260ff60405f205416955f52600860205260405f20905f5260205260405f205495898080613577565b3461030d57604036600319011261030d57600435602435600281101561030d57613639613c7d565b81158015613761575b610508575f82815260046020526040902060018101546001600160a01b03163303610ab05760030190815460ff8160281c1660058110156104f4576001036137525760301c60ff1660028110156104f4578114613743575f546040516323b872dd60e01b60208201523360248201523060448201526706f05b59d3b2000060648083019190915281526136e8916001600160a01b03166136e3608483613879565b61420a565b601154916706f05b59d3b2000083018093116106ab5761370a926011556139b7565b33907f46fc58301c2ea9f88a47be840edd44559d82b3c0a69ed37ac62f63b313540b615f80a360015f5160206148795f395f51905f5255005b63051a3ed560e11b5f5260045ffd5b63a407615b60e01b5f5260045ffd5b50600254821015613642565b3461030d57602036600319011261030d576001600160a01b0361378e6137c7565b165f526010602052602060405f2054604051908152f35b3461030d575f36600319011261030d575f546001600160a01b03168152602090f35b600435906001600160a01b038216820361030d57565b602435906001600160a01b038216820361030d57565b604435906001600160a01b038216820361030d57565b60206040818301928281528451809452019201905f5b81811061382c5750505090565b825184526020938401939092019160010161381f565b60c081019081106001600160401b038211176126bb57604052565b6101a081019081106001600160401b038211176126bb57604052565b90601f801991011681019081106001600160401b038211176126bb57604052565b6001600160401b0381116126bb57601f01601f191660200190565b9291926138c18261389a565b916138cf6040519384613879565b82948184528183011161030d578281602093845f960137010152565b805180835260209291819084018484015e5f828201840152601f01601f1916010190565b600311156104f457565b604090600319011261030d576004359060243590565b9060058210156104f45752565b9060028210156104f45752565b805482101561395e575f5260205f2001905f90565b634e487b7160e01b5f52603260045260245ffd5b90600182811c921680156139a0575b602083101461398c57565b634e487b7160e01b5f52602260045260245ffd5b91607f1691613981565b919082018092116106ab57565b9060028110156104f45766ff00000000000082549160301b169066ff0000000000001916179055565b60ff60019116019060ff82116106ab57565b9060ff8091169116019060ff82116106ab57565b61ffff6127109116029061ffff82169182036106ab57565b9061ffff169081156106c55761ffff160490565b805f52600460205260405f20905f526009602052600260405f2001549060ff8260181c1615613ab5576003015460281c60ff1660058110156104f457600314613ab05760ff613a89818084169360081c16836139f2565b168015613aa857613aa361ffff916108026113ec94613a06565b161090565b506001919050565b505f90565b50505f90565b60ff603c9116029060ff82169182036106ab57565b60ff1660ff81146106ab5760010190565b60028210156104f45752565b5f1981146106ab5760010190565b903590601e198136030182121561030d57018035906001600160401b03821161030d5760200191813603831361030d57565b90613b378161390f565b60ff80198354169116179055565b60443560ff8116810361030d5790565b8054600160401b8110156126bb57613b7291600182018155613949565b81546001600160a01b0393841660039290921b91821b9390911b1916919091179055565b6001600160401b0381116126bb5760051b60200190565b90613bb782613b96565b613bc46040519182613879565b8281528092613bd5601f1991613b96565b0190602036910137565b805182101561395e5760209160051b010190565b919081101561395e5760051b0190565b356001600160a01b038116810361030d5790565b613c208161390f565b15613c2c576202a30090565b5f90565b6001600160a01b03811615613c4a57613c4890613d95565b565b631e4fbdf760e01b5f525f60045260245ffd5b818102929181159184041417156106ab57565b919082039182116106ab57565b60025f5160206148795f395f51905f525414613ca65760025f5160206148795f395f51905f5255565b633ee5aeb560e01b5f5260045ffd5b6040516323b872dd60e01b60208201526001600160a01b039283166024820152929091166044830152606480830193909352918152613c48916136e3608483613879565b613d028161390f565b8015908115613d1f575b50613d18576212750090565b62093a8090565b60019150613d2c8161390f565b145f613d0c565b613d3c8161390f565b8015613d5a57600190613d4e8161390f565b14613d185762278d0090565b506201518090565b5f5160206148395f395f51905f52546001600160a01b03163303613d8257565b63118cdaa760e01b5f523360045260245ffd5b5f5160206148395f395f51905f5280546001600160a01b039283166001600160a01b0319821681179092559091167f8be0079c531659141344cd1fd0a4f28419497f9722a3daafe3b4186f6b6457e05f80a3565b90613df391613c5d565b6064810290808204606414811517156106ab57612710613e149204906139aa565b90565b5f8181526004602090815260408083206006835281842060058452828520600180840180546001600160a01b03908116895292875296859020805460ff191682179055955493519586529596909590949216929091839187917ffc79da6c5316f4c3a2841a4a8ee84045b0cda7f9c0b91deec048b7f26d4293cf9190a383545f198101948186116106ab57613eab86613b96565b91613eb96040519384613879565b868352601f19613ec888613b96565b01366020850137613ed887613bad565b945f905f5b8360ff8216106140b75750505050505f955b60ff87169486861015613f8357613f05886139e0565b60ff811688811015613f6f579081613f20613f389389613bdf565b51613f2b8a8a613bdf565b5110613f3d575b50613ad0565b613f05565b613f68613f4a8a8a613bdf565b5191613f56818b613bdf565b51613f618c8c613bdf565b5289613bdf565b525f613f32565b5050945095613f7d90613ad0565b95613eef565b92959650925092505f5b60ff81169086821015614032576002820160ff81116106ab57847ffc79da6c5316f4c3a2841a4a8ee84045b0cda7f9c0b91deec048b7f26d4293cf602061402d95835f526005825260405f2060018060a01b03613fea838d613bdf565b516001600160a01b03911681165f9081529184526040909120805460ff191660ff88161790559061401b908b613bdf565b51169360ff60405191168152a3613ad0565b613f8d565b50506003840180544260059096018690556503000100000065ff00ff00000019821617909155909450613c489391925061406f919060ff1661426d565b815f52600860205260405f2060015f5260205260405f2055807faf0f41c2e769faca4f3422a53417b14043b989e8d29fd8aa1f0fb10273d20f1f6020604051428152a26142be565b816140c28287613949565b905460039190911b1c6001600160a01b0316036140e8575b6140e390613ad0565b613edd565b916140f38386613949565b905460039190911b1c6001600160a01b031661410f8288613bdf565b5261411a8386613949565b60018060a01b0391549060031b1c165f52600e60205260405f2054906141408487613949565b60018060a01b0391549060031b1c165f52600f60205260405f205490600a820291808304600a14901517156106ab5761417f614189926140e3946139aa565b611bbc828c613bdf565b9290506140da565b60405163a9059cbb60e01b60208201526001600160a01b039092166024830152604480830193909352918152613c48916136e3606483613879565b6109c481106142045761138881106141fe57611d4c81106141f857612710116141f3575f90565b600a90565b50601e90565b50603c90565b50606490565b905f602091828151910182855af115614262575f513d61425957506001600160a01b0381163b155b6142395750565b635274afe760e01b5f9081526001600160a01b0391909116600452602490fd5b60011415614232565b6040513d5f823e3d90fd5b6142768161390f565b80156142ad576001906142888161390f565b1461429d5762278d0081018091116106ab5790565b62093a8081018091116106ab5790565b506201518081018091116106ab5790565b805f52600460205260405f206142d5600183614742565b906001600160a01b038216801561453b57835f52600560205260405f20815f52602052600260405f200160ff81541661453457600683019081549460018060a01b0360018601541684036144f6575b9061433b865f949360018060a01b03865416614191565b600160ff1982541617905555805f52600e60205260405f20805493600585018095116106ab577f52e998e38a9505deab1cc0e4a47bdd8426a6fde45f6693db2fd122e537fcf22b6020879260039760019555855f52600f825260405f206143a28154613aed565b9055604051908152a401805460201c60ff16600110156143f857805463ff000000191663020000001781556143de9060ff905b5416429061426d565b905f52600860205260405f2060015f5260205260405f2055565b6504000000000060ff60281b19825416179055805f52600660205260405f205f5b815460ff821610156144ce5761447a90835f52600560205260405f2061443f8285613949565b905460039190911b1c6001600160a01b03165f90815260209190915260409020600281015460081c60ff16806144c1575b61447f5750613ad0565b614419565b60030180545f9182905590546144bb91906001600160a01b03166144a38487613949565b905460039190911b1c6001600160a01b031690614191565b5f613f32565b5060038101541515614470565b50507ffccd3901546cfbb42742cac2c7335bce34f1f8d9844f4f4b53640f79e31010875f80a2565b9061433b614526965f949361451b61271061451360125485613c5d565b048093613c70565b9889926011546139aa565b601155929394505050614324565b5050505050565b50505050565b90815f52600460205260405f209060ff81169161455e8385614742565b906001600160a01b038216801561470f57855f52600560205260405f20815f52602052600260405f200160ff81541661470657600683019081549460018060a01b0360018601541684036146db575b906145c4865f949360018060a01b03865416614191565b600160ff1982541617905555805f52600e60205260405f20805493600585018095116106ab577f52e998e38a9505deab1cc0e4a47bdd8426a6fde45f6693db2fd122e537fcf22b602089926003978a9555855f52600f825260405f2061462a8154613aed565b9055604051908152a4019060ff825460201c1683105f1461468a57614671916143d561465760ff936139e0565b825463ff000000191660189190911b63ff00000016178255565b915f52600860205260405f20905f5260205260405f2055565b50805465ff0000000000191665040000000000179055505f818152600660205260408120905b815460ff821610156144ce576146d690835f52600560205260405f2061443f8285613949565b6146b0565b906145c46146f8965f949361451b61271061451360125485613c5d565b6011559293945050506145ad565b50505050505050565b505050505050565b60ff5f5160206148995f395f51905f525460401c161561473357565b631afcd79f60e31b5f5260045ffd5b90815f52600660205260405f20905f928254935b8460ff8216106147695750505050505f90565b815f52600560205260405f2061477f8286613949565b905460039190911b1c6001600160a01b03165f908152602091909152604090205460ff1683146147b7576147b290613ad0565b614756565b929150506147c59250613949565b905460039190911b1c6001600160a01b031690565b906147fe57508051156147ef57602081519101fd5b63d6bda27560e01b5f5260045ffd5b8151158061482f575b61480f575090565b639996b31560e01b5f9081526001600160a01b0391909116600452602490fd5b50803b1561480756fe9016d09d72d40fdae2fd8ceac6b6234c7706214fd39c1cd1e609a0528c199300360894a13ba1a3210667c828492db98dca3e2076cc3735a920a3ca505d382bbc9b779b17422d0df92223018b32b4d1fa46e071723d6817e2486d003becc55f00f0c57e16840df040f15088dc2f81fe391c3923bec73e23a9662efc9c229c6a00a2646970667358221220e5a3d6af62233eacc08f8c9e2361ca12bb367d924a8bed3aaffe24945cd1cf2d64736f6c634300081e0033f0c57e16840df040f15088dc2f81fe391c3923bec73e23a9662efc9c229c6a00",
    "sourcePath": "/home/isiaq/workspace/CirclePot/smart-contract/src/CirclePotV1.sol",
    "compiler": {
        "name": "solc",
        "version": "0.8.30+commit.73712a01"
    },
    "functionHashes": {
        "CompleteGoal(uint256)": "efc80c16",
        "ContributeToGoal(uint256)": "5fcd98e2",
        "LATE_FEE_BPS()": "a8c93057",
        "MAX_CONTRIBUTION()": "94d95f8f",
        "MAX_MEMBERS()": "ea0e35b1",
        "MIN_CONTRIBUTION()": "40650c91",
        "MIN_MEMBERS()": "d9a67220",
        "PLATFORM_FEE_BPS()": "539aa77f",
        "START_VOTE_THRESHOLD()": "58f8d6ff",
        "UPGRADE_INTERFACE_VERSION()": "ad3cb1cc",
        "VERSION()": "ffa1ad74",
        "VISIBILITY_UPDATE_FEE()": "46c39a1d",
        "VOTING_PERIOD()": "b1610d7e",
        "WithdrawCollateral(uint256)": "fc226bcc",
        "_getGracePeriod(uint8)": "d4cfc5dc",
        "cUSDToken()": "0ea86ad8",
        "canWithdrawAfterVote(uint256)": "2dfa6768",
        "castVote(uint256,uint8)": "56781388",
        "circleCounter()": "f3890e1f",
        "circleInvitations(uint256,address)": "98d4c1dd",
        "circleMemberList(uint256,uint256)": "8fda34bf",
        "circleMembers(uint256,address)": "2c2b97a4",
        "circleRoundDeadlines(uint256,uint256)": "69be46bf",
        "circleVotes(uint256)": "c4ce74e0",
        "circles(uint256)": "bc5e0f30",
        "completedCircles(address)": "fd81593f",
        "contribute(uint256)": "c1cbbca7",
        "createCircle((uint256,uint8,uint8,uint8))": "8261efa7",
        "createPersonalGoal((string,uint256,uint256,uint8,uint256))": "73705573",
        "executeVote(uint256)": "f98a4eca",
        "getCircleDetails(uint256)": "6cd5bf8f",
        "getCircleMembers(uint256)": "cb815ab9",
        "getCircleProgress(uint256)": "bc38b8f7",
        "getMemberInfo(uint256,address)": "1e67939e",
        "getUserCircles(address)": "88e81d8a",
        "getUserGoals(address)": "35742c63",
        "getUserReputation(address)": "baccbfdb",
        "getVoteInfo(uint256)": "8d824273",
        "goalCounter()": "f9e9ad39",
        "initialize(address,address,address)": "c0c53b8b",
        "initiateVoting(uint256)": "45714684",
        "inviteMembers(uint256,address[])": "d4bf578c",
        "isInvited(uint256,address)": "12e81b80",
        "joinCircle(uint256)": "86d6cfb3",
        "latePayments(address)": "0f801988",
        "memberVotes(uint256,address)": "63fc152e",
        "owner()": "8da5cb5b",
        "personalGoals(uint256)": "ad5a6982",
        "platformFeeBps()": "22dcd13e",
        "proxiableUUID()": "52d1902d",
        "renounceOwnership()": "715018a6",
        "roundContributions(uint256,uint8,address)": "61a524a1",
        "setPlatformFeeBps(uint256)": "c580c942",
        "startCircle(uint256)": "ec6b733f",
        "totalPlatformFees()": "d3631fa5",
        "transferOwnership(address)": "f2fde38b",
        "treasury()": "61d027b3",
        "updateCircleVisibility(uint256,uint8)": "157a7ec7",
        "updateTreasury(address)": "7f51bb1f",
        "upgrade(address,address,uint8)": "7ee839c4",
        "upgradeToAndCall(address,bytes)": "4f1ef286",
        "userGoals(address,uint256)": "b6b3eedf",
        "userReputation(address)": "e503bb05",
        "version()": "54fd4d50",
        "withdrawFromGoal(uint256,uint256)": "f9d040b8",
        "withdrawPlatformFees()": "d0b7830b"
    },
    "gasEstimates": {
        "creation": {
            "codeDepositCost": "3734000",
            "executionCost": "infinite",
            "totalCost": "infinite"
        },
        "external": {
            "CompleteGoal(uint256)": "infinite",
            "ContributeToGoal(uint256)": "infinite",
            "LATE_FEE_BPS()": "945",
            "MAX_CONTRIBUTION()": "901",
            "MAX_MEMBERS()": "1363",
            "MIN_CONTRIBUTION()": "351",
            "MIN_MEMBERS()": "1319",
            "PLATFORM_FEE_BPS()": "461",
            "START_VOTE_THRESHOLD()": "527",
            "UPGRADE_INTERFACE_VERSION()": "1270",
            "VERSION()": "1580",
            "VISIBILITY_UPDATE_FEE()": "395",
            "VOTING_PERIOD()": "1011",
            "WithdrawCollateral(uint256)": "infinite",
            "_getGracePeriod(uint8)": "1427",
            "cUSDToken()": "2265",
            "canWithdrawAfterVote(uint256)": "5064",
            "castVote(uint256,uint8)": "infinite",
            "circleCounter()": "3554",
            "circleInvitations(uint256,address)": "3255",
            "circleMemberList(uint256,uint256)": "7462",
            "circleMembers(uint256,address)": "11167",
            "circleRoundDeadlines(uint256,uint256)": "2908",
            "circleVotes(uint256)": "7698",
            "circles(uint256)": "16386",
            "completedCircles(address)": "3814",
            "contribute(uint256)": "infinite",
            "createCircle((uint256,uint8,uint8,uint8))": "infinite",
            "createPersonalGoal((string,uint256,uint256,uint8,uint256))": "infinite",
            "executeVote(uint256)": "infinite",
            "getCircleDetails(uint256)": "infinite",
            "getCircleMembers(uint256)": "infinite",
            "getCircleProgress(uint256)": "infinite",
            "getMemberInfo(uint256,address)": "infinite",
            "getUserCircles(address)": "infinite",
            "getUserGoals(address)": "infinite",
            "getUserReputation(address)": "7677",
            "getVoteInfo(uint256)": "7570",
            "goalCounter()": "3620",
            "initialize(address,address,address)": "infinite",
            "initiateVoting(uint256)": "infinite",
            "inviteMembers(uint256,address[])": "infinite",
            "isInvited(uint256,address)": "2529",
            "joinCircle(uint256)": "infinite",
            "latePayments(address)": "2428",
            "memberVotes(uint256,address)": "2998",
            "owner()": "infinite",
            "personalGoals(uint256)": "infinite",
            "platformFeeBps()": "2366",
            "proxiableUUID()": "infinite",
            "renounceOwnership()": "28646",
            "roundContributions(uint256,uint8,address)": "3007",
            "setPlatformFeeBps(uint256)": "infinite",
            "startCircle(uint256)": "infinite",
            "totalPlatformFees()": "3356",
            "transferOwnership(address)": "29571",
            "treasury()": "2720",
            "updateCircleVisibility(uint256,uint8)": "infinite",
            "updateTreasury(address)": "27264",
            "upgrade(address,address,uint8)": "infinite",
            "upgradeToAndCall(address,bytes)": "infinite",
            "userGoals(address,uint256)": "7657",
            "userReputation(address)": "3594",
            "version()": "786",
            "withdrawFromGoal(uint256,uint256)": "infinite",
            "withdrawPlatformFees()": "infinite"
        },
        "internal": {
            "_assignPosition(uint256)": "infinite",
            "_authorizeUpgrade(address)": "infinite",
            "_calcCollateral(uint256,uint256)": "241",
            "_checkComplete(uint256)": "infinite",
            "_freqSeconds(enum CirclePotV1.Frequency)": "infinite",
            "_getByPos(uint256,uint256)": "infinite",
            "_handleLate(uint256,uint8,uint256)": "infinite",
            "_nextDeadline(enum CirclePotV1.Frequency,uint256)": "infinite",
            "_payoutRound(uint256,uint8)": "infinite",
            "_penaltyBps(uint256)": "101",
            "_progressNextRound(struct CirclePotV1.Circle storage pointer,uint256,uint8)": "infinite",
            "_releaseAllCollateral(uint256)": "infinite",
            "_startCircleInternal(uint256)": "infinite",
            "_ultimatum(enum CirclePotV1.Frequency)": "infinite"
        }
    }
}