{
    "contractName": "CirclePotV1",
    "abi": [
        {
            "inputs": [],
            "stateMutability": "nonpayable",
            "type": "constructor"
        },
        {
            "inputs": [
                {
                    "internalType": "address",
                    "name": "target",
                    "type": "address"
                }
            ],
            "name": "AddressEmptyCode",
            "type": "error"
        },
        {
            "inputs": [],
            "name": "AddressZeroNotAllowed",
            "type": "error"
        },
        {
            "inputs": [],
            "name": "AlreadyContributed",
            "type": "error"
        },
        {
            "inputs": [],
            "name": "AlreadyJoined",
            "type": "error"
        },
        {
            "inputs": [],
            "name": "AlreadyVoted",
            "type": "error"
        },
        {
            "inputs": [],
            "name": "CircleFull",
            "type": "error"
        },
        {
            "inputs": [],
            "name": "CircleNotActive",
            "type": "error"
        },
        {
            "inputs": [],
            "name": "CircleNotExist",
            "type": "error"
        },
        {
            "inputs": [],
            "name": "CircleNotOpen",
            "type": "error"
        },
        {
            "inputs": [],
            "name": "CircleNotPrivate",
            "type": "error"
        },
        {
            "inputs": [
                {
                    "internalType": "address",
                    "name": "implementation",
                    "type": "address"
                }
            ],
            "name": "ERC1967InvalidImplementation",
            "type": "error"
        },
        {
            "inputs": [],
            "name": "ERC1967NonPayable",
            "type": "error"
        },
        {
            "inputs": [],
            "name": "FailedCall",
            "type": "error"
        },
        {
            "inputs": [],
            "name": "GoalNotActive",
            "type": "error"
        },
        {
            "inputs": [],
            "name": "InsufficientBalance",
            "type": "error"
        },
        {
            "inputs": [],
            "name": "InvalidCircle",
            "type": "error"
        },
        {
            "inputs": [],
            "name": "InvalidContributionAmount",
            "type": "error"
        },
        {
            "inputs": [],
            "name": "InvalidDeadline",
            "type": "error"
        },
        {
            "inputs": [],
            "name": "InvalidGoalAmount",
            "type": "error"
        },
        {
            "inputs": [],
            "name": "InvalidInitialization",
            "type": "error"
        },
        {
            "inputs": [],
            "name": "InvalidMemberCount",
            "type": "error"
        },
        {
            "inputs": [],
            "name": "InvalidSavingGoal",
            "type": "error"
        },
        {
            "inputs": [],
            "name": "InvalidTreasuryAddress",
            "type": "error"
        },
        {
            "inputs": [],
            "name": "InvalidVoteChoice",
            "type": "error"
        },
        {
            "inputs": [],
            "name": "MinMembersNotReached",
            "type": "error"
        },
        {
            "inputs": [],
            "name": "NotActiveMember",
            "type": "error"
        },
        {
            "inputs": [],
            "name": "NotGoalOwner",
            "type": "error"
        },
        {
            "inputs": [],
            "name": "NotInitializing",
            "type": "error"
        },
        {
            "inputs": [],
            "name": "NotInvited",
            "type": "error"
        },
        {
            "inputs": [],
            "name": "OnlyCreator",
            "type": "error"
        },
        {
            "inputs": [
                {
                    "internalType": "address",
                    "name": "owner",
                    "type": "address"
                }
            ],
            "name": "OwnableInvalidOwner",
            "type": "error"
        },
        {
            "inputs": [
                {
                    "internalType": "address",
                    "name": "account",
                    "type": "address"
                }
            ],
            "name": "OwnableUnauthorizedAccount",
            "type": "error"
        },
        {
            "inputs": [],
            "name": "ReentrancyGuardReentrantCall",
            "type": "error"
        },
        {
            "inputs": [
                {
                    "internalType": "address",
                    "name": "token",
                    "type": "address"
                }
            ],
            "name": "SafeERC20FailedOperation",
            "type": "error"
        },
        {
            "inputs": [],
            "name": "SameVisibility",
            "type": "error"
        },
        {
            "inputs": [],
            "name": "UUPSUnauthorizedCallContext",
            "type": "error"
        },
        {
            "inputs": [
                {
                    "internalType": "bytes32",
                    "name": "slot",
                    "type": "bytes32"
                }
            ],
            "name": "UUPSUnsupportedProxiableUUID",
            "type": "error"
        },
        {
            "inputs": [],
            "name": "UltimatumNotPassed",
            "type": "error"
        },
        {
            "inputs": [],
            "name": "UltimatumNotReached",
            "type": "error"
        },
        {
            "inputs": [],
            "name": "VoteAlreadyExecuted",
            "type": "error"
        },
        {
            "inputs": [],
            "name": "VotingAlreadyExecuted",
            "type": "error"
        },
        {
            "inputs": [],
            "name": "VotingNotActive",
            "type": "error"
        },
        {
            "inputs": [],
            "name": "VotingPeriodEnded",
            "type": "error"
        },
        {
            "inputs": [],
            "name": "VotingStillActive",
            "type": "error"
        },
        {
            "anonymous": false,
            "inputs": [
                {
                    "indexed": true,
                    "internalType": "uint256",
                    "name": "circleId",
                    "type": "uint256"
                }
            ],
            "name": "CircleCompleted",
            "type": "event"
        },
        {
            "anonymous": false,
            "inputs": [
                {
                    "indexed": false,
                    "internalType": "uint256",
                    "name": "circleId",
                    "type": "uint256"
                },
                {
                    "indexed": false,
                    "internalType": "address",
                    "name": "creator",
                    "type": "address"
                },
                {
                    "indexed": false,
                    "internalType": "uint256",
                    "name": "contributionAmount",
                    "type": "uint256"
                }
            ],
            "name": "CircleCreated",
            "type": "event"
        },
        {
            "anonymous": false,
            "inputs": [
                {
                    "indexed": true,
                    "internalType": "uint256",
                    "name": "circleId",
                    "type": "uint256"
                },
                {
                    "indexed": true,
                    "internalType": "address",
                    "name": "member",
                    "type": "address"
                }
            ],
            "name": "CircleJoined",
            "type": "event"
        },
        {
            "anonymous": false,
            "inputs": [
                {
                    "indexed": true,
                    "internalType": "uint256",
                    "name": "circleId",
                    "type": "uint256"
                },
                {
                    "indexed": false,
                    "internalType": "uint256",
                    "name": "startedAt",
                    "type": "uint256"
                }
            ],
            "name": "CircleStarted",
            "type": "event"
        },
        {
            "anonymous": false,
            "inputs": [
                {
                    "indexed": true,
                    "internalType": "uint256",
                    "name": "circleId",
                    "type": "uint256"
                },
                {
                    "indexed": true,
                    "internalType": "address",
                    "name": "member",
                    "type": "address"
                },
                {
                    "indexed": false,
                    "internalType": "uint256",
                    "name": "amount",
                    "type": "uint256"
                }
            ],
            "name": "CollateralWithdrawn",
            "type": "event"
        },
        {
            "anonymous": false,
            "inputs": [
                {
                    "indexed": true,
                    "internalType": "address",
                    "name": "newImplementation",
                    "type": "address"
                },
                {
                    "indexed": false,
                    "internalType": "uint8",
                    "name": "version",
                    "type": "uint8"
                }
            ],
            "name": "ContractUpgraded",
            "type": "event"
        },
        {
            "anonymous": false,
            "inputs": [
                {
                    "indexed": true,
                    "internalType": "uint256",
                    "name": "circleId",
                    "type": "uint256"
                },
                {
                    "indexed": false,
                    "internalType": "uint8",
                    "name": "round",
                    "type": "uint8"
                },
                {
                    "indexed": false,
                    "internalType": "address",
                    "name": "member",
                    "type": "address"
                },
                {
                    "indexed": true,
                    "internalType": "uint256",
                    "name": "amount",
                    "type": "uint256"
                }
            ],
            "name": "ContributionMade",
            "type": "event"
        },
        {
            "anonymous": false,
            "inputs": [
                {
                    "indexed": true,
                    "internalType": "uint256",
                    "name": "goalId",
                    "type": "uint256"
                },
                {
                    "indexed": true,
                    "internalType": "address",
                    "name": "owner",
                    "type": "address"
                }
            ],
            "name": "GoalCompleted",
            "type": "event"
        },
        {
            "anonymous": false,
            "inputs": [
                {
                    "indexed": true,
                    "internalType": "uint256",
                    "name": "goalId",
                    "type": "uint256"
                },
                {
                    "indexed": true,
                    "internalType": "address",
                    "name": "owner",
                    "type": "address"
                },
                {
                    "indexed": false,
                    "internalType": "uint256",
                    "name": "amount",
                    "type": "uint256"
                }
            ],
            "name": "GoalContribution",
            "type": "event"
        },
        {
            "anonymous": false,
            "inputs": [
                {
                    "indexed": true,
                    "internalType": "uint256",
                    "name": "goalId",
                    "type": "uint256"
                },
                {
                    "indexed": true,
                    "internalType": "address",
                    "name": "owner",
                    "type": "address"
                },
                {
                    "indexed": false,
                    "internalType": "uint256",
                    "name": "_amount",
                    "type": "uint256"
                },
                {
                    "indexed": false,
                    "internalType": "uint256",
                    "name": "penalty",
                    "type": "uint256"
                }
            ],
            "name": "GoalWithdrawn",
            "type": "event"
        },
        {
            "anonymous": false,
            "inputs": [
                {
                    "indexed": false,
                    "internalType": "uint64",
                    "name": "version",
                    "type": "uint64"
                }
            ],
            "name": "Initialized",
            "type": "event"
        },
        {
            "anonymous": false,
            "inputs": [
                {
                    "indexed": true,
                    "internalType": "uint256",
                    "name": "circleId",
                    "type": "uint256"
                },
                {
                    "indexed": false,
                    "internalType": "uint8",
                    "name": "round",
                    "type": "uint8"
                },
                {
                    "indexed": false,
                    "internalType": "address",
                    "name": "member",
                    "type": "address"
                },
                {
                    "indexed": true,
                    "internalType": "uint256",
                    "name": "fee",
                    "type": "uint256"
                }
            ],
            "name": "LatePayment",
            "type": "event"
        },
        {
            "anonymous": false,
            "inputs": [
                {
                    "indexed": true,
                    "internalType": "uint256",
                    "name": "circleId",
                    "type": "uint256"
                },
                {
                    "indexed": true,
                    "internalType": "address",
                    "name": "_invitee",
                    "type": "address"
                }
            ],
            "name": "MemberInvited",
            "type": "event"
        },
        {
            "anonymous": false,
            "inputs": [
                {
                    "indexed": true,
                    "internalType": "address",
                    "name": "previousOwner",
                    "type": "address"
                },
                {
                    "indexed": true,
                    "internalType": "address",
                    "name": "newOwner",
                    "type": "address"
                }
            ],
            "name": "OwnershipTransferred",
            "type": "event"
        },
        {
            "anonymous": false,
            "inputs": [
                {
                    "indexed": true,
                    "internalType": "uint256",
                    "name": "circleId",
                    "type": "uint256"
                },
                {
                    "indexed": true,
                    "internalType": "uint256",
                    "name": "round",
                    "type": "uint256"
                },
                {
                    "indexed": true,
                    "internalType": "address",
                    "name": "recipient",
                    "type": "address"
                },
                {
                    "indexed": false,
                    "internalType": "uint256",
                    "name": "amount",
                    "type": "uint256"
                }
            ],
            "name": "PayoutDistributed",
            "type": "event"
        },
        {
            "anonymous": false,
            "inputs": [
                {
                    "indexed": true,
                    "internalType": "uint256",
                    "name": "goalId",
                    "type": "uint256"
                },
                {
                    "indexed": true,
                    "internalType": "address",
                    "name": "owner",
                    "type": "address"
                },
                {
                    "indexed": false,
                    "internalType": "string",
                    "name": "name",
                    "type": "string"
                },
                {
                    "indexed": true,
                    "internalType": "uint256",
                    "name": "amount",
                    "type": "uint256"
                }
            ],
            "name": "PersonalGoalCreated",
            "type": "event"
        },
        {
            "anonymous": false,
            "inputs": [
                {
                    "indexed": true,
                    "internalType": "uint256",
                    "name": "circledId",
                    "type": "uint256"
                },
                {
                    "indexed": true,
                    "internalType": "address",
                    "name": "member",
                    "type": "address"
                },
                {
                    "indexed": false,
                    "internalType": "uint256",
                    "name": "position",
                    "type": "uint256"
                }
            ],
            "name": "PositionAssigned",
            "type": "event"
        },
        {
            "anonymous": false,
            "inputs": [
                {
                    "indexed": true,
                    "internalType": "address",
                    "name": "implementation",
                    "type": "address"
                }
            ],
            "name": "Upgraded",
            "type": "event"
        },
        {
            "anonymous": false,
            "inputs": [
                {
                    "indexed": true,
                    "internalType": "uint256",
                    "name": "circleId",
                    "type": "uint256"
                },
                {
                    "indexed": true,
                    "internalType": "address",
                    "name": "creator",
                    "type": "address"
                }
            ],
            "name": "VisibilityUpdated",
            "type": "event"
        },
        {
            "anonymous": false,
            "inputs": [
                {
                    "indexed": true,
                    "internalType": "uint256",
                    "name": "circleId",
                    "type": "uint256"
                },
                {
                    "indexed": true,
                    "internalType": "address",
                    "name": "voter",
                    "type": "address"
                },
                {
                    "indexed": false,
                    "internalType": "enum CirclePotV1.VoteChoice",
                    "name": "choice",
                    "type": "uint8"
                }
            ],
            "name": "VoteCast",
            "type": "event"
        },
        {
            "anonymous": false,
            "inputs": [
                {
                    "indexed": true,
                    "internalType": "uint256",
                    "name": "circleId",
                    "type": "uint256"
                },
                {
                    "indexed": false,
                    "internalType": "bool",
                    "name": "circleStarted",
                    "type": "bool"
                },
                {
                    "indexed": false,
                    "internalType": "uint256",
                    "name": "startVoteCount",
                    "type": "uint256"
                },
                {
                    "indexed": false,
                    "internalType": "uint256",
                    "name": "withdrawVoteCount",
                    "type": "uint256"
                }
            ],
            "name": "VoteExecuted",
            "type": "event"
        },
        {
            "anonymous": false,
            "inputs": [
                {
                    "indexed": true,
                    "internalType": "uint256",
                    "name": "circleId",
                    "type": "uint256"
                },
                {
                    "indexed": true,
                    "internalType": "uint256",
                    "name": "votingEndTime",
                    "type": "uint256"
                }
            ],
            "name": "VotingInitiated",
            "type": "event"
        },
        {
            "inputs": [
                {
                    "internalType": "uint256",
                    "name": "_goalId",
                    "type": "uint256"
                }
            ],
            "name": "ContributeToGoal",
            "outputs": [],
            "stateMutability": "nonpayable",
            "type": "function"
        },
        {
            "inputs": [],
            "name": "LATE_FEE_BPS",
            "outputs": [
                {
                    "internalType": "uint256",
                    "name": "",
                    "type": "uint256"
                }
            ],
            "stateMutability": "view",
            "type": "function"
        },
        {
            "inputs": [],
            "name": "MAX_CONTRIBUTION",
            "outputs": [
                {
                    "internalType": "uint256",
                    "name": "",
                    "type": "uint256"
                }
            ],
            "stateMutability": "view",
            "type": "function"
        },
        {
            "inputs": [],
            "name": "MAX_MEMBERS",
            "outputs": [
                {
                    "internalType": "uint8",
                    "name": "",
                    "type": "uint8"
                }
            ],
            "stateMutability": "view",
            "type": "function"
        },
        {
            "inputs": [],
            "name": "MIN_CONTRIBUTION",
            "outputs": [
                {
                    "internalType": "uint256",
                    "name": "",
                    "type": "uint256"
                }
            ],
            "stateMutability": "view",
            "type": "function"
        },
        {
            "inputs": [],
            "name": "MIN_MEMBERS",
            "outputs": [
                {
                    "internalType": "uint8",
                    "name": "",
                    "type": "uint8"
                }
            ],
            "stateMutability": "view",
            "type": "function"
        },
        {
            "inputs": [],
            "name": "PLATFORM_FEE_BPS",
            "outputs": [
                {
                    "internalType": "uint256",
                    "name": "",
                    "type": "uint256"
                }
            ],
            "stateMutability": "view",
            "type": "function"
        },
        {
            "inputs": [],
            "name": "START_VOTE_THRESHOLD",
            "outputs": [
                {
                    "internalType": "uint256",
                    "name": "",
                    "type": "uint256"
                }
            ],
            "stateMutability": "view",
            "type": "function"
        },
        {
            "inputs": [],
            "name": "UPGRADE_INTERFACE_VERSION",
            "outputs": [
                {
                    "internalType": "string",
                    "name": "",
                    "type": "string"
                }
            ],
            "stateMutability": "view",
            "type": "function"
        },
        {
            "inputs": [],
            "name": "VERSION",
            "outputs": [
                {
                    "internalType": "uint8",
                    "name": "",
                    "type": "uint8"
                }
            ],
            "stateMutability": "view",
            "type": "function"
        },
        {
            "inputs": [],
            "name": "VISIBILITY_UPDATE_FEE",
            "outputs": [
                {
                    "internalType": "uint256",
                    "name": "",
                    "type": "uint256"
                }
            ],
            "stateMutability": "view",
            "type": "function"
        },
        {
            "inputs": [],
            "name": "VOTING_PERIOD",
            "outputs": [
                {
                    "internalType": "uint256",
                    "name": "",
                    "type": "uint256"
                }
            ],
            "stateMutability": "view",
            "type": "function"
        },
        {
            "inputs": [
                {
                    "internalType": "uint256",
                    "name": "_circleId",
                    "type": "uint256"
                }
            ],
            "name": "WithdrawCollateral",
            "outputs": [],
            "stateMutability": "nonpayable",
            "type": "function"
        },
        {
            "inputs": [
                {
                    "internalType": "enum CirclePotV1.Frequency",
                    "name": "f",
                    "type": "uint8"
                }
            ],
            "name": "_getGracePeriod",
            "outputs": [
                {
                    "internalType": "uint256",
                    "name": "",
                    "type": "uint256"
                }
            ],
            "stateMutability": "pure",
            "type": "function"
        },
        {
            "inputs": [],
            "name": "cUSDToken",
            "outputs": [
                {
                    "internalType": "address",
                    "name": "",
                    "type": "address"
                }
            ],
            "stateMutability": "view",
            "type": "function"
        },
        {
            "inputs": [
                {
                    "internalType": "uint256",
                    "name": "_circleId",
                    "type": "uint256"
                }
            ],
            "name": "canWithdrawAfterVote",
            "outputs": [
                {
                    "internalType": "bool",
                    "name": "",
                    "type": "bool"
                }
            ],
            "stateMutability": "view",
            "type": "function"
        },
        {
            "inputs": [
                {
                    "internalType": "uint256",
                    "name": "_circleId",
                    "type": "uint256"
                },
                {
                    "internalType": "enum CirclePotV1.VoteChoice",
                    "name": "_choice",
                    "type": "uint8"
                }
            ],
            "name": "castVote",
            "outputs": [],
            "stateMutability": "nonpayable",
            "type": "function"
        },
        {
            "inputs": [],
            "name": "circleCounter",
            "outputs": [
                {
                    "internalType": "uint256",
                    "name": "",
                    "type": "uint256"
                }
            ],
            "stateMutability": "view",
            "type": "function"
        },
        {
            "inputs": [
                {
                    "internalType": "uint256",
                    "name": "",
                    "type": "uint256"
                },
                {
                    "internalType": "address",
                    "name": "",
                    "type": "address"
                }
            ],
            "name": "circleInvitations",
            "outputs": [
                {
                    "internalType": "bool",
                    "name": "",
                    "type": "bool"
                }
            ],
            "stateMutability": "view",
            "type": "function"
        },
        {
            "inputs": [
                {
                    "internalType": "uint256",
                    "name": "",
                    "type": "uint256"
                },
                {
                    "internalType": "uint256",
                    "name": "",
                    "type": "uint256"
                }
            ],
            "name": "circleMemberList",
            "outputs": [
                {
                    "internalType": "address",
                    "name": "",
                    "type": "address"
                }
            ],
            "stateMutability": "view",
            "type": "function"
        },
        {
            "inputs": [
                {
                    "internalType": "uint256",
                    "name": "",
                    "type": "uint256"
                },
                {
                    "internalType": "address",
                    "name": "",
                    "type": "address"
                }
            ],
            "name": "circleMembers",
            "outputs": [
                {
                    "internalType": "uint8",
                    "name": "position",
                    "type": "uint8"
                },
                {
                    "internalType": "uint256",
                    "name": "totalContributed",
                    "type": "uint256"
                },
                {
                    "internalType": "bool",
                    "name": "hasReceivedPayout",
                    "type": "bool"
                },
                {
                    "internalType": "bool",
                    "name": "isActive",
                    "type": "bool"
                },
                {
                    "internalType": "uint256",
                    "name": "collateralLocked",
                    "type": "uint256"
                },
                {
                    "internalType": "uint256",
                    "name": "joinedAt",
                    "type": "uint256"
                }
            ],
            "stateMutability": "view",
            "type": "function"
        },
        {
            "inputs": [
                {
                    "internalType": "uint256",
                    "name": "",
                    "type": "uint256"
                },
                {
                    "internalType": "uint256",
                    "name": "",
                    "type": "uint256"
                }
            ],
            "name": "circleRoundDeadlines",
            "outputs": [
                {
                    "internalType": "uint256",
                    "name": "",
                    "type": "uint256"
                }
            ],
            "stateMutability": "view",
            "type": "function"
        },
        {
            "inputs": [
                {
                    "internalType": "uint256",
                    "name": "",
                    "type": "uint256"
                }
            ],
            "name": "circleVotes",
            "outputs": [
                {
                    "internalType": "uint256",
                    "name": "votingStartTime",
                    "type": "uint256"
                },
                {
                    "internalType": "uint256",
                    "name": "votingEndTime",
                    "type": "uint256"
                },
                {
                    "internalType": "uint8",
                    "name": "startVoteCount",
                    "type": "uint8"
                },
                {
                    "internalType": "uint8",
                    "name": "withdrawVoteCount",
                    "type": "uint8"
                },
                {
                    "internalType": "bool",
                    "name": "votingActive",
                    "type": "bool"
                },
                {
                    "internalType": "bool",
                    "name": "voteExecuted",
                    "type": "bool"
                }
            ],
            "stateMutability": "view",
            "type": "function"
        },
        {
            "inputs": [
                {
                    "internalType": "uint256",
                    "name": "",
                    "type": "uint256"
                }
            ],
            "name": "circles",
            "outputs": [
                {
                    "internalType": "uint256",
                    "name": "circleId",
                    "type": "uint256"
                },
                {
                    "internalType": "address",
                    "name": "creator",
                    "type": "address"
                },
                {
                    "internalType": "uint256",
                    "name": "contributionAmount",
                    "type": "uint256"
                },
                {
                    "internalType": "enum CirclePotV1.Frequency",
                    "name": "frequency",
                    "type": "uint8"
                },
                {
                    "internalType": "uint8",
                    "name": "maxMembers",
                    "type": "uint8"
                },
                {
                    "internalType": "uint8",
                    "name": "currentMembers",
                    "type": "uint8"
                },
                {
                    "internalType": "uint8",
                    "name": "currentRound",
                    "type": "uint8"
                },
                {
                    "internalType": "uint8",
                    "name": "totalRounds",
                    "type": "uint8"
                },
                {
                    "internalType": "enum CirclePotV1.CircleState",
                    "name": "state",
                    "type": "uint8"
                },
                {
                    "internalType": "enum CirclePotV1.Visibility",
                    "name": "visibility",
                    "type": "uint8"
                },
                {
                    "internalType": "uint256",
                    "name": "createdAt",
                    "type": "uint256"
                },
                {
                    "internalType": "uint256",
                    "name": "startedAt",
                    "type": "uint256"
                },
                {
                    "internalType": "uint256",
                    "name": "totalPot",
                    "type": "uint256"
                }
            ],
            "stateMutability": "view",
            "type": "function"
        },
        {
            "inputs": [
                {
                    "internalType": "address",
                    "name": "",
                    "type": "address"
                }
            ],
            "name": "completedCircles",
            "outputs": [
                {
                    "internalType": "uint256",
                    "name": "",
                    "type": "uint256"
                }
            ],
            "stateMutability": "view",
            "type": "function"
        },
        {
            "inputs": [
                {
                    "internalType": "uint256",
                    "name": "_circleId",
                    "type": "uint256"
                }
            ],
            "name": "contribute",
            "outputs": [],
            "stateMutability": "nonpayable",
            "type": "function"
        },
        {
            "inputs": [
                {
                    "components": [
                        {
                            "internalType": "uint256",
                            "name": "contributionAmount",
                            "type": "uint256"
                        },
                        {
                            "internalType": "enum CirclePotV1.Frequency",
                            "name": "frequency",
                            "type": "uint8"
                        },
                        {
                            "internalType": "uint8",
                            "name": "maxMembers",
                            "type": "uint8"
                        },
                        {
                            "internalType": "enum CirclePotV1.Visibility",
                            "name": "visibility",
                            "type": "uint8"
                        }
                    ],
                    "internalType": "struct CirclePotV1.CreateCircleParams",
                    "name": "params",
                    "type": "tuple"
                }
            ],
            "name": "createCircle",
            "outputs": [
                {
                    "internalType": "uint256",
                    "name": "",
                    "type": "uint256"
                }
            ],
            "stateMutability": "nonpayable",
            "type": "function"
        },
        {
            "inputs": [
                {
                    "components": [
                        {
                            "internalType": "string",
                            "name": "name",
                            "type": "string"
                        },
                        {
                            "internalType": "uint256",
                            "name": "targetAmount",
                            "type": "uint256"
                        },
                        {
                            "internalType": "uint256",
                            "name": "contributionAmount",
                            "type": "uint256"
                        },
                        {
                            "internalType": "enum CirclePotV1.Frequency",
                            "name": "frequency",
                            "type": "uint8"
                        },
                        {
                            "internalType": "uint256",
                            "name": "deadline",
                            "type": "uint256"
                        }
                    ],
                    "internalType": "struct CirclePotV1.CreateGoalParams",
                    "name": "params",
                    "type": "tuple"
                }
            ],
            "name": "createPersonalGoal",
            "outputs": [
                {
                    "internalType": "uint256",
                    "name": "",
                    "type": "uint256"
                }
            ],
            "stateMutability": "nonpayable",
            "type": "function"
        },
        {
            "inputs": [
                {
                    "internalType": "uint256",
                    "name": "_circleId",
                    "type": "uint256"
                }
            ],
            "name": "executeVote",
            "outputs": [],
            "stateMutability": "nonpayable",
            "type": "function"
        },
        {
            "inputs": [
                {
                    "internalType": "uint256",
                    "name": "_circleId",
                    "type": "uint256"
                }
            ],
            "name": "getCircleDetails",
            "outputs": [
                {
                    "components": [
                        {
                            "internalType": "uint256",
                            "name": "circleId",
                            "type": "uint256"
                        },
                        {
                            "internalType": "address",
                            "name": "creator",
                            "type": "address"
                        },
                        {
                            "internalType": "uint256",
                            "name": "contributionAmount",
                            "type": "uint256"
                        },
                        {
                            "internalType": "enum CirclePotV1.Frequency",
                            "name": "frequency",
                            "type": "uint8"
                        },
                        {
                            "internalType": "uint8",
                            "name": "maxMembers",
                            "type": "uint8"
                        },
                        {
                            "internalType": "uint8",
                            "name": "currentMembers",
                            "type": "uint8"
                        },
                        {
                            "internalType": "uint8",
                            "name": "currentRound",
                            "type": "uint8"
                        },
                        {
                            "internalType": "uint8",
                            "name": "totalRounds",
                            "type": "uint8"
                        },
                        {
                            "internalType": "enum CirclePotV1.CircleState",
                            "name": "state",
                            "type": "uint8"
                        },
                        {
                            "internalType": "enum CirclePotV1.Visibility",
                            "name": "visibility",
                            "type": "uint8"
                        },
                        {
                            "internalType": "uint256",
                            "name": "createdAt",
                            "type": "uint256"
                        },
                        {
                            "internalType": "uint256",
                            "name": "startedAt",
                            "type": "uint256"
                        },
                        {
                            "internalType": "uint256",
                            "name": "totalPot",
                            "type": "uint256"
                        }
                    ],
                    "internalType": "struct CirclePotV1.Circle",
                    "name": "circle",
                    "type": "tuple"
                },
                {
                    "internalType": "uint256",
                    "name": "membersJoined",
                    "type": "uint256"
                },
                {
                    "internalType": "uint256",
                    "name": "currentDeadline",
                    "type": "uint256"
                },
                {
                    "internalType": "bool",
                    "name": "canStart",
                    "type": "bool"
                }
            ],
            "stateMutability": "view",
            "type": "function"
        },
        {
            "inputs": [
                {
                    "internalType": "uint256",
                    "name": "_circleId",
                    "type": "uint256"
                }
            ],
            "name": "getCircleMembers",
            "outputs": [
                {
                    "internalType": "address[]",
                    "name": "",
                    "type": "address[]"
                }
            ],
            "stateMutability": "view",
            "type": "function"
        },
        {
            "inputs": [
                {
                    "internalType": "uint256",
                    "name": "_circleId",
                    "type": "uint256"
                }
            ],
            "name": "getCircleProgress",
            "outputs": [
                {
                    "internalType": "uint8",
                    "name": "currentRound",
                    "type": "uint8"
                },
                {
                    "internalType": "uint8",
                    "name": "totalRounds",
                    "type": "uint8"
                },
                {
                    "internalType": "uint256",
                    "name": "contributionsThisRound",
                    "type": "uint256"
                },
                {
                    "internalType": "uint8",
                    "name": "totalMembers",
                    "type": "uint8"
                }
            ],
            "stateMutability": "view",
            "type": "function"
        },
        {
            "inputs": [
                {
                    "internalType": "uint256",
                    "name": "_circleId",
                    "type": "uint256"
                },
                {
                    "internalType": "address",
                    "name": "_member",
                    "type": "address"
                }
            ],
            "name": "getMemberInfo",
            "outputs": [
                {
                    "components": [
                        {
                            "internalType": "uint8",
                            "name": "position",
                            "type": "uint8"
                        },
                        {
                            "internalType": "uint256",
                            "name": "totalContributed",
                            "type": "uint256"
                        },
                        {
                            "internalType": "bool",
                            "name": "hasReceivedPayout",
                            "type": "bool"
                        },
                        {
                            "internalType": "bool",
                            "name": "isActive",
                            "type": "bool"
                        },
                        {
                            "internalType": "uint256",
                            "name": "collateralLocked",
                            "type": "uint256"
                        },
                        {
                            "internalType": "uint256",
                            "name": "joinedAt",
                            "type": "uint256"
                        }
                    ],
                    "internalType": "struct CirclePotV1.Member",
                    "name": "memberInfo",
                    "type": "tuple"
                },
                {
                    "internalType": "bool",
                    "name": "hasContributedThisRound",
                    "type": "bool"
                },
                {
                    "internalType": "uint256",
                    "name": "nextDeadline",
                    "type": "uint256"
                }
            ],
            "stateMutability": "view",
            "type": "function"
        },
        {
            "inputs": [
                {
                    "internalType": "address",
                    "name": "_user",
                    "type": "address"
                }
            ],
            "name": "getUserCircles",
            "outputs": [
                {
                    "internalType": "uint256[]",
                    "name": "",
                    "type": "uint256[]"
                }
            ],
            "stateMutability": "view",
            "type": "function"
        },
        {
            "inputs": [
                {
                    "internalType": "address",
                    "name": "_user",
                    "type": "address"
                }
            ],
            "name": "getUserReputation",
            "outputs": [
                {
                    "internalType": "uint256",
                    "name": "reputation",
                    "type": "uint256"
                },
                {
                    "internalType": "uint256",
                    "name": "circlesCompleted",
                    "type": "uint256"
                },
                {
                    "internalType": "uint256",
                    "name": "latePaymentsCount",
                    "type": "uint256"
                }
            ],
            "stateMutability": "view",
            "type": "function"
        },
        {
            "inputs": [
                {
                    "internalType": "uint256",
                    "name": "_circleId",
                    "type": "uint256"
                }
            ],
            "name": "getVoteInfo",
            "outputs": [
                {
                    "internalType": "uint256",
                    "name": "votingEndTime",
                    "type": "uint256"
                },
                {
                    "internalType": "uint8",
                    "name": "startVoteCount",
                    "type": "uint8"
                },
                {
                    "internalType": "uint8",
                    "name": "withdrawVoteCount",
                    "type": "uint8"
                },
                {
                    "internalType": "bool",
                    "name": "votingActive",
                    "type": "bool"
                },
                {
                    "internalType": "bool",
                    "name": "voteExecuted",
                    "type": "bool"
                },
                {
                    "internalType": "enum CirclePotV1.VoteChoice",
                    "name": "userVote",
                    "type": "uint8"
                }
            ],
            "stateMutability": "view",
            "type": "function"
        },
        {
            "inputs": [],
            "name": "goalCounter",
            "outputs": [
                {
                    "internalType": "uint256",
                    "name": "",
                    "type": "uint256"
                }
            ],
            "stateMutability": "view",
            "type": "function"
        },
        {
            "inputs": [
                {
                    "internalType": "address",
                    "name": "_cUSDToken",
                    "type": "address"
                },
                {
                    "internalType": "address",
                    "name": "_treasury",
                    "type": "address"
                },
                {
                    "internalType": "address",
                    "name": "initialOwner",
                    "type": "address"
                }
            ],
            "name": "initialize",
            "outputs": [],
            "stateMutability": "nonpayable",
            "type": "function"
        },
        {
            "inputs": [
                {
                    "internalType": "uint256",
                    "name": "_circleId",
                    "type": "uint256"
                }
            ],
            "name": "initiateVoting",
            "outputs": [],
            "stateMutability": "nonpayable",
            "type": "function"
        },
        {
            "inputs": [
                {
                    "internalType": "uint256",
                    "name": "_circleId",
                    "type": "uint256"
                },
                {
                    "internalType": "address[]",
                    "name": "_invitees",
                    "type": "address[]"
                }
            ],
            "name": "inviteMembers",
            "outputs": [],
            "stateMutability": "nonpayable",
            "type": "function"
        },
        {
            "inputs": [
                {
                    "internalType": "uint256",
                    "name": "_circleId",
                    "type": "uint256"
                },
                {
                    "internalType": "address",
                    "name": "_user",
                    "type": "address"
                }
            ],
            "name": "isInvited",
            "outputs": [
                {
                    "internalType": "bool",
                    "name": "",
                    "type": "bool"
                }
            ],
            "stateMutability": "view",
            "type": "function"
        },
        {
            "inputs": [
                {
                    "internalType": "uint256",
                    "name": "_circleId",
                    "type": "uint256"
                }
            ],
            "name": "joinCircle",
            "outputs": [],
            "stateMutability": "nonpayable",
            "type": "function"
        },
        {
            "inputs": [
                {
                    "internalType": "address",
                    "name": "",
                    "type": "address"
                }
            ],
            "name": "latePayments",
            "outputs": [
                {
                    "internalType": "uint256",
                    "name": "",
                    "type": "uint256"
                }
            ],
            "stateMutability": "view",
            "type": "function"
        },
        {
            "inputs": [
                {
                    "internalType": "uint256",
                    "name": "",
                    "type": "uint256"
                },
                {
                    "internalType": "address",
                    "name": "",
                    "type": "address"
                }
            ],
            "name": "memberVotes",
            "outputs": [
                {
                    "internalType": "enum CirclePotV1.VoteChoice",
                    "name": "",
                    "type": "uint8"
                }
            ],
            "stateMutability": "view",
            "type": "function"
        },
        {
            "inputs": [],
            "name": "owner",
            "outputs": [
                {
                    "internalType": "address",
                    "name": "",
                    "type": "address"
                }
            ],
            "stateMutability": "view",
            "type": "function"
        },
        {
            "inputs": [
                {
                    "internalType": "uint256",
                    "name": "",
                    "type": "uint256"
                }
            ],
            "name": "personalGoals",
            "outputs": [
                {
                    "internalType": "address",
                    "name": "owner",
                    "type": "address"
                },
                {
                    "internalType": "string",
                    "name": "name",
                    "type": "string"
                },
                {
                    "internalType": "uint256",
                    "name": "targetAmount",
                    "type": "uint256"
                },
                {
                    "internalType": "uint256",
                    "name": "currentAmount",
                    "type": "uint256"
                },
                {
                    "internalType": "uint256",
                    "name": "contributionAmount",
                    "type": "uint256"
                },
                {
                    "internalType": "enum CirclePotV1.Frequency",
                    "name": "frequency",
                    "type": "uint8"
                },
                {
                    "internalType": "uint256",
                    "name": "deadline",
                    "type": "uint256"
                },
                {
                    "internalType": "uint256",
                    "name": "createdAt",
                    "type": "uint256"
                },
                {
                    "internalType": "bool",
                    "name": "isActive",
                    "type": "bool"
                },
                {
                    "internalType": "uint256",
                    "name": "lastContributionAt",
                    "type": "uint256"
                }
            ],
            "stateMutability": "view",
            "type": "function"
        },
        {
            "inputs": [],
            "name": "platformFeeBps",
            "outputs": [
                {
                    "internalType": "uint256",
                    "name": "",
                    "type": "uint256"
                }
            ],
            "stateMutability": "view",
            "type": "function"
        },
        {
            "inputs": [],
            "name": "proxiableUUID",
            "outputs": [
                {
                    "internalType": "bytes32",
                    "name": "",
                    "type": "bytes32"
                }
            ],
            "stateMutability": "view",
            "type": "function"
        },
        {
            "inputs": [],
            "name": "renounceOwnership",
            "outputs": [],
            "stateMutability": "nonpayable",
            "type": "function"
        },
        {
            "inputs": [
                {
                    "internalType": "uint256",
                    "name": "",
                    "type": "uint256"
                },
                {
                    "internalType": "uint8",
                    "name": "",
                    "type": "uint8"
                },
                {
                    "internalType": "address",
                    "name": "",
                    "type": "address"
                }
            ],
            "name": "roundContributions",
            "outputs": [
                {
                    "internalType": "bool",
                    "name": "",
                    "type": "bool"
                }
            ],
            "stateMutability": "view",
            "type": "function"
        },
        {
            "inputs": [
                {
                    "internalType": "uint256",
                    "name": "_circleId",
                    "type": "uint256"
                }
            ],
            "name": "startCircle",
            "outputs": [],
            "stateMutability": "nonpayable",
            "type": "function"
        },
        {
            "inputs": [],
            "name": "totalPlatformFees",
            "outputs": [
                {
                    "internalType": "uint256",
                    "name": "",
                    "type": "uint256"
                }
            ],
            "stateMutability": "view",
            "type": "function"
        },
        {
            "inputs": [
                {
                    "internalType": "address",
                    "name": "newOwner",
                    "type": "address"
                }
            ],
            "name": "transferOwnership",
            "outputs": [],
            "stateMutability": "nonpayable",
            "type": "function"
        },
        {
            "inputs": [],
            "name": "treasury",
            "outputs": [
                {
                    "internalType": "address",
                    "name": "",
                    "type": "address"
                }
            ],
            "stateMutability": "view",
            "type": "function"
        },
        {
            "inputs": [
                {
                    "internalType": "uint256",
                    "name": "_circleId",
                    "type": "uint256"
                },
                {
                    "internalType": "enum CirclePotV1.Visibility",
                    "name": "_newVisibility",
                    "type": "uint8"
                }
            ],
            "name": "updateCircleVisibility",
            "outputs": [],
            "stateMutability": "nonpayable",
            "type": "function"
        },
        {
            "inputs": [
                {
                    "internalType": "address",
                    "name": "_cUSDToken",
                    "type": "address"
                },
                {
                    "internalType": "address",
                    "name": "_treasury",
                    "type": "address"
                },
                {
                    "internalType": "uint8",
                    "name": "_version",
                    "type": "uint8"
                }
            ],
            "name": "upgrade",
            "outputs": [],
            "stateMutability": "nonpayable",
            "type": "function"
        },
        {
            "inputs": [
                {
                    "internalType": "address",
                    "name": "newImplementation",
                    "type": "address"
                },
                {
                    "internalType": "bytes",
                    "name": "data",
                    "type": "bytes"
                }
            ],
            "name": "upgradeToAndCall",
            "outputs": [],
            "stateMutability": "payable",
            "type": "function"
        },
        {
            "inputs": [
                {
                    "internalType": "address",
                    "name": "",
                    "type": "address"
                },
                {
                    "internalType": "uint256",
                    "name": "",
                    "type": "uint256"
                }
            ],
            "name": "userGoals",
            "outputs": [
                {
                    "internalType": "uint256",
                    "name": "",
                    "type": "uint256"
                }
            ],
            "stateMutability": "view",
            "type": "function"
        },
        {
            "inputs": [
                {
                    "internalType": "address",
                    "name": "",
                    "type": "address"
                }
            ],
            "name": "userReputation",
            "outputs": [
                {
                    "internalType": "uint256",
                    "name": "",
                    "type": "uint256"
                }
            ],
            "stateMutability": "view",
            "type": "function"
        },
        {
            "inputs": [],
            "name": "version",
            "outputs": [
                {
                    "internalType": "string",
                    "name": "",
                    "type": "string"
                }
            ],
            "stateMutability": "pure",
            "type": "function"
        },
        {
            "inputs": [
                {
                    "internalType": "uint256",
                    "name": "_goalId",
                    "type": "uint256"
                },
                {
                    "internalType": "uint256",
                    "name": "_amount",
                    "type": "uint256"
                }
            ],
            "name": "withdrawFromGoal",
            "outputs": [],
            "stateMutability": "nonpayable",
            "type": "function"
        }
    ],
    "bytecode": "60a080604052346100c257306080525f5160206146c55f395f51905f525460ff8160401c166100b3576002600160401b03196001600160401b03821601610060575b6040516145fe90816100c78239608051818181612d0f0152612db10152f35b6001600160401b0319166001600160401b039081175f5160206146c55f395f51905f525581527fc7f505b2f371ae2175ee4913f4499e1f2633a7b5936321eed1cdaeb6115181d290602090a15f80610041565b63f92ee8a960e01b5f5260045ffd5b5f80fdfe6080806040526004361015610012575f80fd5b5f3560e01c9081630ea86ad8146134ee575080630f801988146134b657806312e81b8014611793578063157a7ec71461335a5780631e67939e146131cd57806322dcd13e146131b05780632c2b97a41461312b5780632dfa67681461310357806340650c91146130e15780634571468414612fb457806346c39a1d14612f925780634f1ef28614612d6357806352d1902d14612cfd578063539aa77f1461094e57806354fd4d5014612cb65780635678138814612ae657806358f8d6ff14612aca5780635fcd98e21461299057806361a524a11461292c57806361d027b31461290457806363fc152e146128b457806369be46bf146128855780636cd5bf8f1461260f578063715018a6146125a857806373705573146122045780637ee839c4146120a65780638261efa714611cc057806386d6cfb314611a2b57806388e81d8a1461190e5780638d8242731461187c5780638da5cb5b146118485780638fda34bf1461180057806394d95f8f146117dc57806398d4c1dd14611793578063a8c9305714611778578063ad3cb1cc1461172d578063ad5a6982146115d7578063b1610d7e146115ba578063b6b3eedf14611562578063baccbfdb1461150b578063bc38b8f714611407578063bc5e0f301461132b578063c0c53b8b146110e9578063c1cbbca714610c80578063c4ce74e014610c17578063cb815ab914610b5f578063d3631fa514610b42578063d4bf578c146109ec578063d4cfc5dc146109bc578063d9a67220146109a1578063e503bb0514610969578063ea0e35b11461094e578063ec6b733f14610873578063f2fde38b14610848578063f3890e1f1461082b578063f98a4eca14610689578063f9d040b814610509578063f9e9ad39146104ec578063fc226bcc14610312578063fd81593f146102da5763ffa1ad74146102bb575f80fd5b346102d6575f3660031901126102d657602060405160018152f35b5f80fd5b346102d65760203660031901126102d6576001600160a01b036102fb613510565b165f52600f602052602060405f2054604051908152f35b346102d65760203660031901126102d65760043561032e61398d565b801580156104e0575b6104d157805f52600460205260405f209060038201549160ff8360281c1660058110156104bd576001036104ae57815f52600560205260405f2060018060a01b0333165f5260205260405f20600281019182549460ff8660081c161561049f57845f52600960205260405f209160ff60025f94015460181c1680610490575b156104385750505060015b1561042957600301925f8454945561ff00191690556103ea823360018060a01b035f5416613edf565b6040519182527f7c5e5cb62e5ed3caf3764e4b0afedfedef533e27809d43367799787ad2abcd4160203393a360015f5160206145895f395f51905f5255005b630c2eba2560e21b5f5260045ffd5b61045290600461044a60ff8516613a09565b9101546136ba565b421115610460575b506103c1565b60ff80606481610474818660081c166137cb565b1604169160101c1610610488575b8561045a565b506001610482565b5061049a86613742565b6103b6565b631687e47360e31b5f5260045ffd5b63d883bee960e01b5f5260045ffd5b634e487b7160e01b5f52602160045260245ffd5b632fb08c4f60e11b5f5260045ffd5b50600254811015610337565b346102d6575f3660031901126102d6576020600354604051908152f35b346102d65761051736613629565b8115801561067d575b61066e575f828152600c6020526040902080549091906001600160a01b0316330361065f57600882019260ff8454161561065057600383019283549081841161064157612710820290828204612710148315171561062d57600201549081156106195761059d6105976105c7936127109304613ea1565b8661396d565b04916105b3856105ad8582613980565b92613980565b86555f5433906001600160a01b0316613edf565b6105d3816011546136ba565b60115560405192835260208301527f9afd0ee3a19cb2b48004294a6891077bc04e270308738449a2798cd3cc7aa60b60403393a3541561060f57005b805460ff19169055005b634e487b7160e01b5f52601260045260245ffd5b634e487b7160e01b5f52601160045260245ffd5b631e9acf1760e31b5f5260045ffd5b637cc648f160e01b5f5260045ffd5b632be0096160e11b5f5260045ffd5b631bc5b4e960e11b5f5260045ffd5b50600354821015610520565b346102d65760203660031901126102d6576004358015801561081f575b6104d157805f526004602052600360405f200160ff815460281c1660058110156104bd5760020361081057815f52600960205260405f206002810180549160ff8360101c161561081057600101544211156108015760ff8260181c166107f2577f7da55ba157db41984697c3f1b900905283b3f9673437a67da9e3bfc9662c3a049260609260ff6107508180630100000063ffff00001986161794858855169360081c1683613702565b1680156107e45761076f61ffff9161076a6113ec94613716565b61372e565b16106107b257805465ff000000000019166501000000000017905561079384613b27565b5460ff6040519160018352818116602084015260081c166040820152a2005b6501000000000060ff60281b198254161790555460ff6040519160018352818116602084015260081c166040820152a2005b50506113ec61ffff5f61076f565b63745266fd60e11b5f5260045ffd5b633483eb6360e01b5f5260045ffd5b639b8cc47560e01b5f5260045ffd5b506002548110156106a6565b346102d6575f3660031901126102d6576020600254604051908152f35b346102d65760203660031901126102d657610871610864613510565b61086c613a72565b613940565b005b346102d65760203660031901126102d65760043580158015610942575b6104d1575f81815260046020526040902060018101546001600160a01b031633036109335760038101549060ff8260281c1660058110156104bd576001036104ae5760ff6064816108e5818660081c166137cb565b16041660ff8360101c161061092457600461044a60ff6109059416613a09565b4211156109155761087190613b27565b63a217083960e01b5f5260045ffd5b63505768b960e11b5f5260045ffd5b6308f78f9960e31b5f5260045ffd5b50600254811015610890565b346102d6575f3660031901126102d657602060405160148152f35b346102d65760203660031901126102d6576001600160a01b0361098a613510565b165f52600e602052602060405f2054604051908152f35b346102d6575f3660031901126102d657602060405160058152f35b346102d65760203660031901126102d65760043560038110156102d6576109e4602091613927565b604051908152f35b346102d65760403660031901126102d6576004356024356001600160401b0381116102d657366023820112156102d6578060040135916001600160401b0383116102d6576024820191602436918560051b0101116102d65780158015610b36575b6104d1575f81815260046020526040902060018101546001600160a01b03163303610933576003015460ff8160301c1660028110156104bd57610b275760281c60ff1660058110156104bd576001036104ae575f5b838110610aab57005b600190825f52600b60205260405f20610acd610ac8838888613903565b613913565b838060a01b03165f5260205260405f208260ff19825416179055818060a01b03610afb610ac8838888613903565b16837f6e32da99952e6892c42b54eec8c835d9a2e0a6c879c0219cc693229e6894175a5f80a301610aa2565b633a46c93160e01b5f5260045ffd5b50600254811015610a4d565b346102d6575f3660031901126102d6576020601154604051908152f35b346102d65760203660031901126102d6576004355f52600660205260405f20604051806020835491828152019081935f5260205f20905f5b818110610bf85750505081610bad910382613589565b604051918291602083019060208452518091526040830191905f5b818110610bd6575050500390f35b82516001600160a01b0316845285945060209384019390920191600101610bc8565b82546001600160a01b0316845260209093019260019283019201610b97565b346102d65760203660031901126102d6576004355f52600960205260c060405f2060ff815491600260018201549101549060405193845260208401528181166040840152818160081c166060840152818160101c161515608084015260181c16151560a0820152f35b346102d65760203660031901126102d657600435801580156110dd575b6104d157805f52600460205260405f2060038101805460ff8160281c1660058110156104bd576003036110ce57835f52600560205260405f2060018060a01b0333165f5260205260405f209060ff600283015460081c161561049f5760ff9060181c1692845f52600760205260405f2060ff85165f5260205260405f2060018060a01b0333165f5260205260ff60405f2054166110bf575f546002820180549094879492610d8592610d5b91309033906001600160a01b03166139c5565b845f52600860205260405f20875f52602052610d7f60ff60405f2054925416613927565b906136ba565b42111561106f575050508054606481028181046064148215171561062d57612710900490845f52600560205260405f2060018060a01b0333165f5260205260405f206003610dd384846136ba565b910190808254115f1461106657610deb908254613980565b90555b845f526004602052610e08600660405f20019182546136ba565b9055610e16816011546136ba565b601155335f52600e60205283600560405f2054115f146110395750335f52600e60205260405f2054600419810190811161062d5784927fe424be6ebafcdee4341d3bfb4024c9ccd11789227ab9b4c8f5d4cb8db8d1188392610f1a925b335f52600e60205260405f2055335f52601060205260405f20610e9681546137fd565b90556040805160ff8816815233602082015286917fadfae21200a077d32929aeac100ac5a5390ce655175dd0f2982da63acd823ae791a35b5f84815260076020908152604080832060ff989098168084529782528083203380855290835292819020805460ff19166001179055925483519788529087019190915294918291820190565b0390a35f818152600460209081526040808320600690925282208054939190835b8560ff821610610f77575050600301549169ffffffffffffffffffff60ff8460101c16911614610f6757005b60ff6108719260181c1690614251565b610f818183613659565b90545f86815260056020908152604080832060039590951b9390931c6001600160a01b0316808352939052206002015460081c60ff169081610ff9575b50610fd2575b610fcd906137e0565b610f3b565b9369ffffffffffffffffffff1669ffffffffffffffffffff811461062d5760010193610fc4565b9050845f52600760205260405f2060ff80600387015460181c16165f5260205260405f209060018060a01b03165f5260205260ff60405f20541687610fbe565b91610f1a907fe424be6ebafcdee4341d3bfb4024c9ccd11789227ab9b4c8f5d4cb8db8d11883925f610e73565b505f9055610dee565b92610f1a916110b860017fe424be6ebafcdee4341d3bfb4024c9ccd11789227ab9b4c8f5d4cb8db8d1188395966006855494016110ad8582546136ba565b9055019182546136ba565b9055610ece565b6305d252c360e01b5f5260045ffd5b633fe6c08b60e21b5f5260045ffd5b50600254811015610c9d565b346102d65760603660031901126102d657611102613510565b61110a613526565b61111261353c565b905f5160206145a95f395f51905f5254926001600160401b0360ff8560401c1615941680159081611323575b6001149081611319575b159081611310575b50611301578360016001600160401b03195f5160206145a95f395f51905f525416175f5160206145a95f395f51905f52556112d1575b61118e614427565b611196614427565b61119f83613940565b6111a7614427565b6111af614427565b60015f5160206145895f395f51905f52556111c8614427565b6001600160a01b0316801580156112c0575b6112b1575f80546001600160a01b0319908116929092179055600180549091166001600160a01b03928316178155600281905560035560146012558116801515908161128f575b50611280575b5061122e57005b60ff60401b195f5160206145a95f395f51905f5254165f5160206145a95f395f51905f52557fc7f505b2f371ae2175ee4913f4499e1f2633a7b5936321eed1cdaeb6115181d2602060405160018152a1005b61128990613aa5565b81611227565b5f5160206145495f395f51905f52546001600160a01b03161415905083611221565b63cfe2ea6360e01b5f5260045ffd5b506001600160a01b038216156111da565b600160401b60ff60401b195f5160206145a95f395f51905f525416175f5160206145a95f395f51905f5255611186565b63f92ee8a960e01b5f5260045ffd5b90501585611150565b303b159150611148565b85915061113e565b346102d65760203660031901126102d6576004355f5260046020526101a060405f2080549060018060a01b036001820154169060028101546113f3600383015460ff81166004850154936006600587015496015496604051988952602089015260408801526113998161361f565b606087015260ff8160081c16608087015260ff8160101c1660a087015260ff8160181c1660c087015260ff8160201c1660e08701526113e2610100870160ff8360281c1661363f565b60ff61012087019160301c1661364c565b610140840152610160830152610180820152f35b346102d65760203660031901126102d6576004355f90805f526004602052600360405f2001549160ff8360181c169160ff8460281c1660058110156104bd57600314611476575b5060809260ff91604051938452828260201c166020850152604084015260101c166060820152f35b805f52600660205260405f205f81549260ff8616915b8460ff82161061149f575050505061144e565b815f52600760205260405f20835f5260205260405f206114bf8286613659565b905460039190911b1c6001600160a01b03165f908152602091909152604090205460ff166114f6575b6114f1906137e0565b61148c565b946115036114f1916137fd565b9590506114e8565b346102d65760203660031901126102d65760606001600160a01b0361152e613510565b165f908152600e6020908152604080832054600f835281842054601084529382902054825191825292810193909352820152f35b346102d65760403660031901126102d65761157b613510565b6001600160a01b03165f908152600d60205260409020805460243591908210156102d6576020916115ab91613659565b90549060031b1c604051908152f35b346102d6575f3660031901126102d65760206040516202a3008152f35b346102d65760203660031901126102d6576004355f52600c60205260405f2060018060a01b03815416600182019160405192835f82549261161784613682565b808452936001811690811561170b57506001146116c7575b5061163c92500384613589565b600281015490600381015490600481015460ff600583015416600683015490600784015492600960ff6008870154169501549561168d6040519a8b9a8b5261014060208c01526101408b01906135fb565b9760408a0152606089015260808801526116a68161361f565b60a087015260c086015260e085015215156101008401526101208301520390f35b90505f9291925260205f20905f915b8183106116ef57505090602061163c928201018661162f565b6020919350806001915483858a010152019101909185926116d6565b90506020925061163c94915060ff191682840152151560051b8201018661162f565b346102d6575f3660031901126102d65761177460405161174e604082613589565b60058152640352e302e360dc1b60208201526040519182916020835260208301906135fb565b0390f35b346102d6575f3660031901126102d657602060405160648152f35b346102d65760403660031901126102d6576117ac613526565b6004355f52600b60205260405f209060018060a01b03165f52602052602060ff60405f2054166040519015158152f35b346102d6575f3660031901126102d657602060405169010f0cf064dd592000008152f35b346102d65761180e36613629565b905f52600660205260405f2080548210156102d65760209161182f91613659565b905460405160039290921b1c6001600160a01b03168152f35b346102d6575f3660031901126102d6575f5160206145495f395f51905f52546040516001600160a01b039091168152602090f35b346102d65760203660031901126102d65760c0600435805f52600960205260405f209060026001830154920154905f52600a60205260405f2060018060a01b0333165f5260205260ff8060405f205416916040519384528181166020850152818160081c166040850152818160101c161515606085015260181c16151560808301526119078161361f565b60a0820152f35b346102d65760203660031901126102d657611927613510565b6002546001600160a01b03909116905f60015b8281106119ea575061194b906138bd565b915f9060015b83811061199d57846040518091602082016020835281518091526020604084019201905f5b818110611984575050500390f35b8251845285945060209384019390920191600101611976565b805f52600560205260405f20825f5260205260ff600260405f20015460081c166119ca575b600101611951565b916119e28160016119dc8194896138ef565b526137fd565b9290506119c2565b805f52600560205260405f20845f5260205260ff600260405f20015460081c16611a17575b60010161193a565b90611a236001916137fd565b919050611a0f565b346102d65760203660031901126102d657600435611a4761398d565b80158015611cb4575b6104d157805f52600460205260405f206003810190815460ff8160281c1660058110156104bd576001036104ae5760ff8160081c16908160ff8260101c1614611ca5575f85815260056020908152604080832033845290915290206002015460081c60ff16611c975760301c60ff1660028110156104bd5715611c68575b6002611adb920154613af9565b5f54611af5908290309033906001600160a01b03166139c5565b600460405191611b0483613552565b5f835260208301905f8252611b98604085015f815260608601600181526080870193845260a0870194428652895f52600560205260405f2060018060a01b0333165f5260205260ff8060405f209951161660ff19895416178855516001880155611b816002880192511515839060ff801983541691151516179055565b51815461ff00191690151560081b61ff0016179055565b51600384015551910155815f526006602052611bb73360405f20613865565b611be2611bca60ff835460101c166137e0565b825462ff0000191660109190911b62ff000016178255565b33827fa7858a1f19449eeaf5fbe2692047577d00116ecb460791549c018c79e3ce483b5f80a35460ff808260081c169160101c1614611c2f575b60015f5160206145895f395f51905f5255005b611c3881613b27565b7faf0f41c2e769faca4f3422a53417b14043b989e8d29fd8aa1f0fb10273d20f1f6020604051428152a280611c1c565b5f848152600b6020908152604080832033845290915290205460ff16611ace5763779a6f4160e01b5f5260045ffd5b621d934160e11b5f5260045ffd5b63f277526560e01b5f5260045ffd5b50600254811015611a50565b346102d65760803660031901126102d657611cd961398d565b331561209757600435670de0b6b3a764000081108015612084575b61207557600560ff611d04613855565b16108015612061575b61205257600254611d1d816137fd565b600255611d3460ff611d2d613855565b1683613af9565b916064359060028210156102d65760018214612003575b5f54611d65908590309033906001600160a01b03166139c5565b6024359060038210156102d657611d7a613855565b94611d83613855565b938560405191611d928361356d565b8183526020830198338a5260408401978689526060850197611db38161361f565b8852608085019160ff16825260a085016001815260c08601905f825260e087019260ff16835261010087019360018552610120880195611df390876137f1565b4261014089019081525f6101608a018181526101808b018281529982526004602052604090912099518a559e5160018a0180546001600160a01b0319166001600160a01b03929092169190911790559b5160028901559951600388019a90611e5a8161361f565b611e64908c61383d565b518a5461ff00191660089190911b61ff0016178a5551895462ff0000191660109190911b62ff00001617895551885463ff000000191660189190911b63ff000000161788555187549060201b64ff00000000169064ff0000000019161787555160058110156104bd5760ff60281b87549160281b169060ff60281b1916178655519060028210156104bd576020987f83b945859e19f480c406ac4e6ac635d422aad2665c1d65da9419b81d51ba61a897611f226006946060996136c7565b51600485015551600584015551910155600460405191611f4183613552565b5f8352878301905f8252611fba604085015f8152878601600181526080870193845260a08701944286528b5f5260058d5260405f2060018060a01b0333165f528d5260ff8060405f209951161660ff19895416178855516001880155611b816002880192511515839060ff801983541691151516179055565b51600384015551910155835f5260068552611fd83360405f20613865565b6040519084825233868301526040820152a160015f5160206145895f395f51905f5255604051908152f35b6706f05b59d3b200008401841161062d576011546706f05b59d3b2000081011061062d5733837f46fc58301c2ea9f88a47be840edd44559d82b3c0a69ed37ac62f63b313540b615f80a3611d4b565b63027ee80d60e51b5f5260045ffd5b50601460ff61206e613855565b1611611d0d565b631717aceb60e31b5f5260045ffd5b5069010f0cf064dd592000008111611cf4565b6302154e0360e21b5f5260045ffd5b346102d65760603660031901126102d6576120bf613510565b6120c7613526565b60443560ff81168091036102d6575f5160206145a95f395f51905f52548160ff8260401c169182156121f0575b5050611301577fc7f505b2f371ae2175ee4913f4499e1f2633a7b5936321eed1cdaeb6115181d292602092826001600160401b03195f5160206145a95f395f51905f525416175f5160206145a95f395f51905f525560ff60401b195f5160206145a95f395f51905f52541691600160401b83175f5160206145a95f395f51905f525561217e613a72565b6001600160a01b0316806121d4575b506001600160a01b0316806121b6575b505f5160206145a95f395f51905f5255604051908152a1005b6bffffffffffffffffffffffff60a01b60015416176001558461219d565b6bffffffffffffffffffffffff60a01b5f5416175f558561218d565b6001600160401b03161015905081856120f4565b346102d65760203660031901126102d6576004356001600160401b0381116102d657806004019060a060031982360301126102d6576024810135678ac7230489e8000081108015612595575b612586576044820135918215612075576084810135428111156125775760646003549461227c866137fd565b600355612289878061380b565b92909401359160038310156102d657604051946101408601918683106001600160401b0384111761249f576122c59260405233875236916135c5565b9260208501938452604085019286845260608601925f84526080870190815260a08701916122f28161361f565b825260c087019283524260e08801908152600161010089018181525f6101208b018181528d8252600c60205260409091209a518b546001600160a01b0319166001600160a01b0391909116178b55985180519198939793928b0191906001600160401b03821161249f576123668354613682565b601f8111612532575b50602090601f83116001146124be5792826123d396936123f79b99969360099e9d9b99965f926124b3575b50508160011b915f199060031b1c19161790555b5160028c01555160038b01555160048a0155516123ca8161361f565b6005890161383d565b516006870155516007860155511515600885019060ff801983541691151516179055565b51910155335f52600d60205260405f2092835493600160401b85101561249f576124697fb47a43768ee11a2c39a20c45e1527daa1433176193efb66ef41b41811516b4d49261244f878794600160209a018155613659565b81549060031b9085821b915f19901b19161790558061380b565b92908360405191888352818984015260408301375f604085830101526040813395601f80199101168101030190a4604051908152f35b634e487b7160e01b5f52604160045260245ffd5b015190505f8061239a565b90601f19831691845f52815f20925f5b81811061251a5750936123f79b99969360099e9d9b999693600193836123d39b9810612502575b505050811b0190556123ae565b01515f1960f88460031b161c191690555f80806124f5565b929360206001819287860151815501950193016124ce565b835f5260205f20601f840160051c8101916020851061256d575b601f0160051c01905b818110612562575061236f565b5f8155600101612555565b909150819061254c565b631da7447960e21b5f5260045ffd5b631f5aab1b60e21b5f5260045ffd5b50690a968163f0a57b4000008111612250565b346102d6575f3660031901126102d6576125c0613a72565b5f5160206145495f395f51905f5280546001600160a01b031981169091555f906001600160a01b03167f8be0079c531659141344cd1fd0a4f28419497f9722a3daafe3b4186f6b6457e08280a3005b346102d65760203660031901126102d6576004355f6101806040516126338161356d565b8281528260208201528260408201528260608201528260808201528260a08201528260c08201528260e08201528261010082015282610120820152826101408201528261016082015201525f815f52600460205260405f2090604051916126998361356d565b8054835260018101546001600160a01b031660208401526002810154604084015260038101549060ff82166126cd8161361f565b606085015260ff8260081c16608085015260ff8260101c1660a085015260ff8260181c1660c085015260ff8260201c1660e085015260ff8260281c169160058310156104bd5760ff6127309160069461010088015260301c1661012086016137f1565b60048101546101408501526005810154610160850152015461018083015260ff60a0830151166101008301519360058510156104bd576003610200951461285c575b5060ff908160a08501511692606483612790816080890151166137cb565b160491610180604051968051885260018060a01b0360208201511660208901526040810151604089015260608101516127c88161361f565b60608901528560808201511660808901528560a08201511660a08901528560c08201511660c08901528560e08201511660e08901526128116101008201516101008a019061363f565b6128256101208201516101208a019061364c565b61014081015161014089015261016081015161016089015201516101808701526101a08601526101c08501521611156101e0820152f35b9091505f52600860205260405f2060ff60c0840151165f5260205260ff60405f20549190612772565b346102d65761289336613629565b905f52600860205260405f20905f52602052602060405f2054604051908152f35b346102d65760403660031901126102d6576128cd613526565b6004355f52600a60205260405f209060018060a01b03165f52602052602060ff60405f205416604051906129008161361f565b8152f35b346102d6575f3660031901126102d6576001546040516001600160a01b039091168152602090f35b346102d65760603660031901126102d65760243560ff811681036102d65761295261353c565b906004355f52600760205260ff60405f2091165f5260205260405f209060018060a01b03165f52602052602060ff60405f2054166040519015158152f35b346102d65760203660031901126102d65760043580158015612abe575b61066e575f818152600c6020526040902080546001600160a01b0316330361065f5760ff60088201541615610650576009810190815480612a9e575b505f5460048201805460029392612a0d9190309033906001600160a01b03166139c5565b546003820193612a1e8286546136ba565b809555429055604051908152847ff8dcd2004b46a5e4335af67b6a35f66ce85cdb18dd62428d855d7630f46e275760203393a301541115612a5b57005b335f52600e60205260405f20805490600a820180921161062d575533907fdbd2de8162656b063ee98bde00a4a9cbcf05c27bca773cf331c6c4a39bab5e185f80a3005b612ab290610d7f60ff600585015416613a43565b42116110bf57836129e9565b506003548110156129ad565b346102d6575f3660031901126102d65760206040516113ec8152f35b346102d65760403660031901126102d65760243560043560038210156102d65780158015612caa575b6104d157612b1c8261361f565b8115612c9b57805f52600460205260ff600360405f20015460281c1660058110156104bd57600203610810575f81815260056020908152604080832033845290915290206002015460081c60ff161561049f57805f52600960205260405f20600281019060ff825460101c161561081057600101544211612c8c575f828152600a6020908152604080832033845290915290205460ff16612bbc8161361f565b612c7d575f828152600a602090815260408083203384529091529020612be18461361f565b60ff1981541660ff8516179055612bf78361361f565b60018303612c4f5760ff612c0d818354166137e0565b1660ff198254161790555b60405191612c258161361f565b82527feba4866100b822f0f391e610e7edfab790b9e8766c0012733c26b2f1858e8dd760203393a3005b80612c6360ff612c78935460081c166137e0565b61ff0082549160081b169061ff001916179055565b612c18565b637c9a1cf960e01b5f5260045ffd5b63370ec37160e21b5f5260045ffd5b6364a2c03160e11b5f5260045ffd5b50600254811015612b0f565b346102d6575f3660031901126102d657611774604051612cd7604082613589565b60058152640312e302e360dc1b60208201526040519182916020835260208301906135fb565b346102d6575f3660031901126102d6577f00000000000000000000000000000000000000000000000000000000000000006001600160a01b03163003612d545760206040515f5160206145695f395f51905f528152f35b63703e46dd60e11b5f5260045ffd5b60403660031901126102d657612d77613510565b6024356001600160401b0381116102d657366023820112156102d657612da79036906024816004013591016135c5565b6001600160a01b037f000000000000000000000000000000000000000000000000000000000000000016308114908115612f70575b50612d5457612de9613a72565b60018060a01b03821691827f8c26ec1c89a900331babb88eefa754f9b9ed370abe61944d6874e37612764c3f602060405160018152a26040516352d1902d60e01b8152602081600481875afa5f9181612f3c575b50612e555783634c9c8ce360e01b5f5260045260245ffd5b805f5160206145695f395f51905f52859203612f2a5750813b15612f18575f5160206145695f395f51905f5280546001600160a01b031916821790557fbc7cd75a20ee27fd9adebab32041f755214dbc6bffa90cc0225b39da2e5c2d3b5f80a2815115612f00575f8083602061087195519101845af43d15612ef8573d91612edc836135aa565b92612eea6040519485613589565b83523d5f602085013e6144ea565b6060916144ea565b505034612f0957005b63b398979f60e01b5f5260045ffd5b634c9c8ce360e01b5f5260045260245ffd5b632a87526960e21b5f5260045260245ffd5b9091506020813d602011612f68575b81612f5860209383613589565b810103126102d657519085612e3d565b3d9150612f4b565b5f5160206145695f395f51905f52546001600160a01b03161415905083612ddc565b346102d6575f3660031901126102d65760206040516706f05b59d3b200008152f35b346102d65760203660031901126102d657600435801580156130d5575b6104d157805f52600460205260405f20600381019081549060ff8260281c1660058110156104bd576001036104ae5760ff606481613013818660081c166137cb565b16041660ff8360101c161061092457600461044a60ff6130339416613a09565b42101561091557815f52600960205260405f209060028201805460ff8160101c166108015760181c60ff166130c6574283556202a30042019283421161062d57600101928355805463ffffffff191662010000179055805465ff000000000019166502000000000017905554907ff4e39a27c6c29179b6afb3a070360307cdbda13933023287f5ca10a69b3628e25f80a3005b63f792f8f960e01b5f5260045ffd5b50600254811015612fd1565b346102d6575f3660031901126102d6576020604051670de0b6b3a76400008152f35b346102d65760203660031901126102d6576020613121600435613742565b6040519015158152f35b346102d65760403660031901126102d657613144613526565b6004355f52600560205260405f209060018060a01b03165f5260205260c060405f2060ff8154169060018101549060ff6002820154600460038401549301549360405195865260208601528181161515604086015260081c1615156060840152608083015260a0820152f35b346102d6575f3660031901126102d6576020601254604051908152f35b346102d65760403660031901126102d6576004356131e9613526565b905f60a06040516131f981613552565b82815282602082015282604082015282606082015282608082015201525f5f90825f52600560205260405f2060018060a01b0385165f5260205260405f20926040519361324585613552565b60ff8154168552600181015460208601908152600282015490604087019060ff83161515825260ff606089019360081c1615158352600460038501549460808a0195865201549460a08901958652805f526004602052600360405f20015460ff8160281c169a60058c10156104bd5760036101009c146132fd575b50505060ff6040519851168852516020880152511515604087015251151560608601525160808501525160a0840152151560c083015260e0820152f35b919750919750865f52600760205260ff60405f209260181c169160ff83165f5260205260405f209060018060a01b03165f5260205260ff60405f205416955f52600860205260405f20905f5260205260405f2054958980806132c0565b346102d65760403660031901126102d65760043560243560028110156102d65761338261398d565b811580156134aa575b6104d1575f82815260046020526040902060018101546001600160a01b031633036109335760030190815460ff8160281c1660058110156104bd5760010361349b5760301c60ff1660028110156104bd57811461348c575f546040516323b872dd60e01b60208201523360248201523060448201526706f05b59d3b200006064808301919091528152613431916001600160a01b031661342c608483613589565b613f1a565b601154916706f05b59d3b20000830180931161062d57613453926011556136c7565b33907f46fc58301c2ea9f88a47be840edd44559d82b3c0a69ed37ac62f63b313540b615f80a360015f5160206145895f395f51905f5255005b63051a3ed560e11b5f5260045ffd5b63a407615b60e01b5f5260045ffd5b5060025482101561338b565b346102d65760203660031901126102d6576001600160a01b036134d7613510565b165f526010602052602060405f2054604051908152f35b346102d6575f3660031901126102d6575f546001600160a01b03168152602090f35b600435906001600160a01b03821682036102d657565b602435906001600160a01b03821682036102d657565b604435906001600160a01b03821682036102d657565b60c081019081106001600160401b0382111761249f57604052565b6101a081019081106001600160401b0382111761249f57604052565b90601f801991011681019081106001600160401b0382111761249f57604052565b6001600160401b03811161249f57601f01601f191660200190565b9291926135d1826135aa565b916135df6040519384613589565b8294818452818301116102d6578281602093845f960137010152565b805180835260209291819084018484015e5f828201840152601f01601f1916010190565b600311156104bd57565b60409060031901126102d6576004359060243590565b9060058210156104bd5752565b9060028210156104bd5752565b805482101561366e575f5260205f2001905f90565b634e487b7160e01b5f52603260045260245ffd5b90600182811c921680156136b0575b602083101461369c57565b634e487b7160e01b5f52602260045260245ffd5b91607f1691613691565b9190820180921161062d57565b9060028110156104bd5766ff00000000000082549160301b169066ff0000000000001916179055565b60ff60019116019060ff821161062d57565b9060ff8091169116019060ff821161062d57565b61ffff6127109116029061ffff821691820361062d57565b9061ffff169081156106195761ffff160490565b805f52600460205260405f20905f526009602052600260405f2001549060ff8260181c16156137c5576003015460281c60ff1660058110156104bd576003146137c05760ff613799818084169360081c1683613702565b1680156137b8576137b361ffff9161076a6113ec94613716565b161090565b506001919050565b505f90565b50505f90565b60ff603c9116029060ff821691820361062d57565b60ff1660ff811461062d5760010190565b60028210156104bd5752565b5f19811461062d5760010190565b903590601e19813603018212156102d657018035906001600160401b0382116102d6576020019181360383136102d657565b906138478161361f565b60ff80198354169116179055565b60443560ff811681036102d65790565b8054600160401b81101561249f5761388291600182018155613659565b81546001600160a01b0393841660039290921b91821b9390911b1916919091179055565b6001600160401b03811161249f5760051b60200190565b906138c7826138a6565b6138d46040519182613589565b82815280926138e5601f19916138a6565b0190602036910137565b805182101561366e5760209160051b010190565b919081101561366e5760051b0190565b356001600160a01b03811681036102d65790565b6139308161361f565b1561393c576202a30090565b5f90565b6001600160a01b0381161561395a5761395890613aa5565b565b631e4fbdf760e01b5f525f60045260245ffd5b8181029291811591840414171561062d57565b9190820391821161062d57565b60025f5160206145895f395f51905f5254146139b65760025f5160206145895f395f51905f5255565b633ee5aeb560e01b5f5260045ffd5b6040516323b872dd60e01b60208201526001600160a01b0392831660248201529290911660448301526064808301939093529181526139589161342c608483613589565b613a128161361f565b8015908115613a2f575b50613a28576212750090565b62093a8090565b60019150613a3c8161361f565b145f613a1c565b613a4c8161361f565b8015613a6a57600190613a5e8161361f565b14613a285762278d0090565b506201518090565b5f5160206145495f395f51905f52546001600160a01b03163303613a9257565b63118cdaa760e01b5f523360045260245ffd5b5f5160206145495f395f51905f5280546001600160a01b039283166001600160a01b0319821681179092559091167f8be0079c531659141344cd1fd0a4f28419497f9722a3daafe3b4186f6b6457e05f80a3565b90613b039161396d565b60648102908082046064148115171561062d57612710613b249204906136ba565b90565b5f8181526004602090815260408083206006835281842060058452828520600180840180546001600160a01b03908116895292875296859020805460ff191682179055955493519586529596909590949216929091839187917ffc79da6c5316f4c3a2841a4a8ee84045b0cda7f9c0b91deec048b7f26d4293cf9190a383545f1981019481861161062d57613bbb866138a6565b91613bc96040519384613589565b868352601f19613bd8886138a6565b01366020850137613be8876138bd565b945f905f5b8360ff821610613dc75750505050505f955b60ff87169486861015613c9357613c15886136f0565b60ff811688811015613c7f579081613c30613c4893896138ef565b51613c3b8a8a6138ef565b5110613c4d575b506137e0565b613c15565b613c78613c5a8a8a6138ef565b5191613c66818b6138ef565b51613c718c8c6138ef565b52896138ef565b525f613c42565b5050945095613c8d906137e0565b95613bff565b92959650925092505f5b60ff81169086821015613d42576002820160ff811161062d57847ffc79da6c5316f4c3a2841a4a8ee84045b0cda7f9c0b91deec048b7f26d4293cf6020613d3d95835f526005825260405f2060018060a01b03613cfa838d6138ef565b516001600160a01b03911681165f9081529184526040909120805460ff191660ff881617905590613d2b908b6138ef565b51169360ff60405191168152a36137e0565b613c9d565b50506003840180544260059096018690556503000100000065ff00ff0000001982161790915590945061395893919250613d7f919060ff16613f7d565b815f52600860205260405f2060015f5260205260405f2055807faf0f41c2e769faca4f3422a53417b14043b989e8d29fd8aa1f0fb10273d20f1f6020604051428152a2613fce565b81613dd28287613659565b905460039190911b1c6001600160a01b031603613df8575b613df3906137e0565b613bed565b91613e038386613659565b905460039190911b1c6001600160a01b0316613e1f82886138ef565b52613e2a8386613659565b60018060a01b0391549060031b1c165f52600e60205260405f205490613e508487613659565b60018060a01b0391549060031b1c165f52600f60205260405f205490600a820291808304600a149015171561062d57613e8f613e9992613df3946136ba565b6119dc828c6138ef565b929050613dea565b6109c48110613ed9576113888110613ed357611d4c8110613ecd5761271011613ec8575f90565b600a90565b50601e90565b50603c90565b50606490565b60405163a9059cbb60e01b60208201526001600160a01b0390921660248301526044808301939093529181526139589161342c606483613589565b905f602091828151910182855af115613f72575f513d613f6957506001600160a01b0381163b155b613f495750565b635274afe760e01b5f9081526001600160a01b0391909116600452602490fd5b60011415613f42565b6040513d5f823e3d90fd5b613f868161361f565b8015613fbd57600190613f988161361f565b14613fad5762278d00810180911161062d5790565b62093a80810180911161062d5790565b5062015180810180911161062d5790565b805f52600460205260405f20613fe5600183614452565b906001600160a01b038216801561424b57835f52600560205260405f20815f52602052600260405f200160ff81541661424457600683019081549460018060a01b036001860154168403614206575b9061404b865f949360018060a01b03865416613edf565b600160ff1982541617905555805f52600e60205260405f208054936005850180951161062d577f52e998e38a9505deab1cc0e4a47bdd8426a6fde45f6693db2fd122e537fcf22b6020879260039760019555855f52600f825260405f206140b281546137fd565b9055604051908152a401805460201c60ff166001101561410857805463ff000000191663020000001781556140ee9060ff905b54164290613f7d565b905f52600860205260405f2060015f5260205260405f2055565b6504000000000060ff60281b19825416179055805f52600660205260405f205f5b815460ff821610156141de5761418a90835f52600560205260405f2061414f8285613659565b905460039190911b1c6001600160a01b03165f90815260209190915260409020600281015460081c60ff16806141d1575b61418f57506137e0565b614129565b60030180545f9182905590546141cb91906001600160a01b03166141b38487613659565b905460039190911b1c6001600160a01b031690613edf565b5f613c42565b5060038101541515614180565b50507ffccd3901546cfbb42742cac2c7335bce34f1f8d9844f4f4b53640f79e31010875f80a2565b9061404b614236965f949361422b6127106142236012548561396d565b048093613980565b9889926011546136ba565b601155929394505050614034565b5050505050565b50505050565b90815f52600460205260405f209060ff81169161426e8385614452565b906001600160a01b038216801561441f57855f52600560205260405f20815f52602052600260405f200160ff81541661441657600683019081549460018060a01b0360018601541684036143eb575b906142d4865f949360018060a01b03865416613edf565b600160ff1982541617905555805f52600e60205260405f208054936005850180951161062d577f52e998e38a9505deab1cc0e4a47bdd8426a6fde45f6693db2fd122e537fcf22b602089926003978a9555855f52600f825260405f2061433a81546137fd565b9055604051908152a4019060ff825460201c1683105f1461439a57614381916140e561436760ff936136f0565b825463ff000000191660189190911b63ff00000016178255565b915f52600860205260405f20905f5260205260405f2055565b50805465ff0000000000191665040000000000179055505f818152600660205260408120905b815460ff821610156141de576143e690835f52600560205260405f2061414f8285613659565b6143c0565b906142d4614408965f949361422b6127106142236012548561396d565b6011559293945050506142bd565b50505050505050565b505050505050565b60ff5f5160206145a95f395f51905f525460401c161561444357565b631afcd79f60e31b5f5260045ffd5b90815f52600660205260405f20905f928254935b8460ff8216106144795750505050505f90565b815f52600560205260405f2061448f8286613659565b905460039190911b1c6001600160a01b03165f908152602091909152604090205460ff1683146144c7576144c2906137e0565b614466565b929150506144d59250613659565b905460039190911b1c6001600160a01b031690565b9061450e57508051156144ff57602081519101fd5b63d6bda27560e01b5f5260045ffd5b8151158061453f575b61451f575090565b639996b31560e01b5f9081526001600160a01b0391909116600452602490fd5b50803b1561451756fe9016d09d72d40fdae2fd8ceac6b6234c7706214fd39c1cd1e609a0528c199300360894a13ba1a3210667c828492db98dca3e2076cc3735a920a3ca505d382bbc9b779b17422d0df92223018b32b4d1fa46e071723d6817e2486d003becc55f00f0c57e16840df040f15088dc2f81fe391c3923bec73e23a9662efc9c229c6a00a2646970667358221220fb13973cef83068053af9f1cf4f81156ba86957ccc82416719ac04c5f4b0553064736f6c634300081e0033f0c57e16840df040f15088dc2f81fe391c3923bec73e23a9662efc9c229c6a00",
    "sourcePath": "/home/isiaq/workspace/CirclePot/smart-contract/src/CirclePotV1.sol",
    "compiler": {
        "name": "solc",
        "version": "0.8.30+commit.73712a01"
    },
    "functionHashes": {
        "ContributeToGoal(uint256)": "5fcd98e2",
        "LATE_FEE_BPS()": "a8c93057",
        "MAX_CONTRIBUTION()": "94d95f8f",
        "MAX_MEMBERS()": "ea0e35b1",
        "MIN_CONTRIBUTION()": "40650c91",
        "MIN_MEMBERS()": "d9a67220",
        "PLATFORM_FEE_BPS()": "539aa77f",
        "START_VOTE_THRESHOLD()": "58f8d6ff",
        "UPGRADE_INTERFACE_VERSION()": "ad3cb1cc",
        "VERSION()": "ffa1ad74",
        "VISIBILITY_UPDATE_FEE()": "46c39a1d",
        "VOTING_PERIOD()": "b1610d7e",
        "WithdrawCollateral(uint256)": "fc226bcc",
        "_getGracePeriod(uint8)": "d4cfc5dc",
        "cUSDToken()": "0ea86ad8",
        "canWithdrawAfterVote(uint256)": "2dfa6768",
        "castVote(uint256,uint8)": "56781388",
        "circleCounter()": "f3890e1f",
        "circleInvitations(uint256,address)": "98d4c1dd",
        "circleMemberList(uint256,uint256)": "8fda34bf",
        "circleMembers(uint256,address)": "2c2b97a4",
        "circleRoundDeadlines(uint256,uint256)": "69be46bf",
        "circleVotes(uint256)": "c4ce74e0",
        "circles(uint256)": "bc5e0f30",
        "completedCircles(address)": "fd81593f",
        "contribute(uint256)": "c1cbbca7",
        "createCircle((uint256,uint8,uint8,uint8))": "8261efa7",
        "createPersonalGoal((string,uint256,uint256,uint8,uint256))": "73705573",
        "executeVote(uint256)": "f98a4eca",
        "getCircleDetails(uint256)": "6cd5bf8f",
        "getCircleMembers(uint256)": "cb815ab9",
        "getCircleProgress(uint256)": "bc38b8f7",
        "getMemberInfo(uint256,address)": "1e67939e",
        "getUserCircles(address)": "88e81d8a",
        "getUserReputation(address)": "baccbfdb",
        "getVoteInfo(uint256)": "8d824273",
        "goalCounter()": "f9e9ad39",
        "initialize(address,address,address)": "c0c53b8b",
        "initiateVoting(uint256)": "45714684",
        "inviteMembers(uint256,address[])": "d4bf578c",
        "isInvited(uint256,address)": "12e81b80",
        "joinCircle(uint256)": "86d6cfb3",
        "latePayments(address)": "0f801988",
        "memberVotes(uint256,address)": "63fc152e",
        "owner()": "8da5cb5b",
        "personalGoals(uint256)": "ad5a6982",
        "platformFeeBps()": "22dcd13e",
        "proxiableUUID()": "52d1902d",
        "renounceOwnership()": "715018a6",
        "roundContributions(uint256,uint8,address)": "61a524a1",
        "startCircle(uint256)": "ec6b733f",
        "totalPlatformFees()": "d3631fa5",
        "transferOwnership(address)": "f2fde38b",
        "treasury()": "61d027b3",
        "updateCircleVisibility(uint256,uint8)": "157a7ec7",
        "upgrade(address,address,uint8)": "7ee839c4",
        "upgradeToAndCall(address,bytes)": "4f1ef286",
        "userGoals(address,uint256)": "b6b3eedf",
        "userReputation(address)": "e503bb05",
        "version()": "54fd4d50",
        "withdrawFromGoal(uint256,uint256)": "f9d040b8"
    },
    "gasEstimates": {
        "creation": {
            "codeDepositCost": "3583600",
            "executionCost": "infinite",
            "totalCost": "infinite"
        },
        "external": {
            "ContributeToGoal(uint256)": "infinite",
            "LATE_FEE_BPS()": "901",
            "MAX_CONTRIBUTION()": "857",
            "MAX_MEMBERS()": "1275",
            "MIN_CONTRIBUTION()": "329",
            "MIN_MEMBERS()": "1231",
            "PLATFORM_FEE_BPS()": "439",
            "START_VOTE_THRESHOLD()": "505",
            "UPGRADE_INTERFACE_VERSION()": "1226",
            "VERSION()": "1470",
            "VISIBILITY_UPDATE_FEE()": "373",
            "VOTING_PERIOD()": "967",
            "WithdrawCollateral(uint256)": "infinite",
            "_getGracePeriod(uint8)": "1339",
            "cUSDToken()": "2265",
            "canWithdrawAfterVote(uint256)": "5064",
            "castVote(uint256,uint8)": "infinite",
            "circleCounter()": "3444",
            "circleInvitations(uint256,address)": "3211",
            "circleMemberList(uint256,uint256)": "7418",
            "circleMembers(uint256,address)": "11167",
            "circleRoundDeadlines(uint256,uint256)": "2886",
            "circleVotes(uint256)": "7654",
            "circles(uint256)": "16342",
            "completedCircles(address)": "3704",
            "contribute(uint256)": "infinite",
            "createCircle((uint256,uint8,uint8,uint8))": "infinite",
            "createPersonalGoal((string,uint256,uint256,uint8,uint256))": "infinite",
            "executeVote(uint256)": "infinite",
            "getCircleDetails(uint256)": "infinite",
            "getCircleMembers(uint256)": "infinite",
            "getCircleProgress(uint256)": "infinite",
            "getMemberInfo(uint256,address)": "infinite",
            "getUserCircles(address)": "infinite",
            "getUserReputation(address)": "7633",
            "getVoteInfo(uint256)": "7526",
            "goalCounter()": "3510",
            "initialize(address,address,address)": "infinite",
            "initiateVoting(uint256)": "infinite",
            "inviteMembers(uint256,address[])": "infinite",
            "isInvited(uint256,address)": "2529",
            "joinCircle(uint256)": "infinite",
            "latePayments(address)": "2428",
            "memberVotes(uint256,address)": "2976",
            "owner()": "infinite",
            "personalGoals(uint256)": "infinite",
            "platformFeeBps()": "2366",
            "proxiableUUID()": "infinite",
            "renounceOwnership()": "28624",
            "roundContributions(uint256,uint8,address)": "2985",
            "startCircle(uint256)": "infinite",
            "totalPlatformFees()": "3268",
            "transferOwnership(address)": "29461",
            "treasury()": "2698",
            "updateCircleVisibility(uint256,uint8)": "infinite",
            "upgrade(address,address,uint8)": "infinite",
            "upgradeToAndCall(address,bytes)": "infinite",
            "userGoals(address,uint256)": "7613",
            "userReputation(address)": "3506",
            "version()": "764",
            "withdrawFromGoal(uint256,uint256)": "infinite"
        },
        "internal": {
            "_assignPosition(uint256)": "infinite",
            "_authorizeUpgrade(address)": "infinite",
            "_calcCollateral(uint256,uint256)": "241",
            "_checkComplete(uint256)": "infinite",
            "_freqSeconds(enum CirclePotV1.Frequency)": "infinite",
            "_getByPos(uint256,uint256)": "infinite",
            "_handleLate(uint256,uint8,uint256)": "infinite",
            "_nextDeadline(enum CirclePotV1.Frequency,uint256)": "infinite",
            "_payoutRound(uint256,uint8)": "infinite",
            "_penaltyBps(uint256)": "101",
            "_progressNextRound(struct CirclePotV1.Circle storage pointer,uint256,uint8)": "infinite",
            "_releaseAllCollateral(uint256)": "infinite",
            "_startCircleInternal(uint256)": "infinite",
            "_ultimatum(enum CirclePotV1.Frequency)": "infinite"
        }
    }
}