{
    "contractName": "CirclePotV1",
    "abi": [
        {
            "inputs": [],
            "stateMutability": "nonpayable",
            "type": "constructor"
        },
        {
            "inputs": [
                {
                    "internalType": "address",
                    "name": "target",
                    "type": "address"
                }
            ],
            "name": "AddressEmptyCode",
            "type": "error"
        },
        {
            "inputs": [],
            "name": "AddressZeroNotAllowed",
            "type": "error"
        },
        {
            "inputs": [],
            "name": "AlreadyJoined",
            "type": "error"
        },
        {
            "inputs": [],
            "name": "CircleFull",
            "type": "error"
        },
        {
            "inputs": [],
            "name": "CircleNotExist",
            "type": "error"
        },
        {
            "inputs": [],
            "name": "CircleNotOpen",
            "type": "error"
        },
        {
            "inputs": [
                {
                    "internalType": "address",
                    "name": "implementation",
                    "type": "address"
                }
            ],
            "name": "ERC1967InvalidImplementation",
            "type": "error"
        },
        {
            "inputs": [],
            "name": "ERC1967NonPayable",
            "type": "error"
        },
        {
            "inputs": [],
            "name": "FailedCall",
            "type": "error"
        },
        {
            "inputs": [],
            "name": "InvalidCircle",
            "type": "error"
        },
        {
            "inputs": [],
            "name": "InvalidContributionAmount",
            "type": "error"
        },
        {
            "inputs": [],
            "name": "InvalidInitialization",
            "type": "error"
        },
        {
            "inputs": [],
            "name": "InvalidMemberCount",
            "type": "error"
        },
        {
            "inputs": [],
            "name": "InvalidTreasuryAddress",
            "type": "error"
        },
        {
            "inputs": [],
            "name": "NotInitializing",
            "type": "error"
        },
        {
            "inputs": [],
            "name": "OnlyCreator",
            "type": "error"
        },
        {
            "inputs": [
                {
                    "internalType": "address",
                    "name": "owner",
                    "type": "address"
                }
            ],
            "name": "OwnableInvalidOwner",
            "type": "error"
        },
        {
            "inputs": [
                {
                    "internalType": "address",
                    "name": "account",
                    "type": "address"
                }
            ],
            "name": "OwnableUnauthorizedAccount",
            "type": "error"
        },
        {
            "inputs": [],
            "name": "ReentrancyGuardReentrantCall",
            "type": "error"
        },
        {
            "inputs": [
                {
                    "internalType": "address",
                    "name": "token",
                    "type": "address"
                }
            ],
            "name": "SafeERC20FailedOperation",
            "type": "error"
        },
        {
            "inputs": [],
            "name": "SameVisibility",
            "type": "error"
        },
        {
            "inputs": [],
            "name": "UUPSUnauthorizedCallContext",
            "type": "error"
        },
        {
            "inputs": [
                {
                    "internalType": "bytes32",
                    "name": "slot",
                    "type": "bytes32"
                }
            ],
            "name": "UUPSUnsupportedProxiableUUID",
            "type": "error"
        },
        {
            "anonymous": false,
            "inputs": [
                {
                    "indexed": false,
                    "internalType": "uint256",
                    "name": "circleId",
                    "type": "uint256"
                },
                {
                    "indexed": false,
                    "internalType": "address",
                    "name": "creator",
                    "type": "address"
                },
                {
                    "indexed": false,
                    "internalType": "uint256",
                    "name": "contributionAmount",
                    "type": "uint256"
                }
            ],
            "name": "CircleCreated",
            "type": "event"
        },
        {
            "anonymous": false,
            "inputs": [
                {
                    "indexed": true,
                    "internalType": "uint256",
                    "name": "circleId",
                    "type": "uint256"
                },
                {
                    "indexed": true,
                    "internalType": "address",
                    "name": "member",
                    "type": "address"
                }
            ],
            "name": "CircleJoined",
            "type": "event"
        },
        {
            "anonymous": false,
            "inputs": [
                {
                    "indexed": true,
                    "internalType": "address",
                    "name": "newImplementation",
                    "type": "address"
                },
                {
                    "indexed": false,
                    "internalType": "uint8",
                    "name": "version",
                    "type": "uint8"
                }
            ],
            "name": "ContractUpgraded",
            "type": "event"
        },
        {
            "anonymous": false,
            "inputs": [
                {
                    "indexed": false,
                    "internalType": "uint64",
                    "name": "version",
                    "type": "uint64"
                }
            ],
            "name": "Initialized",
            "type": "event"
        },
        {
            "anonymous": false,
            "inputs": [
                {
                    "indexed": true,
                    "internalType": "address",
                    "name": "previousOwner",
                    "type": "address"
                },
                {
                    "indexed": true,
                    "internalType": "address",
                    "name": "newOwner",
                    "type": "address"
                }
            ],
            "name": "OwnershipTransferred",
            "type": "event"
        },
        {
            "anonymous": false,
            "inputs": [
                {
                    "indexed": true,
                    "internalType": "address",
                    "name": "implementation",
                    "type": "address"
                }
            ],
            "name": "Upgraded",
            "type": "event"
        },
        {
            "anonymous": false,
            "inputs": [
                {
                    "indexed": true,
                    "internalType": "uint256",
                    "name": "circleId",
                    "type": "uint256"
                },
                {
                    "indexed": true,
                    "internalType": "address",
                    "name": "creator",
                    "type": "address"
                }
            ],
            "name": "VisibilityUpdated",
            "type": "event"
        },
        {
            "inputs": [],
            "name": "LATE_FEE_BPS",
            "outputs": [
                {
                    "internalType": "uint256",
                    "name": "",
                    "type": "uint256"
                }
            ],
            "stateMutability": "view",
            "type": "function"
        },
        {
            "inputs": [],
            "name": "MAX_CONTRIBUTION",
            "outputs": [
                {
                    "internalType": "uint256",
                    "name": "",
                    "type": "uint256"
                }
            ],
            "stateMutability": "view",
            "type": "function"
        },
        {
            "inputs": [],
            "name": "MAX_MEMBERS",
            "outputs": [
                {
                    "internalType": "uint256",
                    "name": "",
                    "type": "uint256"
                }
            ],
            "stateMutability": "view",
            "type": "function"
        },
        {
            "inputs": [],
            "name": "MIN_CONTRIBUTION",
            "outputs": [
                {
                    "internalType": "uint256",
                    "name": "",
                    "type": "uint256"
                }
            ],
            "stateMutability": "view",
            "type": "function"
        },
        {
            "inputs": [],
            "name": "MIN_MEMBERS",
            "outputs": [
                {
                    "internalType": "uint256",
                    "name": "",
                    "type": "uint256"
                }
            ],
            "stateMutability": "view",
            "type": "function"
        },
        {
            "inputs": [],
            "name": "PLATFORM_FEE_BPS",
            "outputs": [
                {
                    "internalType": "uint256",
                    "name": "",
                    "type": "uint256"
                }
            ],
            "stateMutability": "view",
            "type": "function"
        },
        {
            "inputs": [],
            "name": "UPGRADE_INTERFACE_VERSION",
            "outputs": [
                {
                    "internalType": "string",
                    "name": "",
                    "type": "string"
                }
            ],
            "stateMutability": "view",
            "type": "function"
        },
        {
            "inputs": [],
            "name": "VERSION",
            "outputs": [
                {
                    "internalType": "uint8",
                    "name": "",
                    "type": "uint8"
                }
            ],
            "stateMutability": "view",
            "type": "function"
        },
        {
            "inputs": [],
            "name": "VISIBILITY_UPDATE_FEE",
            "outputs": [
                {
                    "internalType": "uint256",
                    "name": "",
                    "type": "uint256"
                }
            ],
            "stateMutability": "view",
            "type": "function"
        },
        {
            "inputs": [],
            "name": "cUSDToken",
            "outputs": [
                {
                    "internalType": "address",
                    "name": "",
                    "type": "address"
                }
            ],
            "stateMutability": "view",
            "type": "function"
        },
        {
            "inputs": [],
            "name": "circleCounter",
            "outputs": [
                {
                    "internalType": "uint256",
                    "name": "",
                    "type": "uint256"
                }
            ],
            "stateMutability": "view",
            "type": "function"
        },
        {
            "inputs": [
                {
                    "internalType": "uint256",
                    "name": "",
                    "type": "uint256"
                },
                {
                    "internalType": "uint256",
                    "name": "",
                    "type": "uint256"
                }
            ],
            "name": "circleMemberList",
            "outputs": [
                {
                    "internalType": "address",
                    "name": "",
                    "type": "address"
                }
            ],
            "stateMutability": "view",
            "type": "function"
        },
        {
            "inputs": [
                {
                    "internalType": "uint256",
                    "name": "",
                    "type": "uint256"
                },
                {
                    "internalType": "address",
                    "name": "",
                    "type": "address"
                }
            ],
            "name": "circleMembers",
            "outputs": [
                {
                    "internalType": "uint256",
                    "name": "position",
                    "type": "uint256"
                },
                {
                    "internalType": "uint256",
                    "name": "totalContributed",
                    "type": "uint256"
                },
                {
                    "internalType": "bool",
                    "name": "hasReceivedPayout",
                    "type": "bool"
                },
                {
                    "internalType": "bool",
                    "name": "isActive",
                    "type": "bool"
                },
                {
                    "internalType": "uint256",
                    "name": "collateralLocked",
                    "type": "uint256"
                },
                {
                    "internalType": "uint256",
                    "name": "joinedAt",
                    "type": "uint256"
                }
            ],
            "stateMutability": "view",
            "type": "function"
        },
        {
            "inputs": [
                {
                    "internalType": "uint256",
                    "name": "",
                    "type": "uint256"
                },
                {
                    "internalType": "uint256",
                    "name": "",
                    "type": "uint256"
                }
            ],
            "name": "circleRoundDeadlines",
            "outputs": [
                {
                    "internalType": "uint256",
                    "name": "",
                    "type": "uint256"
                }
            ],
            "stateMutability": "view",
            "type": "function"
        },
        {
            "inputs": [
                {
                    "internalType": "uint256",
                    "name": "",
                    "type": "uint256"
                }
            ],
            "name": "circles",
            "outputs": [
                {
                    "internalType": "uint256",
                    "name": "circleId",
                    "type": "uint256"
                },
                {
                    "internalType": "address",
                    "name": "creator",
                    "type": "address"
                },
                {
                    "internalType": "uint256",
                    "name": "contributionAmount",
                    "type": "uint256"
                },
                {
                    "internalType": "enum CirclePotV1.Frequency",
                    "name": "frequency",
                    "type": "uint8"
                },
                {
                    "internalType": "uint256",
                    "name": "maxMembers",
                    "type": "uint256"
                },
                {
                    "internalType": "uint256",
                    "name": "currentMembers",
                    "type": "uint256"
                },
                {
                    "internalType": "uint256",
                    "name": "currentRound",
                    "type": "uint256"
                },
                {
                    "internalType": "uint256",
                    "name": "totalRounds",
                    "type": "uint256"
                },
                {
                    "internalType": "enum CirclePotV1.CircleState",
                    "name": "state",
                    "type": "uint8"
                },
                {
                    "internalType": "enum CirclePotV1.Visibility",
                    "name": "visibility",
                    "type": "uint8"
                },
                {
                    "internalType": "uint256",
                    "name": "createdAt",
                    "type": "uint256"
                },
                {
                    "internalType": "uint256",
                    "name": "startedAt",
                    "type": "uint256"
                },
                {
                    "internalType": "uint256",
                    "name": "totalPot",
                    "type": "uint256"
                }
            ],
            "stateMutability": "view",
            "type": "function"
        },
        {
            "inputs": [
                {
                    "internalType": "address",
                    "name": "",
                    "type": "address"
                }
            ],
            "name": "completedCircles",
            "outputs": [
                {
                    "internalType": "uint256",
                    "name": "",
                    "type": "uint256"
                }
            ],
            "stateMutability": "view",
            "type": "function"
        },
        {
            "inputs": [
                {
                    "components": [
                        {
                            "internalType": "uint256",
                            "name": "contributionAmount",
                            "type": "uint256"
                        },
                        {
                            "internalType": "enum CirclePotV1.Frequency",
                            "name": "frequency",
                            "type": "uint8"
                        },
                        {
                            "internalType": "uint256",
                            "name": "maxMembers",
                            "type": "uint256"
                        },
                        {
                            "internalType": "enum CirclePotV1.Visibility",
                            "name": "visibility",
                            "type": "uint8"
                        }
                    ],
                    "internalType": "struct CirclePotV1.CreateCircleParams",
                    "name": "params",
                    "type": "tuple"
                }
            ],
            "name": "createCircle",
            "outputs": [
                {
                    "internalType": "uint256",
                    "name": "",
                    "type": "uint256"
                }
            ],
            "stateMutability": "nonpayable",
            "type": "function"
        },
        {
            "inputs": [],
            "name": "goalCounter",
            "outputs": [
                {
                    "internalType": "uint256",
                    "name": "",
                    "type": "uint256"
                }
            ],
            "stateMutability": "view",
            "type": "function"
        },
        {
            "inputs": [
                {
                    "internalType": "address",
                    "name": "_cUSDToken",
                    "type": "address"
                },
                {
                    "internalType": "address",
                    "name": "_treasury",
                    "type": "address"
                },
                {
                    "internalType": "address",
                    "name": "initialOwner",
                    "type": "address"
                }
            ],
            "name": "initialize",
            "outputs": [],
            "stateMutability": "nonpayable",
            "type": "function"
        },
        {
            "inputs": [
                {
                    "internalType": "uint256",
                    "name": "_circleId",
                    "type": "uint256"
                }
            ],
            "name": "joinCircle",
            "outputs": [],
            "stateMutability": "nonpayable",
            "type": "function"
        },
        {
            "inputs": [
                {
                    "internalType": "address",
                    "name": "",
                    "type": "address"
                }
            ],
            "name": "latePayments",
            "outputs": [
                {
                    "internalType": "uint256",
                    "name": "",
                    "type": "uint256"
                }
            ],
            "stateMutability": "view",
            "type": "function"
        },
        {
            "inputs": [],
            "name": "owner",
            "outputs": [
                {
                    "internalType": "address",
                    "name": "",
                    "type": "address"
                }
            ],
            "stateMutability": "view",
            "type": "function"
        },
        {
            "inputs": [
                {
                    "internalType": "uint256",
                    "name": "",
                    "type": "uint256"
                }
            ],
            "name": "personalGoals",
            "outputs": [
                {
                    "internalType": "address",
                    "name": "owner",
                    "type": "address"
                },
                {
                    "internalType": "string",
                    "name": "name",
                    "type": "string"
                },
                {
                    "internalType": "uint256",
                    "name": "targetAmount",
                    "type": "uint256"
                },
                {
                    "internalType": "uint256",
                    "name": "currentAmount",
                    "type": "uint256"
                },
                {
                    "internalType": "uint256",
                    "name": "contributionAmount",
                    "type": "uint256"
                },
                {
                    "internalType": "enum CirclePotV1.Frequency",
                    "name": "frequency",
                    "type": "uint8"
                },
                {
                    "internalType": "uint256",
                    "name": "deadline",
                    "type": "uint256"
                },
                {
                    "internalType": "uint256",
                    "name": "createdAt",
                    "type": "uint256"
                },
                {
                    "internalType": "bool",
                    "name": "isActive",
                    "type": "bool"
                },
                {
                    "internalType": "uint256",
                    "name": "lastContributionAt",
                    "type": "uint256"
                }
            ],
            "stateMutability": "view",
            "type": "function"
        },
        {
            "inputs": [],
            "name": "platformFeeBps",
            "outputs": [
                {
                    "internalType": "uint256",
                    "name": "",
                    "type": "uint256"
                }
            ],
            "stateMutability": "view",
            "type": "function"
        },
        {
            "inputs": [],
            "name": "proxiableUUID",
            "outputs": [
                {
                    "internalType": "bytes32",
                    "name": "",
                    "type": "bytes32"
                }
            ],
            "stateMutability": "view",
            "type": "function"
        },
        {
            "inputs": [],
            "name": "renounceOwnership",
            "outputs": [],
            "stateMutability": "nonpayable",
            "type": "function"
        },
        {
            "inputs": [
                {
                    "internalType": "uint256",
                    "name": "",
                    "type": "uint256"
                },
                {
                    "internalType": "uint256",
                    "name": "",
                    "type": "uint256"
                },
                {
                    "internalType": "address",
                    "name": "",
                    "type": "address"
                }
            ],
            "name": "roundContributions",
            "outputs": [
                {
                    "internalType": "bool",
                    "name": "",
                    "type": "bool"
                }
            ],
            "stateMutability": "view",
            "type": "function"
        },
        {
            "inputs": [],
            "name": "totalPlatformFees",
            "outputs": [
                {
                    "internalType": "uint256",
                    "name": "",
                    "type": "uint256"
                }
            ],
            "stateMutability": "view",
            "type": "function"
        },
        {
            "inputs": [
                {
                    "internalType": "address",
                    "name": "newOwner",
                    "type": "address"
                }
            ],
            "name": "transferOwnership",
            "outputs": [],
            "stateMutability": "nonpayable",
            "type": "function"
        },
        {
            "inputs": [],
            "name": "treasury",
            "outputs": [
                {
                    "internalType": "address",
                    "name": "",
                    "type": "address"
                }
            ],
            "stateMutability": "view",
            "type": "function"
        },
        {
            "inputs": [
                {
                    "internalType": "uint256",
                    "name": "_circleId",
                    "type": "uint256"
                },
                {
                    "internalType": "enum CirclePotV1.Visibility",
                    "name": "_newVisibility",
                    "type": "uint8"
                }
            ],
            "name": "updateCircleVisibility",
            "outputs": [],
            "stateMutability": "nonpayable",
            "type": "function"
        },
        {
            "inputs": [
                {
                    "internalType": "address",
                    "name": "_cUSDToken",
                    "type": "address"
                },
                {
                    "internalType": "address",
                    "name": "_treasury",
                    "type": "address"
                },
                {
                    "internalType": "uint8",
                    "name": "_version",
                    "type": "uint8"
                }
            ],
            "name": "upgrade",
            "outputs": [],
            "stateMutability": "nonpayable",
            "type": "function"
        },
        {
            "inputs": [
                {
                    "internalType": "address",
                    "name": "newImplementation",
                    "type": "address"
                },
                {
                    "internalType": "bytes",
                    "name": "data",
                    "type": "bytes"
                }
            ],
            "name": "upgradeToAndCall",
            "outputs": [],
            "stateMutability": "payable",
            "type": "function"
        },
        {
            "inputs": [
                {
                    "internalType": "address",
                    "name": "",
                    "type": "address"
                },
                {
                    "internalType": "uint256",
                    "name": "",
                    "type": "uint256"
                }
            ],
            "name": "userGoals",
            "outputs": [
                {
                    "internalType": "uint256",
                    "name": "",
                    "type": "uint256"
                }
            ],
            "stateMutability": "view",
            "type": "function"
        },
        {
            "inputs": [
                {
                    "internalType": "address",
                    "name": "",
                    "type": "address"
                }
            ],
            "name": "userReputation",
            "outputs": [
                {
                    "internalType": "uint256",
                    "name": "",
                    "type": "uint256"
                }
            ],
            "stateMutability": "view",
            "type": "function"
        }
    ],
    "bytecode": "60a080604052346100c257306080525f516020611b995f395f51905f525460ff8160401c166100b3576002600160401b03196001600160401b03821601610060575b604051611ad290816100c782396080518181816110ba015261118a0152f35b6001600160401b0319166001600160401b039081175f516020611b995f395f51905f525581527fc7f505b2f371ae2175ee4913f4499e1f2633a7b5936321eed1cdaeb6115181d290602090a15f80610041565b63f92ee8a960e01b5f5260045ffd5b5f80fdfe6080806040526004361015610012575f80fd5b5f3560e01c9081630ea86ad814611626575080630f801988146115ee578063157a7ec71461144c57806322dcd13e1461142f5780632c2b97a4146113ad57806340650c911461138b57806346c39a1d146113695780634f1ef2861461110e57806352d1902d146110a8578063539aa77f1461025957806361d027b314611080578063656cf71114610cfd57806369be46bf14610cce578063715018a614610c675780637ee839c414610b1157806384bb19cc14610abc57806386d6cfb3146108e05780638da5cb5b146108ac5780638fda34bf1461086457806394d95f8f14610840578063a8c9305714610825578063ad3cb1cc146107da578063ad5a698214610659578063b6b3eedf14610601578063bc5e0f3014610512578063c0c53b8b146102ce578063d3631fa5146102b1578063d9a6722014610296578063e503bb051461025e578063ea0e35b114610259578063f2fde38b1461022e578063f3890e1f14610211578063f9e9ad39146101f4578063fd81593f146101bc5763ffa1ad741461019d575f80fd5b346101b8575f3660031901126101b857602060405160018152f35b5f80fd5b346101b85760203660031901126101b8576001600160a01b036101dd611648565b165f52600c602052602060405f2054604051908152f35b346101b8575f3660031901126101b8576020600354604051908152f35b346101b8575f3660031901126101b8576020600254604051908152f35b346101b85760203660031901126101b85761025761024a611648565b61025261190c565b6117dd565b005b6116e4565b346101b85760203660031901126101b8576001600160a01b0361027f611648565b165f52600b602052602060405f2054604051908152f35b346101b8575f3660031901126101b857602060405160058152f35b346101b8575f3660031901126101b8576020600e54604051908152f35b346101b85760603660031901126101b8576102e7611648565b6102ef61165e565b6102f7611674565b905f516020611a7d5f395f51905f52549267ffffffffffffffff60ff8560401c161594168015908161050a575b6001149081610500575b1590816104f7575b506104e85783600167ffffffffffffffff195f516020611a7d5f395f51905f525416175f516020611a7d5f395f51905f52556104b8575b610375611993565b61037d611993565b610386836117dd565b61038e611993565b610396611993565b60015f516020611a5d5f395f51905f52556103af611993565b6001600160a01b0316801580156104a7575b610498575f80546001600160a01b0319908116929092179055600180549091166001600160a01b0392831617815560028190556003556014600f5581168015159081610476575b50610467575b5061041557005b60ff60401b195f516020611a7d5f395f51905f5254165f516020611a7d5f395f51905f52557fc7f505b2f371ae2175ee4913f4499e1f2633a7b5936321eed1cdaeb6115181d2602060405160018152a1005b6104709061193f565b8161040e565b5f516020611a1d5f395f51905f52546001600160a01b03161415905083610408565b63cfe2ea6360e01b5f5260045ffd5b506001600160a01b038216156103c1565b600160401b60ff60401b195f516020611a7d5f395f51905f525416175f516020611a7d5f395f51905f525561036d565b63f92ee8a960e01b5f5260045ffd5b90501585610336565b303b15915061032e565b859150610324565b346101b85760203660031901126101b8576004355f52600460205260405f20805460018060a01b0360018301541660028301549260ff600382015416936004820154600583015460068401546007850154916008860154936105a360ff8087169660081c169a600989015497600b600a8b01549a01549a6040519c8d5260208d015260408c015260608b0190611762565b608089015260a088015260c087015260e086015260048110156105ed5761010085015260028510156105ed576101a094610120850152610140840152610160830152610180820152f35b634e487b7160e01b5f52602160045260245ffd5b346101b85760403660031901126101b85761061a611648565b6001600160a01b03165f908152600a60205260409020805460243591908210156101b85760209161064a91611715565b90549060031b1c604051908152f35b346101b85760203660031901126101b8576004355f52600960205260405f2060018060a01b038154166001820191604051925f8154908160011c92600183169283156107d0575b6020851084146107bc57848852879390811561079a5750600114610756575b506106cc925003846116a6565b600281015490600381015490600481015460ff60058301541661073a600684015491600785015493600960ff600888015416960154966107206040519b8c9b8c5261014060208d01526101408c019061173e565b9860408b015260608a0152608089015260a0880190611762565b60c086015260e085015215156101008401526101208301520390f35b90505f9291925260205f20905f915b81831061077e5750509060206106cc92820101866106bf565b6020919350806001915483858a01015201910190918592610765565b9050602092506106cc94915060ff191682840152151560051b820101866106bf565b634e487b7160e01b5f52602260045260245ffd5b93607f16936106a0565b346101b8575f3660031901126101b8576108216040516107fb6040826116a6565b60058152640352e302e360dc1b602082015260405191829160208352602083019061173e565b0390f35b346101b8575f3660031901126101b857602060405160648152f35b346101b8575f3660031901126101b857602060405169010f0cf064dd592000008152f35b346101b857610872366116ff565b905f52600660205260405f2080548210156101b85760209161089391611715565b905460405160039290921b1c6001600160a01b03168152f35b346101b8575f3660031901126101b8575f516020611a1d5f395f51905f52546040516001600160a01b039091168152602090f35b346101b85760203660031901126101b8576004356108fc61180a565b80158015610ab0575b610aa157805f52600460205260405f2060ff60088201541660048110156105ed57600103610a9257600581019081546004820154809114610a83575f84815260056020908152604080832033845290915290206002015460081c60ff16610a755760026109739201546118d9565b5f5461098d908290309033906001600160a01b0316611842565b60046040519161099c8361168a565b5f835260208301905f8252604084015f815260608501600181526080860192835260a0860193428552885f52600560205260405f2060018060a01b0333165f5260205260405f209651875551600187015560028601915115159060ff61ff0084549251151560081b1692169061ffff19161717905551600384015551910155815f526006602052610a303360405f2061179c565b610a3a815461178e565b905533907fa7858a1f19449eeaf5fbe2692047577d00116ecb460791549c018c79e3ce483b5f80a360015f516020611a5d5f395f51905f5255005b621d934160e11b5f5260045ffd5b63f277526560e01b5f5260045ffd5b63d883bee960e01b5f5260045ffd5b632fb08c4f60e11b5f5260045ffd5b50600254811015610905565b346101b85760603660031901126101b857610ad5611674565b6004355f52600760205260405f206024355f5260205260405f209060018060a01b03165f52602052602060ff60405f2054166040519015158152f35b346101b85760603660031901126101b857610b2a611648565b610b3261165e565b60443560ff81168091036101b8575f516020611a7d5f395f51905f52548160ff8260401c16918215610c52575b50506104e8577fc7f505b2f371ae2175ee4913f4499e1f2633a7b5936321eed1cdaeb6115181d2926020928267ffffffffffffffff195f516020611a7d5f395f51905f525416175f516020611a7d5f395f51905f525560ff60401b195f516020611a7d5f395f51905f52541691600160401b83175f516020611a7d5f395f51905f5255610bea61190c565b6001600160a01b031680610c3b575b506001600160a01b031680610c22575b505f516020611a7d5f395f51905f5255604051908152a1005b6001600160601b0360a01b600154161760015584610c09565b6001600160601b0360a01b5f5416175f5585610bf9565b67ffffffffffffffff16101590508185610b5f565b346101b8575f3660031901126101b857610c7f61190c565b5f516020611a1d5f395f51905f5280546001600160a01b031981169091555f906001600160a01b03167f8be0079c531659141344cd1fd0a4f28419497f9722a3daafe3b4186f6b6457e08280a3005b346101b857610cdc366116ff565b905f52600860205260405f20905f52602052602060405f2054604051908152f35b346101b85760803660031901126101b857610d1661180a565b331561107157600435670de0b6b3a76400008110801561105e575b61104f57604435600581108015611045575b6110365760025490610d548261178e565b600255610d6181846118d9565b6064359360028510156101b85760018514610fd3575b5f54610d91908390309033906001600160a01b0316611842565b6024359160038310156101b8576040516101a0810181811067ffffffffffffffff821117610fbf576040528581528560208201973389526040830196858852606084019687526080840181815260a085016001815260c08601915f835260e0870193845261010087019960018b52610120880195865261014088019b428d5261016089019e8f5f90526101808a01985f8a525f52600460205260405f2099518a5560018a0190600160a01b600190039051166001600160601b0360a01b82541617905551600289015560038801905160038110156105ed5760ff8019835416911617905551600487015551600586015551600685015551600784015560088301955160048110156105ed5760ff80198854169116178655519060028210156105ed576020987f83b945859e19f480c406ac4e6ac635d422aad2665c1d65da9419b81d51ba61a897610ee6600b9460609961176f565b51600985015551600a84015551910155600460405191610f058361168a565b5f8352878301905f8252604084015f8152868501600181526080860192835260a08601934285528a5f5260058c5260405f2060018060a01b0333165f528c5260405f209651875551600187015560028601915115159060ff61ff0084549251151560081b1692169061ffff19161717905551600384015551910155835f5260068552610f943360405f2061179c565b6040519084825233868301526040820152a160015f516020611a5d5f395f51905f5255604051908152f35b634e487b7160e01b5f52604160045260245ffd5b6706f05b59d3b200008201821161102257600e546706f05b59d3b200008101106110225733847f46fc58301c2ea9f88a47be840edd44559d82b3c0a69ed37ac62f63b313540b615f80a3610d77565b634e487b7160e01b5f52601160045260245ffd5b63027ee80d60e51b5f5260045ffd5b5060148111610d43565b631717aceb60e31b5f5260045ffd5b5069010f0cf064dd592000008111610d31565b6302154e0360e21b5f5260045ffd5b346101b8575f3660031901126101b8576001546040516001600160a01b039091168152602090f35b346101b8575f3660031901126101b8577f00000000000000000000000000000000000000000000000000000000000000006001600160a01b031630036110ff5760206040515f516020611a3d5f395f51905f528152f35b63703e46dd60e11b5f5260045ffd5b60403660031901126101b857611122611648565b6024359067ffffffffffffffff82116101b857366023830112156101b85781600401359061114f826116c8565b9161115d60405193846116a6565b808352602083019336602483830101116101b857815f926024602093018737840101526001600160a01b037f000000000000000000000000000000000000000000000000000000000000000016308114908115611347575b506110ff576111c261190c565b60018060a01b03811692837f8c26ec1c89a900331babb88eefa754f9b9ed370abe61944d6874e37612764c3f602060405160018152a26040516352d1902d60e01b8152602081600481885afa5f9181611313575b5061122e5784634c9c8ce360e01b5f5260045260245ffd5b805f516020611a3d5f395f51905f528692036113015750823b156112ef575f516020611a3d5f395f51905f5280546001600160a01b031916821790557fbc7cd75a20ee27fd9adebab32041f755214dbc6bffa90cc0225b39da2e5c2d3b5f80a28251156112d6575f8091610257945190845af43d156112ce573d916112b2836116c8565b926112c060405194856116a6565b83523d5f602085013e6119be565b6060916119be565b505050346112e057005b63b398979f60e01b5f5260045ffd5b634c9c8ce360e01b5f5260045260245ffd5b632a87526960e21b5f5260045260245ffd5b9091506020813d60201161133f575b8161132f602093836116a6565b810103126101b857519086611216565b3d9150611322565b5f516020611a3d5f395f51905f52546001600160a01b031614159050846111b5565b346101b8575f3660031901126101b85760206040516706f05b59d3b200008152f35b346101b8575f3660031901126101b8576020604051670de0b6b3a76400008152f35b346101b85760403660031901126101b8576113c661165e565b6004355f52600560205260405f209060018060a01b03165f5260205260c060405f2080549060018101549060ff6002820154600460038401549301549360405195865260208601528181161515604086015260081c1615156060840152608083015260a0820152f35b346101b8575f3660031901126101b8576020600f54604051908152f35b346101b85760403660031901126101b85760043560243560028110156101b85761147461180a565b811580156115e2575b610aa1575f82815260046020526040902060018101546001600160a01b031633036115d35760080190815460ff811660048110156105ed576001036115c45760081c60ff1660028110156105ed5781146115b55760018060a01b035f541660205f604051828101906323b872dd60e01b82523360248201523060448201526706f05b59d3b200006064820152606481526115186084826116a6565b519082855af1156115aa575f513d6115a15750803b155b61158f5750600e54916706f05b59d3b2000083018093116110225761155692600e5561176f565b33907f46fc58301c2ea9f88a47be840edd44559d82b3c0a69ed37ac62f63b313540b615f80a360015f516020611a5d5f395f51905f5255005b635274afe760e01b5f5260045260245ffd5b6001141561152f565b6040513d5f823e3d90fd5b63051a3ed560e11b5f5260045ffd5b63a407615b60e01b5f5260045ffd5b6308f78f9960e31b5f5260045ffd5b5060025482101561147d565b346101b85760203660031901126101b8576001600160a01b0361160f611648565b165f52600d602052602060405f2054604051908152f35b346101b8575f3660031901126101b8575f546001600160a01b03168152602090f35b600435906001600160a01b03821682036101b857565b602435906001600160a01b03821682036101b857565b604435906001600160a01b03821682036101b857565b60c0810190811067ffffffffffffffff821117610fbf57604052565b90601f8019910116810190811067ffffffffffffffff821117610fbf57604052565b67ffffffffffffffff8111610fbf57601f01601f191660200190565b346101b8575f3660031901126101b857602060405160148152f35b60409060031901126101b8576004359060243590565b805482101561172a575f5260205f2001905f90565b634e487b7160e01b5f52603260045260245ffd5b805180835260209291819084018484015e5f828201840152601f01601f1916010190565b9060038210156105ed5752565b9060028110156105ed5761ff0082549160081b169061ff001916179055565b5f1981146110225760010190565b8054600160401b811015610fbf576117b991600182018155611715565b81546001600160a01b0393841660039290921b91821b9390911b1916919091179055565b6001600160a01b038116156117f7576117f59061193f565b565b631e4fbdf760e01b5f525f60045260245ffd5b60025f516020611a5d5f395f51905f5254146118335760025f516020611a5d5f395f51905f5255565b633ee5aeb560e01b5f5260045ffd5b6040516323b872dd60e01b60208083019182526001600160a01b039485166024840152949093166044820152606480820195909552938452925f91906118896084826116a6565b519082855af1156115aa575f513d6118d057506001600160a01b0381163b155b6118b05750565b635274afe760e01b5f9081526001600160a01b0391909116600452602490fd5b600114156118a9565b81810291818304149015171561102257606481028181046064148215171561102257612710900481018091116110225790565b5f516020611a1d5f395f51905f52546001600160a01b0316330361192c57565b63118cdaa760e01b5f523360045260245ffd5b5f516020611a1d5f395f51905f5280546001600160a01b039283166001600160a01b0319821681179092559091167f8be0079c531659141344cd1fd0a4f28419497f9722a3daafe3b4186f6b6457e05f80a3565b60ff5f516020611a7d5f395f51905f525460401c16156119af57565b631afcd79f60e31b5f5260045ffd5b906119e257508051156119d357602081519101fd5b63d6bda27560e01b5f5260045ffd5b81511580611a13575b6119f3575090565b639996b31560e01b5f9081526001600160a01b0391909116600452602490fd5b50803b156119eb56fe9016d09d72d40fdae2fd8ceac6b6234c7706214fd39c1cd1e609a0528c199300360894a13ba1a3210667c828492db98dca3e2076cc3735a920a3ca505d382bbc9b779b17422d0df92223018b32b4d1fa46e071723d6817e2486d003becc55f00f0c57e16840df040f15088dc2f81fe391c3923bec73e23a9662efc9c229c6a00a26469706673582212209e2f99e6eb6323eb69f96b2a6b1a4f247eca39eff55068c5582d1b456d100c9764736f6c634300081e0033f0c57e16840df040f15088dc2f81fe391c3923bec73e23a9662efc9c229c6a00",
    "sourcePath": "/home/isiaq/workspace/CirclePot/smart-contract/src/CirclePotV1.sol",
    "compiler": {
        "name": "solc",
        "version": "0.8.30+commit.73712a01"
    },
    "functionHashes": {
        "LATE_FEE_BPS()": "a8c93057",
        "MAX_CONTRIBUTION()": "94d95f8f",
        "MAX_MEMBERS()": "ea0e35b1",
        "MIN_CONTRIBUTION()": "40650c91",
        "MIN_MEMBERS()": "d9a67220",
        "PLATFORM_FEE_BPS()": "539aa77f",
        "UPGRADE_INTERFACE_VERSION()": "ad3cb1cc",
        "VERSION()": "ffa1ad74",
        "VISIBILITY_UPDATE_FEE()": "46c39a1d",
        "cUSDToken()": "0ea86ad8",
        "circleCounter()": "f3890e1f",
        "circleMemberList(uint256,uint256)": "8fda34bf",
        "circleMembers(uint256,address)": "2c2b97a4",
        "circleRoundDeadlines(uint256,uint256)": "69be46bf",
        "circles(uint256)": "bc5e0f30",
        "completedCircles(address)": "fd81593f",
        "createCircle((uint256,uint8,uint256,uint8))": "656cf711",
        "goalCounter()": "f9e9ad39",
        "initialize(address,address,address)": "c0c53b8b",
        "joinCircle(uint256)": "86d6cfb3",
        "latePayments(address)": "0f801988",
        "owner()": "8da5cb5b",
        "personalGoals(uint256)": "ad5a6982",
        "platformFeeBps()": "22dcd13e",
        "proxiableUUID()": "52d1902d",
        "renounceOwnership()": "715018a6",
        "roundContributions(uint256,uint256,address)": "84bb19cc",
        "totalPlatformFees()": "d3631fa5",
        "transferOwnership(address)": "f2fde38b",
        "treasury()": "61d027b3",
        "updateCircleVisibility(uint256,uint8)": "157a7ec7",
        "upgrade(address,address,uint8)": "7ee839c4",
        "upgradeToAndCall(address,bytes)": "4f1ef286",
        "userGoals(address,uint256)": "b6b3eedf",
        "userReputation(address)": "e503bb05"
    },
    "gasEstimates": {
        "creation": {
            "codeDepositCost": "1373200",
            "executionCost": "infinite",
            "totalCost": "infinite"
        },
        "external": {
            "LATE_FEE_BPS()": "593",
            "MAX_CONTRIBUTION()": "571",
            "MAX_MEMBERS()": "803",
            "MIN_CONTRIBUTION()": "263",
            "MIN_MEMBERS()": "747",
            "PLATFORM_FEE_BPS()": "363",
            "UPGRADE_INTERFACE_VERSION()": "906",
            "VERSION()": "898",
            "VISIBILITY_UPDATE_FEE()": "285",
            "cUSDToken()": "2265",
            "circleCounter()": "2938",
            "circleMemberList(uint256,uint256)": "7132",
            "circleMembers(uint256,address)": "11117",
            "circleRoundDeadlines(uint256,uint256)": "2688",
            "circles(uint256)": "26408",
            "completedCircles(address)": "3132",
            "createCircle((uint256,uint8,uint256,uint8))": "infinite",
            "goalCounter()": "2960",
            "initialize(address,address,address)": "infinite",
            "joinCircle(uint256)": "infinite",
            "latePayments(address)": "2428",
            "owner()": "infinite",
            "personalGoals(uint256)": "infinite",
            "platformFeeBps()": "2322",
            "proxiableUUID()": "infinite",
            "renounceOwnership()": "28404",
            "roundContributions(uint256,uint256,address)": "2879",
            "totalPlatformFees()": "2828",
            "transferOwnership(address)": "28955",
            "treasury()": "2500",
            "updateCircleVisibility(uint256,uint8)": "infinite",
            "upgrade(address,address,uint8)": "infinite",
            "upgradeToAndCall(address,bytes)": "infinite",
            "userGoals(address,uint256)": "7283",
            "userReputation(address)": "3022"
        },
        "internal": {
            "_authorizeUpgrade(address)": "infinite",
            "_calcCollateral(uint256,uint256)": "181",
            "_findPosition(uint256,address)": "infinite"
        }
    }
}