{
    "contractName": "CirclePotV1",
    "abi": [
        {
            "inputs": [],
            "stateMutability": "nonpayable",
            "type": "constructor"
        },
        {
            "inputs": [
                {
                    "internalType": "address",
                    "name": "target",
                    "type": "address"
                }
            ],
            "name": "AddressEmptyCode",
            "type": "error"
        },
        {
            "inputs": [],
            "name": "AddressZeroNotAllowed",
            "type": "error"
        },
        {
            "inputs": [],
            "name": "AlreadyJoined",
            "type": "error"
        },
        {
            "inputs": [],
            "name": "AlreadyVoted",
            "type": "error"
        },
        {
            "inputs": [],
            "name": "CircleFull",
            "type": "error"
        },
        {
            "inputs": [],
            "name": "CircleNotExist",
            "type": "error"
        },
        {
            "inputs": [],
            "name": "CircleNotOpen",
            "type": "error"
        },
        {
            "inputs": [],
            "name": "CircleNotPrivate",
            "type": "error"
        },
        {
            "inputs": [
                {
                    "internalType": "address",
                    "name": "implementation",
                    "type": "address"
                }
            ],
            "name": "ERC1967InvalidImplementation",
            "type": "error"
        },
        {
            "inputs": [],
            "name": "ERC1967NonPayable",
            "type": "error"
        },
        {
            "inputs": [],
            "name": "FailedCall",
            "type": "error"
        },
        {
            "inputs": [],
            "name": "InvalidCircle",
            "type": "error"
        },
        {
            "inputs": [],
            "name": "InvalidContributionAmount",
            "type": "error"
        },
        {
            "inputs": [],
            "name": "InvalidInitialization",
            "type": "error"
        },
        {
            "inputs": [],
            "name": "InvalidMemberCount",
            "type": "error"
        },
        {
            "inputs": [],
            "name": "InvalidTreasuryAddress",
            "type": "error"
        },
        {
            "inputs": [],
            "name": "InvalidVoteChoice",
            "type": "error"
        },
        {
            "inputs": [],
            "name": "MinMembersNotReached",
            "type": "error"
        },
        {
            "inputs": [],
            "name": "NotActiveMember",
            "type": "error"
        },
        {
            "inputs": [],
            "name": "NotInitializing",
            "type": "error"
        },
        {
            "inputs": [],
            "name": "NotInvited",
            "type": "error"
        },
        {
            "inputs": [],
            "name": "OnlyCreator",
            "type": "error"
        },
        {
            "inputs": [
                {
                    "internalType": "address",
                    "name": "owner",
                    "type": "address"
                }
            ],
            "name": "OwnableInvalidOwner",
            "type": "error"
        },
        {
            "inputs": [
                {
                    "internalType": "address",
                    "name": "account",
                    "type": "address"
                }
            ],
            "name": "OwnableUnauthorizedAccount",
            "type": "error"
        },
        {
            "inputs": [],
            "name": "ReentrancyGuardReentrantCall",
            "type": "error"
        },
        {
            "inputs": [
                {
                    "internalType": "address",
                    "name": "token",
                    "type": "address"
                }
            ],
            "name": "SafeERC20FailedOperation",
            "type": "error"
        },
        {
            "inputs": [],
            "name": "SameVisibility",
            "type": "error"
        },
        {
            "inputs": [],
            "name": "UUPSUnauthorizedCallContext",
            "type": "error"
        },
        {
            "inputs": [
                {
                    "internalType": "bytes32",
                    "name": "slot",
                    "type": "bytes32"
                }
            ],
            "name": "UUPSUnsupportedProxiableUUID",
            "type": "error"
        },
        {
            "inputs": [],
            "name": "UltimatumNotPassed",
            "type": "error"
        },
        {
            "inputs": [],
            "name": "UltimatumNotReached",
            "type": "error"
        },
        {
            "inputs": [],
            "name": "VoteAlreadyExecuted",
            "type": "error"
        },
        {
            "inputs": [],
            "name": "VotingAlreadyExecuted",
            "type": "error"
        },
        {
            "inputs": [],
            "name": "VotingNotActive",
            "type": "error"
        },
        {
            "inputs": [],
            "name": "VotingPeriodEnded",
            "type": "error"
        },
        {
            "inputs": [],
            "name": "VotingStillActive",
            "type": "error"
        },
        {
            "anonymous": false,
            "inputs": [
                {
                    "indexed": true,
                    "internalType": "uint256",
                    "name": "circleId",
                    "type": "uint256"
                }
            ],
            "name": "CircleCompleted",
            "type": "event"
        },
        {
            "anonymous": false,
            "inputs": [
                {
                    "indexed": false,
                    "internalType": "uint256",
                    "name": "circleId",
                    "type": "uint256"
                },
                {
                    "indexed": false,
                    "internalType": "address",
                    "name": "creator",
                    "type": "address"
                },
                {
                    "indexed": false,
                    "internalType": "uint256",
                    "name": "contributionAmount",
                    "type": "uint256"
                }
            ],
            "name": "CircleCreated",
            "type": "event"
        },
        {
            "anonymous": false,
            "inputs": [
                {
                    "indexed": true,
                    "internalType": "uint256",
                    "name": "circleId",
                    "type": "uint256"
                },
                {
                    "indexed": true,
                    "internalType": "address",
                    "name": "member",
                    "type": "address"
                }
            ],
            "name": "CircleJoined",
            "type": "event"
        },
        {
            "anonymous": false,
            "inputs": [
                {
                    "indexed": true,
                    "internalType": "uint256",
                    "name": "circleId",
                    "type": "uint256"
                },
                {
                    "indexed": false,
                    "internalType": "uint256",
                    "name": "startedAt",
                    "type": "uint256"
                }
            ],
            "name": "CircleStarted",
            "type": "event"
        },
        {
            "anonymous": false,
            "inputs": [
                {
                    "indexed": true,
                    "internalType": "uint256",
                    "name": "circleId",
                    "type": "uint256"
                },
                {
                    "indexed": true,
                    "internalType": "address",
                    "name": "member",
                    "type": "address"
                },
                {
                    "indexed": false,
                    "internalType": "uint256",
                    "name": "amount",
                    "type": "uint256"
                }
            ],
            "name": "CollateralWithdrawn",
            "type": "event"
        },
        {
            "anonymous": false,
            "inputs": [
                {
                    "indexed": true,
                    "internalType": "address",
                    "name": "newImplementation",
                    "type": "address"
                },
                {
                    "indexed": false,
                    "internalType": "uint8",
                    "name": "version",
                    "type": "uint8"
                }
            ],
            "name": "ContractUpgraded",
            "type": "event"
        },
        {
            "anonymous": false,
            "inputs": [
                {
                    "indexed": false,
                    "internalType": "uint64",
                    "name": "version",
                    "type": "uint64"
                }
            ],
            "name": "Initialized",
            "type": "event"
        },
        {
            "anonymous": false,
            "inputs": [
                {
                    "indexed": true,
                    "internalType": "uint256",
                    "name": "circleId",
                    "type": "uint256"
                },
                {
                    "indexed": true,
                    "internalType": "address",
                    "name": "_invitee",
                    "type": "address"
                }
            ],
            "name": "MemberInvited",
            "type": "event"
        },
        {
            "anonymous": false,
            "inputs": [
                {
                    "indexed": true,
                    "internalType": "address",
                    "name": "previousOwner",
                    "type": "address"
                },
                {
                    "indexed": true,
                    "internalType": "address",
                    "name": "newOwner",
                    "type": "address"
                }
            ],
            "name": "OwnershipTransferred",
            "type": "event"
        },
        {
            "anonymous": false,
            "inputs": [
                {
                    "indexed": true,
                    "internalType": "uint256",
                    "name": "circleId",
                    "type": "uint256"
                },
                {
                    "indexed": true,
                    "internalType": "uint256",
                    "name": "round",
                    "type": "uint256"
                },
                {
                    "indexed": true,
                    "internalType": "address",
                    "name": "recipient",
                    "type": "address"
                },
                {
                    "indexed": false,
                    "internalType": "uint256",
                    "name": "amount",
                    "type": "uint256"
                }
            ],
            "name": "PayoutDistributed",
            "type": "event"
        },
        {
            "anonymous": false,
            "inputs": [
                {
                    "indexed": true,
                    "internalType": "uint256",
                    "name": "circledId",
                    "type": "uint256"
                },
                {
                    "indexed": true,
                    "internalType": "address",
                    "name": "member",
                    "type": "address"
                },
                {
                    "indexed": false,
                    "internalType": "uint256",
                    "name": "position",
                    "type": "uint256"
                }
            ],
            "name": "PositionAssigned",
            "type": "event"
        },
        {
            "anonymous": false,
            "inputs": [
                {
                    "indexed": true,
                    "internalType": "address",
                    "name": "implementation",
                    "type": "address"
                }
            ],
            "name": "Upgraded",
            "type": "event"
        },
        {
            "anonymous": false,
            "inputs": [
                {
                    "indexed": true,
                    "internalType": "uint256",
                    "name": "circleId",
                    "type": "uint256"
                },
                {
                    "indexed": true,
                    "internalType": "address",
                    "name": "creator",
                    "type": "address"
                }
            ],
            "name": "VisibilityUpdated",
            "type": "event"
        },
        {
            "anonymous": false,
            "inputs": [
                {
                    "indexed": true,
                    "internalType": "uint256",
                    "name": "circleId",
                    "type": "uint256"
                },
                {
                    "indexed": true,
                    "internalType": "address",
                    "name": "voter",
                    "type": "address"
                },
                {
                    "indexed": false,
                    "internalType": "enum CirclePotV1.VoteChoice",
                    "name": "choice",
                    "type": "uint8"
                }
            ],
            "name": "VoteCast",
            "type": "event"
        },
        {
            "anonymous": false,
            "inputs": [
                {
                    "indexed": true,
                    "internalType": "uint256",
                    "name": "circleId",
                    "type": "uint256"
                },
                {
                    "indexed": false,
                    "internalType": "bool",
                    "name": "circleStarted",
                    "type": "bool"
                },
                {
                    "indexed": false,
                    "internalType": "uint256",
                    "name": "startVoteCount",
                    "type": "uint256"
                },
                {
                    "indexed": false,
                    "internalType": "uint256",
                    "name": "withdrawVoteCount",
                    "type": "uint256"
                }
            ],
            "name": "VoteExecuted",
            "type": "event"
        },
        {
            "anonymous": false,
            "inputs": [
                {
                    "indexed": true,
                    "internalType": "uint256",
                    "name": "circleId",
                    "type": "uint256"
                },
                {
                    "indexed": true,
                    "internalType": "uint256",
                    "name": "votingEndTime",
                    "type": "uint256"
                }
            ],
            "name": "VotingInitiated",
            "type": "event"
        },
        {
            "inputs": [],
            "name": "LATE_FEE_BPS",
            "outputs": [
                {
                    "internalType": "uint256",
                    "name": "",
                    "type": "uint256"
                }
            ],
            "stateMutability": "view",
            "type": "function"
        },
        {
            "inputs": [],
            "name": "MAX_CONTRIBUTION",
            "outputs": [
                {
                    "internalType": "uint256",
                    "name": "",
                    "type": "uint256"
                }
            ],
            "stateMutability": "view",
            "type": "function"
        },
        {
            "inputs": [],
            "name": "MAX_MEMBERS",
            "outputs": [
                {
                    "internalType": "uint256",
                    "name": "",
                    "type": "uint256"
                }
            ],
            "stateMutability": "view",
            "type": "function"
        },
        {
            "inputs": [],
            "name": "MIN_CONTRIBUTION",
            "outputs": [
                {
                    "internalType": "uint256",
                    "name": "",
                    "type": "uint256"
                }
            ],
            "stateMutability": "view",
            "type": "function"
        },
        {
            "inputs": [],
            "name": "MIN_MEMBERS",
            "outputs": [
                {
                    "internalType": "uint256",
                    "name": "",
                    "type": "uint256"
                }
            ],
            "stateMutability": "view",
            "type": "function"
        },
        {
            "inputs": [],
            "name": "PLATFORM_FEE_BPS",
            "outputs": [
                {
                    "internalType": "uint256",
                    "name": "",
                    "type": "uint256"
                }
            ],
            "stateMutability": "view",
            "type": "function"
        },
        {
            "inputs": [],
            "name": "START_VOTE_THRESHOLD",
            "outputs": [
                {
                    "internalType": "uint256",
                    "name": "",
                    "type": "uint256"
                }
            ],
            "stateMutability": "view",
            "type": "function"
        },
        {
            "inputs": [],
            "name": "UPGRADE_INTERFACE_VERSION",
            "outputs": [
                {
                    "internalType": "string",
                    "name": "",
                    "type": "string"
                }
            ],
            "stateMutability": "view",
            "type": "function"
        },
        {
            "inputs": [],
            "name": "VERSION",
            "outputs": [
                {
                    "internalType": "uint8",
                    "name": "",
                    "type": "uint8"
                }
            ],
            "stateMutability": "view",
            "type": "function"
        },
        {
            "inputs": [],
            "name": "VISIBILITY_UPDATE_FEE",
            "outputs": [
                {
                    "internalType": "uint256",
                    "name": "",
                    "type": "uint256"
                }
            ],
            "stateMutability": "view",
            "type": "function"
        },
        {
            "inputs": [],
            "name": "VOTING_PERIOD",
            "outputs": [
                {
                    "internalType": "uint256",
                    "name": "",
                    "type": "uint256"
                }
            ],
            "stateMutability": "view",
            "type": "function"
        },
        {
            "inputs": [
                {
                    "internalType": "uint256",
                    "name": "_circleId",
                    "type": "uint256"
                }
            ],
            "name": "WithdrawCollateral",
            "outputs": [],
            "stateMutability": "nonpayable",
            "type": "function"
        },
        {
            "inputs": [],
            "name": "cUSDToken",
            "outputs": [
                {
                    "internalType": "address",
                    "name": "",
                    "type": "address"
                }
            ],
            "stateMutability": "view",
            "type": "function"
        },
        {
            "inputs": [
                {
                    "internalType": "uint256",
                    "name": "_circleId",
                    "type": "uint256"
                }
            ],
            "name": "canWithdrawAfterVote",
            "outputs": [
                {
                    "internalType": "bool",
                    "name": "",
                    "type": "bool"
                }
            ],
            "stateMutability": "view",
            "type": "function"
        },
        {
            "inputs": [
                {
                    "internalType": "uint256",
                    "name": "_circleId",
                    "type": "uint256"
                },
                {
                    "internalType": "enum CirclePotV1.VoteChoice",
                    "name": "_choice",
                    "type": "uint8"
                }
            ],
            "name": "castVote",
            "outputs": [],
            "stateMutability": "nonpayable",
            "type": "function"
        },
        {
            "inputs": [],
            "name": "circleCounter",
            "outputs": [
                {
                    "internalType": "uint256",
                    "name": "",
                    "type": "uint256"
                }
            ],
            "stateMutability": "view",
            "type": "function"
        },
        {
            "inputs": [
                {
                    "internalType": "uint256",
                    "name": "",
                    "type": "uint256"
                },
                {
                    "internalType": "address",
                    "name": "",
                    "type": "address"
                }
            ],
            "name": "circleInvitations",
            "outputs": [
                {
                    "internalType": "bool",
                    "name": "",
                    "type": "bool"
                }
            ],
            "stateMutability": "view",
            "type": "function"
        },
        {
            "inputs": [
                {
                    "internalType": "uint256",
                    "name": "",
                    "type": "uint256"
                },
                {
                    "internalType": "uint256",
                    "name": "",
                    "type": "uint256"
                }
            ],
            "name": "circleMemberList",
            "outputs": [
                {
                    "internalType": "address",
                    "name": "",
                    "type": "address"
                }
            ],
            "stateMutability": "view",
            "type": "function"
        },
        {
            "inputs": [
                {
                    "internalType": "uint256",
                    "name": "",
                    "type": "uint256"
                },
                {
                    "internalType": "address",
                    "name": "",
                    "type": "address"
                }
            ],
            "name": "circleMembers",
            "outputs": [
                {
                    "internalType": "uint256",
                    "name": "position",
                    "type": "uint256"
                },
                {
                    "internalType": "uint256",
                    "name": "totalContributed",
                    "type": "uint256"
                },
                {
                    "internalType": "bool",
                    "name": "hasReceivedPayout",
                    "type": "bool"
                },
                {
                    "internalType": "bool",
                    "name": "isActive",
                    "type": "bool"
                },
                {
                    "internalType": "uint256",
                    "name": "collateralLocked",
                    "type": "uint256"
                },
                {
                    "internalType": "uint256",
                    "name": "joinedAt",
                    "type": "uint256"
                }
            ],
            "stateMutability": "view",
            "type": "function"
        },
        {
            "inputs": [
                {
                    "internalType": "uint256",
                    "name": "",
                    "type": "uint256"
                },
                {
                    "internalType": "uint256",
                    "name": "",
                    "type": "uint256"
                }
            ],
            "name": "circleRoundDeadlines",
            "outputs": [
                {
                    "internalType": "uint256",
                    "name": "",
                    "type": "uint256"
                }
            ],
            "stateMutability": "view",
            "type": "function"
        },
        {
            "inputs": [
                {
                    "internalType": "uint256",
                    "name": "",
                    "type": "uint256"
                }
            ],
            "name": "circleVotes",
            "outputs": [
                {
                    "internalType": "uint256",
                    "name": "votingStartTime",
                    "type": "uint256"
                },
                {
                    "internalType": "uint256",
                    "name": "votingEndTime",
                    "type": "uint256"
                },
                {
                    "internalType": "uint8",
                    "name": "startVoteCount",
                    "type": "uint8"
                },
                {
                    "internalType": "uint8",
                    "name": "withdrawVoteCount",
                    "type": "uint8"
                },
                {
                    "internalType": "bool",
                    "name": "votingActive",
                    "type": "bool"
                },
                {
                    "internalType": "bool",
                    "name": "voteExecuted",
                    "type": "bool"
                }
            ],
            "stateMutability": "view",
            "type": "function"
        },
        {
            "inputs": [
                {
                    "internalType": "uint256",
                    "name": "",
                    "type": "uint256"
                }
            ],
            "name": "circles",
            "outputs": [
                {
                    "internalType": "uint256",
                    "name": "circleId",
                    "type": "uint256"
                },
                {
                    "internalType": "address",
                    "name": "creator",
                    "type": "address"
                },
                {
                    "internalType": "uint256",
                    "name": "contributionAmount",
                    "type": "uint256"
                },
                {
                    "internalType": "enum CirclePotV1.Frequency",
                    "name": "frequency",
                    "type": "uint8"
                },
                {
                    "internalType": "uint256",
                    "name": "maxMembers",
                    "type": "uint256"
                },
                {
                    "internalType": "uint256",
                    "name": "currentMembers",
                    "type": "uint256"
                },
                {
                    "internalType": "uint256",
                    "name": "currentRound",
                    "type": "uint256"
                },
                {
                    "internalType": "uint256",
                    "name": "totalRounds",
                    "type": "uint256"
                },
                {
                    "internalType": "enum CirclePotV1.CircleState",
                    "name": "state",
                    "type": "uint8"
                },
                {
                    "internalType": "enum CirclePotV1.Visibility",
                    "name": "visibility",
                    "type": "uint8"
                },
                {
                    "internalType": "uint256",
                    "name": "createdAt",
                    "type": "uint256"
                },
                {
                    "internalType": "uint256",
                    "name": "startedAt",
                    "type": "uint256"
                },
                {
                    "internalType": "uint256",
                    "name": "totalPot",
                    "type": "uint256"
                }
            ],
            "stateMutability": "view",
            "type": "function"
        },
        {
            "inputs": [
                {
                    "internalType": "address",
                    "name": "",
                    "type": "address"
                }
            ],
            "name": "completedCircles",
            "outputs": [
                {
                    "internalType": "uint256",
                    "name": "",
                    "type": "uint256"
                }
            ],
            "stateMutability": "view",
            "type": "function"
        },
        {
            "inputs": [
                {
                    "components": [
                        {
                            "internalType": "uint256",
                            "name": "contributionAmount",
                            "type": "uint256"
                        },
                        {
                            "internalType": "enum CirclePotV1.Frequency",
                            "name": "frequency",
                            "type": "uint8"
                        },
                        {
                            "internalType": "uint256",
                            "name": "maxMembers",
                            "type": "uint256"
                        },
                        {
                            "internalType": "enum CirclePotV1.Visibility",
                            "name": "visibility",
                            "type": "uint8"
                        }
                    ],
                    "internalType": "struct CirclePotV1.CreateCircleParams",
                    "name": "params",
                    "type": "tuple"
                }
            ],
            "name": "createCircle",
            "outputs": [
                {
                    "internalType": "uint256",
                    "name": "",
                    "type": "uint256"
                }
            ],
            "stateMutability": "nonpayable",
            "type": "function"
        },
        {
            "inputs": [
                {
                    "internalType": "uint256",
                    "name": "_circleId",
                    "type": "uint256"
                }
            ],
            "name": "executeVote",
            "outputs": [],
            "stateMutability": "nonpayable",
            "type": "function"
        },
        {
            "inputs": [],
            "name": "goalCounter",
            "outputs": [
                {
                    "internalType": "uint256",
                    "name": "",
                    "type": "uint256"
                }
            ],
            "stateMutability": "view",
            "type": "function"
        },
        {
            "inputs": [
                {
                    "internalType": "address",
                    "name": "_cUSDToken",
                    "type": "address"
                },
                {
                    "internalType": "address",
                    "name": "_treasury",
                    "type": "address"
                },
                {
                    "internalType": "address",
                    "name": "initialOwner",
                    "type": "address"
                }
            ],
            "name": "initialize",
            "outputs": [],
            "stateMutability": "nonpayable",
            "type": "function"
        },
        {
            "inputs": [
                {
                    "internalType": "uint256",
                    "name": "_circleId",
                    "type": "uint256"
                }
            ],
            "name": "initiateVoting",
            "outputs": [],
            "stateMutability": "nonpayable",
            "type": "function"
        },
        {
            "inputs": [
                {
                    "internalType": "uint256",
                    "name": "_circleId",
                    "type": "uint256"
                },
                {
                    "internalType": "address[]",
                    "name": "_invitees",
                    "type": "address[]"
                }
            ],
            "name": "inviteMembers",
            "outputs": [],
            "stateMutability": "nonpayable",
            "type": "function"
        },
        {
            "inputs": [
                {
                    "internalType": "uint256",
                    "name": "_circleId",
                    "type": "uint256"
                }
            ],
            "name": "joinCircle",
            "outputs": [],
            "stateMutability": "nonpayable",
            "type": "function"
        },
        {
            "inputs": [
                {
                    "internalType": "address",
                    "name": "",
                    "type": "address"
                }
            ],
            "name": "latePayments",
            "outputs": [
                {
                    "internalType": "uint256",
                    "name": "",
                    "type": "uint256"
                }
            ],
            "stateMutability": "view",
            "type": "function"
        },
        {
            "inputs": [
                {
                    "internalType": "uint256",
                    "name": "",
                    "type": "uint256"
                },
                {
                    "internalType": "address",
                    "name": "",
                    "type": "address"
                }
            ],
            "name": "memberVotes",
            "outputs": [
                {
                    "internalType": "enum CirclePotV1.VoteChoice",
                    "name": "",
                    "type": "uint8"
                }
            ],
            "stateMutability": "view",
            "type": "function"
        },
        {
            "inputs": [],
            "name": "owner",
            "outputs": [
                {
                    "internalType": "address",
                    "name": "",
                    "type": "address"
                }
            ],
            "stateMutability": "view",
            "type": "function"
        },
        {
            "inputs": [
                {
                    "internalType": "uint256",
                    "name": "",
                    "type": "uint256"
                }
            ],
            "name": "personalGoals",
            "outputs": [
                {
                    "internalType": "address",
                    "name": "owner",
                    "type": "address"
                },
                {
                    "internalType": "string",
                    "name": "name",
                    "type": "string"
                },
                {
                    "internalType": "uint256",
                    "name": "targetAmount",
                    "type": "uint256"
                },
                {
                    "internalType": "uint256",
                    "name": "currentAmount",
                    "type": "uint256"
                },
                {
                    "internalType": "uint256",
                    "name": "contributionAmount",
                    "type": "uint256"
                },
                {
                    "internalType": "enum CirclePotV1.Frequency",
                    "name": "frequency",
                    "type": "uint8"
                },
                {
                    "internalType": "uint256",
                    "name": "deadline",
                    "type": "uint256"
                },
                {
                    "internalType": "uint256",
                    "name": "createdAt",
                    "type": "uint256"
                },
                {
                    "internalType": "bool",
                    "name": "isActive",
                    "type": "bool"
                },
                {
                    "internalType": "uint256",
                    "name": "lastContributionAt",
                    "type": "uint256"
                }
            ],
            "stateMutability": "view",
            "type": "function"
        },
        {
            "inputs": [],
            "name": "platformFeeBps",
            "outputs": [
                {
                    "internalType": "uint256",
                    "name": "",
                    "type": "uint256"
                }
            ],
            "stateMutability": "view",
            "type": "function"
        },
        {
            "inputs": [],
            "name": "proxiableUUID",
            "outputs": [
                {
                    "internalType": "bytes32",
                    "name": "",
                    "type": "bytes32"
                }
            ],
            "stateMutability": "view",
            "type": "function"
        },
        {
            "inputs": [],
            "name": "renounceOwnership",
            "outputs": [],
            "stateMutability": "nonpayable",
            "type": "function"
        },
        {
            "inputs": [
                {
                    "internalType": "uint256",
                    "name": "",
                    "type": "uint256"
                },
                {
                    "internalType": "uint256",
                    "name": "",
                    "type": "uint256"
                },
                {
                    "internalType": "address",
                    "name": "",
                    "type": "address"
                }
            ],
            "name": "roundContributions",
            "outputs": [
                {
                    "internalType": "bool",
                    "name": "",
                    "type": "bool"
                }
            ],
            "stateMutability": "view",
            "type": "function"
        },
        {
            "inputs": [
                {
                    "internalType": "uint256",
                    "name": "_circleId",
                    "type": "uint256"
                }
            ],
            "name": "startCircle",
            "outputs": [],
            "stateMutability": "nonpayable",
            "type": "function"
        },
        {
            "inputs": [],
            "name": "totalPlatformFees",
            "outputs": [
                {
                    "internalType": "uint256",
                    "name": "",
                    "type": "uint256"
                }
            ],
            "stateMutability": "view",
            "type": "function"
        },
        {
            "inputs": [
                {
                    "internalType": "address",
                    "name": "newOwner",
                    "type": "address"
                }
            ],
            "name": "transferOwnership",
            "outputs": [],
            "stateMutability": "nonpayable",
            "type": "function"
        },
        {
            "inputs": [],
            "name": "treasury",
            "outputs": [
                {
                    "internalType": "address",
                    "name": "",
                    "type": "address"
                }
            ],
            "stateMutability": "view",
            "type": "function"
        },
        {
            "inputs": [
                {
                    "internalType": "uint256",
                    "name": "_circleId",
                    "type": "uint256"
                },
                {
                    "internalType": "enum CirclePotV1.Visibility",
                    "name": "_newVisibility",
                    "type": "uint8"
                }
            ],
            "name": "updateCircleVisibility",
            "outputs": [],
            "stateMutability": "nonpayable",
            "type": "function"
        },
        {
            "inputs": [
                {
                    "internalType": "address",
                    "name": "_cUSDToken",
                    "type": "address"
                },
                {
                    "internalType": "address",
                    "name": "_treasury",
                    "type": "address"
                },
                {
                    "internalType": "uint8",
                    "name": "_version",
                    "type": "uint8"
                }
            ],
            "name": "upgrade",
            "outputs": [],
            "stateMutability": "nonpayable",
            "type": "function"
        },
        {
            "inputs": [
                {
                    "internalType": "address",
                    "name": "newImplementation",
                    "type": "address"
                },
                {
                    "internalType": "bytes",
                    "name": "data",
                    "type": "bytes"
                }
            ],
            "name": "upgradeToAndCall",
            "outputs": [],
            "stateMutability": "payable",
            "type": "function"
        },
        {
            "inputs": [
                {
                    "internalType": "address",
                    "name": "",
                    "type": "address"
                },
                {
                    "internalType": "uint256",
                    "name": "",
                    "type": "uint256"
                }
            ],
            "name": "userGoals",
            "outputs": [
                {
                    "internalType": "uint256",
                    "name": "",
                    "type": "uint256"
                }
            ],
            "stateMutability": "view",
            "type": "function"
        },
        {
            "inputs": [
                {
                    "internalType": "address",
                    "name": "",
                    "type": "address"
                }
            ],
            "name": "userReputation",
            "outputs": [
                {
                    "internalType": "uint256",
                    "name": "",
                    "type": "uint256"
                }
            ],
            "stateMutability": "view",
            "type": "function"
        }
    ],
    "bytecode": "60a080604052346100c257306080525f516020612ead5f395f51905f525460ff8160401c166100b3576002600160401b03196001600160401b03821601610060575b604051612de690816100c78239608051818181611a5f0152611b2f0152f35b6001600160401b0319166001600160401b039081175f516020612ead5f395f51905f525581527fc7f505b2f371ae2175ee4913f4499e1f2633a7b5936321eed1cdaeb6115181d290602090a15f80610041565b63f92ee8a960e01b5f5260045ffd5b5f80fdfe6080806040526004361015610012575f80fd5b5f3560e01c9081630ea86ad8146120d1575080630f80198814612099578063157a7ec714611f4057806322dcd13e14611f235780632c2b97a414611ea15780632dfa676814611e7957806340650c9114611e575780634571468414611d3057806346c39a1d14611d0e5780634f1ef28614611ab357806352d1902d14611a4d578063539aa77f14610741578063567813881461188657806358f8d6ff1461186a57806361d027b31461184257806363fc152e146117f2578063656cf7111461147457806369be46bf14611445578063715018a6146113de5780637ee839c41461128857806384bb19cc1461123357806386d6cfb314610fda5780638da5cb5b14610fa65780638fda34bf14610f5e57806394d95f8f14610f3a57806398d4c1dd14610ef1578063a8c9305714610ed6578063ad3cb1cc14610e8b578063ad5a698214610d09578063b1610d7e14610cec578063b6b3eedf14610c94578063bc5e0f3014610bb8578063c0c53b8b14610974578063c4ce74e01461090b578063d3631fa5146108ee578063d4bf578c14610799578063d9a672201461077e578063e503bb0514610746578063ea0e35b114610741578063ec6b733f1461065a578063f2fde38b1461062f578063f3890e1f14610612578063f98a4eca14610485578063f9e9ad3914610468578063fc226bcc14610278578063fd81593f146102405763ffa1ad7414610221575f80fd5b3461023c575f36600319011261023c57602060405160018152f35b5f80fd5b3461023c57602036600319011261023c576001600160a01b036102616120f3565b165f52600f602052602060405f2054604051908152f35b3461023c57602036600319011261023c576004356102946123e1565b8015801561045c575b61044d57805f52600460205260405f209060ff60088301541660058110156104395760010361042a57805f52600560205260405f2060018060a01b0333165f5260205260405f20600281019081549360ff8560081c161561041b57835f52600960205260405f209060ff60025f93015460181c168061040c575b1561039857505060015b1561038957600301925f8454945561ff001916905561034a823360018060a01b035f541661289e565b6040519182527f7c5e5cb62e5ed3caf3764e4b0afedfedef533e27809d43367799787ad2abcd4160203393a360015f516020612d715f395f51905f5255005b630c2eba2560e21b5f5260045ffd5b6103b56103ab60ff60038401541661245d565b6009830154612217565b4211156103c3575b50610321565b60046005820154910154603c810290808204603c14901517156103f85760649004116103f0575b856103bd565b5060016103ea565b634e487b7160e01b5f52601160045260245ffd5b5061041685612297565b610317565b631687e47360e31b5f5260045ffd5b63d883bee960e01b5f5260045ffd5b634e487b7160e01b5f52602160045260245ffd5b632fb08c4f60e11b5f5260045ffd5b5060025481101561029d565b3461023c575f36600319011261023c576020600354604051908152f35b3461023c57602036600319011261023c5760043580158015610606575b61044d57805f526004602052600860405f200160ff8154166005811015610439576002036105f757815f52600960205260405f206002810180549160ff8360101c16156105f757600101544211156105e85760ff8260181c166105d9577f7da55ba157db41984697c3f1b900905283b3f9673437a67da9e3bfc9662c3a049260609260ff6105498180630100000063ffff00001986161794858855169360081c1683612243565b1680156105cb5761056861ffff916105636113ec94612257565b61226f565b16106105a157805460ff191660011790556105828461254c565b5460ff6040519160018352818116602084015260081c166040820152a2005b600160ff198254161790555460ff6040519160018352818116602084015260081c166040820152a2005b50506113ec61ffff5f610568565b63745266fd60e11b5f5260045ffd5b633483eb6360e01b5f5260045ffd5b639b8cc47560e01b5f5260045ffd5b506002548110156104a2565b3461023c575f36600319011261023c576020600254604051908152f35b3461023c57602036600319011261023c5761065861064b6120f3565b6106536124c5565b6123b4565b005b3461023c57602036600319011261023c5760043580158015610735575b61044d575f81815260046020526040902060018101546001600160a01b031633036107265760ff60088201541660058110156104395760010361042a5760058101546004820154603c810290808204603c14901517156103f8576064900411610717578060096106f060ff60036106f89501541661245d565b910154612217565b421115610708576106589061254c565b63a217083960e01b5f5260045ffd5b63505768b960e11b5f5260045ffd5b6308f78f9960e31b5f5260045ffd5b50600254811015610677565b61218f565b3461023c57602036600319011261023c576001600160a01b036107676120f3565b165f52600e602052602060405f2054604051908152f35b3461023c575f36600319011261023c57602060405160058152f35b3461023c57604036600319011261023c5760043560243567ffffffffffffffff811161023c573660238201121561023c5780600401359167ffffffffffffffff831161023c576024820191602436918560051b01011161023c57801580156108e2575b61044d575f81815260046020526040902060018101546001600160a01b03163303610726576008015460ff8160081c166002811015610439576108d35760ff1660058110156104395760010361042a575f5b83811061085757005b600190825f52600b60205260405f20610879610874838888612390565b6123a0565b838060a01b03165f5260205260405f208260ff19825416179055818060a01b036108a7610874838888612390565b16837f6e32da99952e6892c42b54eec8c835d9a2e0a6c879c0219cc693229e6894175a5f80a30161084e565b633a46c93160e01b5f5260045ffd5b506002548110156107fc565b3461023c575f36600319011261023c576020601154604051908152f35b3461023c57602036600319011261023c576004355f52600960205260c060405f2060ff815491600260018201549101549060405193845260208401528181166040840152818160081c166060840152818160101c161515608084015260181c16151560a0820152f35b3461023c57606036600319011261023c5761098d6120f3565b610995612109565b61099d61211f565b905f516020612d915f395f51905f52549267ffffffffffffffff60ff8560401c1615941680159081610bb0575b6001149081610ba6575b159081610b9d575b50610b8e5783600167ffffffffffffffff195f516020612d915f395f51905f525416175f516020612d915f395f51905f5255610b5e575b610a1b612c1b565b610a23612c1b565b610a2c836123b4565b610a34612c1b565b610a3c612c1b565b60015f516020612d715f395f51905f5255610a55612c1b565b6001600160a01b031680158015610b4d575b610b3e575f80546001600160a01b0319908116929092179055600180549091166001600160a01b039283161781556002819055600355601460125581168015159081610b1c575b50610b0d575b50610abb57005b60ff60401b195f516020612d915f395f51905f5254165f516020612d915f395f51905f52557fc7f505b2f371ae2175ee4913f4499e1f2633a7b5936321eed1cdaeb6115181d2602060405160018152a1005b610b16906124f8565b81610ab4565b5f516020612d315f395f51905f52546001600160a01b03161415905083610aae565b63cfe2ea6360e01b5f5260045ffd5b506001600160a01b03821615610a67565b600160401b60ff60401b195f516020612d915f395f51905f525416175f516020612d915f395f51905f5255610a13565b63f92ee8a960e01b5f5260045ffd5b905015856109dc565b303b1591506109d4565b8591506109ca565b3461023c57602036600319011261023c576004355f52600460205260405f20805460018060a01b0360018301541660028301549260ff6003820154169360048201546005830154600684015460078501549160088601549360ff8086169560081c1699600988015496600b600a8a0154990154996040519b8c5260208c015260408b0152610c45816121aa565b60608a0152608089015260a088015260c087015260e08601526005811015610439576101008501526002851015610439576101a094610120850152610140840152610160830152610180820152f35b3461023c57604036600319011261023c57610cad6120f3565b6001600160a01b03165f908152600d602052604090208054602435919082101561023c57602091610cdd916121ca565b90549060031b1c604051908152f35b3461023c575f36600319011261023c5760206040516202a3008152f35b3461023c57602036600319011261023c576004355f52600c60205260405f2060018060a01b038154166001820191604051925f8154908160011c9260018316928315610e81575b602085108414610e6d578488528793908115610e4b5750600114610e07575b50610d7c92500384612151565b600281015490600381015490600481015460ff600583015416600683015490600784015492600960ff60088701541695015495610dcd6040519a8b9a8b5261014060208c01526101408b01906121f3565b9760408a015260608901526080880152610de6816121aa565b60a087015260c086015260e085015215156101008401526101208301520390f35b90505f9291925260205f20905f915b818310610e2f575050906020610d7c9282010186610d6f565b6020919350806001915483858a01015201910190918592610e16565b905060209250610d7c94915060ff191682840152151560051b82010186610d6f565b634e487b7160e01b5f52602260045260245ffd5b93607f1693610d50565b3461023c575f36600319011261023c57610ed2604051610eac604082612151565b60058152640352e302e360dc1b60208201526040519182916020835260208301906121f3565b0390f35b3461023c575f36600319011261023c57602060405160648152f35b3461023c57604036600319011261023c57610f0a612109565b6004355f52600b60205260405f209060018060a01b03165f52602052602060ff60405f2054166040519015158152f35b3461023c575f36600319011261023c57602060405169010f0cf064dd592000008152f35b3461023c57610f6c366121b4565b905f52600660205260405f20805482101561023c57602091610f8d916121ca565b905460405160039290921b1c6001600160a01b03168152f35b3461023c575f36600319011261023c575f516020612d315f395f51905f52546040516001600160a01b039091168152602090f35b3461023c57602036600319011261023c57600435610ff66123e1565b80158015611227575b61044d57805f52600460205260405f20600881015460ff811660058110156104395760010361042a576005820191825460048201928354809214611218575f86815260056020908152604080832033845290915290206002015460081c60ff1661120a5760081c60ff16600281101561043957156111db575b6002611085920154612497565b5f5461109f908290309033906001600160a01b0316612419565b6004604051916110ae83612135565b5f835260208301905f8252611136604085015f815260608601600181526080870193845260a08701944286528a5f52600560205260405f2060018060a01b0333165f5260205260405f209751885551600188015561111f6002880192511515839060ff801983541691151516179055565b51815461ff00191690151560081b61ff0016179055565b51600384015551910155825f5260066020526111553360405f2061234f565b61115f8254612341565b80925533837fa7858a1f19449eeaf5fbe2692047577d00116ecb460791549c018c79e3ce483b5f80a354146111a2575b60015f516020612d715f395f51905f5255005b6111ab8161254c565b7faf0f41c2e769faca4f3422a53417b14043b989e8d29fd8aa1f0fb10273d20f1f6020604051428152a28061118f565b5f858152600b6020908152604080832033845290915290205460ff166110785763779a6f4160e01b5f5260045ffd5b621d934160e11b5f5260045ffd5b63f277526560e01b5f5260045ffd5b50600254811015610fff565b3461023c57606036600319011261023c5761124c61211f565b6004355f52600760205260405f206024355f5260205260405f209060018060a01b03165f52602052602060ff60405f2054166040519015158152f35b3461023c57606036600319011261023c576112a16120f3565b6112a9612109565b60443560ff811680910361023c575f516020612d915f395f51905f52548160ff8260401c169182156113c9575b5050610b8e577fc7f505b2f371ae2175ee4913f4499e1f2633a7b5936321eed1cdaeb6115181d2926020928267ffffffffffffffff195f516020612d915f395f51905f525416175f516020612d915f395f51905f525560ff60401b195f516020612d915f395f51905f52541691600160401b83175f516020612d915f395f51905f52556113616124c5565b6001600160a01b0316806113b2575b506001600160a01b031680611399575b505f516020612d915f395f51905f5255604051908152a1005b6001600160601b0360a01b600154161760015584611380565b6001600160601b0360a01b5f5416175f5585611370565b67ffffffffffffffff161015905081856112d6565b3461023c575f36600319011261023c576113f66124c5565b5f516020612d315f395f51905f5280546001600160a01b031981169091555f906001600160a01b03167f8be0079c531659141344cd1fd0a4f28419497f9722a3daafe3b4186f6b6457e08280a3005b3461023c57611453366121b4565b905f52600860205260405f20905f52602052602060405f2054604051908152f35b3461023c57608036600319011261023c5761148d6123e1565b33156117e357600435670de0b6b3a7640000811080156117d0575b6117c1576044356005811080156117b7575b6117a857600254906114cb82612341565b6002556114d88184612497565b60643593600285101561023c5760018514611759575b5f54611508908390309033906001600160a01b0316612419565b60243591600383101561023c576040516101a0810181811067ffffffffffffffff8211176117455760405285815285602082019733895260408301968588526060840196611555816121aa565b87526080840181815260a085016001815260c08601915f835260e0870193845261010087019960018b52610120880195865261014088019b428d5261016089019e8f5f90526101808a01985f8a525f52600460205260405f2099518a5560018a0190600160a01b600190039051166001600160601b0360a01b8254161790555160028901556003880190516115e9816121aa565b6115f2816121aa565b60ff198254169060ff1617905551600487015551600586015551600685015551600784015560088301955160058110156104395760ff8019885416911617865551906002821015610439576020987f83b945859e19f480c406ac4e6ac635d422aad2665c1d65da9419b81d51ba61a897611670600b94606099612224565b51600985015551600a8401555191015560046040519161168f83612135565b5f8352878301905f82526116fc604085015f8152878601600181526080870193845260a08701944286528b5f5260058d5260405f2060018060a01b0333165f528d5260405f209751885551600188015561111f6002880192511515839060ff801983541691151516179055565b51600384015551910155835f526006855261171a3360405f2061234f565b6040519084825233868301526040820152a160015f516020612d715f395f51905f5255604051908152f35b634e487b7160e01b5f52604160045260245ffd5b6706f05b59d3b20000820182116103f8576011546706f05b59d3b200008101106103f85733847f46fc58301c2ea9f88a47be840edd44559d82b3c0a69ed37ac62f63b313540b615f80a36114ee565b63027ee80d60e51b5f5260045ffd5b50601481116114ba565b631717aceb60e31b5f5260045ffd5b5069010f0cf064dd5920000081116114a8565b6302154e0360e21b5f5260045ffd5b3461023c57604036600319011261023c5761180b612109565b6004355f52600a60205260405f209060018060a01b03165f52602052602060ff60405f2054166040519061183e816121aa565b8152f35b3461023c575f36600319011261023c576001546040516001600160a01b039091168152602090f35b3461023c575f36600319011261023c5760206040516113ec8152f35b3461023c57604036600319011261023c57602435600435600382101561023c5780158015611a41575b61044d576118bc826121aa565b8115611a3257805f52600460205260ff600860405f200154166005811015610439576002036105f7575f81815260056020908152604080832033845290915290206002015460081c60ff161561041b57805f52600960205260405f20600281019060ff825460101c16156105f757600101544211611a23575f828152600a6020908152604080832033845290915290205460ff16611959816121aa565b611a14575f828152600a60209081526040808320338452909152902061197e846121aa565b60ff1981541660ff8516179055611994836121aa565b600183036119ec5760ff6119aa81835416612330565b1660ff198254161790555b604051916119c2816121aa565b82527feba4866100b822f0f391e610e7edfab790b9e8766c0012733c26b2f1858e8dd760203393a3005b6119fc60ff825460081c16612330565b61ff0082549160081b169061ff0019161790556119b5565b637c9a1cf960e01b5f5260045ffd5b63370ec37160e21b5f5260045ffd5b6364a2c03160e11b5f5260045ffd5b506002548110156118af565b3461023c575f36600319011261023c577f00000000000000000000000000000000000000000000000000000000000000006001600160a01b03163003611aa45760206040515f516020612d515f395f51905f528152f35b63703e46dd60e11b5f5260045ffd5b604036600319011261023c57611ac76120f3565b6024359067ffffffffffffffff821161023c573660238301121561023c57816004013590611af482612173565b91611b026040519384612151565b8083526020830193366024838301011161023c57815f926024602093018737840101526001600160a01b037f000000000000000000000000000000000000000000000000000000000000000016308114908115611cec575b50611aa457611b676124c5565b60018060a01b03811692837f8c26ec1c89a900331babb88eefa754f9b9ed370abe61944d6874e37612764c3f602060405160018152a26040516352d1902d60e01b8152602081600481885afa5f9181611cb8575b50611bd35784634c9c8ce360e01b5f5260045260245ffd5b805f516020612d515f395f51905f52869203611ca65750823b15611c94575f516020612d515f395f51905f5280546001600160a01b031916821790557fbc7cd75a20ee27fd9adebab32041f755214dbc6bffa90cc0225b39da2e5c2d3b5f80a2825115611c7b575f8091610658945190845af43d15611c73573d91611c5783612173565b92611c656040519485612151565b83523d5f602085013e612cd2565b606091612cd2565b50505034611c8557005b63b398979f60e01b5f5260045ffd5b634c9c8ce360e01b5f5260045260245ffd5b632a87526960e21b5f5260045260245ffd5b9091506020813d602011611ce4575b81611cd460209383612151565b8101031261023c57519086611bbb565b3d9150611cc7565b5f516020612d515f395f51905f52546001600160a01b03161415905084611b5a565b3461023c575f36600319011261023c5760206040516706f05b59d3b200008152f35b3461023c57602036600319011261023c5760043580158015611e4b575b61044d57805f52600460205260405f20600881019060ff82541660058110156104395760010361042a5760058101546004820154603c810290808204603c14901517156103f8576064900411610717578060096106f060ff6003611db39501541661245d565b42101561070857815f52600960205260405f209060028201805460ff8160101c166105e85760181c60ff16611e3c574283556202a3004201928342116103f857600101928355805463ffffffff191662010000179055805460ff1916600217905554907ff4e39a27c6c29179b6afb3a070360307cdbda13933023287f5ca10a69b3628e25f80a3005b63f792f8f960e01b5f5260045ffd5b50600254811015611d4d565b3461023c575f36600319011261023c576020604051670de0b6b3a76400008152f35b3461023c57602036600319011261023c576020611e97600435612297565b6040519015158152f35b3461023c57604036600319011261023c57611eba612109565b6004355f52600560205260405f209060018060a01b03165f5260205260c060405f2080549060018101549060ff6002820154600460038401549301549360405195865260208601528181161515604086015260081c1615156060840152608083015260a0820152f35b3461023c575f36600319011261023c576020601254604051908152f35b3461023c57604036600319011261023c57600435602435600281101561023c57611f686123e1565b8115801561208d575b61044d575f82815260046020526040902060018101546001600160a01b031633036107265760080190815460ff811660058110156104395760010361207e5760081c60ff16600281101561043957811461206f575f546040516323b872dd60e01b60208201523360248201523060448201526706f05b59d3b200006064808301919091528152612014916001600160a01b031661200f608483612151565b6128d9565b601154916706f05b59d3b2000083018093116103f85761203692601155612224565b33907f46fc58301c2ea9f88a47be840edd44559d82b3c0a69ed37ac62f63b313540b615f80a360015f516020612d715f395f51905f5255005b63051a3ed560e11b5f5260045ffd5b63a407615b60e01b5f5260045ffd5b50600254821015611f71565b3461023c57602036600319011261023c576001600160a01b036120ba6120f3565b165f526010602052602060405f2054604051908152f35b3461023c575f36600319011261023c575f546001600160a01b03168152602090f35b600435906001600160a01b038216820361023c57565b602435906001600160a01b038216820361023c57565b604435906001600160a01b038216820361023c57565b60c0810190811067ffffffffffffffff82111761174557604052565b90601f8019910116810190811067ffffffffffffffff82111761174557604052565b67ffffffffffffffff811161174557601f01601f191660200190565b3461023c575f36600319011261023c57602060405160148152f35b6003111561043957565b604090600319011261023c576004359060243590565b80548210156121df575f5260205f2001905f90565b634e487b7160e01b5f52603260045260245ffd5b805180835260209291819084018484015e5f828201840152601f01601f1916010190565b919082018092116103f857565b9060028110156104395761ff0082549160081b169061ff001916179055565b9060ff8091169116019060ff82116103f857565b61ffff6127109116029061ffff82169182036103f857565b9061ffff169081156122835761ffff160490565b634e487b7160e01b5f52601260045260245ffd5b805f52600460205260405f20905f526009602052600260405f2001549060ff8260181c1615612317576008015460ff166005811015610439576003146123125760ff6122eb818084169360081c1683612243565b16801561230a5761230561ffff916105636113ec94612257565b161090565b506001919050565b505f90565b50505f90565b818102929181159184041417156103f857565b60ff1660ff81146103f85760010190565b5f1981146103f85760010190565b8054600160401b8110156117455761236c916001820181556121ca565b81546001600160a01b0393841660039290921b91821b9390911b1916919091179055565b91908110156121df5760051b0190565b356001600160a01b038116810361023c5790565b6001600160a01b038116156123ce576123cc906124f8565b565b631e4fbdf760e01b5f525f60045260245ffd5b60025f516020612d715f395f51905f52541461240a5760025f516020612d715f395f51905f5255565b633ee5aeb560e01b5f5260045ffd5b6040516323b872dd60e01b60208201526001600160a01b0392831660248201529290911660448301526064808301939093529181526123cc9161200f608483612151565b612466816121aa565b8015908115612483575b5061247c576212750090565b62093a8090565b60019150612490816121aa565b145f612470565b906124a19161231d565b6064810290808204606414811517156103f8576127106124c2920490612217565b90565b5f516020612d315f395f51905f52546001600160a01b031633036124e557565b63118cdaa760e01b5f523360045260245ffd5b5f516020612d315f395f51905f5280546001600160a01b039283166001600160a01b0319821681179092559091167f8be0079c531659141344cd1fd0a4f28419497f9722a3daafe3b4186f6b6457e05f80a3565b5f8181526004602090815260408083206006835281842060058452828520600180840180546001600160a01b03908116895292875296859020819055955493519586529196959492909116929091839185917ffc79da6c5316f4c3a2841a4a8ee84045b0cda7f9c0b91deec048b7f26d4293cf9190a38054915f198301918383116103f8576125da8361293c565b936125e86040519586612151565b838552601f196125f78561293c565b013660208701376126078461293c565b926126156040519485612151565b848452601f196126248661293c565b013660208601375f905f5b8381106127c55750505050505f5b8281106127535750505f5b8181106126cc575050506126848360086123cc949501600360ff1982541617905542600a8201556001600682015560ff60034292015416612968565b815f52600860205260405f2060015f5260205260405f2055807faf0f41c2e769faca4f3422a53417b14043b989e8d29fd8aa1f0fb10273d20f1f6020604051428152a26129b9565b60028101908181116103f8575f858152600560205260409020600192906001600160a01b036126fb8488612954565b5116848060a01b03165f526020528060405f2055857ffc79da6c5316f4c3a2841a4a8ee84045b0cda7f9c0b91deec048b7f26d4293cf6020858060a01b03612743868a612954565b511693604051908152a301612648565b600181018082116103f8575b83811061276f575060010161263d565b8061277c60019285612954565b516127878486612954565b5110612794575b0161275f565b61279e8385612954565b516127a98286612954565b516127b48587612954565b526127bf8286612954565b5261278e565b816127d082876121ca565b905460039190911b1c6001600160a01b0316036127f0575b60010161262f565b916127fb83866121ca565b905460039190911b1c6001600160a01b0316612817828a612954565b5261282283866121ca565b60018060a01b0391549060031b1c165f52600e60205260405f20549061284884876121ca565b60018060a01b0391549060031b1c165f52600f60205260405f205490600a820291808304600a14901517156103f85761288661289692600194612217565b612890828a612954565b52612341565b9290506127e8565b60405163a9059cbb60e01b60208201526001600160a01b0390921660248301526044808301939093529181526123cc9161200f606483612151565b905f602091828151910182855af115612931575f513d61292857506001600160a01b0381163b155b6129085750565b635274afe760e01b5f9081526001600160a01b0391909116600452602490fd5b60011415612901565b6040513d5f823e3d90fd5b67ffffffffffffffff81116117455760051b60200190565b80518210156121df5760209160051b010190565b612971816121aa565b80156129a857600190612983816121aa565b146129985762278d0081018091116103f85790565b62093a8081018091116103f85790565b506201518081018091116103f85790565b805f52600460205260405f206129d0600183612c46565b6001600160a01b038116908115612c1557835f52600560205260405f20825f52602052600260405f20019060ff825416612c0e57600b84018054600186015490939084906001600160a01b03168603612bd1575b5f80549094612a3c92916001600160a01b031661289e565b600160ff1982541617905555815f52600e60205260405f20908154600581018091116103f857602086927f52e998e38a9505deab1cc0e4a47bdd8426a6fde45f6693db2fd122e537fcf22b9260019555855f52600f825260405f20612aa18154612341565b9055604051908152a4600781015460011015612aea5760ff6003612ad092600260068201550154164290612968565b905f52600860205260405f2060015f5260205260405f2055565b600801600460ff19825416179055805f52600660205260405f205f5b8154811015612ba957600190835f52600560205260405f20612b2882856121ca565b848060a01b0391549060031b1c16838060a01b03165f5260205260405f2060ff600282015460081c1680612b9c575b612b63575b5001612b06565b6003612b9691015f81549155838060a01b035f5416612b8284876121ca565b868060a01b0391549060031b1c169061289e565b5f612b5c565b5060038101541515612b57565b50507ffccd3901546cfbb42742cac2c7335bce34f1f8d9844f4f4b53640f79e31010875f80a2565b50612710612be16012548661231d565b04938481039081116103f857612c02945f94612a3c92968792601154612217565b60115594509050612a24565b5050505050565b50505050565b60ff5f516020612d915f395f51905f525460401c1615612c3757565b631afcd79f60e31b5f5260045ffd5b90815f52600660205260405f20905f928254935b848110612c6a5750505050505f90565b815f52600560205260405f20612c8082866121ca565b905460039190911b1c6001600160a01b03165f90815260209190915260409020548314612caf57600101612c5a565b92915050612cbd92506121ca565b905460039190911b1c6001600160a01b031690565b90612cf65750805115612ce757602081519101fd5b63d6bda27560e01b5f5260045ffd5b81511580612d27575b612d07575090565b639996b31560e01b5f9081526001600160a01b0391909116600452602490fd5b50803b15612cff56fe9016d09d72d40fdae2fd8ceac6b6234c7706214fd39c1cd1e609a0528c199300360894a13ba1a3210667c828492db98dca3e2076cc3735a920a3ca505d382bbc9b779b17422d0df92223018b32b4d1fa46e071723d6817e2486d003becc55f00f0c57e16840df040f15088dc2f81fe391c3923bec73e23a9662efc9c229c6a00a26469706673582212204daa4416807989d0683ab4eb862129964b4a3a3bedf60308152b4be5c191d9bc64736f6c634300081e0033f0c57e16840df040f15088dc2f81fe391c3923bec73e23a9662efc9c229c6a00",
    "sourcePath": "/home/isiaq/workspace/CirclePot/smart-contract/src/CirclePotV1.sol",
    "compiler": {
        "name": "solc",
        "version": "0.8.30+commit.73712a01"
    },
    "functionHashes": {
        "LATE_FEE_BPS()": "a8c93057",
        "MAX_CONTRIBUTION()": "94d95f8f",
        "MAX_MEMBERS()": "ea0e35b1",
        "MIN_CONTRIBUTION()": "40650c91",
        "MIN_MEMBERS()": "d9a67220",
        "PLATFORM_FEE_BPS()": "539aa77f",
        "START_VOTE_THRESHOLD()": "58f8d6ff",
        "UPGRADE_INTERFACE_VERSION()": "ad3cb1cc",
        "VERSION()": "ffa1ad74",
        "VISIBILITY_UPDATE_FEE()": "46c39a1d",
        "VOTING_PERIOD()": "b1610d7e",
        "WithdrawCollateral(uint256)": "fc226bcc",
        "cUSDToken()": "0ea86ad8",
        "canWithdrawAfterVote(uint256)": "2dfa6768",
        "castVote(uint256,uint8)": "56781388",
        "circleCounter()": "f3890e1f",
        "circleInvitations(uint256,address)": "98d4c1dd",
        "circleMemberList(uint256,uint256)": "8fda34bf",
        "circleMembers(uint256,address)": "2c2b97a4",
        "circleRoundDeadlines(uint256,uint256)": "69be46bf",
        "circleVotes(uint256)": "c4ce74e0",
        "circles(uint256)": "bc5e0f30",
        "completedCircles(address)": "fd81593f",
        "createCircle((uint256,uint8,uint256,uint8))": "656cf711",
        "executeVote(uint256)": "f98a4eca",
        "goalCounter()": "f9e9ad39",
        "initialize(address,address,address)": "c0c53b8b",
        "initiateVoting(uint256)": "45714684",
        "inviteMembers(uint256,address[])": "d4bf578c",
        "joinCircle(uint256)": "86d6cfb3",
        "latePayments(address)": "0f801988",
        "memberVotes(uint256,address)": "63fc152e",
        "owner()": "8da5cb5b",
        "personalGoals(uint256)": "ad5a6982",
        "platformFeeBps()": "22dcd13e",
        "proxiableUUID()": "52d1902d",
        "renounceOwnership()": "715018a6",
        "roundContributions(uint256,uint256,address)": "84bb19cc",
        "startCircle(uint256)": "ec6b733f",
        "totalPlatformFees()": "d3631fa5",
        "transferOwnership(address)": "f2fde38b",
        "treasury()": "61d027b3",
        "updateCircleVisibility(uint256,uint8)": "157a7ec7",
        "upgrade(address,address,uint8)": "7ee839c4",
        "upgradeToAndCall(address,bytes)": "4f1ef286",
        "userGoals(address,uint256)": "b6b3eedf",
        "userReputation(address)": "e503bb05"
    },
    "gasEstimates": {
        "creation": {
            "codeDepositCost": "2350000",
            "executionCost": "infinite",
            "totalCost": "infinite"
        },
        "external": {
            "LATE_FEE_BPS()": "725",
            "MAX_CONTRIBUTION()": "681",
            "MAX_MEMBERS()": "1001",
            "MIN_CONTRIBUTION()": "285",
            "MIN_MEMBERS()": "945",
            "PLATFORM_FEE_BPS()": "407",
            "START_VOTE_THRESHOLD()": "439",
            "UPGRADE_INTERFACE_VERSION()": "1038",
            "VERSION()": "1162",
            "VISIBILITY_UPDATE_FEE()": "329",
            "VOTING_PERIOD()": "791",
            "WithdrawCollateral(uint256)": "infinite",
            "cUSDToken()": "2265",
            "canWithdrawAfterVote(uint256)": "5014",
            "castVote(uint256,uint8)": "infinite",
            "circleCounter()": "3158",
            "circleInvitations(uint256,address)": "3035",
            "circleMemberList(uint256,uint256)": "7242",
            "circleMembers(uint256,address)": "11117",
            "circleRoundDeadlines(uint256,uint256)": "2798",
            "circleVotes(uint256)": "7412",
            "circles(uint256)": "26556",
            "completedCircles(address)": "3396",
            "createCircle((uint256,uint8,uint256,uint8))": "infinite",
            "executeVote(uint256)": "infinite",
            "goalCounter()": "3202",
            "initialize(address,address,address)": "infinite",
            "initiateVoting(uint256)": "infinite",
            "inviteMembers(uint256,address[])": "infinite",
            "joinCircle(uint256)": "infinite",
            "latePayments(address)": "2428",
            "memberVotes(uint256,address)": "2866",
            "owner()": "infinite",
            "personalGoals(uint256)": "infinite",
            "platformFeeBps()": "2322",
            "proxiableUUID()": "infinite",
            "renounceOwnership()": "28514",
            "roundContributions(uint256,uint256,address)": "2989",
            "startCircle(uint256)": "infinite",
            "totalPlatformFees()": "3004",
            "transferOwnership(address)": "29175",
            "treasury()": "2588",
            "updateCircleVisibility(uint256,uint8)": "infinite",
            "upgrade(address,address,uint8)": "infinite",
            "upgradeToAndCall(address,bytes)": "infinite",
            "userGoals(address,uint256)": "7437",
            "userReputation(address)": "3220"
        },
        "internal": {
            "_assignPosition(uint256)": "infinite",
            "_authorizeUpgrade(address)": "infinite",
            "_calcCollateral(uint256,uint256)": "241",
            "_getByPos(uint256,uint256)": "infinite",
            "_nextDeadline(enum CirclePotV1.Frequency,uint256)": "infinite",
            "_payoutRound(uint256,uint256)": "infinite",
            "_progressNextRound(struct CirclePotV1.Circle storage pointer,uint256,uint256)": "infinite",
            "_releaseAllCollateral(uint256)": "infinite",
            "_startCircleInternal(uint256)": "infinite",
            "_ultimatum(enum CirclePotV1.Frequency)": "infinite"
        }
    }
}