{
    "contractName": "CirclePotV1",
    "abi": [
        {
            "inputs": [],
            "stateMutability": "nonpayable",
            "type": "constructor"
        },
        {
            "inputs": [
                {
                    "internalType": "address",
                    "name": "target",
                    "type": "address"
                }
            ],
            "name": "AddressEmptyCode",
            "type": "error"
        },
        {
            "inputs": [],
            "name": "AddressZeroNotAllowed",
            "type": "error"
        },
        {
            "inputs": [],
            "name": "AlreadyJoined",
            "type": "error"
        },
        {
            "inputs": [],
            "name": "CircleFull",
            "type": "error"
        },
        {
            "inputs": [],
            "name": "CircleNotExist",
            "type": "error"
        },
        {
            "inputs": [],
            "name": "CircleNotOpen",
            "type": "error"
        },
        {
            "inputs": [
                {
                    "internalType": "address",
                    "name": "implementation",
                    "type": "address"
                }
            ],
            "name": "ERC1967InvalidImplementation",
            "type": "error"
        },
        {
            "inputs": [],
            "name": "ERC1967NonPayable",
            "type": "error"
        },
        {
            "inputs": [],
            "name": "FailedCall",
            "type": "error"
        },
        {
            "inputs": [],
            "name": "InvalidCircle",
            "type": "error"
        },
        {
            "inputs": [],
            "name": "InvalidContributionAmount",
            "type": "error"
        },
        {
            "inputs": [],
            "name": "InvalidInitialization",
            "type": "error"
        },
        {
            "inputs": [],
            "name": "InvalidMemberCount",
            "type": "error"
        },
        {
            "inputs": [],
            "name": "InvalidTreasuryAddress",
            "type": "error"
        },
        {
            "inputs": [],
            "name": "MinMembersNotReached",
            "type": "error"
        },
        {
            "inputs": [],
            "name": "NotInitializing",
            "type": "error"
        },
        {
            "inputs": [],
            "name": "OnlyCreator",
            "type": "error"
        },
        {
            "inputs": [
                {
                    "internalType": "address",
                    "name": "owner",
                    "type": "address"
                }
            ],
            "name": "OwnableInvalidOwner",
            "type": "error"
        },
        {
            "inputs": [
                {
                    "internalType": "address",
                    "name": "account",
                    "type": "address"
                }
            ],
            "name": "OwnableUnauthorizedAccount",
            "type": "error"
        },
        {
            "inputs": [],
            "name": "ReentrancyGuardReentrantCall",
            "type": "error"
        },
        {
            "inputs": [
                {
                    "internalType": "address",
                    "name": "token",
                    "type": "address"
                }
            ],
            "name": "SafeERC20FailedOperation",
            "type": "error"
        },
        {
            "inputs": [],
            "name": "SameVisibility",
            "type": "error"
        },
        {
            "inputs": [],
            "name": "UUPSUnauthorizedCallContext",
            "type": "error"
        },
        {
            "inputs": [
                {
                    "internalType": "bytes32",
                    "name": "slot",
                    "type": "bytes32"
                }
            ],
            "name": "UUPSUnsupportedProxiableUUID",
            "type": "error"
        },
        {
            "inputs": [],
            "name": "UltimatumNotReached",
            "type": "error"
        },
        {
            "anonymous": false,
            "inputs": [
                {
                    "indexed": true,
                    "internalType": "uint256",
                    "name": "circleId",
                    "type": "uint256"
                }
            ],
            "name": "CircleCompleted",
            "type": "event"
        },
        {
            "anonymous": false,
            "inputs": [
                {
                    "indexed": false,
                    "internalType": "uint256",
                    "name": "circleId",
                    "type": "uint256"
                },
                {
                    "indexed": false,
                    "internalType": "address",
                    "name": "creator",
                    "type": "address"
                },
                {
                    "indexed": false,
                    "internalType": "uint256",
                    "name": "contributionAmount",
                    "type": "uint256"
                }
            ],
            "name": "CircleCreated",
            "type": "event"
        },
        {
            "anonymous": false,
            "inputs": [
                {
                    "indexed": true,
                    "internalType": "uint256",
                    "name": "circleId",
                    "type": "uint256"
                },
                {
                    "indexed": true,
                    "internalType": "address",
                    "name": "member",
                    "type": "address"
                }
            ],
            "name": "CircleJoined",
            "type": "event"
        },
        {
            "anonymous": false,
            "inputs": [
                {
                    "indexed": true,
                    "internalType": "uint256",
                    "name": "circleId",
                    "type": "uint256"
                },
                {
                    "indexed": false,
                    "internalType": "uint256",
                    "name": "startedAt",
                    "type": "uint256"
                }
            ],
            "name": "CircleStarted",
            "type": "event"
        },
        {
            "anonymous": false,
            "inputs": [
                {
                    "indexed": true,
                    "internalType": "address",
                    "name": "newImplementation",
                    "type": "address"
                },
                {
                    "indexed": false,
                    "internalType": "uint8",
                    "name": "version",
                    "type": "uint8"
                }
            ],
            "name": "ContractUpgraded",
            "type": "event"
        },
        {
            "anonymous": false,
            "inputs": [
                {
                    "indexed": false,
                    "internalType": "uint64",
                    "name": "version",
                    "type": "uint64"
                }
            ],
            "name": "Initialized",
            "type": "event"
        },
        {
            "anonymous": false,
            "inputs": [
                {
                    "indexed": true,
                    "internalType": "address",
                    "name": "previousOwner",
                    "type": "address"
                },
                {
                    "indexed": true,
                    "internalType": "address",
                    "name": "newOwner",
                    "type": "address"
                }
            ],
            "name": "OwnershipTransferred",
            "type": "event"
        },
        {
            "anonymous": false,
            "inputs": [
                {
                    "indexed": true,
                    "internalType": "uint256",
                    "name": "circleId",
                    "type": "uint256"
                },
                {
                    "indexed": true,
                    "internalType": "uint256",
                    "name": "round",
                    "type": "uint256"
                },
                {
                    "indexed": true,
                    "internalType": "address",
                    "name": "recipient",
                    "type": "address"
                },
                {
                    "indexed": false,
                    "internalType": "uint256",
                    "name": "amount",
                    "type": "uint256"
                }
            ],
            "name": "PayoutDistributed",
            "type": "event"
        },
        {
            "anonymous": false,
            "inputs": [
                {
                    "indexed": false,
                    "internalType": "uint256",
                    "name": "circledId",
                    "type": "uint256"
                },
                {
                    "indexed": false,
                    "internalType": "address",
                    "name": "member",
                    "type": "address"
                },
                {
                    "indexed": false,
                    "internalType": "uint256",
                    "name": "position",
                    "type": "uint256"
                }
            ],
            "name": "PositionAssigned",
            "type": "event"
        },
        {
            "anonymous": false,
            "inputs": [
                {
                    "indexed": true,
                    "internalType": "address",
                    "name": "implementation",
                    "type": "address"
                }
            ],
            "name": "Upgraded",
            "type": "event"
        },
        {
            "anonymous": false,
            "inputs": [
                {
                    "indexed": true,
                    "internalType": "uint256",
                    "name": "circleId",
                    "type": "uint256"
                },
                {
                    "indexed": true,
                    "internalType": "address",
                    "name": "creator",
                    "type": "address"
                }
            ],
            "name": "VisibilityUpdated",
            "type": "event"
        },
        {
            "inputs": [],
            "name": "LATE_FEE_BPS",
            "outputs": [
                {
                    "internalType": "uint256",
                    "name": "",
                    "type": "uint256"
                }
            ],
            "stateMutability": "view",
            "type": "function"
        },
        {
            "inputs": [],
            "name": "MAX_CONTRIBUTION",
            "outputs": [
                {
                    "internalType": "uint256",
                    "name": "",
                    "type": "uint256"
                }
            ],
            "stateMutability": "view",
            "type": "function"
        },
        {
            "inputs": [],
            "name": "MAX_MEMBERS",
            "outputs": [
                {
                    "internalType": "uint256",
                    "name": "",
                    "type": "uint256"
                }
            ],
            "stateMutability": "view",
            "type": "function"
        },
        {
            "inputs": [],
            "name": "MIN_CONTRIBUTION",
            "outputs": [
                {
                    "internalType": "uint256",
                    "name": "",
                    "type": "uint256"
                }
            ],
            "stateMutability": "view",
            "type": "function"
        },
        {
            "inputs": [],
            "name": "MIN_MEMBERS",
            "outputs": [
                {
                    "internalType": "uint256",
                    "name": "",
                    "type": "uint256"
                }
            ],
            "stateMutability": "view",
            "type": "function"
        },
        {
            "inputs": [],
            "name": "PLATFORM_FEE_BPS",
            "outputs": [
                {
                    "internalType": "uint256",
                    "name": "",
                    "type": "uint256"
                }
            ],
            "stateMutability": "view",
            "type": "function"
        },
        {
            "inputs": [],
            "name": "UPGRADE_INTERFACE_VERSION",
            "outputs": [
                {
                    "internalType": "string",
                    "name": "",
                    "type": "string"
                }
            ],
            "stateMutability": "view",
            "type": "function"
        },
        {
            "inputs": [],
            "name": "VERSION",
            "outputs": [
                {
                    "internalType": "uint8",
                    "name": "",
                    "type": "uint8"
                }
            ],
            "stateMutability": "view",
            "type": "function"
        },
        {
            "inputs": [],
            "name": "VISIBILITY_UPDATE_FEE",
            "outputs": [
                {
                    "internalType": "uint256",
                    "name": "",
                    "type": "uint256"
                }
            ],
            "stateMutability": "view",
            "type": "function"
        },
        {
            "inputs": [],
            "name": "cUSDToken",
            "outputs": [
                {
                    "internalType": "address",
                    "name": "",
                    "type": "address"
                }
            ],
            "stateMutability": "view",
            "type": "function"
        },
        {
            "inputs": [],
            "name": "circleCounter",
            "outputs": [
                {
                    "internalType": "uint256",
                    "name": "",
                    "type": "uint256"
                }
            ],
            "stateMutability": "view",
            "type": "function"
        },
        {
            "inputs": [
                {
                    "internalType": "uint256",
                    "name": "",
                    "type": "uint256"
                },
                {
                    "internalType": "uint256",
                    "name": "",
                    "type": "uint256"
                }
            ],
            "name": "circleMemberList",
            "outputs": [
                {
                    "internalType": "address",
                    "name": "",
                    "type": "address"
                }
            ],
            "stateMutability": "view",
            "type": "function"
        },
        {
            "inputs": [
                {
                    "internalType": "uint256",
                    "name": "",
                    "type": "uint256"
                },
                {
                    "internalType": "address",
                    "name": "",
                    "type": "address"
                }
            ],
            "name": "circleMembers",
            "outputs": [
                {
                    "internalType": "uint256",
                    "name": "position",
                    "type": "uint256"
                },
                {
                    "internalType": "uint256",
                    "name": "totalContributed",
                    "type": "uint256"
                },
                {
                    "internalType": "bool",
                    "name": "hasReceivedPayout",
                    "type": "bool"
                },
                {
                    "internalType": "bool",
                    "name": "isActive",
                    "type": "bool"
                },
                {
                    "internalType": "uint256",
                    "name": "collateralLocked",
                    "type": "uint256"
                },
                {
                    "internalType": "uint256",
                    "name": "joinedAt",
                    "type": "uint256"
                }
            ],
            "stateMutability": "view",
            "type": "function"
        },
        {
            "inputs": [
                {
                    "internalType": "uint256",
                    "name": "",
                    "type": "uint256"
                },
                {
                    "internalType": "uint256",
                    "name": "",
                    "type": "uint256"
                }
            ],
            "name": "circleRoundDeadlines",
            "outputs": [
                {
                    "internalType": "uint256",
                    "name": "",
                    "type": "uint256"
                }
            ],
            "stateMutability": "view",
            "type": "function"
        },
        {
            "inputs": [
                {
                    "internalType": "uint256",
                    "name": "",
                    "type": "uint256"
                }
            ],
            "name": "circles",
            "outputs": [
                {
                    "internalType": "uint256",
                    "name": "circleId",
                    "type": "uint256"
                },
                {
                    "internalType": "address",
                    "name": "creator",
                    "type": "address"
                },
                {
                    "internalType": "uint256",
                    "name": "contributionAmount",
                    "type": "uint256"
                },
                {
                    "internalType": "enum CirclePotV1.Frequency",
                    "name": "frequency",
                    "type": "uint8"
                },
                {
                    "internalType": "uint256",
                    "name": "maxMembers",
                    "type": "uint256"
                },
                {
                    "internalType": "uint256",
                    "name": "currentMembers",
                    "type": "uint256"
                },
                {
                    "internalType": "uint256",
                    "name": "currentRound",
                    "type": "uint256"
                },
                {
                    "internalType": "uint256",
                    "name": "totalRounds",
                    "type": "uint256"
                },
                {
                    "internalType": "enum CirclePotV1.CircleState",
                    "name": "state",
                    "type": "uint8"
                },
                {
                    "internalType": "enum CirclePotV1.Visibility",
                    "name": "visibility",
                    "type": "uint8"
                },
                {
                    "internalType": "uint256",
                    "name": "createdAt",
                    "type": "uint256"
                },
                {
                    "internalType": "uint256",
                    "name": "startedAt",
                    "type": "uint256"
                },
                {
                    "internalType": "uint256",
                    "name": "totalPot",
                    "type": "uint256"
                }
            ],
            "stateMutability": "view",
            "type": "function"
        },
        {
            "inputs": [
                {
                    "internalType": "address",
                    "name": "",
                    "type": "address"
                }
            ],
            "name": "completedCircles",
            "outputs": [
                {
                    "internalType": "uint256",
                    "name": "",
                    "type": "uint256"
                }
            ],
            "stateMutability": "view",
            "type": "function"
        },
        {
            "inputs": [
                {
                    "components": [
                        {
                            "internalType": "uint256",
                            "name": "contributionAmount",
                            "type": "uint256"
                        },
                        {
                            "internalType": "enum CirclePotV1.Frequency",
                            "name": "frequency",
                            "type": "uint8"
                        },
                        {
                            "internalType": "uint256",
                            "name": "maxMembers",
                            "type": "uint256"
                        },
                        {
                            "internalType": "enum CirclePotV1.Visibility",
                            "name": "visibility",
                            "type": "uint8"
                        }
                    ],
                    "internalType": "struct CirclePotV1.CreateCircleParams",
                    "name": "params",
                    "type": "tuple"
                }
            ],
            "name": "createCircle",
            "outputs": [
                {
                    "internalType": "uint256",
                    "name": "",
                    "type": "uint256"
                }
            ],
            "stateMutability": "nonpayable",
            "type": "function"
        },
        {
            "inputs": [],
            "name": "goalCounter",
            "outputs": [
                {
                    "internalType": "uint256",
                    "name": "",
                    "type": "uint256"
                }
            ],
            "stateMutability": "view",
            "type": "function"
        },
        {
            "inputs": [
                {
                    "internalType": "address",
                    "name": "_cUSDToken",
                    "type": "address"
                },
                {
                    "internalType": "address",
                    "name": "_treasury",
                    "type": "address"
                },
                {
                    "internalType": "address",
                    "name": "initialOwner",
                    "type": "address"
                }
            ],
            "name": "initialize",
            "outputs": [],
            "stateMutability": "nonpayable",
            "type": "function"
        },
        {
            "inputs": [
                {
                    "internalType": "uint256",
                    "name": "_circleId",
                    "type": "uint256"
                }
            ],
            "name": "joinCircle",
            "outputs": [],
            "stateMutability": "nonpayable",
            "type": "function"
        },
        {
            "inputs": [
                {
                    "internalType": "address",
                    "name": "",
                    "type": "address"
                }
            ],
            "name": "latePayments",
            "outputs": [
                {
                    "internalType": "uint256",
                    "name": "",
                    "type": "uint256"
                }
            ],
            "stateMutability": "view",
            "type": "function"
        },
        {
            "inputs": [],
            "name": "owner",
            "outputs": [
                {
                    "internalType": "address",
                    "name": "",
                    "type": "address"
                }
            ],
            "stateMutability": "view",
            "type": "function"
        },
        {
            "inputs": [
                {
                    "internalType": "uint256",
                    "name": "",
                    "type": "uint256"
                }
            ],
            "name": "personalGoals",
            "outputs": [
                {
                    "internalType": "address",
                    "name": "owner",
                    "type": "address"
                },
                {
                    "internalType": "string",
                    "name": "name",
                    "type": "string"
                },
                {
                    "internalType": "uint256",
                    "name": "targetAmount",
                    "type": "uint256"
                },
                {
                    "internalType": "uint256",
                    "name": "currentAmount",
                    "type": "uint256"
                },
                {
                    "internalType": "uint256",
                    "name": "contributionAmount",
                    "type": "uint256"
                },
                {
                    "internalType": "enum CirclePotV1.Frequency",
                    "name": "frequency",
                    "type": "uint8"
                },
                {
                    "internalType": "uint256",
                    "name": "deadline",
                    "type": "uint256"
                },
                {
                    "internalType": "uint256",
                    "name": "createdAt",
                    "type": "uint256"
                },
                {
                    "internalType": "bool",
                    "name": "isActive",
                    "type": "bool"
                },
                {
                    "internalType": "uint256",
                    "name": "lastContributionAt",
                    "type": "uint256"
                }
            ],
            "stateMutability": "view",
            "type": "function"
        },
        {
            "inputs": [],
            "name": "platformFeeBps",
            "outputs": [
                {
                    "internalType": "uint256",
                    "name": "",
                    "type": "uint256"
                }
            ],
            "stateMutability": "view",
            "type": "function"
        },
        {
            "inputs": [],
            "name": "proxiableUUID",
            "outputs": [
                {
                    "internalType": "bytes32",
                    "name": "",
                    "type": "bytes32"
                }
            ],
            "stateMutability": "view",
            "type": "function"
        },
        {
            "inputs": [],
            "name": "renounceOwnership",
            "outputs": [],
            "stateMutability": "nonpayable",
            "type": "function"
        },
        {
            "inputs": [
                {
                    "internalType": "uint256",
                    "name": "",
                    "type": "uint256"
                },
                {
                    "internalType": "uint256",
                    "name": "",
                    "type": "uint256"
                },
                {
                    "internalType": "address",
                    "name": "",
                    "type": "address"
                }
            ],
            "name": "roundContributions",
            "outputs": [
                {
                    "internalType": "bool",
                    "name": "",
                    "type": "bool"
                }
            ],
            "stateMutability": "view",
            "type": "function"
        },
        {
            "inputs": [
                {
                    "internalType": "uint256",
                    "name": "_circleId",
                    "type": "uint256"
                }
            ],
            "name": "startCircle",
            "outputs": [],
            "stateMutability": "nonpayable",
            "type": "function"
        },
        {
            "inputs": [],
            "name": "totalPlatformFees",
            "outputs": [
                {
                    "internalType": "uint256",
                    "name": "",
                    "type": "uint256"
                }
            ],
            "stateMutability": "view",
            "type": "function"
        },
        {
            "inputs": [
                {
                    "internalType": "address",
                    "name": "newOwner",
                    "type": "address"
                }
            ],
            "name": "transferOwnership",
            "outputs": [],
            "stateMutability": "nonpayable",
            "type": "function"
        },
        {
            "inputs": [],
            "name": "treasury",
            "outputs": [
                {
                    "internalType": "address",
                    "name": "",
                    "type": "address"
                }
            ],
            "stateMutability": "view",
            "type": "function"
        },
        {
            "inputs": [
                {
                    "internalType": "uint256",
                    "name": "_circleId",
                    "type": "uint256"
                },
                {
                    "internalType": "enum CirclePotV1.Visibility",
                    "name": "_newVisibility",
                    "type": "uint8"
                }
            ],
            "name": "updateCircleVisibility",
            "outputs": [],
            "stateMutability": "nonpayable",
            "type": "function"
        },
        {
            "inputs": [
                {
                    "internalType": "address",
                    "name": "_cUSDToken",
                    "type": "address"
                },
                {
                    "internalType": "address",
                    "name": "_treasury",
                    "type": "address"
                },
                {
                    "internalType": "uint8",
                    "name": "_version",
                    "type": "uint8"
                }
            ],
            "name": "upgrade",
            "outputs": [],
            "stateMutability": "nonpayable",
            "type": "function"
        },
        {
            "inputs": [
                {
                    "internalType": "address",
                    "name": "newImplementation",
                    "type": "address"
                },
                {
                    "internalType": "bytes",
                    "name": "data",
                    "type": "bytes"
                }
            ],
            "name": "upgradeToAndCall",
            "outputs": [],
            "stateMutability": "payable",
            "type": "function"
        },
        {
            "inputs": [
                {
                    "internalType": "address",
                    "name": "",
                    "type": "address"
                },
                {
                    "internalType": "uint256",
                    "name": "",
                    "type": "uint256"
                }
            ],
            "name": "userGoals",
            "outputs": [
                {
                    "internalType": "uint256",
                    "name": "",
                    "type": "uint256"
                }
            ],
            "stateMutability": "view",
            "type": "function"
        },
        {
            "inputs": [
                {
                    "internalType": "address",
                    "name": "",
                    "type": "address"
                }
            ],
            "name": "userReputation",
            "outputs": [
                {
                    "internalType": "uint256",
                    "name": "",
                    "type": "uint256"
                }
            ],
            "stateMutability": "view",
            "type": "function"
        }
    ],
    "bytecode": "60a080604052346100c257306080525f51602061241f5f395f51905f525460ff8160401c166100b3576002600160401b03196001600160401b03821601610060575b60405161235890816100c7823960805181818161121f01526112ef0152f35b6001600160401b0319166001600160401b039081175f51602061241f5f395f51905f525581527fc7f505b2f371ae2175ee4913f4499e1f2633a7b5936321eed1cdaeb6115181d290602090a15f80610041565b63f92ee8a960e01b5f5260045ffd5b5f80fdfe6080806040526004361015610012575f80fd5b5f3560e01c9081630ea86ad814611742575080630f8019881461170a578063157a7ec7146115b157806322dcd13e146115945780632c2b97a41461151257806340650c91146114f057806346c39a1d146114ce5780634f1ef2861461127357806352d1902d1461120d578063539aa77f1461039157806361d027b3146111e5578063656cf71114610e5657806369be46bf14610e27578063715018a614610dc05780637ee839c414610c6a57806384bb19cc14610c1557806386d6cfb314610a045780638da5cb5b146109d05780638fda34bf1461098857806394d95f8f14610964578063a8c9305714610949578063ad3cb1cc146108fe578063ad5a69821461077d578063b6b3eedf14610725578063bc5e0f301461064a578063c0c53b8b14610406578063d3631fa5146103e9578063d9a67220146103ce578063e503bb0514610396578063ea0e35b114610391578063ec6b733f14610264578063f2fde38b14610239578063f3890e1f1461021c578063f9e9ad39146101ff578063fd81593f146101c75763ffa1ad74146101a8575f80fd5b346101c3575f3660031901126101c357602060405160018152f35b5f80fd5b346101c35760203660031901126101c3576001600160a01b036101e8611764565b165f52600c602052602060405f2054604051908152f35b346101c3575f3660031901126101c3576020600354604051908152f35b346101c3575f3660031901126101c3576020600254604051908152f35b346101c35760203660031901126101c357610262610255611764565b61025d6119f0565b611919565b005b346101c35760203660031901126101c35760043580158015610385575b610376575f81815260046020526040902060018101546001600160a01b031633036103675760ff6008820154166004811015610353576001036103445760058101546004820154603c810290808204603c1490151715610330576064900411610321578060096102fa60ff600361030295015416611de9565b91015461188b565b4211156103125761026290611a77565b63a217083960e01b5f5260045ffd5b63505768b960e11b5f5260045ffd5b634e487b7160e01b5f52601160045260245ffd5b63d883bee960e01b5f5260045ffd5b634e487b7160e01b5f52602160045260245ffd5b6308f78f9960e31b5f5260045ffd5b632fb08c4f60e11b5f5260045ffd5b50600254811015610281565b611800565b346101c35760203660031901126101c3576001600160a01b036103b7611764565b165f52600b602052602060405f2054604051908152f35b346101c3575f3660031901126101c357602060405160058152f35b346101c3575f3660031901126101c3576020600e54604051908152f35b346101c35760603660031901126101c35761041f611764565b61042761177a565b61042f611790565b905f5160206123035f395f51905f52549267ffffffffffffffff60ff8560401c1615941680159081610642575b6001149081610638575b15908161062f575b506106205783600167ffffffffffffffff195f5160206123035f395f51905f525416175f5160206123035f395f51905f52556105f0575b6104ad612152565b6104b5612152565b6104be83611919565b6104c6612152565b6104ce612152565b60015f5160206122e35f395f51905f52556104e7612152565b6001600160a01b0316801580156105df575b6105d0575f80546001600160a01b0319908116929092179055600180549091166001600160a01b0392831617815560028190556003556014600f55811680151590816105ae575b5061059f575b5061054d57005b60ff60401b195f5160206123035f395f51905f5254165f5160206123035f395f51905f52557fc7f505b2f371ae2175ee4913f4499e1f2633a7b5936321eed1cdaeb6115181d2602060405160018152a1005b6105a890611a23565b81610546565b5f5160206122a35f395f51905f52546001600160a01b03161415905083610540565b63cfe2ea6360e01b5f5260045ffd5b506001600160a01b038216156104f9565b600160401b60ff60401b195f5160206123035f395f51905f525416175f5160206123035f395f51905f52556104a5565b63f92ee8a960e01b5f5260045ffd5b9050158561046e565b303b159150610466565b85915061045c565b346101c35760203660031901126101c3576004355f52600460205260405f20805460018060a01b0360018301541660028301549260ff600382015416936004820154600583015460068401546007850154916008860154936106db60ff8087169660081c169a600989015497600b600a8b01549a01549a6040519c8d5260208d015260408c015260608b019061187e565b608089015260a088015260c087015260e08601526004811015610353576101008501526002851015610353576101a094610120850152610140840152610160830152610180820152f35b346101c35760403660031901126101c35761073e611764565b6001600160a01b03165f908152600a60205260409020805460243591908210156101c35760209161076e91611831565b90549060031b1c604051908152f35b346101c35760203660031901126101c3576004355f52600960205260405f2060018060a01b038154166001820191604051925f8154908160011c92600183169283156108f4575b6020851084146108e05784885287939081156108be575060011461087a575b506107f0925003846117c2565b600281015490600381015490600481015460ff60058301541661085e600684015491600785015493600960ff600888015416960154966108446040519b8c9b8c5261014060208d01526101408c019061185a565b9860408b015260608a0152608089015260a088019061187e565b60c086015260e085015215156101008401526101208301520390f35b90505f9291925260205f20905f915b8183106108a25750509060206107f092820101866107e3565b6020919350806001915483858a01015201910190918592610889565b9050602092506107f094915060ff191682840152151560051b820101866107e3565b634e487b7160e01b5f52602260045260245ffd5b93607f16936107c4565b346101c3575f3660031901126101c35761094560405161091f6040826117c2565b60058152640352e302e360dc1b602082015260405191829160208352602083019061185a565b0390f35b346101c3575f3660031901126101c357602060405160648152f35b346101c3575f3660031901126101c357602060405169010f0cf064dd592000008152f35b346101c3576109963661181b565b905f52600660205260405f2080548210156101c3576020916109b791611831565b905460405160039290921b1c6001600160a01b03168152f35b346101c3575f3660031901126101c3575f5160206122a35f395f51905f52546040516001600160a01b039091168152602090f35b346101c35760203660031901126101c357600435610a20611946565b80158015610c09575b61037657805f52600460205260405f2060ff60088201541660048110156103535760010361034457600581019081549060048101918254809114610bfa575f85815260056020908152604080832033845290915290206002015460081c60ff16610bec576002610a9a9201546119c2565b5f54610ab4908290309033906001600160a01b031661197e565b600460405191610ac3836117a6565b5f835260208301905f8252604084015f815260608501600181526080860192835260a0860193428552895f52600560205260405f2060018060a01b0333165f5260205260405f2096518755516001870155610b316002870192511515839060ff801983541691151516179055565b51151561ff0082549160081b169061ff00191617905551600384015551910155825f526006602052610b663360405f206118c5565b610b7082546118b7565b80925533837fa7858a1f19449eeaf5fbe2692047577d00116ecb460791549c018c79e3ce483b5f80a35414610bb3575b60015f5160206122e35f395f51905f5255005b610bbc81611a77565b7faf0f41c2e769faca4f3422a53417b14043b989e8d29fd8aa1f0fb10273d20f1f6020604051428152a280610ba0565b621d934160e11b5f5260045ffd5b63f277526560e01b5f5260045ffd5b50600254811015610a29565b346101c35760603660031901126101c357610c2e611790565b6004355f52600760205260405f206024355f5260205260405f209060018060a01b03165f52602052602060ff60405f2054166040519015158152f35b346101c35760603660031901126101c357610c83611764565b610c8b61177a565b60443560ff81168091036101c3575f5160206123035f395f51905f52548160ff8260401c16918215610dab575b5050610620577fc7f505b2f371ae2175ee4913f4499e1f2633a7b5936321eed1cdaeb6115181d2926020928267ffffffffffffffff195f5160206123035f395f51905f525416175f5160206123035f395f51905f525560ff60401b195f5160206123035f395f51905f52541691600160401b83175f5160206123035f395f51905f5255610d436119f0565b6001600160a01b031680610d94575b506001600160a01b031680610d7b575b505f5160206123035f395f51905f5255604051908152a1005b6001600160601b0360a01b600154161760015584610d62565b6001600160601b0360a01b5f5416175f5585610d52565b67ffffffffffffffff16101590508185610cb8565b346101c3575f3660031901126101c357610dd86119f0565b5f5160206122a35f395f51905f5280546001600160a01b031981169091555f906001600160a01b03167f8be0079c531659141344cd1fd0a4f28419497f9722a3daafe3b4186f6b6457e08280a3005b346101c357610e353661181b565b905f52600860205260405f20905f52602052602060405f2054604051908152f35b346101c35760803660031901126101c357610e6f611946565b33156111d657600435670de0b6b3a7640000811080156111c3575b6111b4576044356005811080156111aa575b61119b5760025490610ead826118b7565b600255610eba81846119c2565b6064359360028510156101c3576001851461114c575b5f54610eea908390309033906001600160a01b031661197e565b6024359160038310156101c3576040516101a0810181811067ffffffffffffffff821117611138576040528581528560208201973389526040830196858852606084019687526080840181815260a085016001815260c08601915f835260e0870193845261010087019960018b52610120880195865261014088019b428d5261016089019e8f5f90526101808a01985f8a525f52600460205260405f2099518a5560018a0190600160a01b600190039051166001600160601b0360a01b82541617905551600289015560038801905160038110156103535760ff8019835416911617905551600487015551600586015551600685015551600784015560088301955160048110156103535760ff8019885416911617865551906002821015610353576020987f83b945859e19f480c406ac4e6ac635d422aad2665c1d65da9419b81d51ba61a897611040600b9461111c99611898565b51600985015551600a8401555191015560046040519161105f836117a6565b5f8352878301905f8252604084015f815260608501600181526080860192835260a08601934285528a5f5260058c5260405f2060018060a01b0333165f528c5260405f20965187555160018701556110ca6002870192511515839060ff801983541691151516179055565b51151561ff0082549160081b169061ff00191617905551600384015551910155835f52600685526110fe3360405f206118c5565b60408051858152336020820152908101919091529081906060820190565b0390a160015f5160206122e35f395f51905f5255604051908152f35b634e487b7160e01b5f52604160045260245ffd5b6706f05b59d3b200008201821161033057600e546706f05b59d3b200008101106103305733847f46fc58301c2ea9f88a47be840edd44559d82b3c0a69ed37ac62f63b313540b615f80a3610ed0565b63027ee80d60e51b5f5260045ffd5b5060148111610e9c565b631717aceb60e31b5f5260045ffd5b5069010f0cf064dd592000008111610e8a565b6302154e0360e21b5f5260045ffd5b346101c3575f3660031901126101c3576001546040516001600160a01b039091168152602090f35b346101c3575f3660031901126101c3577f00000000000000000000000000000000000000000000000000000000000000006001600160a01b031630036112645760206040515f5160206122c35f395f51905f528152f35b63703e46dd60e11b5f5260045ffd5b60403660031901126101c357611287611764565b6024359067ffffffffffffffff82116101c357366023830112156101c3578160040135906112b4826117e4565b916112c260405193846117c2565b808352602083019336602483830101116101c357815f926024602093018737840101526001600160a01b037f0000000000000000000000000000000000000000000000000000000000000000163081149081156114ac575b50611264576113276119f0565b60018060a01b03811692837f8c26ec1c89a900331babb88eefa754f9b9ed370abe61944d6874e37612764c3f602060405160018152a26040516352d1902d60e01b8152602081600481885afa5f9181611478575b506113935784634c9c8ce360e01b5f5260045260245ffd5b805f5160206122c35f395f51905f528692036114665750823b15611454575f5160206122c35f395f51905f5280546001600160a01b031916821790557fbc7cd75a20ee27fd9adebab32041f755214dbc6bffa90cc0225b39da2e5c2d3b5f80a282511561143b575f8091610262945190845af43d15611433573d91611417836117e4565b9261142560405194856117c2565b83523d5f602085013e612244565b606091612244565b5050503461144557005b63b398979f60e01b5f5260045ffd5b634c9c8ce360e01b5f5260045260245ffd5b632a87526960e21b5f5260045260245ffd5b9091506020813d6020116114a4575b81611494602093836117c2565b810103126101c35751908661137b565b3d9150611487565b5f5160206122c35f395f51905f52546001600160a01b0316141590508461131a565b346101c3575f3660031901126101c35760206040516706f05b59d3b200008152f35b346101c3575f3660031901126101c3576020604051670de0b6b3a76400008152f35b346101c35760403660031901126101c35761152b61177a565b6004355f52600560205260405f209060018060a01b03165f5260205260c060405f2080549060018101549060ff6002820154600460038401549301549360405195865260208601528181161515604086015260081c1615156060840152608083015260a0820152f35b346101c3575f3660031901126101c3576020600f54604051908152f35b346101c35760403660031901126101c35760043560243560028110156101c3576115d9611946565b811580156116fe575b610376575f82815260046020526040902060018101546001600160a01b031633036103675760080190815460ff81166004811015610353576001036116ef5760081c60ff1660028110156103535781146116e0575f546040516323b872dd60e01b60208201523360248201523060448201526706f05b59d3b200006064808301919091528152611685916001600160a01b03166116806084836117c2565b611e1a565b600e54916706f05b59d3b200008301809311610330576116a792600e55611898565b33907f46fc58301c2ea9f88a47be840edd44559d82b3c0a69ed37ac62f63b313540b615f80a360015f5160206122e35f395f51905f5255005b63051a3ed560e11b5f5260045ffd5b63a407615b60e01b5f5260045ffd5b506002548210156115e2565b346101c35760203660031901126101c3576001600160a01b0361172b611764565b165f52600d602052602060405f2054604051908152f35b346101c3575f3660031901126101c3575f546001600160a01b03168152602090f35b600435906001600160a01b03821682036101c357565b602435906001600160a01b03821682036101c357565b604435906001600160a01b03821682036101c357565b60c0810190811067ffffffffffffffff82111761113857604052565b90601f8019910116810190811067ffffffffffffffff82111761113857604052565b67ffffffffffffffff811161113857601f01601f191660200190565b346101c3575f3660031901126101c357602060405160148152f35b60409060031901126101c3576004359060243590565b8054821015611846575f5260205f2001905f90565b634e487b7160e01b5f52603260045260245ffd5b805180835260209291819084018484015e5f828201840152601f01601f1916010190565b9060038210156103535752565b9190820180921161033057565b9060028110156103535761ff0082549160081b169061ff001916179055565b5f1981146103305760010190565b8054600160401b811015611138576118e291600182018155611831565b81546001600160a01b0393841660039290921b91821b9390911b1916919091179055565b8181029291811591840414171561033057565b6001600160a01b038116156119335761193190611a23565b565b631e4fbdf760e01b5f525f60045260245ffd5b60025f5160206122e35f395f51905f52541461196f5760025f5160206122e35f395f51905f5255565b633ee5aeb560e01b5f5260045ffd5b6040516323b872dd60e01b60208201526001600160a01b039283166024820152929091166044830152606480830193909352918152611931916116806084836117c2565b906119cc91611906565b606481029080820460641481151715610330576127106119ed92049061188b565b90565b5f5160206122a35f395f51905f52546001600160a01b03163303611a1057565b63118cdaa760e01b5f523360045260245ffd5b5f5160206122a35f395f51905f5280546001600160a01b039283166001600160a01b0319821681179092559091167f8be0079c531659141344cd1fd0a4f28419497f9722a3daafe3b4186f6b6457e05f80a3565b5f8181526004602090815260408083206006835281842060058452828520600180840180546001600160a01b03908116895292875296859020819055955484518881529116948101859052928301949094529291907ffc79da6c5316f4c3a2841a4a8ee84045b0cda7f9c0b91deec048b7f26d4293cf90606090a18154905f1982019282841161033057611b0a84611e7d565b92611b1860405194856117c2565b848452601f19611b2786611e7d565b01366020860137611b3785611e7d565b92611b4560405194856117c2565b858452601f19611b5487611e7d565b013660208601375f905f5b838110611d105750505050505f5b838110611c9e5750505f5b828110611bfc5750505090611bb48260086119319401600260ff1982541617905542600a8201556001600682015560ff60034292015416611ea9565b815f52600860205260405f2060015f5260205260405f2055807faf0f41c2e769faca4f3422a53417b14043b989e8d29fd8aa1f0fb10273d20f1f6020604051428152a2611ef0565b6002810190818111610330575f8681526005602052604090206001927ffc79da6c5316f4c3a2841a4a8ee84045b0cda7f9c0b91deec048b7f26d4293cf916001600160a01b03611c4c8588611e95565b5116858060a01b03165f526020528060405f2055838060a01b03611c708487611e95565b51604080518b8152929091166001600160a01b0316602083015281019190915280606081010390a101611b78565b60018101808211610330575b848110611cba5750600101611b6d565b80611cc760019285611e95565b51611cd28486611e95565b5110611cdf575b01611caa565b611ce98385611e95565b51611cf48286611e95565b51611cff8587611e95565b52611d0a8286611e95565b52611cd9565b81611d1b8287611831565b905460039190911b1c6001600160a01b031603611d3b575b600101611b5f565b91611d468386611831565b905460039190911b1c6001600160a01b0316611d628289611e95565b52611d6d8386611831565b60018060a01b0391549060031b1c165f52600b60205260405f205490611d938487611831565b60018060a01b0391549060031b1c165f52600c60205260405f205490600a820291808304600a149015171561033057611dd1611de19260019461188b565b611ddb828a611e95565b526118b7565b929050611d33565b6003811015610353578015908115611e0f575b50611e08576212750090565b62093a8090565b60019150145f611dfc565b905f602091828151910182855af115611e72575f513d611e6957506001600160a01b0381163b155b611e495750565b635274afe760e01b5f9081526001600160a01b0391909116600452602490fd5b60011415611e42565b6040513d5f823e3d90fd5b67ffffffffffffffff81116111385760051b60200190565b80518210156118465760209160051b010190565b6003811015610353578015611edf57600114611ecf5762278d0081018091116103305790565b62093a8081018091116103305790565b506201518081018091116103305790565b805f52600460205260405f20611f0760018361217d565b6001600160a01b03811690811561214c57835f52600560205260405f20825f52602052600260405f20019060ff82541661214557600b84018054600186015490939084906001600160a01b03168603612108575b5f80549094611f7392916001600160a01b0316612209565b600160ff1982541617905555815f52600b60205260405f209081546005810180911161033057602086927f52e998e38a9505deab1cc0e4a47bdd8426a6fde45f6693db2fd122e537fcf22b9260019555855f52600c825260405f20611fd881546118b7565b9055604051908152a46007810154600110156120215760ff600361200792600260068201550154164290611ea9565b905f52600860205260405f2060015f5260205260405f2055565b600801600360ff19825416179055805f52600660205260405f205f5b81548110156120e057600190835f52600560205260405f2061205f8285611831565b848060a01b0391549060031b1c16838060a01b03165f5260205260405f2060ff600282015460081c16806120d3575b61209a575b500161203d565b60036120cd91015f81549155838060a01b035f54166120b98487611831565b868060a01b0391549060031b1c1690612209565b5f612093565b506003810154151561208e565b50507ffccd3901546cfbb42742cac2c7335bce34f1f8d9844f4f4b53640f79e31010875f80a2565b50612710612118600f5486611906565b049384810390811161033057612139945f94611f7392968792600e5461188b565b600e5594509050611f5b565b5050505050565b50505050565b60ff5f5160206123035f395f51905f525460401c161561216e57565b631afcd79f60e31b5f5260045ffd5b90815f52600660205260405f20905f928254935b8481106121a15750505050505f90565b815f52600560205260405f206121b78286611831565b905460039190911b1c6001600160a01b03165f908152602091909152604090205483146121e657600101612191565b929150506121f49250611831565b905460039190911b1c6001600160a01b031690565b60405163a9059cbb60e01b60208201526001600160a01b039092166024830152604480830193909352918152611931916116806064836117c2565b90612268575080511561225957602081519101fd5b63d6bda27560e01b5f5260045ffd5b81511580612299575b612279575090565b639996b31560e01b5f9081526001600160a01b0391909116600452602490fd5b50803b1561227156fe9016d09d72d40fdae2fd8ceac6b6234c7706214fd39c1cd1e609a0528c199300360894a13ba1a3210667c828492db98dca3e2076cc3735a920a3ca505d382bbc9b779b17422d0df92223018b32b4d1fa46e071723d6817e2486d003becc55f00f0c57e16840df040f15088dc2f81fe391c3923bec73e23a9662efc9c229c6a00a2646970667358221220c15b3b866d690e400b778318554a658aaa76393c3fff5e32f9b78d3c159d752764736f6c634300081e0033f0c57e16840df040f15088dc2f81fe391c3923bec73e23a9662efc9c229c6a00",
    "sourcePath": "/home/isiaq/workspace/CirclePot/smart-contract/src/CirclePotV1.sol",
    "compiler": {
        "name": "solc",
        "version": "0.8.30+commit.73712a01"
    },
    "functionHashes": {
        "LATE_FEE_BPS()": "a8c93057",
        "MAX_CONTRIBUTION()": "94d95f8f",
        "MAX_MEMBERS()": "ea0e35b1",
        "MIN_CONTRIBUTION()": "40650c91",
        "MIN_MEMBERS()": "d9a67220",
        "PLATFORM_FEE_BPS()": "539aa77f",
        "UPGRADE_INTERFACE_VERSION()": "ad3cb1cc",
        "VERSION()": "ffa1ad74",
        "VISIBILITY_UPDATE_FEE()": "46c39a1d",
        "cUSDToken()": "0ea86ad8",
        "circleCounter()": "f3890e1f",
        "circleMemberList(uint256,uint256)": "8fda34bf",
        "circleMembers(uint256,address)": "2c2b97a4",
        "circleRoundDeadlines(uint256,uint256)": "69be46bf",
        "circles(uint256)": "bc5e0f30",
        "completedCircles(address)": "fd81593f",
        "createCircle((uint256,uint8,uint256,uint8))": "656cf711",
        "goalCounter()": "f9e9ad39",
        "initialize(address,address,address)": "c0c53b8b",
        "joinCircle(uint256)": "86d6cfb3",
        "latePayments(address)": "0f801988",
        "owner()": "8da5cb5b",
        "personalGoals(uint256)": "ad5a6982",
        "platformFeeBps()": "22dcd13e",
        "proxiableUUID()": "52d1902d",
        "renounceOwnership()": "715018a6",
        "roundContributions(uint256,uint256,address)": "84bb19cc",
        "startCircle(uint256)": "ec6b733f",
        "totalPlatformFees()": "d3631fa5",
        "transferOwnership(address)": "f2fde38b",
        "treasury()": "61d027b3",
        "updateCircleVisibility(uint256,uint8)": "157a7ec7",
        "upgrade(address,address,uint8)": "7ee839c4",
        "upgradeToAndCall(address,bytes)": "4f1ef286",
        "userGoals(address,uint256)": "b6b3eedf",
        "userReputation(address)": "e503bb05"
    },
    "gasEstimates": {
        "creation": {
            "codeDepositCost": "1809600",
            "executionCost": "infinite",
            "totalCost": "infinite"
        },
        "external": {
            "LATE_FEE_BPS()": "593",
            "MAX_CONTRIBUTION()": "571",
            "MAX_MEMBERS()": "803",
            "MIN_CONTRIBUTION()": "263",
            "MIN_MEMBERS()": "747",
            "PLATFORM_FEE_BPS()": "363",
            "UPGRADE_INTERFACE_VERSION()": "906",
            "VERSION()": "920",
            "VISIBILITY_UPDATE_FEE()": "285",
            "cUSDToken()": "2265",
            "circleCounter()": "2960",
            "circleMemberList(uint256,uint256)": "7132",
            "circleMembers(uint256,address)": "11117",
            "circleRoundDeadlines(uint256,uint256)": "2688",
            "circles(uint256)": "26408",
            "completedCircles(address)": "3154",
            "createCircle((uint256,uint8,uint256,uint8))": "infinite",
            "goalCounter()": "2982",
            "initialize(address,address,address)": "infinite",
            "joinCircle(uint256)": "infinite",
            "latePayments(address)": "2428",
            "owner()": "infinite",
            "personalGoals(uint256)": "infinite",
            "platformFeeBps()": "2322",
            "proxiableUUID()": "infinite",
            "renounceOwnership()": "28404",
            "roundContributions(uint256,uint256,address)": "2879",
            "startCircle(uint256)": "infinite",
            "totalPlatformFees()": "2828",
            "transferOwnership(address)": "28977",
            "treasury()": "2500",
            "updateCircleVisibility(uint256,uint8)": "infinite",
            "upgrade(address,address,uint8)": "infinite",
            "upgradeToAndCall(address,bytes)": "infinite",
            "userGoals(address,uint256)": "7283",
            "userReputation(address)": "3022"
        },
        "internal": {
            "_assignPosition(uint256)": "infinite",
            "_authorizeUpgrade(address)": "infinite",
            "_calcCollateral(uint256,uint256)": "241",
            "_getByPos(uint256,uint256)": "infinite",
            "_nextDeadline(enum CirclePotV1.Frequency,uint256)": "131",
            "_payoutRound(uint256,uint256)": "infinite",
            "_progressNextRound(struct CirclePotV1.Circle storage pointer,uint256,uint256)": "infinite",
            "_releaseAllCollateral(uint256)": "infinite",
            "_startCircleInternal(uint256)": "infinite",
            "_ultimatum(enum CirclePotV1.Frequency)": "110"
        }
    }
}