{
    "contractName": "CirclePotV1",
    "abi": [
        {
            "inputs": [],
            "stateMutability": "nonpayable",
            "type": "constructor"
        },
        {
            "inputs": [
                {
                    "internalType": "address",
                    "name": "target",
                    "type": "address"
                }
            ],
            "name": "AddressEmptyCode",
            "type": "error"
        },
        {
            "inputs": [],
            "name": "AddressZeroNotAllowed",
            "type": "error"
        },
        {
            "inputs": [],
            "name": "AlreadyContributed",
            "type": "error"
        },
        {
            "inputs": [],
            "name": "AlreadyJoined",
            "type": "error"
        },
        {
            "inputs": [],
            "name": "AlreadyVoted",
            "type": "error"
        },
        {
            "inputs": [],
            "name": "CircleFull",
            "type": "error"
        },
        {
            "inputs": [],
            "name": "CircleNotActive",
            "type": "error"
        },
        {
            "inputs": [],
            "name": "CircleNotExist",
            "type": "error"
        },
        {
            "inputs": [],
            "name": "CircleNotOpen",
            "type": "error"
        },
        {
            "inputs": [],
            "name": "CircleNotPrivate",
            "type": "error"
        },
        {
            "inputs": [
                {
                    "internalType": "address",
                    "name": "implementation",
                    "type": "address"
                }
            ],
            "name": "ERC1967InvalidImplementation",
            "type": "error"
        },
        {
            "inputs": [],
            "name": "ERC1967NonPayable",
            "type": "error"
        },
        {
            "inputs": [],
            "name": "FailedCall",
            "type": "error"
        },
        {
            "inputs": [],
            "name": "InvalidCircle",
            "type": "error"
        },
        {
            "inputs": [],
            "name": "InvalidContributionAmount",
            "type": "error"
        },
        {
            "inputs": [],
            "name": "InvalidInitialization",
            "type": "error"
        },
        {
            "inputs": [],
            "name": "InvalidMemberCount",
            "type": "error"
        },
        {
            "inputs": [],
            "name": "InvalidTreasuryAddress",
            "type": "error"
        },
        {
            "inputs": [],
            "name": "InvalidVoteChoice",
            "type": "error"
        },
        {
            "inputs": [],
            "name": "MinMembersNotReached",
            "type": "error"
        },
        {
            "inputs": [],
            "name": "NotActiveMember",
            "type": "error"
        },
        {
            "inputs": [],
            "name": "NotInitializing",
            "type": "error"
        },
        {
            "inputs": [],
            "name": "NotInvited",
            "type": "error"
        },
        {
            "inputs": [],
            "name": "OnlyCreator",
            "type": "error"
        },
        {
            "inputs": [
                {
                    "internalType": "address",
                    "name": "owner",
                    "type": "address"
                }
            ],
            "name": "OwnableInvalidOwner",
            "type": "error"
        },
        {
            "inputs": [
                {
                    "internalType": "address",
                    "name": "account",
                    "type": "address"
                }
            ],
            "name": "OwnableUnauthorizedAccount",
            "type": "error"
        },
        {
            "inputs": [],
            "name": "ReentrancyGuardReentrantCall",
            "type": "error"
        },
        {
            "inputs": [
                {
                    "internalType": "address",
                    "name": "token",
                    "type": "address"
                }
            ],
            "name": "SafeERC20FailedOperation",
            "type": "error"
        },
        {
            "inputs": [],
            "name": "SameVisibility",
            "type": "error"
        },
        {
            "inputs": [],
            "name": "UUPSUnauthorizedCallContext",
            "type": "error"
        },
        {
            "inputs": [
                {
                    "internalType": "bytes32",
                    "name": "slot",
                    "type": "bytes32"
                }
            ],
            "name": "UUPSUnsupportedProxiableUUID",
            "type": "error"
        },
        {
            "inputs": [],
            "name": "UltimatumNotPassed",
            "type": "error"
        },
        {
            "inputs": [],
            "name": "UltimatumNotReached",
            "type": "error"
        },
        {
            "inputs": [],
            "name": "VoteAlreadyExecuted",
            "type": "error"
        },
        {
            "inputs": [],
            "name": "VotingAlreadyExecuted",
            "type": "error"
        },
        {
            "inputs": [],
            "name": "VotingNotActive",
            "type": "error"
        },
        {
            "inputs": [],
            "name": "VotingPeriodEnded",
            "type": "error"
        },
        {
            "inputs": [],
            "name": "VotingStillActive",
            "type": "error"
        },
        {
            "anonymous": false,
            "inputs": [
                {
                    "indexed": true,
                    "internalType": "uint256",
                    "name": "circleId",
                    "type": "uint256"
                }
            ],
            "name": "CircleCompleted",
            "type": "event"
        },
        {
            "anonymous": false,
            "inputs": [
                {
                    "indexed": false,
                    "internalType": "uint256",
                    "name": "circleId",
                    "type": "uint256"
                },
                {
                    "indexed": false,
                    "internalType": "address",
                    "name": "creator",
                    "type": "address"
                },
                {
                    "indexed": false,
                    "internalType": "uint256",
                    "name": "contributionAmount",
                    "type": "uint256"
                }
            ],
            "name": "CircleCreated",
            "type": "event"
        },
        {
            "anonymous": false,
            "inputs": [
                {
                    "indexed": true,
                    "internalType": "uint256",
                    "name": "circleId",
                    "type": "uint256"
                },
                {
                    "indexed": true,
                    "internalType": "address",
                    "name": "member",
                    "type": "address"
                }
            ],
            "name": "CircleJoined",
            "type": "event"
        },
        {
            "anonymous": false,
            "inputs": [
                {
                    "indexed": true,
                    "internalType": "uint256",
                    "name": "circleId",
                    "type": "uint256"
                },
                {
                    "indexed": false,
                    "internalType": "uint256",
                    "name": "startedAt",
                    "type": "uint256"
                }
            ],
            "name": "CircleStarted",
            "type": "event"
        },
        {
            "anonymous": false,
            "inputs": [
                {
                    "indexed": true,
                    "internalType": "uint256",
                    "name": "circleId",
                    "type": "uint256"
                },
                {
                    "indexed": true,
                    "internalType": "address",
                    "name": "member",
                    "type": "address"
                },
                {
                    "indexed": false,
                    "internalType": "uint256",
                    "name": "amount",
                    "type": "uint256"
                }
            ],
            "name": "CollateralWithdrawn",
            "type": "event"
        },
        {
            "anonymous": false,
            "inputs": [
                {
                    "indexed": true,
                    "internalType": "address",
                    "name": "newImplementation",
                    "type": "address"
                },
                {
                    "indexed": false,
                    "internalType": "uint8",
                    "name": "version",
                    "type": "uint8"
                }
            ],
            "name": "ContractUpgraded",
            "type": "event"
        },
        {
            "anonymous": false,
            "inputs": [
                {
                    "indexed": true,
                    "internalType": "uint256",
                    "name": "circleId",
                    "type": "uint256"
                },
                {
                    "indexed": false,
                    "internalType": "uint8",
                    "name": "round",
                    "type": "uint8"
                },
                {
                    "indexed": false,
                    "internalType": "address",
                    "name": "member",
                    "type": "address"
                },
                {
                    "indexed": true,
                    "internalType": "uint256",
                    "name": "amount",
                    "type": "uint256"
                }
            ],
            "name": "ContributionMade",
            "type": "event"
        },
        {
            "anonymous": false,
            "inputs": [
                {
                    "indexed": false,
                    "internalType": "uint64",
                    "name": "version",
                    "type": "uint64"
                }
            ],
            "name": "Initialized",
            "type": "event"
        },
        {
            "anonymous": false,
            "inputs": [
                {
                    "indexed": true,
                    "internalType": "uint256",
                    "name": "circleId",
                    "type": "uint256"
                },
                {
                    "indexed": false,
                    "internalType": "uint8",
                    "name": "round",
                    "type": "uint8"
                },
                {
                    "indexed": false,
                    "internalType": "address",
                    "name": "member",
                    "type": "address"
                },
                {
                    "indexed": true,
                    "internalType": "uint256",
                    "name": "fee",
                    "type": "uint256"
                }
            ],
            "name": "LatePayment",
            "type": "event"
        },
        {
            "anonymous": false,
            "inputs": [
                {
                    "indexed": true,
                    "internalType": "uint256",
                    "name": "circleId",
                    "type": "uint256"
                },
                {
                    "indexed": true,
                    "internalType": "address",
                    "name": "_invitee",
                    "type": "address"
                }
            ],
            "name": "MemberInvited",
            "type": "event"
        },
        {
            "anonymous": false,
            "inputs": [
                {
                    "indexed": true,
                    "internalType": "address",
                    "name": "previousOwner",
                    "type": "address"
                },
                {
                    "indexed": true,
                    "internalType": "address",
                    "name": "newOwner",
                    "type": "address"
                }
            ],
            "name": "OwnershipTransferred",
            "type": "event"
        },
        {
            "anonymous": false,
            "inputs": [
                {
                    "indexed": true,
                    "internalType": "uint256",
                    "name": "circleId",
                    "type": "uint256"
                },
                {
                    "indexed": true,
                    "internalType": "uint256",
                    "name": "round",
                    "type": "uint256"
                },
                {
                    "indexed": true,
                    "internalType": "address",
                    "name": "recipient",
                    "type": "address"
                },
                {
                    "indexed": false,
                    "internalType": "uint256",
                    "name": "amount",
                    "type": "uint256"
                }
            ],
            "name": "PayoutDistributed",
            "type": "event"
        },
        {
            "anonymous": false,
            "inputs": [
                {
                    "indexed": true,
                    "internalType": "uint256",
                    "name": "circledId",
                    "type": "uint256"
                },
                {
                    "indexed": true,
                    "internalType": "address",
                    "name": "member",
                    "type": "address"
                },
                {
                    "indexed": false,
                    "internalType": "uint256",
                    "name": "position",
                    "type": "uint256"
                }
            ],
            "name": "PositionAssigned",
            "type": "event"
        },
        {
            "anonymous": false,
            "inputs": [
                {
                    "indexed": true,
                    "internalType": "address",
                    "name": "implementation",
                    "type": "address"
                }
            ],
            "name": "Upgraded",
            "type": "event"
        },
        {
            "anonymous": false,
            "inputs": [
                {
                    "indexed": true,
                    "internalType": "uint256",
                    "name": "circleId",
                    "type": "uint256"
                },
                {
                    "indexed": true,
                    "internalType": "address",
                    "name": "creator",
                    "type": "address"
                }
            ],
            "name": "VisibilityUpdated",
            "type": "event"
        },
        {
            "anonymous": false,
            "inputs": [
                {
                    "indexed": true,
                    "internalType": "uint256",
                    "name": "circleId",
                    "type": "uint256"
                },
                {
                    "indexed": true,
                    "internalType": "address",
                    "name": "voter",
                    "type": "address"
                },
                {
                    "indexed": false,
                    "internalType": "enum CirclePotV1.VoteChoice",
                    "name": "choice",
                    "type": "uint8"
                }
            ],
            "name": "VoteCast",
            "type": "event"
        },
        {
            "anonymous": false,
            "inputs": [
                {
                    "indexed": true,
                    "internalType": "uint256",
                    "name": "circleId",
                    "type": "uint256"
                },
                {
                    "indexed": false,
                    "internalType": "bool",
                    "name": "circleStarted",
                    "type": "bool"
                },
                {
                    "indexed": false,
                    "internalType": "uint256",
                    "name": "startVoteCount",
                    "type": "uint256"
                },
                {
                    "indexed": false,
                    "internalType": "uint256",
                    "name": "withdrawVoteCount",
                    "type": "uint256"
                }
            ],
            "name": "VoteExecuted",
            "type": "event"
        },
        {
            "anonymous": false,
            "inputs": [
                {
                    "indexed": true,
                    "internalType": "uint256",
                    "name": "circleId",
                    "type": "uint256"
                },
                {
                    "indexed": true,
                    "internalType": "uint256",
                    "name": "votingEndTime",
                    "type": "uint256"
                }
            ],
            "name": "VotingInitiated",
            "type": "event"
        },
        {
            "inputs": [],
            "name": "LATE_FEE_BPS",
            "outputs": [
                {
                    "internalType": "uint256",
                    "name": "",
                    "type": "uint256"
                }
            ],
            "stateMutability": "view",
            "type": "function"
        },
        {
            "inputs": [],
            "name": "MAX_CONTRIBUTION",
            "outputs": [
                {
                    "internalType": "uint256",
                    "name": "",
                    "type": "uint256"
                }
            ],
            "stateMutability": "view",
            "type": "function"
        },
        {
            "inputs": [],
            "name": "MAX_MEMBERS",
            "outputs": [
                {
                    "internalType": "uint8",
                    "name": "",
                    "type": "uint8"
                }
            ],
            "stateMutability": "view",
            "type": "function"
        },
        {
            "inputs": [],
            "name": "MIN_CONTRIBUTION",
            "outputs": [
                {
                    "internalType": "uint256",
                    "name": "",
                    "type": "uint256"
                }
            ],
            "stateMutability": "view",
            "type": "function"
        },
        {
            "inputs": [],
            "name": "MIN_MEMBERS",
            "outputs": [
                {
                    "internalType": "uint8",
                    "name": "",
                    "type": "uint8"
                }
            ],
            "stateMutability": "view",
            "type": "function"
        },
        {
            "inputs": [],
            "name": "PLATFORM_FEE_BPS",
            "outputs": [
                {
                    "internalType": "uint256",
                    "name": "",
                    "type": "uint256"
                }
            ],
            "stateMutability": "view",
            "type": "function"
        },
        {
            "inputs": [],
            "name": "START_VOTE_THRESHOLD",
            "outputs": [
                {
                    "internalType": "uint256",
                    "name": "",
                    "type": "uint256"
                }
            ],
            "stateMutability": "view",
            "type": "function"
        },
        {
            "inputs": [],
            "name": "UPGRADE_INTERFACE_VERSION",
            "outputs": [
                {
                    "internalType": "string",
                    "name": "",
                    "type": "string"
                }
            ],
            "stateMutability": "view",
            "type": "function"
        },
        {
            "inputs": [],
            "name": "VERSION",
            "outputs": [
                {
                    "internalType": "uint8",
                    "name": "",
                    "type": "uint8"
                }
            ],
            "stateMutability": "view",
            "type": "function"
        },
        {
            "inputs": [],
            "name": "VISIBILITY_UPDATE_FEE",
            "outputs": [
                {
                    "internalType": "uint256",
                    "name": "",
                    "type": "uint256"
                }
            ],
            "stateMutability": "view",
            "type": "function"
        },
        {
            "inputs": [],
            "name": "VOTING_PERIOD",
            "outputs": [
                {
                    "internalType": "uint256",
                    "name": "",
                    "type": "uint256"
                }
            ],
            "stateMutability": "view",
            "type": "function"
        },
        {
            "inputs": [
                {
                    "internalType": "uint256",
                    "name": "_circleId",
                    "type": "uint256"
                }
            ],
            "name": "WithdrawCollateral",
            "outputs": [],
            "stateMutability": "nonpayable",
            "type": "function"
        },
        {
            "inputs": [
                {
                    "internalType": "enum CirclePotV1.Frequency",
                    "name": "f",
                    "type": "uint8"
                }
            ],
            "name": "_getGracePeriod",
            "outputs": [
                {
                    "internalType": "uint256",
                    "name": "",
                    "type": "uint256"
                }
            ],
            "stateMutability": "pure",
            "type": "function"
        },
        {
            "inputs": [],
            "name": "cUSDToken",
            "outputs": [
                {
                    "internalType": "address",
                    "name": "",
                    "type": "address"
                }
            ],
            "stateMutability": "view",
            "type": "function"
        },
        {
            "inputs": [
                {
                    "internalType": "uint256",
                    "name": "_circleId",
                    "type": "uint256"
                }
            ],
            "name": "canWithdrawAfterVote",
            "outputs": [
                {
                    "internalType": "bool",
                    "name": "",
                    "type": "bool"
                }
            ],
            "stateMutability": "view",
            "type": "function"
        },
        {
            "inputs": [
                {
                    "internalType": "uint256",
                    "name": "_circleId",
                    "type": "uint256"
                },
                {
                    "internalType": "enum CirclePotV1.VoteChoice",
                    "name": "_choice",
                    "type": "uint8"
                }
            ],
            "name": "castVote",
            "outputs": [],
            "stateMutability": "nonpayable",
            "type": "function"
        },
        {
            "inputs": [],
            "name": "circleCounter",
            "outputs": [
                {
                    "internalType": "uint256",
                    "name": "",
                    "type": "uint256"
                }
            ],
            "stateMutability": "view",
            "type": "function"
        },
        {
            "inputs": [
                {
                    "internalType": "uint256",
                    "name": "",
                    "type": "uint256"
                },
                {
                    "internalType": "address",
                    "name": "",
                    "type": "address"
                }
            ],
            "name": "circleInvitations",
            "outputs": [
                {
                    "internalType": "bool",
                    "name": "",
                    "type": "bool"
                }
            ],
            "stateMutability": "view",
            "type": "function"
        },
        {
            "inputs": [
                {
                    "internalType": "uint256",
                    "name": "",
                    "type": "uint256"
                },
                {
                    "internalType": "uint256",
                    "name": "",
                    "type": "uint256"
                }
            ],
            "name": "circleMemberList",
            "outputs": [
                {
                    "internalType": "address",
                    "name": "",
                    "type": "address"
                }
            ],
            "stateMutability": "view",
            "type": "function"
        },
        {
            "inputs": [
                {
                    "internalType": "uint256",
                    "name": "",
                    "type": "uint256"
                },
                {
                    "internalType": "address",
                    "name": "",
                    "type": "address"
                }
            ],
            "name": "circleMembers",
            "outputs": [
                {
                    "internalType": "uint8",
                    "name": "position",
                    "type": "uint8"
                },
                {
                    "internalType": "uint256",
                    "name": "totalContributed",
                    "type": "uint256"
                },
                {
                    "internalType": "bool",
                    "name": "hasReceivedPayout",
                    "type": "bool"
                },
                {
                    "internalType": "bool",
                    "name": "isActive",
                    "type": "bool"
                },
                {
                    "internalType": "uint256",
                    "name": "collateralLocked",
                    "type": "uint256"
                },
                {
                    "internalType": "uint256",
                    "name": "joinedAt",
                    "type": "uint256"
                }
            ],
            "stateMutability": "view",
            "type": "function"
        },
        {
            "inputs": [
                {
                    "internalType": "uint256",
                    "name": "",
                    "type": "uint256"
                },
                {
                    "internalType": "uint256",
                    "name": "",
                    "type": "uint256"
                }
            ],
            "name": "circleRoundDeadlines",
            "outputs": [
                {
                    "internalType": "uint256",
                    "name": "",
                    "type": "uint256"
                }
            ],
            "stateMutability": "view",
            "type": "function"
        },
        {
            "inputs": [
                {
                    "internalType": "uint256",
                    "name": "",
                    "type": "uint256"
                }
            ],
            "name": "circleVotes",
            "outputs": [
                {
                    "internalType": "uint256",
                    "name": "votingStartTime",
                    "type": "uint256"
                },
                {
                    "internalType": "uint256",
                    "name": "votingEndTime",
                    "type": "uint256"
                },
                {
                    "internalType": "uint8",
                    "name": "startVoteCount",
                    "type": "uint8"
                },
                {
                    "internalType": "uint8",
                    "name": "withdrawVoteCount",
                    "type": "uint8"
                },
                {
                    "internalType": "bool",
                    "name": "votingActive",
                    "type": "bool"
                },
                {
                    "internalType": "bool",
                    "name": "voteExecuted",
                    "type": "bool"
                }
            ],
            "stateMutability": "view",
            "type": "function"
        },
        {
            "inputs": [
                {
                    "internalType": "uint256",
                    "name": "",
                    "type": "uint256"
                }
            ],
            "name": "circles",
            "outputs": [
                {
                    "internalType": "uint256",
                    "name": "circleId",
                    "type": "uint256"
                },
                {
                    "internalType": "address",
                    "name": "creator",
                    "type": "address"
                },
                {
                    "internalType": "uint256",
                    "name": "contributionAmount",
                    "type": "uint256"
                },
                {
                    "internalType": "enum CirclePotV1.Frequency",
                    "name": "frequency",
                    "type": "uint8"
                },
                {
                    "internalType": "uint8",
                    "name": "maxMembers",
                    "type": "uint8"
                },
                {
                    "internalType": "uint8",
                    "name": "currentMembers",
                    "type": "uint8"
                },
                {
                    "internalType": "uint8",
                    "name": "currentRound",
                    "type": "uint8"
                },
                {
                    "internalType": "uint8",
                    "name": "totalRounds",
                    "type": "uint8"
                },
                {
                    "internalType": "enum CirclePotV1.CircleState",
                    "name": "state",
                    "type": "uint8"
                },
                {
                    "internalType": "enum CirclePotV1.Visibility",
                    "name": "visibility",
                    "type": "uint8"
                },
                {
                    "internalType": "uint256",
                    "name": "createdAt",
                    "type": "uint256"
                },
                {
                    "internalType": "uint256",
                    "name": "startedAt",
                    "type": "uint256"
                },
                {
                    "internalType": "uint256",
                    "name": "totalPot",
                    "type": "uint256"
                }
            ],
            "stateMutability": "view",
            "type": "function"
        },
        {
            "inputs": [
                {
                    "internalType": "address",
                    "name": "",
                    "type": "address"
                }
            ],
            "name": "completedCircles",
            "outputs": [
                {
                    "internalType": "uint256",
                    "name": "",
                    "type": "uint256"
                }
            ],
            "stateMutability": "view",
            "type": "function"
        },
        {
            "inputs": [
                {
                    "internalType": "uint256",
                    "name": "_circleId",
                    "type": "uint256"
                }
            ],
            "name": "contribute",
            "outputs": [],
            "stateMutability": "nonpayable",
            "type": "function"
        },
        {
            "inputs": [
                {
                    "components": [
                        {
                            "internalType": "uint256",
                            "name": "contributionAmount",
                            "type": "uint256"
                        },
                        {
                            "internalType": "enum CirclePotV1.Frequency",
                            "name": "frequency",
                            "type": "uint8"
                        },
                        {
                            "internalType": "uint8",
                            "name": "maxMembers",
                            "type": "uint8"
                        },
                        {
                            "internalType": "enum CirclePotV1.Visibility",
                            "name": "visibility",
                            "type": "uint8"
                        }
                    ],
                    "internalType": "struct CirclePotV1.CreateCircleParams",
                    "name": "params",
                    "type": "tuple"
                }
            ],
            "name": "createCircle",
            "outputs": [
                {
                    "internalType": "uint256",
                    "name": "",
                    "type": "uint256"
                }
            ],
            "stateMutability": "nonpayable",
            "type": "function"
        },
        {
            "inputs": [
                {
                    "internalType": "uint256",
                    "name": "_circleId",
                    "type": "uint256"
                }
            ],
            "name": "executeVote",
            "outputs": [],
            "stateMutability": "nonpayable",
            "type": "function"
        },
        {
            "inputs": [],
            "name": "goalCounter",
            "outputs": [
                {
                    "internalType": "uint256",
                    "name": "",
                    "type": "uint256"
                }
            ],
            "stateMutability": "view",
            "type": "function"
        },
        {
            "inputs": [
                {
                    "internalType": "address",
                    "name": "_cUSDToken",
                    "type": "address"
                },
                {
                    "internalType": "address",
                    "name": "_treasury",
                    "type": "address"
                },
                {
                    "internalType": "address",
                    "name": "initialOwner",
                    "type": "address"
                }
            ],
            "name": "initialize",
            "outputs": [],
            "stateMutability": "nonpayable",
            "type": "function"
        },
        {
            "inputs": [
                {
                    "internalType": "uint256",
                    "name": "_circleId",
                    "type": "uint256"
                }
            ],
            "name": "initiateVoting",
            "outputs": [],
            "stateMutability": "nonpayable",
            "type": "function"
        },
        {
            "inputs": [
                {
                    "internalType": "uint256",
                    "name": "_circleId",
                    "type": "uint256"
                },
                {
                    "internalType": "address[]",
                    "name": "_invitees",
                    "type": "address[]"
                }
            ],
            "name": "inviteMembers",
            "outputs": [],
            "stateMutability": "nonpayable",
            "type": "function"
        },
        {
            "inputs": [
                {
                    "internalType": "uint256",
                    "name": "_circleId",
                    "type": "uint256"
                }
            ],
            "name": "joinCircle",
            "outputs": [],
            "stateMutability": "nonpayable",
            "type": "function"
        },
        {
            "inputs": [
                {
                    "internalType": "address",
                    "name": "",
                    "type": "address"
                }
            ],
            "name": "latePayments",
            "outputs": [
                {
                    "internalType": "uint256",
                    "name": "",
                    "type": "uint256"
                }
            ],
            "stateMutability": "view",
            "type": "function"
        },
        {
            "inputs": [
                {
                    "internalType": "uint256",
                    "name": "",
                    "type": "uint256"
                },
                {
                    "internalType": "address",
                    "name": "",
                    "type": "address"
                }
            ],
            "name": "memberVotes",
            "outputs": [
                {
                    "internalType": "enum CirclePotV1.VoteChoice",
                    "name": "",
                    "type": "uint8"
                }
            ],
            "stateMutability": "view",
            "type": "function"
        },
        {
            "inputs": [],
            "name": "owner",
            "outputs": [
                {
                    "internalType": "address",
                    "name": "",
                    "type": "address"
                }
            ],
            "stateMutability": "view",
            "type": "function"
        },
        {
            "inputs": [
                {
                    "internalType": "uint256",
                    "name": "",
                    "type": "uint256"
                }
            ],
            "name": "personalGoals",
            "outputs": [
                {
                    "internalType": "address",
                    "name": "owner",
                    "type": "address"
                },
                {
                    "internalType": "string",
                    "name": "name",
                    "type": "string"
                },
                {
                    "internalType": "uint256",
                    "name": "targetAmount",
                    "type": "uint256"
                },
                {
                    "internalType": "uint256",
                    "name": "currentAmount",
                    "type": "uint256"
                },
                {
                    "internalType": "uint256",
                    "name": "contributionAmount",
                    "type": "uint256"
                },
                {
                    "internalType": "enum CirclePotV1.Frequency",
                    "name": "frequency",
                    "type": "uint8"
                },
                {
                    "internalType": "uint256",
                    "name": "deadline",
                    "type": "uint256"
                },
                {
                    "internalType": "uint256",
                    "name": "createdAt",
                    "type": "uint256"
                },
                {
                    "internalType": "bool",
                    "name": "isActive",
                    "type": "bool"
                },
                {
                    "internalType": "uint256",
                    "name": "lastContributionAt",
                    "type": "uint256"
                }
            ],
            "stateMutability": "view",
            "type": "function"
        },
        {
            "inputs": [],
            "name": "platformFeeBps",
            "outputs": [
                {
                    "internalType": "uint256",
                    "name": "",
                    "type": "uint256"
                }
            ],
            "stateMutability": "view",
            "type": "function"
        },
        {
            "inputs": [],
            "name": "proxiableUUID",
            "outputs": [
                {
                    "internalType": "bytes32",
                    "name": "",
                    "type": "bytes32"
                }
            ],
            "stateMutability": "view",
            "type": "function"
        },
        {
            "inputs": [],
            "name": "renounceOwnership",
            "outputs": [],
            "stateMutability": "nonpayable",
            "type": "function"
        },
        {
            "inputs": [
                {
                    "internalType": "uint256",
                    "name": "",
                    "type": "uint256"
                },
                {
                    "internalType": "uint8",
                    "name": "",
                    "type": "uint8"
                },
                {
                    "internalType": "address",
                    "name": "",
                    "type": "address"
                }
            ],
            "name": "roundContributions",
            "outputs": [
                {
                    "internalType": "bool",
                    "name": "",
                    "type": "bool"
                }
            ],
            "stateMutability": "view",
            "type": "function"
        },
        {
            "inputs": [
                {
                    "internalType": "uint256",
                    "name": "_circleId",
                    "type": "uint256"
                }
            ],
            "name": "startCircle",
            "outputs": [],
            "stateMutability": "nonpayable",
            "type": "function"
        },
        {
            "inputs": [],
            "name": "totalPlatformFees",
            "outputs": [
                {
                    "internalType": "uint256",
                    "name": "",
                    "type": "uint256"
                }
            ],
            "stateMutability": "view",
            "type": "function"
        },
        {
            "inputs": [
                {
                    "internalType": "address",
                    "name": "newOwner",
                    "type": "address"
                }
            ],
            "name": "transferOwnership",
            "outputs": [],
            "stateMutability": "nonpayable",
            "type": "function"
        },
        {
            "inputs": [],
            "name": "treasury",
            "outputs": [
                {
                    "internalType": "address",
                    "name": "",
                    "type": "address"
                }
            ],
            "stateMutability": "view",
            "type": "function"
        },
        {
            "inputs": [
                {
                    "internalType": "uint256",
                    "name": "_circleId",
                    "type": "uint256"
                },
                {
                    "internalType": "enum CirclePotV1.Visibility",
                    "name": "_newVisibility",
                    "type": "uint8"
                }
            ],
            "name": "updateCircleVisibility",
            "outputs": [],
            "stateMutability": "nonpayable",
            "type": "function"
        },
        {
            "inputs": [
                {
                    "internalType": "address",
                    "name": "_cUSDToken",
                    "type": "address"
                },
                {
                    "internalType": "address",
                    "name": "_treasury",
                    "type": "address"
                },
                {
                    "internalType": "uint8",
                    "name": "_version",
                    "type": "uint8"
                }
            ],
            "name": "upgrade",
            "outputs": [],
            "stateMutability": "nonpayable",
            "type": "function"
        },
        {
            "inputs": [
                {
                    "internalType": "address",
                    "name": "newImplementation",
                    "type": "address"
                },
                {
                    "internalType": "bytes",
                    "name": "data",
                    "type": "bytes"
                }
            ],
            "name": "upgradeToAndCall",
            "outputs": [],
            "stateMutability": "payable",
            "type": "function"
        },
        {
            "inputs": [
                {
                    "internalType": "address",
                    "name": "",
                    "type": "address"
                },
                {
                    "internalType": "uint256",
                    "name": "",
                    "type": "uint256"
                }
            ],
            "name": "userGoals",
            "outputs": [
                {
                    "internalType": "uint256",
                    "name": "",
                    "type": "uint256"
                }
            ],
            "stateMutability": "view",
            "type": "function"
        },
        {
            "inputs": [
                {
                    "internalType": "address",
                    "name": "",
                    "type": "address"
                }
            ],
            "name": "userReputation",
            "outputs": [
                {
                    "internalType": "uint256",
                    "name": "",
                    "type": "uint256"
                }
            ],
            "stateMutability": "view",
            "type": "function"
        }
    ],
    "bytecode": "60a080604052346100c257306080525f51602061372b5f395f51905f525460ff8160401c166100b3576002600160401b03196001600160401b03821601610060575b60405161366490816100c7823960805181818161201001526120e00152f35b6001600160401b0319166001600160401b039081175f51602061372b5f395f51905f525581527fc7f505b2f371ae2175ee4913f4499e1f2633a7b5936321eed1cdaeb6115181d290602090a15f80610041565b63f92ee8a960e01b5f5260045ffd5b5f80fdfe6080806040526004361015610012575f80fd5b5f3560e01c9081630ea86ad81461268e575080630f80198814612656578063157a7ec7146124fa57806322dcd13e146124dd5780632c2b97a4146124585780632dfa67681461243057806340650c911461240e57806345714684146122e157806346c39a1d146122bf5780634f1ef2861461206457806352d1902d14611ffe578063539aa77f1461074a5780635678138814611e2e57806358f8d6ff14611e1257806361a524a114611dae57806361d027b314611d8657806363fc152e14611d3657806369be46bf14611d07578063715018a614611ca05780637ee839c414611b4a5780638261efa71461174057806386d6cfb3146114ab5780638da5cb5b146114775780638fda34bf1461142f57806394d95f8f1461140b57806398d4c1dd146113c2578063a8c93057146113a7578063ad3cb1cc1461135c578063ad5a6982146111da578063b1610d7e146111bd578063b6b3eedf14611165578063bc5e0f3014611087578063c0c53b8b14610e43578063c1cbbca7146109c6578063c4ce74e01461095d578063d3631fa514610940578063d4bf578c146107e8578063d4cfc5dc146107b8578063d9a672201461079d578063e503bb0514610765578063ea0e35b11461074a578063ec6b733f1461066f578063f2fde38b14610644578063f3890e1f14610627578063f98a4eca14610485578063f9e9ad3914610468578063fc226bcc1461028e578063fd81593f146102565763ffa1ad7414610237575f80fd5b34610252575f36600319011261025257602060405160018152f35b5f80fd5b34610252576020366003190112610252576001600160a01b036102776126b0565b165f52600f602052602060405f2054604051908152f35b34610252576020366003190112610252576004356102aa6129cd565b8015801561045c575b61044d57805f52600460205260405f209060038201549160ff8360281c1660058110156104395760010361042a57815f52600560205260405f2060018060a01b0333165f5260205260405f20600281019182549460ff8660081c161561041b57845f52600960205260405f209160ff60025f94015460181c168061040c575b156103b45750505060015b156103a557600301925f8454945561ff0019169055610366823360018060a01b035f5416612ed0565b6040519182527f7c5e5cb62e5ed3caf3764e4b0afedfedef533e27809d43367799787ad2abcd4160203393a360015f5160206135ef5f395f51905f5255005b630c2eba2560e21b5f5260045ffd5b6103ce9060046103c660ff8516612a49565b9101546127b9565b4211156103dc575b5061033d565b60ff806064816103f0818660081c166128de565b1604169160101c1610610404575b856103d6565b5060016103fe565b5061041686612855565b610332565b631687e47360e31b5f5260045ffd5b63d883bee960e01b5f5260045ffd5b634e487b7160e01b5f52602160045260245ffd5b632fb08c4f60e11b5f5260045ffd5b506002548110156102b3565b34610252575f366003190112610252576020600354604051908152f35b34610252576020366003190112610252576004358015801561061b575b61044d57805f526004602052600360405f200160ff815460281c1660058110156104395760020361060c57815f52600960205260405f206002810180549160ff8360101c161561060c57600101544211156105fd5760ff8260181c166105ee577f7da55ba157db41984697c3f1b900905283b3f9673437a67da9e3bfc9662c3a049260609260ff61054c8180630100000063ffff00001986161794858855169360081c1683612801565b1680156105e05761056b61ffff916105666113ec94612815565b61282d565b16106105ae57805465ff000000000019166501000000000017905561058f84612b4b565b5460ff6040519160018352818116602084015260081c166040820152a2005b6501000000000060ff60281b198254161790555460ff6040519160018352818116602084015260081c166040820152a2005b50506113ec61ffff5f61056b565b63745266fd60e11b5f5260045ffd5b633483eb6360e01b5f5260045ffd5b639b8cc47560e01b5f5260045ffd5b506002548110156104a2565b34610252575f366003190112610252576020600254604051908152f35b346102525760203660031901126102525761066d6106606126b0565b610668612a83565b6129a0565b005b34610252576020366003190112610252576004358015801561073e575b61044d575f81815260046020526040902060018101546001600160a01b0316330361072f5760038101549060ff8260281c1660058110156104395760010361042a5760ff6064816106e1818660081c166128de565b16041660ff8360101c16106107205760046103c660ff6107019416612a49565b4211156107115761066d90612b4b565b63a217083960e01b5f5260045ffd5b63505768b960e11b5f5260045ffd5b6308f78f9960e31b5f5260045ffd5b5060025481101561068c565b34610252575f36600319011261025257602060405160148152f35b34610252576020366003190112610252576001600160a01b036107866126b0565b165f52600e602052602060405f2054604051908152f35b34610252575f36600319011261025257602060405160058152f35b34610252576020366003190112610252576004356003811015610252576107e0602091612987565b604051908152f35b346102525760403660031901126102525760043560243567ffffffffffffffff811161025257366023820112156102525780600401359167ffffffffffffffff8311610252576024820191602436918560051b0101116102525780158015610934575b61044d575f81815260046020526040902060018101546001600160a01b0316330361072f576003015460ff8160301c166002811015610439576109255760281c60ff1660058110156104395760010361042a575f5b8381106108a957005b600190825f52600b60205260405f206108cb6108c6838888612963565b612973565b838060a01b03165f5260205260405f208260ff19825416179055818060a01b036108f96108c6838888612963565b16837f6e32da99952e6892c42b54eec8c835d9a2e0a6c879c0219cc693229e6894175a5f80a3016108a0565b633a46c93160e01b5f5260045ffd5b5060025481101561084b565b34610252575f366003190112610252576020601154604051908152f35b34610252576020366003190112610252576004355f52600960205260c060405f2060ff815491600260018201549101549060405193845260208401528181166040840152818160081c166060840152818160101c161515608084015260181c16151560a0820152f35b346102525760203660031901126102525760043580158015610e37575b61044d57805f52600460205260405f2060038101805460ff8160281c16600581101561043957600303610e2857835f52600560205260405f2060018060a01b0333165f5260205260405f209060ff600283015460081c161561041b5760ff9060181c1692845f52600760205260405f2060ff85165f5260205260405f2060018060a01b0333165f5260205260ff60405f205416610e19575f546002820180549094879492610acb92610aa191309033906001600160a01b0316612a05565b845f52600860205260405f20875f52602052610ac560ff60405f2054925416612987565b906127b9565b421115610dc95750505080546064810281810460641482151715610d3f57612710900490845f52600560205260405f2060018060a01b0333165f5260205260405f206003610b1984846127b9565b910190808254115f14610dc057610b31908254612ec3565b90555b845f526004602052610b4e600660405f20019182546127b9565b9055610b5c816011546127b9565b601155335f52600e60205283600560405f2054115f14610d935750335f52600e60205260405f20546004198101908111610d3f5784927fe424be6ebafcdee4341d3bfb4024c9ccd11789227ab9b4c8f5d4cb8db8d1188392610c60925b335f52600e60205260405f2055335f52601060205260405f20610bdc8154612914565b90556040805160ff8816815233602082015286917fadfae21200a077d32929aeac100ac5a5390ce655175dd0f2982da63acd823ae791a35b5f84815260076020908152604080832060ff989098168084529782528083203380855290835292819020805460ff19166001179055925483519788529087019190915294918291820190565b0390a35f818152600460209081526040808320600690925282208054939190835b8560ff821610610cbd575050600301549169ffffffffffffffffffff60ff8460101c16911614610cad57005b60ff61066d9260181c169061325c565b610cc7818361276c565b90545f86815260056020908152604080832060039590951b9390931c6001600160a01b0316808352939052206002015460081c60ff169081610d53575b50610d18575b610d13906128f3565b610c81565b9369ffffffffffffffffffff1669ffffffffffffffffffff8114610d3f5760010193610d0a565b634e487b7160e01b5f52601160045260245ffd5b9050845f52600760205260405f2060ff80600387015460181c16165f5260205260405f209060018060a01b03165f5260205260ff60405f20541687610d04565b91610c60907fe424be6ebafcdee4341d3bfb4024c9ccd11789227ab9b4c8f5d4cb8db8d11883925f610bb9565b505f9055610b34565b92610c6091610e1260017fe424be6ebafcdee4341d3bfb4024c9ccd11789227ab9b4c8f5d4cb8db8d118839596600685549401610e078582546127b9565b9055019182546127b9565b9055610c14565b6305d252c360e01b5f5260045ffd5b633fe6c08b60e21b5f5260045ffd5b506002548110156109e3565b3461025257606036600319011261025257610e5c6126b0565b610e646126c6565b610e6c6126dc565b905f51602061360f5f395f51905f52549267ffffffffffffffff60ff8560401c161594168015908161107f575b6001149081611075575b15908161106c575b5061105d5783600167ffffffffffffffff195f51602061360f5f395f51905f525416175f51602061360f5f395f51905f525561102d575b610eea613496565b610ef2613496565b610efb836129a0565b610f03613496565b610f0b613496565b60015f5160206135ef5f395f51905f5255610f24613496565b6001600160a01b03168015801561101c575b61100d575f80546001600160a01b0319908116929092179055600180549091166001600160a01b039283161781556002819055600355601460125581168015159081610feb575b50610fdc575b50610f8a57005b60ff60401b195f51602061360f5f395f51905f5254165f51602061360f5f395f51905f52557fc7f505b2f371ae2175ee4913f4499e1f2633a7b5936321eed1cdaeb6115181d2602060405160018152a1005b610fe590612ab6565b81610f83565b5f5160206135af5f395f51905f52546001600160a01b03161415905083610f7d565b63cfe2ea6360e01b5f5260045ffd5b506001600160a01b03821615610f36565b600160401b60ff60401b195f51602061360f5f395f51905f525416175f51602061360f5f395f51905f5255610ee2565b63f92ee8a960e01b5f5260045ffd5b90501585610eab565b303b159150610ea3565b859150610e99565b34610252576020366003190112610252576004355f52600460205260405f20805460018060a01b0360018301541660028301549260038101549360ff85169460ff808260281c1691818160301c16976004860154946006600588015497015497604051998a5260208a015260408901526111008161274c565b6060880152818160081c166080880152818160101c1660a0880152818160181c1660c088015260201c1660e08601526005811015610439576101008501526002851015610439576101a094610120850152610140840152610160830152610180820152f35b346102525760403660031901126102525761117e6126b0565b6001600160a01b03165f908152600d6020526040902080546024359190821015610252576020916111ae9161276c565b90549060031b1c604051908152f35b34610252575f3660031901126102525760206040516202a3008152f35b34610252576020366003190112610252576004355f52600c60205260405f2060018060a01b038154166001820191604051925f8154908160011c9260018316928315611352575b60208510841461133e57848852879390811561131c57506001146112d8575b5061124d9250038461270e565b600281015490600381015490600481015460ff600583015416600683015490600784015492600960ff6008870154169501549561129e6040519a8b9a8b5261014060208c01526101408b0190612795565b9760408a0152606089015260808801526112b78161274c565b60a087015260c086015260e085015215156101008401526101208301520390f35b90505f9291925260205f20905f915b81831061130057505090602061124d9282010186611240565b6020919350806001915483858a010152019101909185926112e7565b90506020925061124d94915060ff191682840152151560051b82010186611240565b634e487b7160e01b5f52602260045260245ffd5b93607f1693611221565b34610252575f366003190112610252576113a360405161137d60408261270e565b60058152640352e302e360dc1b6020820152604051918291602083526020830190612795565b0390f35b34610252575f36600319011261025257602060405160648152f35b34610252576040366003190112610252576113db6126c6565b6004355f52600b60205260405f209060018060a01b03165f52602052602060ff60405f2054166040519015158152f35b34610252575f36600319011261025257602060405169010f0cf064dd592000008152f35b346102525761143d36612756565b905f52600660205260405f2080548210156102525760209161145e9161276c565b905460405160039290921b1c6001600160a01b03168152f35b34610252575f366003190112610252575f5160206135af5f395f51905f52546040516001600160a01b039091168152602090f35b34610252576020366003190112610252576004356114c76129cd565b80158015611734575b61044d57805f52600460205260405f206003810190815460ff8160281c1660058110156104395760010361042a5760ff8160081c16908160ff8260101c1614611725575f85815260056020908152604080832033845290915290206002015460081c60ff166117175760301c60ff16600281101561043957156116e8575b600261155b920154612b1d565b5f54611575908290309033906001600160a01b0316612a05565b600460405191611584836126f2565b5f835260208301905f8252611618604085015f815260608601600181526080870193845260a0870194428652895f52600560205260405f2060018060a01b0333165f5260205260ff8060405f209951161660ff198954161788555160018801556116016002880192511515839060ff801983541691151516179055565b51815461ff00191690151560081b61ff0016179055565b51600384015551910155815f5260066020526116373360405f20612922565b61166261164a60ff835460101c166128f3565b825462ff0000191660109190911b62ff000016178255565b33827fa7858a1f19449eeaf5fbe2692047577d00116ecb460791549c018c79e3ce483b5f80a35460ff808260081c169160101c16146116af575b60015f5160206135ef5f395f51905f5255005b6116b881612b4b565b7faf0f41c2e769faca4f3422a53417b14043b989e8d29fd8aa1f0fb10273d20f1f6020604051428152a28061169c565b5f848152600b6020908152604080832033845290915290205460ff1661154e5763779a6f4160e01b5f5260045ffd5b621d934160e11b5f5260045ffd5b63f277526560e01b5f5260045ffd5b506002548110156114d0565b34610252576080366003190112610252576117596129cd565b3315611b3b57600435670de0b6b3a764000081108015611b28575b611b1957600560ff611784612904565b16108015611b05575b611af65760025461179d81612914565b6002556117b460ff6117ad612904565b1683612b1d565b916064359060028210156102525760018214611aa7575b5f546117e5908590309033906001600160a01b0316612a05565b602435906003821015610252576117fa612904565b94611803612904565b93604051906101a082019082821067ffffffffffffffff831117611a935787916040528183526020830198338a52604084019786895260608501976118478161274c565b8852608085019160ff16825260a085016001815260c08601905f825260e087019260ff16835261010087019360018552610120880195865261014088019b428d5261016089019e8f5f90526101808a01985f8a525f52600460205260405f2099518a5560018a0190600160a01b600190039051166001600160601b0360a01b825416179055516002890155600388019a516118e18161274c565b6118ea8161274c565b8b54915161ffff1990921660ff919091161760089190911b61ff0016178a5551895462ff0000191660109190911b62ff00001617895551885463ff000000191660189190911b63ff000000161788555187549060201b64ff00000000169064ff0000000019161787555160058110156104395760ff60281b87549160281b169060ff60281b191617865551906002821015610439576020987f83b945859e19f480c406ac4e6ac635d422aad2665c1d65da9419b81d51ba61a8976119b26006946060996127c6565b516004850155516005840155519101556004604051916119d1836126f2565b5f8352878301905f8252611a4a604085015f8152878601600181526080870193845260a08701944286528b5f5260058d5260405f2060018060a01b0333165f528d5260ff8060405f209951161660ff198954161788555160018801556116016002880192511515839060ff801983541691151516179055565b51600384015551910155835f5260068552611a683360405f20612922565b6040519084825233868301526040820152a160015f5160206135ef5f395f51905f5255604051908152f35b634e487b7160e01b5f52604160045260245ffd5b6706f05b59d3b2000084018411610d3f576011546706f05b59d3b20000810110610d3f5733837f46fc58301c2ea9f88a47be840edd44559d82b3c0a69ed37ac62f63b313540b615f80a36117cb565b63027ee80d60e51b5f5260045ffd5b50601460ff611b12612904565b161161178d565b631717aceb60e31b5f5260045ffd5b5069010f0cf064dd592000008111611774565b6302154e0360e21b5f5260045ffd5b3461025257606036600319011261025257611b636126b0565b611b6b6126c6565b60443560ff8116809103610252575f51602061360f5f395f51905f52548160ff8260401c16918215611c8b575b505061105d577fc7f505b2f371ae2175ee4913f4499e1f2633a7b5936321eed1cdaeb6115181d2926020928267ffffffffffffffff195f51602061360f5f395f51905f525416175f51602061360f5f395f51905f525560ff60401b195f51602061360f5f395f51905f52541691600160401b83175f51602061360f5f395f51905f5255611c23612a83565b6001600160a01b031680611c74575b506001600160a01b031680611c5b575b505f51602061360f5f395f51905f5255604051908152a1005b6001600160601b0360a01b600154161760015584611c42565b6001600160601b0360a01b5f5416175f5585611c32565b67ffffffffffffffff16101590508185611b98565b34610252575f36600319011261025257611cb8612a83565b5f5160206135af5f395f51905f5280546001600160a01b031981169091555f906001600160a01b03167f8be0079c531659141344cd1fd0a4f28419497f9722a3daafe3b4186f6b6457e08280a3005b3461025257611d1536612756565b905f52600860205260405f20905f52602052602060405f2054604051908152f35b3461025257604036600319011261025257611d4f6126c6565b6004355f52600a60205260405f209060018060a01b03165f52602052602060ff60405f20541660405190611d828161274c565b8152f35b34610252575f366003190112610252576001546040516001600160a01b039091168152602090f35b346102525760603660031901126102525760243560ff8116810361025257611dd46126dc565b906004355f52600760205260ff60405f2091165f5260205260405f209060018060a01b03165f52602052602060ff60405f2054166040519015158152f35b34610252575f3660031901126102525760206040516113ec8152f35b346102525760403660031901126102525760243560043560038210156102525780158015611ff2575b61044d57611e648261274c565b8115611fe357805f52600460205260ff600360405f20015460281c1660058110156104395760020361060c575f81815260056020908152604080832033845290915290206002015460081c60ff161561041b57805f52600960205260405f20600281019060ff825460101c161561060c57600101544211611fd4575f828152600a6020908152604080832033845290915290205460ff16611f048161274c565b611fc5575f828152600a602090815260408083203384529091529020611f298461274c565b60ff1981541660ff8516179055611f3f8361274c565b60018303611f975760ff611f55818354166128f3565b1660ff198254161790555b60405191611f6d8161274c565b82527feba4866100b822f0f391e610e7edfab790b9e8766c0012733c26b2f1858e8dd760203393a3005b80611fab60ff611fc0935460081c166128f3565b61ff0082549160081b169061ff001916179055565b611f60565b637c9a1cf960e01b5f5260045ffd5b63370ec37160e21b5f5260045ffd5b6364a2c03160e11b5f5260045ffd5b50600254811015611e57565b34610252575f366003190112610252577f00000000000000000000000000000000000000000000000000000000000000006001600160a01b031630036120555760206040515f5160206135cf5f395f51905f528152f35b63703e46dd60e11b5f5260045ffd5b6040366003190112610252576120786126b0565b6024359067ffffffffffffffff82116102525736602383011215610252578160040135906120a582612730565b916120b3604051938461270e565b8083526020830193366024838301011161025257815f926024602093018737840101526001600160a01b037f00000000000000000000000000000000000000000000000000000000000000001630811490811561229d575b5061205557612118612a83565b60018060a01b03811692837f8c26ec1c89a900331babb88eefa754f9b9ed370abe61944d6874e37612764c3f602060405160018152a26040516352d1902d60e01b8152602081600481885afa5f9181612269575b506121845784634c9c8ce360e01b5f5260045260245ffd5b805f5160206135cf5f395f51905f528692036122575750823b15612245575f5160206135cf5f395f51905f5280546001600160a01b031916821790557fbc7cd75a20ee27fd9adebab32041f755214dbc6bffa90cc0225b39da2e5c2d3b5f80a282511561222c575f809161066d945190845af43d15612224573d9161220883612730565b92612216604051948561270e565b83523d5f602085013e613550565b606091613550565b5050503461223657005b63b398979f60e01b5f5260045ffd5b634c9c8ce360e01b5f5260045260245ffd5b632a87526960e21b5f5260045260245ffd5b9091506020813d602011612295575b816122856020938361270e565b810103126102525751908661216c565b3d9150612278565b5f5160206135cf5f395f51905f52546001600160a01b0316141590508461210b565b34610252575f3660031901126102525760206040516706f05b59d3b200008152f35b346102525760203660031901126102525760043580158015612402575b61044d57805f52600460205260405f20600381019081549060ff8260281c1660058110156104395760010361042a5760ff606481612340818660081c166128de565b16041660ff8360101c16106107205760046103c660ff6123609416612a49565b42101561071157815f52600960205260405f209060028201805460ff8160101c166105fd5760181c60ff166123f3574283556202a300420192834211610d3f57600101928355805463ffffffff191662010000179055805465ff000000000019166502000000000017905554907ff4e39a27c6c29179b6afb3a070360307cdbda13933023287f5ca10a69b3628e25f80a3005b63f792f8f960e01b5f5260045ffd5b506002548110156122fe565b34610252575f366003190112610252576020604051670de0b6b3a76400008152f35b3461025257602036600319011261025257602061244e600435612855565b6040519015158152f35b34610252576040366003190112610252576124716126c6565b6004355f52600560205260405f209060018060a01b03165f5260205260c060405f2060ff8154169060018101549060ff6002820154600460038401549301549360405195865260208601528181161515604086015260081c1615156060840152608083015260a0820152f35b34610252575f366003190112610252576020601254604051908152f35b34610252576040366003190112610252576004356024356002811015610252576125226129cd565b8115801561264a575b61044d575f82815260046020526040902060018101546001600160a01b0316330361072f5760030190815460ff8160281c1660058110156104395760010361263b5760301c60ff16600281101561043957811461262c575f546040516323b872dd60e01b60208201523360248201523060448201526706f05b59d3b2000060648083019190915281526125d1916001600160a01b03166125cc60848361270e565b612f0b565b601154916706f05b59d3b200008301809311610d3f576125f3926011556127c6565b33907f46fc58301c2ea9f88a47be840edd44559d82b3c0a69ed37ac62f63b313540b615f80a360015f5160206135ef5f395f51905f5255005b63051a3ed560e11b5f5260045ffd5b63a407615b60e01b5f5260045ffd5b5060025482101561252b565b34610252576020366003190112610252576001600160a01b036126776126b0565b165f526010602052602060405f2054604051908152f35b34610252575f366003190112610252575f546001600160a01b03168152602090f35b600435906001600160a01b038216820361025257565b602435906001600160a01b038216820361025257565b604435906001600160a01b038216820361025257565b60c0810190811067ffffffffffffffff821117611a9357604052565b90601f8019910116810190811067ffffffffffffffff821117611a9357604052565b67ffffffffffffffff8111611a9357601f01601f191660200190565b6003111561043957565b6040906003190112610252576004359060243590565b8054821015612781575f5260205f2001905f90565b634e487b7160e01b5f52603260045260245ffd5b805180835260209291819084018484015e5f828201840152601f01601f1916010190565b91908201809211610d3f57565b9060028110156104395766ff00000000000082549160301b169066ff0000000000001916179055565b60ff60019116019060ff8211610d3f57565b9060ff8091169116019060ff8211610d3f57565b61ffff6127109116029061ffff8216918203610d3f57565b9061ffff169081156128415761ffff160490565b634e487b7160e01b5f52601260045260245ffd5b805f52600460205260405f20905f526009602052600260405f2001549060ff8260181c16156128d8576003015460281c60ff166005811015610439576003146128d35760ff6128ac818084169360081c1683612801565b1680156128cb576128c661ffff916105666113ec94612815565b161090565b506001919050565b505f90565b50505f90565b60ff603c9116029060ff8216918203610d3f57565b60ff1660ff8114610d3f5760010190565b60443560ff811681036102525790565b5f198114610d3f5760010190565b8054600160401b811015611a935761293f9160018201815561276c565b81546001600160a01b0393841660039290921b91821b9390911b1916919091179055565b91908110156127815760051b0190565b356001600160a01b03811681036102525790565b6129908161274c565b1561299c576202a30090565b5f90565b6001600160a01b038116156129ba576129b890612ab6565b565b631e4fbdf760e01b5f525f60045260245ffd5b60025f5160206135ef5f395f51905f5254146129f65760025f5160206135ef5f395f51905f5255565b633ee5aeb560e01b5f5260045ffd5b6040516323b872dd60e01b60208201526001600160a01b0392831660248201529290911660448301526064808301939093529181526129b8916125cc60848361270e565b612a528161274c565b8015908115612a6f575b50612a68576212750090565b62093a8090565b60019150612a7c8161274c565b145f612a5c565b5f5160206135af5f395f51905f52546001600160a01b03163303612aa357565b63118cdaa760e01b5f523360045260245ffd5b5f5160206135af5f395f51905f5280546001600160a01b039283166001600160a01b0319821681179092559091167f8be0079c531659141344cd1fd0a4f28419497f9722a3daafe3b4186f6b6457e05f80a3565b81810292918115918404141715610d3f57565b90612b2791612b0a565b606481029080820460641481151715610d3f57612710612b489204906127b9565b90565b5f8181526004602090815260408083206006835281842060058452828520600180840180546001600160a01b03908116895292875296859020805460ff191682179055955493519586529096919592169391929091849184917ffc79da6c5316f4c3a2841a4a8ee84045b0cda7f9c0b91deec048b7f26d4293cf9190a38454925f19840195848711610d3f57612be087612f6e565b94612bee604051968761270e565b878652601f19612bfd89612f6e565b01366020880137612c0d88612f6e565b92612c1b604051948561270e565b888452601f19612c2a8a612f6e565b013660208601375f905f5b838110612dea5750505050505f5b868110612d785750505f5b60ff81169086821015612cf3576002820160ff8111610d3f57847ffc79da6c5316f4c3a2841a4a8ee84045b0cda7f9c0b91deec048b7f26d4293cf6020612cee95835f526005825260405f2060018060a01b03612cab838d612f86565b516001600160a01b03911681165f9081529184526040909120805460ff191660ff881617905590612cdc908b612f86565b51169360ff60405191168152a36128f3565b612c4e565b50506003840180544260059096018690556503000100000065ff00ff000000198216179091559094506129b893919250612d30919060ff16612f9a565b815f52600860205260405f2060015f5260205260405f2055807faf0f41c2e769faca4f3422a53417b14043b989e8d29fd8aa1f0fb10273d20f1f6020604051428152a2612feb565b60018101808211610d3f575b878110612d945750600101612c43565b80612da160019285612f86565b51612dac8486612f86565b5110612db9575b01612d84565b612dc38385612f86565b51612dce8286612f86565b51612dd98587612f86565b52612de48286612f86565b52612db3565b81612df5828761276c565b905460039190911b1c6001600160a01b031603612e15575b600101612c35565b91612e20838661276c565b905460039190911b1c6001600160a01b0316612e3c828b612f86565b52612e47838661276c565b60018060a01b0391549060031b1c165f52600e60205260405f205490612e6d848761276c565b60018060a01b0391549060031b1c165f52600f60205260405f205490600a820291808304600a1490151715610d3f57612eab612ebb926001946127b9565b612eb5828a612f86565b52612914565b929050612e0d565b91908203918211610d3f57565b60405163a9059cbb60e01b60208201526001600160a01b0390921660248301526044808301939093529181526129b8916125cc60648361270e565b905f602091828151910182855af115612f63575f513d612f5a57506001600160a01b0381163b155b612f3a5750565b635274afe760e01b5f9081526001600160a01b0391909116600452602490fd5b60011415612f33565b6040513d5f823e3d90fd5b67ffffffffffffffff8111611a935760051b60200190565b80518210156127815760209160051b010190565b612fa38161274c565b8015612fda57600190612fb58161274c565b14612fca5762278d008101809111610d3f5790565b62093a808101809111610d3f5790565b50620151808101809111610d3f5790565b805f52600460205260405f206130026001836134c1565b906001600160a01b038216801561325657835f52600560205260405f20815f52602052600260405f200160ff81541661324f57600683019081549460018060a01b036001860154168403613211575b90613068865f949360018060a01b03865416612ed0565b600160ff1982541617905555805f52600e60205260405f2080549360058501809511610d3f577f52e998e38a9505deab1cc0e4a47bdd8426a6fde45f6693db2fd122e537fcf22b6020879260039760019555855f52600f825260405f206130cf8154612914565b9055604051908152a401805460201c60ff166001101561312557805463ff0000001916630200000017815561310b9060ff905b54164290612f9a565b905f52600860205260405f2060015f5260205260405f2055565b6504000000000060ff60281b19825416179055805f52600660205260405f205f5b81548110156131e957600190835f52600560205260405f20613168828561276c565b848060a01b0391549060031b1c16838060a01b03165f5260205260405f2060ff600282015460081c16806131dc575b6131a3575b5001613146565b60036131d691015f81549155838060a01b035f54166131c2848761276c565b868060a01b0391549060031b1c1690612ed0565b5f61319c565b5060038101541515613197565b50507ffccd3901546cfbb42742cac2c7335bce34f1f8d9844f4f4b53640f79e31010875f80a2565b90613068613241965f949361323661271061322e60125485612b0a565b048093612ec3565b9889926011546127b9565b601155929394505050613051565b5050505050565b50505050565b90815f52600460205260405f209060ff81169161327983856134c1565b906001600160a01b038216801561348e57855f52600560205260405f20815f52602052600260405f200160ff81541661348557600683019081549460018060a01b03600186015416840361345a575b906132df865f949360018060a01b03865416612ed0565b600160ff1982541617905555805f52600e60205260405f2080549360058501809511610d3f577f52e998e38a9505deab1cc0e4a47bdd8426a6fde45f6693db2fd122e537fcf22b602089926003978a9555855f52600f825260405f206133458154612914565b9055604051908152a4019060ff825460201c1683105f146133a55761338c9161310261337260ff936127ef565b825463ff000000191660189190911b63ff00000016178255565b915f52600860205260405f20905f5260205260405f2055565b50805465ff0000000000191665040000000000179055505f818152600660205260408120905b81548110156131e957600190835f52600560205260405f206133ed828561276c565b848060a01b0391549060031b1c16838060a01b03165f5260205260405f2060ff600282015460081c168061344d575b613428575b50016133cb565b600361344791015f81549155838060a01b035f54166131c2848761276c565b5f613421565b506003810154151561341c565b906132df613477965f949361323661271061322e60125485612b0a565b6011559293945050506132c8565b50505050505050565b505050505050565b60ff5f51602061360f5f395f51905f525460401c16156134b257565b631afcd79f60e31b5f5260045ffd5b90815f52600660205260405f20905f928254935b8481106134e55750505050505f90565b815f52600560205260405f206134fb828661276c565b905460039190911b1c6001600160a01b03165f908152602091909152604090205460ff16831461352d576001016134d5565b9291505061353b925061276c565b905460039190911b1c6001600160a01b031690565b90613574575080511561356557602081519101fd5b63d6bda27560e01b5f5260045ffd5b815115806135a5575b613585575090565b639996b31560e01b5f9081526001600160a01b0391909116600452602490fd5b50803b1561357d56fe9016d09d72d40fdae2fd8ceac6b6234c7706214fd39c1cd1e609a0528c199300360894a13ba1a3210667c828492db98dca3e2076cc3735a920a3ca505d382bbc9b779b17422d0df92223018b32b4d1fa46e071723d6817e2486d003becc55f00f0c57e16840df040f15088dc2f81fe391c3923bec73e23a9662efc9c229c6a00a2646970667358221220e453792c1a1d0d18eb302bf0302060d93ec5f1157057845b92aaa391f0e7f3b464736f6c634300081e0033f0c57e16840df040f15088dc2f81fe391c3923bec73e23a9662efc9c229c6a00",
    "sourcePath": "/home/isiaq/workspace/CirclePot/smart-contract/src/CirclePotV1.sol",
    "compiler": {
        "name": "solc",
        "version": "0.8.30+commit.73712a01"
    },
    "functionHashes": {
        "LATE_FEE_BPS()": "a8c93057",
        "MAX_CONTRIBUTION()": "94d95f8f",
        "MAX_MEMBERS()": "ea0e35b1",
        "MIN_CONTRIBUTION()": "40650c91",
        "MIN_MEMBERS()": "d9a67220",
        "PLATFORM_FEE_BPS()": "539aa77f",
        "START_VOTE_THRESHOLD()": "58f8d6ff",
        "UPGRADE_INTERFACE_VERSION()": "ad3cb1cc",
        "VERSION()": "ffa1ad74",
        "VISIBILITY_UPDATE_FEE()": "46c39a1d",
        "VOTING_PERIOD()": "b1610d7e",
        "WithdrawCollateral(uint256)": "fc226bcc",
        "_getGracePeriod(uint8)": "d4cfc5dc",
        "cUSDToken()": "0ea86ad8",
        "canWithdrawAfterVote(uint256)": "2dfa6768",
        "castVote(uint256,uint8)": "56781388",
        "circleCounter()": "f3890e1f",
        "circleInvitations(uint256,address)": "98d4c1dd",
        "circleMemberList(uint256,uint256)": "8fda34bf",
        "circleMembers(uint256,address)": "2c2b97a4",
        "circleRoundDeadlines(uint256,uint256)": "69be46bf",
        "circleVotes(uint256)": "c4ce74e0",
        "circles(uint256)": "bc5e0f30",
        "completedCircles(address)": "fd81593f",
        "contribute(uint256)": "c1cbbca7",
        "createCircle((uint256,uint8,uint8,uint8))": "8261efa7",
        "executeVote(uint256)": "f98a4eca",
        "goalCounter()": "f9e9ad39",
        "initialize(address,address,address)": "c0c53b8b",
        "initiateVoting(uint256)": "45714684",
        "inviteMembers(uint256,address[])": "d4bf578c",
        "joinCircle(uint256)": "86d6cfb3",
        "latePayments(address)": "0f801988",
        "memberVotes(uint256,address)": "63fc152e",
        "owner()": "8da5cb5b",
        "personalGoals(uint256)": "ad5a6982",
        "platformFeeBps()": "22dcd13e",
        "proxiableUUID()": "52d1902d",
        "renounceOwnership()": "715018a6",
        "roundContributions(uint256,uint8,address)": "61a524a1",
        "startCircle(uint256)": "ec6b733f",
        "totalPlatformFees()": "d3631fa5",
        "transferOwnership(address)": "f2fde38b",
        "treasury()": "61d027b3",
        "updateCircleVisibility(uint256,uint8)": "157a7ec7",
        "upgrade(address,address,uint8)": "7ee839c4",
        "upgradeToAndCall(address,bytes)": "4f1ef286",
        "userGoals(address,uint256)": "b6b3eedf",
        "userReputation(address)": "e503bb05"
    },
    "gasEstimates": {
        "creation": {
            "codeDepositCost": "2784800",
            "executionCost": "infinite",
            "totalCost": "infinite"
        },
        "external": {
            "LATE_FEE_BPS()": "725",
            "MAX_CONTRIBUTION()": "681",
            "MAX_MEMBERS()": "1033",
            "MIN_CONTRIBUTION()": "285",
            "MIN_MEMBERS()": "989",
            "PLATFORM_FEE_BPS()": "395",
            "START_VOTE_THRESHOLD()": "439",
            "UPGRADE_INTERFACE_VERSION()": "1038",
            "VERSION()": "1206",
            "VISIBILITY_UPDATE_FEE()": "329",
            "VOTING_PERIOD()": "791",
            "WithdrawCollateral(uint256)": "infinite",
            "_getGracePeriod(uint8)": "1097",
            "cUSDToken()": "2265",
            "canWithdrawAfterVote(uint256)": "5020",
            "castVote(uint256,uint8)": "infinite",
            "circleCounter()": "3202",
            "circleInvitations(uint256,address)": "3035",
            "circleMemberList(uint256,uint256)": "7242",
            "circleMembers(uint256,address)": "11123",
            "circleRoundDeadlines(uint256,uint256)": "2798",
            "circleVotes(uint256)": "7434",
            "circles(uint256)": "16077",
            "completedCircles(address)": "3440",
            "contribute(uint256)": "infinite",
            "createCircle((uint256,uint8,uint8,uint8))": "infinite",
            "executeVote(uint256)": "infinite",
            "goalCounter()": "3246",
            "initialize(address,address,address)": "infinite",
            "initiateVoting(uint256)": "infinite",
            "inviteMembers(uint256,address[])": "infinite",
            "joinCircle(uint256)": "infinite",
            "latePayments(address)": "2428",
            "memberVotes(uint256,address)": "2888",
            "owner()": "infinite",
            "personalGoals(uint256)": "infinite",
            "platformFeeBps()": "2322",
            "proxiableUUID()": "infinite",
            "renounceOwnership()": "28514",
            "roundContributions(uint256,uint8,address)": "2897",
            "startCircle(uint256)": "infinite",
            "totalPlatformFees()": "3026",
            "transferOwnership(address)": "29219",
            "treasury()": "2610",
            "updateCircleVisibility(uint256,uint8)": "infinite",
            "upgrade(address,address,uint8)": "infinite",
            "upgradeToAndCall(address,bytes)": "infinite",
            "userGoals(address,uint256)": "7437",
            "userReputation(address)": "3264"
        },
        "internal": {
            "_assignPosition(uint256)": "infinite",
            "_authorizeUpgrade(address)": "infinite",
            "_calcCollateral(uint256,uint256)": "241",
            "_checkComplete(uint256)": "infinite",
            "_getByPos(uint256,uint256)": "infinite",
            "_handleLate(uint256,uint8,uint256)": "infinite",
            "_nextDeadline(enum CirclePotV1.Frequency,uint256)": "infinite",
            "_payoutRound(uint256,uint8)": "infinite",
            "_progressNextRound(struct CirclePotV1.Circle storage pointer,uint256,uint8)": "infinite",
            "_releaseAllCollateral(uint256)": "infinite",
            "_startCircleInternal(uint256)": "infinite",
            "_ultimatum(enum CirclePotV1.Frequency)": "infinite"
        }
    }
}