{
    "contractName": "CirclePotV1",
    "abi": [
        {
            "inputs": [],
            "stateMutability": "nonpayable",
            "type": "constructor"
        },
        {
            "inputs": [
                {
                    "internalType": "address",
                    "name": "target",
                    "type": "address"
                }
            ],
            "name": "AddressEmptyCode",
            "type": "error"
        },
        {
            "inputs": [],
            "name": "AddressZeroNotAllowed",
            "type": "error"
        },
        {
            "inputs": [],
            "name": "AlreadyJoined",
            "type": "error"
        },
        {
            "inputs": [],
            "name": "AlreadyVoted",
            "type": "error"
        },
        {
            "inputs": [],
            "name": "CircleFull",
            "type": "error"
        },
        {
            "inputs": [],
            "name": "CircleNotExist",
            "type": "error"
        },
        {
            "inputs": [],
            "name": "CircleNotOpen",
            "type": "error"
        },
        {
            "inputs": [],
            "name": "CircleNotPrivate",
            "type": "error"
        },
        {
            "inputs": [
                {
                    "internalType": "address",
                    "name": "implementation",
                    "type": "address"
                }
            ],
            "name": "ERC1967InvalidImplementation",
            "type": "error"
        },
        {
            "inputs": [],
            "name": "ERC1967NonPayable",
            "type": "error"
        },
        {
            "inputs": [],
            "name": "FailedCall",
            "type": "error"
        },
        {
            "inputs": [],
            "name": "InvalidCircle",
            "type": "error"
        },
        {
            "inputs": [],
            "name": "InvalidContributionAmount",
            "type": "error"
        },
        {
            "inputs": [],
            "name": "InvalidInitialization",
            "type": "error"
        },
        {
            "inputs": [],
            "name": "InvalidMemberCount",
            "type": "error"
        },
        {
            "inputs": [],
            "name": "InvalidTreasuryAddress",
            "type": "error"
        },
        {
            "inputs": [],
            "name": "InvalidVoteChoice",
            "type": "error"
        },
        {
            "inputs": [],
            "name": "MinMembersNotReached",
            "type": "error"
        },
        {
            "inputs": [],
            "name": "NotActiveMember",
            "type": "error"
        },
        {
            "inputs": [],
            "name": "NotInitializing",
            "type": "error"
        },
        {
            "inputs": [],
            "name": "NotInvited",
            "type": "error"
        },
        {
            "inputs": [],
            "name": "OnlyCreator",
            "type": "error"
        },
        {
            "inputs": [
                {
                    "internalType": "address",
                    "name": "owner",
                    "type": "address"
                }
            ],
            "name": "OwnableInvalidOwner",
            "type": "error"
        },
        {
            "inputs": [
                {
                    "internalType": "address",
                    "name": "account",
                    "type": "address"
                }
            ],
            "name": "OwnableUnauthorizedAccount",
            "type": "error"
        },
        {
            "inputs": [],
            "name": "ReentrancyGuardReentrantCall",
            "type": "error"
        },
        {
            "inputs": [
                {
                    "internalType": "address",
                    "name": "token",
                    "type": "address"
                }
            ],
            "name": "SafeERC20FailedOperation",
            "type": "error"
        },
        {
            "inputs": [],
            "name": "SameVisibility",
            "type": "error"
        },
        {
            "inputs": [],
            "name": "UUPSUnauthorizedCallContext",
            "type": "error"
        },
        {
            "inputs": [
                {
                    "internalType": "bytes32",
                    "name": "slot",
                    "type": "bytes32"
                }
            ],
            "name": "UUPSUnsupportedProxiableUUID",
            "type": "error"
        },
        {
            "inputs": [],
            "name": "UltimatumNotPassed",
            "type": "error"
        },
        {
            "inputs": [],
            "name": "UltimatumNotReached",
            "type": "error"
        },
        {
            "inputs": [],
            "name": "VotingAlreadyExecuted",
            "type": "error"
        },
        {
            "inputs": [],
            "name": "VotingNotActive",
            "type": "error"
        },
        {
            "inputs": [],
            "name": "VotingPeriodEnded",
            "type": "error"
        },
        {
            "inputs": [],
            "name": "VotingStillActive",
            "type": "error"
        },
        {
            "anonymous": false,
            "inputs": [
                {
                    "indexed": true,
                    "internalType": "uint256",
                    "name": "circleId",
                    "type": "uint256"
                }
            ],
            "name": "CircleCompleted",
            "type": "event"
        },
        {
            "anonymous": false,
            "inputs": [
                {
                    "indexed": false,
                    "internalType": "uint256",
                    "name": "circleId",
                    "type": "uint256"
                },
                {
                    "indexed": false,
                    "internalType": "address",
                    "name": "creator",
                    "type": "address"
                },
                {
                    "indexed": false,
                    "internalType": "uint256",
                    "name": "contributionAmount",
                    "type": "uint256"
                }
            ],
            "name": "CircleCreated",
            "type": "event"
        },
        {
            "anonymous": false,
            "inputs": [
                {
                    "indexed": true,
                    "internalType": "uint256",
                    "name": "circleId",
                    "type": "uint256"
                },
                {
                    "indexed": true,
                    "internalType": "address",
                    "name": "member",
                    "type": "address"
                }
            ],
            "name": "CircleJoined",
            "type": "event"
        },
        {
            "anonymous": false,
            "inputs": [
                {
                    "indexed": true,
                    "internalType": "uint256",
                    "name": "circleId",
                    "type": "uint256"
                },
                {
                    "indexed": false,
                    "internalType": "uint256",
                    "name": "startedAt",
                    "type": "uint256"
                }
            ],
            "name": "CircleStarted",
            "type": "event"
        },
        {
            "anonymous": false,
            "inputs": [
                {
                    "indexed": true,
                    "internalType": "uint256",
                    "name": "circleId",
                    "type": "uint256"
                },
                {
                    "indexed": true,
                    "internalType": "address",
                    "name": "member",
                    "type": "address"
                },
                {
                    "indexed": false,
                    "internalType": "uint256",
                    "name": "amount",
                    "type": "uint256"
                }
            ],
            "name": "CollateralWithdrawn",
            "type": "event"
        },
        {
            "anonymous": false,
            "inputs": [
                {
                    "indexed": true,
                    "internalType": "address",
                    "name": "newImplementation",
                    "type": "address"
                },
                {
                    "indexed": false,
                    "internalType": "uint8",
                    "name": "version",
                    "type": "uint8"
                }
            ],
            "name": "ContractUpgraded",
            "type": "event"
        },
        {
            "anonymous": false,
            "inputs": [
                {
                    "indexed": false,
                    "internalType": "uint64",
                    "name": "version",
                    "type": "uint64"
                }
            ],
            "name": "Initialized",
            "type": "event"
        },
        {
            "anonymous": false,
            "inputs": [
                {
                    "indexed": true,
                    "internalType": "uint256",
                    "name": "circleId",
                    "type": "uint256"
                },
                {
                    "indexed": true,
                    "internalType": "address",
                    "name": "_invitee",
                    "type": "address"
                }
            ],
            "name": "MemberInvited",
            "type": "event"
        },
        {
            "anonymous": false,
            "inputs": [
                {
                    "indexed": true,
                    "internalType": "address",
                    "name": "previousOwner",
                    "type": "address"
                },
                {
                    "indexed": true,
                    "internalType": "address",
                    "name": "newOwner",
                    "type": "address"
                }
            ],
            "name": "OwnershipTransferred",
            "type": "event"
        },
        {
            "anonymous": false,
            "inputs": [
                {
                    "indexed": true,
                    "internalType": "uint256",
                    "name": "circleId",
                    "type": "uint256"
                },
                {
                    "indexed": true,
                    "internalType": "uint256",
                    "name": "round",
                    "type": "uint256"
                },
                {
                    "indexed": true,
                    "internalType": "address",
                    "name": "recipient",
                    "type": "address"
                },
                {
                    "indexed": false,
                    "internalType": "uint256",
                    "name": "amount",
                    "type": "uint256"
                }
            ],
            "name": "PayoutDistributed",
            "type": "event"
        },
        {
            "anonymous": false,
            "inputs": [
                {
                    "indexed": true,
                    "internalType": "uint256",
                    "name": "circledId",
                    "type": "uint256"
                },
                {
                    "indexed": true,
                    "internalType": "address",
                    "name": "member",
                    "type": "address"
                },
                {
                    "indexed": false,
                    "internalType": "uint256",
                    "name": "position",
                    "type": "uint256"
                }
            ],
            "name": "PositionAssigned",
            "type": "event"
        },
        {
            "anonymous": false,
            "inputs": [
                {
                    "indexed": true,
                    "internalType": "address",
                    "name": "implementation",
                    "type": "address"
                }
            ],
            "name": "Upgraded",
            "type": "event"
        },
        {
            "anonymous": false,
            "inputs": [
                {
                    "indexed": true,
                    "internalType": "uint256",
                    "name": "circleId",
                    "type": "uint256"
                },
                {
                    "indexed": true,
                    "internalType": "address",
                    "name": "creator",
                    "type": "address"
                }
            ],
            "name": "VisibilityUpdated",
            "type": "event"
        },
        {
            "anonymous": false,
            "inputs": [
                {
                    "indexed": true,
                    "internalType": "uint256",
                    "name": "circleId",
                    "type": "uint256"
                },
                {
                    "indexed": true,
                    "internalType": "address",
                    "name": "voter",
                    "type": "address"
                },
                {
                    "indexed": false,
                    "internalType": "enum CirclePotV1.VoteChoice",
                    "name": "choice",
                    "type": "uint8"
                }
            ],
            "name": "VoteCast",
            "type": "event"
        },
        {
            "anonymous": false,
            "inputs": [
                {
                    "indexed": true,
                    "internalType": "uint256",
                    "name": "circleId",
                    "type": "uint256"
                },
                {
                    "indexed": true,
                    "internalType": "uint256",
                    "name": "votingEndTime",
                    "type": "uint256"
                }
            ],
            "name": "VotingInitiated",
            "type": "event"
        },
        {
            "inputs": [],
            "name": "LATE_FEE_BPS",
            "outputs": [
                {
                    "internalType": "uint256",
                    "name": "",
                    "type": "uint256"
                }
            ],
            "stateMutability": "view",
            "type": "function"
        },
        {
            "inputs": [],
            "name": "MAX_CONTRIBUTION",
            "outputs": [
                {
                    "internalType": "uint256",
                    "name": "",
                    "type": "uint256"
                }
            ],
            "stateMutability": "view",
            "type": "function"
        },
        {
            "inputs": [],
            "name": "MAX_MEMBERS",
            "outputs": [
                {
                    "internalType": "uint256",
                    "name": "",
                    "type": "uint256"
                }
            ],
            "stateMutability": "view",
            "type": "function"
        },
        {
            "inputs": [],
            "name": "MIN_CONTRIBUTION",
            "outputs": [
                {
                    "internalType": "uint256",
                    "name": "",
                    "type": "uint256"
                }
            ],
            "stateMutability": "view",
            "type": "function"
        },
        {
            "inputs": [],
            "name": "MIN_MEMBERS",
            "outputs": [
                {
                    "internalType": "uint256",
                    "name": "",
                    "type": "uint256"
                }
            ],
            "stateMutability": "view",
            "type": "function"
        },
        {
            "inputs": [],
            "name": "PLATFORM_FEE_BPS",
            "outputs": [
                {
                    "internalType": "uint256",
                    "name": "",
                    "type": "uint256"
                }
            ],
            "stateMutability": "view",
            "type": "function"
        },
        {
            "inputs": [],
            "name": "START_VOTE_THRESHOLD",
            "outputs": [
                {
                    "internalType": "uint256",
                    "name": "",
                    "type": "uint256"
                }
            ],
            "stateMutability": "view",
            "type": "function"
        },
        {
            "inputs": [],
            "name": "UPGRADE_INTERFACE_VERSION",
            "outputs": [
                {
                    "internalType": "string",
                    "name": "",
                    "type": "string"
                }
            ],
            "stateMutability": "view",
            "type": "function"
        },
        {
            "inputs": [],
            "name": "VERSION",
            "outputs": [
                {
                    "internalType": "uint8",
                    "name": "",
                    "type": "uint8"
                }
            ],
            "stateMutability": "view",
            "type": "function"
        },
        {
            "inputs": [],
            "name": "VISIBILITY_UPDATE_FEE",
            "outputs": [
                {
                    "internalType": "uint256",
                    "name": "",
                    "type": "uint256"
                }
            ],
            "stateMutability": "view",
            "type": "function"
        },
        {
            "inputs": [],
            "name": "VOTING_PERIOD",
            "outputs": [
                {
                    "internalType": "uint256",
                    "name": "",
                    "type": "uint256"
                }
            ],
            "stateMutability": "view",
            "type": "function"
        },
        {
            "inputs": [
                {
                    "internalType": "uint256",
                    "name": "_circleId",
                    "type": "uint256"
                }
            ],
            "name": "WithdrawCollateral",
            "outputs": [],
            "stateMutability": "nonpayable",
            "type": "function"
        },
        {
            "inputs": [],
            "name": "cUSDToken",
            "outputs": [
                {
                    "internalType": "address",
                    "name": "",
                    "type": "address"
                }
            ],
            "stateMutability": "view",
            "type": "function"
        },
        {
            "inputs": [
                {
                    "internalType": "uint256",
                    "name": "_circleId",
                    "type": "uint256"
                }
            ],
            "name": "canWithdrawAfterVote",
            "outputs": [
                {
                    "internalType": "bool",
                    "name": "",
                    "type": "bool"
                }
            ],
            "stateMutability": "view",
            "type": "function"
        },
        {
            "inputs": [
                {
                    "internalType": "uint256",
                    "name": "_circleId",
                    "type": "uint256"
                },
                {
                    "internalType": "enum CirclePotV1.VoteChoice",
                    "name": "_choice",
                    "type": "uint8"
                }
            ],
            "name": "castVote",
            "outputs": [],
            "stateMutability": "nonpayable",
            "type": "function"
        },
        {
            "inputs": [],
            "name": "circleCounter",
            "outputs": [
                {
                    "internalType": "uint256",
                    "name": "",
                    "type": "uint256"
                }
            ],
            "stateMutability": "view",
            "type": "function"
        },
        {
            "inputs": [
                {
                    "internalType": "uint256",
                    "name": "",
                    "type": "uint256"
                },
                {
                    "internalType": "address",
                    "name": "",
                    "type": "address"
                }
            ],
            "name": "circleInvitations",
            "outputs": [
                {
                    "internalType": "bool",
                    "name": "",
                    "type": "bool"
                }
            ],
            "stateMutability": "view",
            "type": "function"
        },
        {
            "inputs": [
                {
                    "internalType": "uint256",
                    "name": "",
                    "type": "uint256"
                },
                {
                    "internalType": "uint256",
                    "name": "",
                    "type": "uint256"
                }
            ],
            "name": "circleMemberList",
            "outputs": [
                {
                    "internalType": "address",
                    "name": "",
                    "type": "address"
                }
            ],
            "stateMutability": "view",
            "type": "function"
        },
        {
            "inputs": [
                {
                    "internalType": "uint256",
                    "name": "",
                    "type": "uint256"
                },
                {
                    "internalType": "address",
                    "name": "",
                    "type": "address"
                }
            ],
            "name": "circleMembers",
            "outputs": [
                {
                    "internalType": "uint256",
                    "name": "position",
                    "type": "uint256"
                },
                {
                    "internalType": "uint256",
                    "name": "totalContributed",
                    "type": "uint256"
                },
                {
                    "internalType": "bool",
                    "name": "hasReceivedPayout",
                    "type": "bool"
                },
                {
                    "internalType": "bool",
                    "name": "isActive",
                    "type": "bool"
                },
                {
                    "internalType": "uint256",
                    "name": "collateralLocked",
                    "type": "uint256"
                },
                {
                    "internalType": "uint256",
                    "name": "joinedAt",
                    "type": "uint256"
                }
            ],
            "stateMutability": "view",
            "type": "function"
        },
        {
            "inputs": [
                {
                    "internalType": "uint256",
                    "name": "",
                    "type": "uint256"
                },
                {
                    "internalType": "uint256",
                    "name": "",
                    "type": "uint256"
                }
            ],
            "name": "circleRoundDeadlines",
            "outputs": [
                {
                    "internalType": "uint256",
                    "name": "",
                    "type": "uint256"
                }
            ],
            "stateMutability": "view",
            "type": "function"
        },
        {
            "inputs": [
                {
                    "internalType": "uint256",
                    "name": "",
                    "type": "uint256"
                }
            ],
            "name": "circleVotes",
            "outputs": [
                {
                    "internalType": "uint256",
                    "name": "votingStartTime",
                    "type": "uint256"
                },
                {
                    "internalType": "uint256",
                    "name": "votingEndTime",
                    "type": "uint256"
                },
                {
                    "internalType": "uint8",
                    "name": "startVoteCount",
                    "type": "uint8"
                },
                {
                    "internalType": "uint8",
                    "name": "withdrawVoteCount",
                    "type": "uint8"
                },
                {
                    "internalType": "bool",
                    "name": "votingActive",
                    "type": "bool"
                },
                {
                    "internalType": "bool",
                    "name": "voteExecuted",
                    "type": "bool"
                }
            ],
            "stateMutability": "view",
            "type": "function"
        },
        {
            "inputs": [
                {
                    "internalType": "uint256",
                    "name": "",
                    "type": "uint256"
                }
            ],
            "name": "circles",
            "outputs": [
                {
                    "internalType": "uint256",
                    "name": "circleId",
                    "type": "uint256"
                },
                {
                    "internalType": "address",
                    "name": "creator",
                    "type": "address"
                },
                {
                    "internalType": "uint256",
                    "name": "contributionAmount",
                    "type": "uint256"
                },
                {
                    "internalType": "enum CirclePotV1.Frequency",
                    "name": "frequency",
                    "type": "uint8"
                },
                {
                    "internalType": "uint256",
                    "name": "maxMembers",
                    "type": "uint256"
                },
                {
                    "internalType": "uint256",
                    "name": "currentMembers",
                    "type": "uint256"
                },
                {
                    "internalType": "uint256",
                    "name": "currentRound",
                    "type": "uint256"
                },
                {
                    "internalType": "uint256",
                    "name": "totalRounds",
                    "type": "uint256"
                },
                {
                    "internalType": "enum CirclePotV1.CircleState",
                    "name": "state",
                    "type": "uint8"
                },
                {
                    "internalType": "enum CirclePotV1.Visibility",
                    "name": "visibility",
                    "type": "uint8"
                },
                {
                    "internalType": "uint256",
                    "name": "createdAt",
                    "type": "uint256"
                },
                {
                    "internalType": "uint256",
                    "name": "startedAt",
                    "type": "uint256"
                },
                {
                    "internalType": "uint256",
                    "name": "totalPot",
                    "type": "uint256"
                }
            ],
            "stateMutability": "view",
            "type": "function"
        },
        {
            "inputs": [
                {
                    "internalType": "address",
                    "name": "",
                    "type": "address"
                }
            ],
            "name": "completedCircles",
            "outputs": [
                {
                    "internalType": "uint256",
                    "name": "",
                    "type": "uint256"
                }
            ],
            "stateMutability": "view",
            "type": "function"
        },
        {
            "inputs": [
                {
                    "components": [
                        {
                            "internalType": "uint256",
                            "name": "contributionAmount",
                            "type": "uint256"
                        },
                        {
                            "internalType": "enum CirclePotV1.Frequency",
                            "name": "frequency",
                            "type": "uint8"
                        },
                        {
                            "internalType": "uint256",
                            "name": "maxMembers",
                            "type": "uint256"
                        },
                        {
                            "internalType": "enum CirclePotV1.Visibility",
                            "name": "visibility",
                            "type": "uint8"
                        }
                    ],
                    "internalType": "struct CirclePotV1.CreateCircleParams",
                    "name": "params",
                    "type": "tuple"
                }
            ],
            "name": "createCircle",
            "outputs": [
                {
                    "internalType": "uint256",
                    "name": "",
                    "type": "uint256"
                }
            ],
            "stateMutability": "nonpayable",
            "type": "function"
        },
        {
            "inputs": [],
            "name": "goalCounter",
            "outputs": [
                {
                    "internalType": "uint256",
                    "name": "",
                    "type": "uint256"
                }
            ],
            "stateMutability": "view",
            "type": "function"
        },
        {
            "inputs": [
                {
                    "internalType": "address",
                    "name": "_cUSDToken",
                    "type": "address"
                },
                {
                    "internalType": "address",
                    "name": "_treasury",
                    "type": "address"
                },
                {
                    "internalType": "address",
                    "name": "initialOwner",
                    "type": "address"
                }
            ],
            "name": "initialize",
            "outputs": [],
            "stateMutability": "nonpayable",
            "type": "function"
        },
        {
            "inputs": [
                {
                    "internalType": "uint256",
                    "name": "_circleId",
                    "type": "uint256"
                }
            ],
            "name": "initiateVoting",
            "outputs": [],
            "stateMutability": "nonpayable",
            "type": "function"
        },
        {
            "inputs": [
                {
                    "internalType": "uint256",
                    "name": "_circleId",
                    "type": "uint256"
                },
                {
                    "internalType": "address[]",
                    "name": "_invitees",
                    "type": "address[]"
                }
            ],
            "name": "inviteMembers",
            "outputs": [],
            "stateMutability": "nonpayable",
            "type": "function"
        },
        {
            "inputs": [
                {
                    "internalType": "uint256",
                    "name": "_circleId",
                    "type": "uint256"
                }
            ],
            "name": "joinCircle",
            "outputs": [],
            "stateMutability": "nonpayable",
            "type": "function"
        },
        {
            "inputs": [
                {
                    "internalType": "address",
                    "name": "",
                    "type": "address"
                }
            ],
            "name": "latePayments",
            "outputs": [
                {
                    "internalType": "uint256",
                    "name": "",
                    "type": "uint256"
                }
            ],
            "stateMutability": "view",
            "type": "function"
        },
        {
            "inputs": [
                {
                    "internalType": "uint256",
                    "name": "",
                    "type": "uint256"
                },
                {
                    "internalType": "address",
                    "name": "",
                    "type": "address"
                }
            ],
            "name": "memberVotes",
            "outputs": [
                {
                    "internalType": "enum CirclePotV1.VoteChoice",
                    "name": "",
                    "type": "uint8"
                }
            ],
            "stateMutability": "view",
            "type": "function"
        },
        {
            "inputs": [],
            "name": "owner",
            "outputs": [
                {
                    "internalType": "address",
                    "name": "",
                    "type": "address"
                }
            ],
            "stateMutability": "view",
            "type": "function"
        },
        {
            "inputs": [
                {
                    "internalType": "uint256",
                    "name": "",
                    "type": "uint256"
                }
            ],
            "name": "personalGoals",
            "outputs": [
                {
                    "internalType": "address",
                    "name": "owner",
                    "type": "address"
                },
                {
                    "internalType": "string",
                    "name": "name",
                    "type": "string"
                },
                {
                    "internalType": "uint256",
                    "name": "targetAmount",
                    "type": "uint256"
                },
                {
                    "internalType": "uint256",
                    "name": "currentAmount",
                    "type": "uint256"
                },
                {
                    "internalType": "uint256",
                    "name": "contributionAmount",
                    "type": "uint256"
                },
                {
                    "internalType": "enum CirclePotV1.Frequency",
                    "name": "frequency",
                    "type": "uint8"
                },
                {
                    "internalType": "uint256",
                    "name": "deadline",
                    "type": "uint256"
                },
                {
                    "internalType": "uint256",
                    "name": "createdAt",
                    "type": "uint256"
                },
                {
                    "internalType": "bool",
                    "name": "isActive",
                    "type": "bool"
                },
                {
                    "internalType": "uint256",
                    "name": "lastContributionAt",
                    "type": "uint256"
                }
            ],
            "stateMutability": "view",
            "type": "function"
        },
        {
            "inputs": [],
            "name": "platformFeeBps",
            "outputs": [
                {
                    "internalType": "uint256",
                    "name": "",
                    "type": "uint256"
                }
            ],
            "stateMutability": "view",
            "type": "function"
        },
        {
            "inputs": [],
            "name": "proxiableUUID",
            "outputs": [
                {
                    "internalType": "bytes32",
                    "name": "",
                    "type": "bytes32"
                }
            ],
            "stateMutability": "view",
            "type": "function"
        },
        {
            "inputs": [],
            "name": "renounceOwnership",
            "outputs": [],
            "stateMutability": "nonpayable",
            "type": "function"
        },
        {
            "inputs": [
                {
                    "internalType": "uint256",
                    "name": "",
                    "type": "uint256"
                },
                {
                    "internalType": "uint256",
                    "name": "",
                    "type": "uint256"
                },
                {
                    "internalType": "address",
                    "name": "",
                    "type": "address"
                }
            ],
            "name": "roundContributions",
            "outputs": [
                {
                    "internalType": "bool",
                    "name": "",
                    "type": "bool"
                }
            ],
            "stateMutability": "view",
            "type": "function"
        },
        {
            "inputs": [
                {
                    "internalType": "uint256",
                    "name": "_circleId",
                    "type": "uint256"
                }
            ],
            "name": "startCircle",
            "outputs": [],
            "stateMutability": "nonpayable",
            "type": "function"
        },
        {
            "inputs": [],
            "name": "totalPlatformFees",
            "outputs": [
                {
                    "internalType": "uint256",
                    "name": "",
                    "type": "uint256"
                }
            ],
            "stateMutability": "view",
            "type": "function"
        },
        {
            "inputs": [
                {
                    "internalType": "address",
                    "name": "newOwner",
                    "type": "address"
                }
            ],
            "name": "transferOwnership",
            "outputs": [],
            "stateMutability": "nonpayable",
            "type": "function"
        },
        {
            "inputs": [],
            "name": "treasury",
            "outputs": [
                {
                    "internalType": "address",
                    "name": "",
                    "type": "address"
                }
            ],
            "stateMutability": "view",
            "type": "function"
        },
        {
            "inputs": [
                {
                    "internalType": "uint256",
                    "name": "_circleId",
                    "type": "uint256"
                },
                {
                    "internalType": "enum CirclePotV1.Visibility",
                    "name": "_newVisibility",
                    "type": "uint8"
                }
            ],
            "name": "updateCircleVisibility",
            "outputs": [],
            "stateMutability": "nonpayable",
            "type": "function"
        },
        {
            "inputs": [
                {
                    "internalType": "address",
                    "name": "_cUSDToken",
                    "type": "address"
                },
                {
                    "internalType": "address",
                    "name": "_treasury",
                    "type": "address"
                },
                {
                    "internalType": "uint8",
                    "name": "_version",
                    "type": "uint8"
                }
            ],
            "name": "upgrade",
            "outputs": [],
            "stateMutability": "nonpayable",
            "type": "function"
        },
        {
            "inputs": [
                {
                    "internalType": "address",
                    "name": "newImplementation",
                    "type": "address"
                },
                {
                    "internalType": "bytes",
                    "name": "data",
                    "type": "bytes"
                }
            ],
            "name": "upgradeToAndCall",
            "outputs": [],
            "stateMutability": "payable",
            "type": "function"
        },
        {
            "inputs": [
                {
                    "internalType": "address",
                    "name": "",
                    "type": "address"
                },
                {
                    "internalType": "uint256",
                    "name": "",
                    "type": "uint256"
                }
            ],
            "name": "userGoals",
            "outputs": [
                {
                    "internalType": "uint256",
                    "name": "",
                    "type": "uint256"
                }
            ],
            "stateMutability": "view",
            "type": "function"
        },
        {
            "inputs": [
                {
                    "internalType": "address",
                    "name": "",
                    "type": "address"
                }
            ],
            "name": "userReputation",
            "outputs": [
                {
                    "internalType": "uint256",
                    "name": "",
                    "type": "uint256"
                }
            ],
            "stateMutability": "view",
            "type": "function"
        }
    ],
    "bytecode": "60a080604052346100c257306080525f516020612d045f395f51905f525460ff8160401c166100b3576002600160401b03196001600160401b03821601610060575b604051612c3d90816100c782396080518181816118d601526119a60152f35b6001600160401b0319166001600160401b039081175f516020612d045f395f51905f525581527fc7f505b2f371ae2175ee4913f4499e1f2633a7b5936321eed1cdaeb6115181d290602090a15f80610041565b63f92ee8a960e01b5f5260045ffd5b5f80fdfe6080806040526004361015610012575f80fd5b5f3560e01c9081630ea86ad814611f57575080630f80198814611f1f578063157a7ec714611dc657806322dcd13e14611da95780632c2b97a414611d275780632dfa676814611cff57806340650c9114611cdd5780634571468414611ba757806346c39a1d14611b855780634f1ef2861461192a57806352d1902d146118c4578063539aa77f146105a957806356781388146116ee57806358f8d6ff146116d257806361d027b3146116aa57806363fc152e1461165a578063656cf711146112dc57806369be46bf146112ad578063715018a6146112465780637ee839c4146110f057806384bb19cc1461109b57806386d6cfb314610e425780638da5cb5b14610e0e5780638fda34bf14610dc657806394d95f8f14610da257806398d4c1dd14610d59578063a8c9305714610d3e578063ad3cb1cc14610cf3578063ad5a698214610b71578063b1610d7e14610b54578063b6b3eedf14610afc578063bc5e0f3014610a20578063c0c53b8b146107dc578063c4ce74e014610773578063d3631fa514610756578063d4bf578c14610601578063d9a67220146105e6578063e503bb05146105ae578063ea0e35b1146105a9578063ec6b733f146104c2578063f2fde38b14610497578063f3890e1f1461047a578063f9e9ad391461045d578063fc226bcc1461026d578063fd81593f146102355763ffa1ad7414610216575f80fd5b34610231575f36600319011261023157602060405160018152f35b5f80fd5b34610231576020366003190112610231576001600160a01b03610256611f79565b165f52600f602052602060405f2054604051908152f35b3461023157602036600319011261023157600435610289612238565b80158015610451575b61044257805f52600460205260405f209060ff600883015416600581101561042e5760010361041f57805f52600560205260405f2060018060a01b0333165f5260205260405f20600281019081549360ff8560081c161561041057835f52600960205260405f209060ff60025f93015460181c1680610401575b1561038d57505060015b1561037e57600301925f8454945561ff001916905561033f823360018060a01b035f54166126f5565b6040519182527f7c5e5cb62e5ed3caf3764e4b0afedfedef533e27809d43367799787ad2abcd4160203393a360015f516020612bc85f395f51905f5255005b630c2eba2560e21b5f5260045ffd5b6103aa6103a060ff6003840154166122b4565b600983015461209d565b4211156103b8575b50610316565b60046005820154910154603c810290808204603c14901517156103ed5760649004116103e5575b856103b2565b5060016103df565b634e487b7160e01b5f52601160045260245ffd5b5061040b856120c9565b61030c565b631687e47360e31b5f5260045ffd5b63d883bee960e01b5f5260045ffd5b634e487b7160e01b5f52602160045260245ffd5b632fb08c4f60e11b5f5260045ffd5b50600254811015610292565b34610231575f366003190112610231576020600354604051908152f35b34610231575f366003190112610231576020600254604051908152f35b34610231576020366003190112610231576104c06104b3611f79565b6104bb61231c565b61220b565b005b34610231576020366003190112610231576004358015801561059d575b610442575f81815260046020526040902060018101546001600160a01b0316330361058e5760ff600882015416600581101561042e5760010361041f5760058101546004820154603c810290808204603c14901517156103ed57606490041161057f5780600961055860ff6003610560950154166122b4565b91015461209d565b421115610570576104c0906123a3565b63a217083960e01b5f5260045ffd5b63505768b960e11b5f5260045ffd5b6308f78f9960e31b5f5260045ffd5b506002548110156104df565b612015565b34610231576020366003190112610231576001600160a01b036105cf611f79565b165f52600e602052602060405f2054604051908152f35b34610231575f36600319011261023157602060405160058152f35b346102315760403660031901126102315760043560243567ffffffffffffffff811161023157366023820112156102315780600401359167ffffffffffffffff8311610231576024820191602436918560051b010111610231578015801561074a575b610442575f81815260046020526040902060018101546001600160a01b0316330361058e576008015460ff8160081c16600281101561042e5761073b5760ff16600581101561042e5760010361041f575f5b8381106106bf57005b600190825f52600b60205260405f206106e16106dc8388886121e7565b6121f7565b838060a01b03165f5260205260405f208260ff19825416179055818060a01b0361070f6106dc8388886121e7565b16837f6e32da99952e6892c42b54eec8c835d9a2e0a6c879c0219cc693229e6894175a5f80a3016106b6565b633a46c93160e01b5f5260045ffd5b50600254811015610664565b34610231575f366003190112610231576020601154604051908152f35b34610231576020366003190112610231576004355f52600960205260c060405f2060ff815491600260018201549101549060405193845260208401528181166040840152818160081c166060840152818160101c161515608084015260181c16151560a0820152f35b34610231576060366003190112610231576107f5611f79565b6107fd611f8f565b610805611fa5565b905f516020612be85f395f51905f52549267ffffffffffffffff60ff8560401c1615941680159081610a18575b6001149081610a0e575b159081610a05575b506109f65783600167ffffffffffffffff195f516020612be85f395f51905f525416175f516020612be85f395f51905f52556109c6575b610883612a72565b61088b612a72565b6108948361220b565b61089c612a72565b6108a4612a72565b60015f516020612bc85f395f51905f52556108bd612a72565b6001600160a01b0316801580156109b5575b6109a6575f80546001600160a01b0319908116929092179055600180549091166001600160a01b039283161781556002819055600355601460125581168015159081610984575b50610975575b5061092357005b60ff60401b195f516020612be85f395f51905f5254165f516020612be85f395f51905f52557fc7f505b2f371ae2175ee4913f4499e1f2633a7b5936321eed1cdaeb6115181d2602060405160018152a1005b61097e9061234f565b8161091c565b5f516020612b885f395f51905f52546001600160a01b03161415905083610916565b63cfe2ea6360e01b5f5260045ffd5b506001600160a01b038216156108cf565b600160401b60ff60401b195f516020612be85f395f51905f525416175f516020612be85f395f51905f525561087b565b63f92ee8a960e01b5f5260045ffd5b90501585610844565b303b15915061083c565b859150610832565b34610231576020366003190112610231576004355f52600460205260405f20805460018060a01b0360018301541660028301549260ff6003820154169360048201546005830154600684015460078501549160088601549360ff8086169560081c1699600988015496600b600a8a0154990154996040519b8c5260208c015260408b0152610aad81612030565b60608a0152608089015260a088015260c087015260e0860152600581101561042e57610100850152600285101561042e576101a094610120850152610140840152610160830152610180820152f35b3461023157604036600319011261023157610b15611f79565b6001600160a01b03165f908152600d602052604090208054602435919082101561023157602091610b4591612050565b90549060031b1c604051908152f35b34610231575f3660031901126102315760206040516202a3008152f35b34610231576020366003190112610231576004355f52600c60205260405f2060018060a01b038154166001820191604051925f8154908160011c9260018316928315610ce9575b602085108414610cd5578488528793908115610cb35750600114610c6f575b50610be492500384611fd7565b600281015490600381015490600481015460ff600583015416600683015490600784015492600960ff60088701541695015495610c356040519a8b9a8b5261014060208c01526101408b0190612079565b9760408a015260608901526080880152610c4e81612030565b60a087015260c086015260e085015215156101008401526101208301520390f35b90505f9291925260205f20905f915b818310610c97575050906020610be49282010186610bd7565b6020919350806001915483858a01015201910190918592610c7e565b905060209250610be494915060ff191682840152151560051b82010186610bd7565b634e487b7160e01b5f52602260045260245ffd5b93607f1693610bb8565b34610231575f36600319011261023157610d3a604051610d14604082611fd7565b60058152640352e302e360dc1b6020820152604051918291602083526020830190612079565b0390f35b34610231575f36600319011261023157602060405160648152f35b3461023157604036600319011261023157610d72611f8f565b6004355f52600b60205260405f209060018060a01b03165f52602052602060ff60405f2054166040519015158152f35b34610231575f36600319011261023157602060405169010f0cf064dd592000008152f35b3461023157610dd43661203a565b905f52600660205260405f20805482101561023157602091610df591612050565b905460405160039290921b1c6001600160a01b03168152f35b34610231575f366003190112610231575f516020612b885f395f51905f52546040516001600160a01b039091168152602090f35b3461023157602036600319011261023157600435610e5e612238565b8015801561108f575b61044257805f52600460205260405f20600881015460ff8116600581101561042e5760010361041f576005820191825460048201928354809214611080575f86815260056020908152604080832033845290915290206002015460081c60ff166110725760081c60ff16600281101561042e5715611043575b6002610eed9201546122ee565b5f54610f07908290309033906001600160a01b0316612270565b600460405191610f1683611fbb565b5f835260208301905f8252610f9e604085015f815260608601600181526080870193845260a08701944286528a5f52600560205260405f2060018060a01b0333165f5260205260405f2097518855516001880155610f876002880192511515839060ff801983541691151516179055565b51815461ff00191690151560081b61ff0016179055565b51600384015551910155825f526006602052610fbd3360405f206121a6565b610fc78254612198565b80925533837fa7858a1f19449eeaf5fbe2692047577d00116ecb460791549c018c79e3ce483b5f80a3541461100a575b60015f516020612bc85f395f51905f5255005b611013816123a3565b7faf0f41c2e769faca4f3422a53417b14043b989e8d29fd8aa1f0fb10273d20f1f6020604051428152a280610ff7565b5f858152600b6020908152604080832033845290915290205460ff16610ee05763779a6f4160e01b5f5260045ffd5b621d934160e11b5f5260045ffd5b63f277526560e01b5f5260045ffd5b50600254811015610e67565b34610231576060366003190112610231576110b4611fa5565b6004355f52600760205260405f206024355f5260205260405f209060018060a01b03165f52602052602060ff60405f2054166040519015158152f35b3461023157606036600319011261023157611109611f79565b611111611f8f565b60443560ff8116809103610231575f516020612be85f395f51905f52548160ff8260401c16918215611231575b50506109f6577fc7f505b2f371ae2175ee4913f4499e1f2633a7b5936321eed1cdaeb6115181d2926020928267ffffffffffffffff195f516020612be85f395f51905f525416175f516020612be85f395f51905f525560ff60401b195f516020612be85f395f51905f52541691600160401b83175f516020612be85f395f51905f52556111c961231c565b6001600160a01b03168061121a575b506001600160a01b031680611201575b505f516020612be85f395f51905f5255604051908152a1005b6001600160601b0360a01b6001541617600155846111e8565b6001600160601b0360a01b5f5416175f55856111d8565b67ffffffffffffffff1610159050818561113e565b34610231575f3660031901126102315761125e61231c565b5f516020612b885f395f51905f5280546001600160a01b031981169091555f906001600160a01b03167f8be0079c531659141344cd1fd0a4f28419497f9722a3daafe3b4186f6b6457e08280a3005b34610231576112bb3661203a565b905f52600860205260405f20905f52602052602060405f2054604051908152f35b34610231576080366003190112610231576112f5612238565b331561164b57600435670de0b6b3a764000081108015611638575b6116295760443560058110801561161f575b611610576002549061133382612198565b60025561134081846122ee565b60643593600285101561023157600185146115c1575b5f54611370908390309033906001600160a01b0316612270565b602435916003831015610231576040516101a0810181811067ffffffffffffffff8211176115ad57604052858152856020820197338952604083019685885260608401966113bd81612030565b87526080840181815260a085016001815260c08601915f835260e0870193845261010087019960018b52610120880195865261014088019b428d5261016089019e8f5f90526101808a01985f8a525f52600460205260405f2099518a5560018a0190600160a01b600190039051166001600160601b0360a01b82541617905551600289015560038801905161145181612030565b61145a81612030565b60ff198254169060ff16179055516004870155516005860155516006850155516007840155600883019551600581101561042e5760ff801988541691161786555190600282101561042e576020987f83b945859e19f480c406ac4e6ac635d422aad2665c1d65da9419b81d51ba61a8976114d8600b946060996120aa565b51600985015551600a840155519101556004604051916114f783611fbb565b5f8352878301905f8252611564604085015f8152878601600181526080870193845260a08701944286528b5f5260058d5260405f2060018060a01b0333165f528d5260405f2097518855516001880155610f876002880192511515839060ff801983541691151516179055565b51600384015551910155835f52600685526115823360405f206121a6565b6040519084825233868301526040820152a160015f516020612bc85f395f51905f5255604051908152f35b634e487b7160e01b5f52604160045260245ffd5b6706f05b59d3b20000820182116103ed576011546706f05b59d3b200008101106103ed5733847f46fc58301c2ea9f88a47be840edd44559d82b3c0a69ed37ac62f63b313540b615f80a3611356565b63027ee80d60e51b5f5260045ffd5b5060148111611322565b631717aceb60e31b5f5260045ffd5b5069010f0cf064dd592000008111611310565b6302154e0360e21b5f5260045ffd5b3461023157604036600319011261023157611673611f8f565b6004355f52600a60205260405f209060018060a01b03165f52602052602060ff60405f205416604051906116a681612030565b8152f35b34610231575f366003190112610231576001546040516001600160a01b039091168152602090f35b34610231575f3660031901126102315760206040516113ec8152f35b3461023157604036600319011261023157602435600435600382101561023157801580156118b8575b6104425761172482612030565b81156118a957805f52600460205260ff600860405f20015416600581101561042e5760020361189a575f81815260056020908152604080832033845290915290206002015460081c60ff161561041057805f52600960205260405f20600281019060ff825460101c161561189a5760010154421161188b575f828152600a6020908152604080832033845290915290205460ff166117c181612030565b61187c575f828152600a6020908152604080832033845290915290206117e684612030565b60ff1981541660ff85161790556117fc83612030565b600183036118545760ff61181281835416612187565b1660ff198254161790555b6040519161182a81612030565b82527feba4866100b822f0f391e610e7edfab790b9e8766c0012733c26b2f1858e8dd760203393a3005b61186460ff825460081c16612187565b61ff0082549160081b169061ff00191617905561181d565b637c9a1cf960e01b5f5260045ffd5b63370ec37160e21b5f5260045ffd5b639b8cc47560e01b5f5260045ffd5b6364a2c03160e11b5f5260045ffd5b50600254811015611717565b34610231575f366003190112610231577f00000000000000000000000000000000000000000000000000000000000000006001600160a01b0316300361191b5760206040515f516020612ba85f395f51905f528152f35b63703e46dd60e11b5f5260045ffd5b60403660031901126102315761193e611f79565b6024359067ffffffffffffffff821161023157366023830112156102315781600401359061196b82611ff9565b916119796040519384611fd7565b8083526020830193366024838301011161023157815f926024602093018737840101526001600160a01b037f000000000000000000000000000000000000000000000000000000000000000016308114908115611b63575b5061191b576119de61231c565b60018060a01b03811692837f8c26ec1c89a900331babb88eefa754f9b9ed370abe61944d6874e37612764c3f602060405160018152a26040516352d1902d60e01b8152602081600481885afa5f9181611b2f575b50611a4a5784634c9c8ce360e01b5f5260045260245ffd5b805f516020612ba85f395f51905f52869203611b1d5750823b15611b0b575f516020612ba85f395f51905f5280546001600160a01b031916821790557fbc7cd75a20ee27fd9adebab32041f755214dbc6bffa90cc0225b39da2e5c2d3b5f80a2825115611af2575f80916104c0945190845af43d15611aea573d91611ace83611ff9565b92611adc6040519485611fd7565b83523d5f602085013e612b29565b606091612b29565b50505034611afc57005b63b398979f60e01b5f5260045ffd5b634c9c8ce360e01b5f5260045260245ffd5b632a87526960e21b5f5260045260245ffd5b9091506020813d602011611b5b575b81611b4b60209383611fd7565b8101031261023157519086611a32565b3d9150611b3e565b5f516020612ba85f395f51905f52546001600160a01b031614159050846119d1565b34610231575f3660031901126102315760206040516706f05b59d3b200008152f35b346102315760203660031901126102315760043580158015611cd1575b61044257805f52600460205260405f20600881019060ff825416600581101561042e5760010361041f5760058101546004820154603c810290808204603c14901517156103ed57606490041161057f5780600961055860ff6003611c2a950154166122b4565b42101561057057815f52600960205260405f209060028201805460ff8160101c16611cc25760181c60ff16611cb3574283556202a3004201928342116103ed57600101928355805463ffffffff191662010000179055805460ff1916600217905554907ff4e39a27c6c29179b6afb3a070360307cdbda13933023287f5ca10a69b3628e25f80a3005b63f792f8f960e01b5f5260045ffd5b633483eb6360e01b5f5260045ffd5b50600254811015611bc4565b34610231575f366003190112610231576020604051670de0b6b3a76400008152f35b34610231576020366003190112610231576020611d1d6004356120c9565b6040519015158152f35b3461023157604036600319011261023157611d40611f8f565b6004355f52600560205260405f209060018060a01b03165f5260205260c060405f2080549060018101549060ff6002820154600460038401549301549360405195865260208601528181161515604086015260081c1615156060840152608083015260a0820152f35b34610231575f366003190112610231576020601254604051908152f35b3461023157604036600319011261023157600435602435600281101561023157611dee612238565b81158015611f13575b610442575f82815260046020526040902060018101546001600160a01b0316330361058e5760080190815460ff8116600581101561042e57600103611f045760081c60ff16600281101561042e578114611ef5575f546040516323b872dd60e01b60208201523360248201523060448201526706f05b59d3b200006064808301919091528152611e9a916001600160a01b0316611e95608483611fd7565b612730565b601154916706f05b59d3b2000083018093116103ed57611ebc926011556120aa565b33907f46fc58301c2ea9f88a47be840edd44559d82b3c0a69ed37ac62f63b313540b615f80a360015f516020612bc85f395f51905f5255005b63051a3ed560e11b5f5260045ffd5b63a407615b60e01b5f5260045ffd5b50600254821015611df7565b34610231576020366003190112610231576001600160a01b03611f40611f79565b165f526010602052602060405f2054604051908152f35b34610231575f366003190112610231575f546001600160a01b03168152602090f35b600435906001600160a01b038216820361023157565b602435906001600160a01b038216820361023157565b604435906001600160a01b038216820361023157565b60c0810190811067ffffffffffffffff8211176115ad57604052565b90601f8019910116810190811067ffffffffffffffff8211176115ad57604052565b67ffffffffffffffff81116115ad57601f01601f191660200190565b34610231575f36600319011261023157602060405160148152f35b6003111561042e57565b6040906003190112610231576004359060243590565b8054821015612065575f5260205f2001905f90565b634e487b7160e01b5f52603260045260245ffd5b805180835260209291819084018484015e5f828201840152601f01601f1916010190565b919082018092116103ed57565b90600281101561042e5761ff0082549160081b169061ff001916179055565b805f52600460205260405f20905f526009602052600260405f2001549060ff8260181c161561216e576008015460ff16600581101561042e576003146121695760ff8082169160081c16810160ff81116103ed5760ff16908115908161216057612710029061ffff82169182036103ed5761214c576113ec9161ffff9104161090565b634e487b7160e01b5f52601260045260245ffd5b50600192915050565b505f90565b50505f90565b818102929181159184041417156103ed57565b60ff1660ff81146103ed5760010190565b5f1981146103ed5760010190565b8054600160401b8110156115ad576121c391600182018155612050565b81546001600160a01b0393841660039290921b91821b9390911b1916919091179055565b91908110156120655760051b0190565b356001600160a01b03811681036102315790565b6001600160a01b03811615612225576122239061234f565b565b631e4fbdf760e01b5f525f60045260245ffd5b60025f516020612bc85f395f51905f5254146122615760025f516020612bc85f395f51905f5255565b633ee5aeb560e01b5f5260045ffd5b6040516323b872dd60e01b60208201526001600160a01b03928316602482015292909116604483015260648083019390935291815261222391611e95608483611fd7565b6122bd81612030565b80159081156122da575b506122d3576212750090565b62093a8090565b600191506122e781612030565b145f6122c7565b906122f891612174565b6064810290808204606414811517156103ed5761271061231992049061209d565b90565b5f516020612b885f395f51905f52546001600160a01b0316330361233c57565b63118cdaa760e01b5f523360045260245ffd5b5f516020612b885f395f51905f5280546001600160a01b039283166001600160a01b0319821681179092559091167f8be0079c531659141344cd1fd0a4f28419497f9722a3daafe3b4186f6b6457e05f80a3565b5f8181526004602090815260408083206006835281842060058452828520600180840180546001600160a01b03908116895292875296859020819055955493519586529196959492909116929091839185917ffc79da6c5316f4c3a2841a4a8ee84045b0cda7f9c0b91deec048b7f26d4293cf9190a38054915f198301918383116103ed5761243183612793565b9361243f6040519586611fd7565b838552601f1961244e85612793565b0136602087013761245e84612793565b9261246c6040519485611fd7565b848452601f1961247b86612793565b013660208601375f905f5b83811061261c5750505050505f5b8281106125aa5750505f5b818110612523575050506124db836008612223949501600360ff1982541617905542600a8201556001600682015560ff600342920154166127bf565b815f52600860205260405f2060015f5260205260405f2055807faf0f41c2e769faca4f3422a53417b14043b989e8d29fd8aa1f0fb10273d20f1f6020604051428152a2612810565b60028101908181116103ed575f858152600560205260409020600192906001600160a01b0361255284886127ab565b5116848060a01b03165f526020528060405f2055857ffc79da6c5316f4c3a2841a4a8ee84045b0cda7f9c0b91deec048b7f26d4293cf6020858060a01b0361259a868a6127ab565b511693604051908152a30161249f565b600181018082116103ed575b8381106125c65750600101612494565b806125d3600192856127ab565b516125de84866127ab565b51106125eb575b016125b6565b6125f583856127ab565b5161260082866127ab565b5161260b85876127ab565b5261261682866127ab565b526125e5565b816126278287612050565b905460039190911b1c6001600160a01b031603612647575b600101612486565b916126528386612050565b905460039190911b1c6001600160a01b031661266e828a6127ab565b526126798386612050565b60018060a01b0391549060031b1c165f52600e60205260405f20549061269f8487612050565b60018060a01b0391549060031b1c165f52600f60205260405f205490600a820291808304600a14901517156103ed576126dd6126ed9260019461209d565b6126e7828a6127ab565b52612198565b92905061263f565b60405163a9059cbb60e01b60208201526001600160a01b03909216602483015260448083019390935291815261222391611e95606483611fd7565b905f602091828151910182855af115612788575f513d61277f57506001600160a01b0381163b155b61275f5750565b635274afe760e01b5f9081526001600160a01b0391909116600452602490fd5b60011415612758565b6040513d5f823e3d90fd5b67ffffffffffffffff81116115ad5760051b60200190565b80518210156120655760209160051b010190565b6127c881612030565b80156127ff576001906127da81612030565b146127ef5762278d0081018091116103ed5790565b62093a8081018091116103ed5790565b506201518081018091116103ed5790565b805f52600460205260405f20612827600183612a9d565b6001600160a01b038116908115612a6c57835f52600560205260405f20825f52602052600260405f20019060ff825416612a6557600b84018054600186015490939084906001600160a01b03168603612a28575b5f8054909461289392916001600160a01b03166126f5565b600160ff1982541617905555815f52600e60205260405f20908154600581018091116103ed57602086927f52e998e38a9505deab1cc0e4a47bdd8426a6fde45f6693db2fd122e537fcf22b9260019555855f52600f825260405f206128f88154612198565b9055604051908152a46007810154600110156129415760ff6003612927926002600682015501541642906127bf565b905f52600860205260405f2060015f5260205260405f2055565b600801600460ff19825416179055805f52600660205260405f205f5b8154811015612a0057600190835f52600560205260405f2061297f8285612050565b848060a01b0391549060031b1c16838060a01b03165f5260205260405f2060ff600282015460081c16806129f3575b6129ba575b500161295d565b60036129ed91015f81549155838060a01b035f54166129d98487612050565b868060a01b0391549060031b1c16906126f5565b5f6129b3565b50600381015415156129ae565b50507ffccd3901546cfbb42742cac2c7335bce34f1f8d9844f4f4b53640f79e31010875f80a2565b50612710612a3860125486612174565b04938481039081116103ed57612a59945f946128939296879260115461209d565b6011559450905061287b565b5050505050565b50505050565b60ff5f516020612be85f395f51905f525460401c1615612a8e57565b631afcd79f60e31b5f5260045ffd5b90815f52600660205260405f20905f928254935b848110612ac15750505050505f90565b815f52600560205260405f20612ad78286612050565b905460039190911b1c6001600160a01b03165f90815260209190915260409020548314612b0657600101612ab1565b92915050612b149250612050565b905460039190911b1c6001600160a01b031690565b90612b4d5750805115612b3e57602081519101fd5b63d6bda27560e01b5f5260045ffd5b81511580612b7e575b612b5e575090565b639996b31560e01b5f9081526001600160a01b0391909116600452602490fd5b50803b15612b5656fe9016d09d72d40fdae2fd8ceac6b6234c7706214fd39c1cd1e609a0528c199300360894a13ba1a3210667c828492db98dca3e2076cc3735a920a3ca505d382bbc9b779b17422d0df92223018b32b4d1fa46e071723d6817e2486d003becc55f00f0c57e16840df040f15088dc2f81fe391c3923bec73e23a9662efc9c229c6a00a2646970667358221220329401ae31b30a43ae0d775a267a4e5f0f160876fa8368558e90cafb04790d6c64736f6c634300081e0033f0c57e16840df040f15088dc2f81fe391c3923bec73e23a9662efc9c229c6a00",
    "sourcePath": "/home/isiaq/workspace/CirclePot/smart-contract/src/CirclePotV1.sol",
    "compiler": {
        "name": "solc",
        "version": "0.8.30+commit.73712a01"
    },
    "functionHashes": {
        "LATE_FEE_BPS()": "a8c93057",
        "MAX_CONTRIBUTION()": "94d95f8f",
        "MAX_MEMBERS()": "ea0e35b1",
        "MIN_CONTRIBUTION()": "40650c91",
        "MIN_MEMBERS()": "d9a67220",
        "PLATFORM_FEE_BPS()": "539aa77f",
        "START_VOTE_THRESHOLD()": "58f8d6ff",
        "UPGRADE_INTERFACE_VERSION()": "ad3cb1cc",
        "VERSION()": "ffa1ad74",
        "VISIBILITY_UPDATE_FEE()": "46c39a1d",
        "VOTING_PERIOD()": "b1610d7e",
        "WithdrawCollateral(uint256)": "fc226bcc",
        "cUSDToken()": "0ea86ad8",
        "canWithdrawAfterVote(uint256)": "2dfa6768",
        "castVote(uint256,uint8)": "56781388",
        "circleCounter()": "f3890e1f",
        "circleInvitations(uint256,address)": "98d4c1dd",
        "circleMemberList(uint256,uint256)": "8fda34bf",
        "circleMembers(uint256,address)": "2c2b97a4",
        "circleRoundDeadlines(uint256,uint256)": "69be46bf",
        "circleVotes(uint256)": "c4ce74e0",
        "circles(uint256)": "bc5e0f30",
        "completedCircles(address)": "fd81593f",
        "createCircle((uint256,uint8,uint256,uint8))": "656cf711",
        "goalCounter()": "f9e9ad39",
        "initialize(address,address,address)": "c0c53b8b",
        "initiateVoting(uint256)": "45714684",
        "inviteMembers(uint256,address[])": "d4bf578c",
        "joinCircle(uint256)": "86d6cfb3",
        "latePayments(address)": "0f801988",
        "memberVotes(uint256,address)": "63fc152e",
        "owner()": "8da5cb5b",
        "personalGoals(uint256)": "ad5a6982",
        "platformFeeBps()": "22dcd13e",
        "proxiableUUID()": "52d1902d",
        "renounceOwnership()": "715018a6",
        "roundContributions(uint256,uint256,address)": "84bb19cc",
        "startCircle(uint256)": "ec6b733f",
        "totalPlatformFees()": "d3631fa5",
        "transferOwnership(address)": "f2fde38b",
        "treasury()": "61d027b3",
        "updateCircleVisibility(uint256,uint8)": "157a7ec7",
        "upgrade(address,address,uint8)": "7ee839c4",
        "upgradeToAndCall(address,bytes)": "4f1ef286",
        "userGoals(address,uint256)": "b6b3eedf",
        "userReputation(address)": "e503bb05"
    },
    "gasEstimates": {
        "creation": {
            "codeDepositCost": "2265000",
            "executionCost": "infinite",
            "totalCost": "infinite"
        },
        "external": {
            "LATE_FEE_BPS()": "725",
            "MAX_CONTRIBUTION()": "681",
            "MAX_MEMBERS()": "1001",
            "MIN_CONTRIBUTION()": "285",
            "MIN_MEMBERS()": "945",
            "PLATFORM_FEE_BPS()": "407",
            "START_VOTE_THRESHOLD()": "439",
            "UPGRADE_INTERFACE_VERSION()": "1038",
            "VERSION()": "1140",
            "VISIBILITY_UPDATE_FEE()": "329",
            "VOTING_PERIOD()": "791",
            "WithdrawCollateral(uint256)": "infinite",
            "cUSDToken()": "2265",
            "canWithdrawAfterVote(uint256)": "4891",
            "castVote(uint256,uint8)": "infinite",
            "circleCounter()": "3158",
            "circleInvitations(uint256,address)": "3035",
            "circleMemberList(uint256,uint256)": "7242",
            "circleMembers(uint256,address)": "11117",
            "circleRoundDeadlines(uint256,uint256)": "2798",
            "circleVotes(uint256)": "7412",
            "circles(uint256)": "26556",
            "completedCircles(address)": "3374",
            "createCircle((uint256,uint8,uint256,uint8))": "infinite",
            "goalCounter()": "3180",
            "initialize(address,address,address)": "infinite",
            "initiateVoting(uint256)": "infinite",
            "inviteMembers(uint256,address[])": "infinite",
            "joinCircle(uint256)": "infinite",
            "latePayments(address)": "2428",
            "memberVotes(uint256,address)": "2866",
            "owner()": "infinite",
            "personalGoals(uint256)": "infinite",
            "platformFeeBps()": "2322",
            "proxiableUUID()": "infinite",
            "renounceOwnership()": "28514",
            "roundContributions(uint256,uint256,address)": "2989",
            "startCircle(uint256)": "infinite",
            "totalPlatformFees()": "3004",
            "transferOwnership(address)": "29175",
            "treasury()": "2588",
            "updateCircleVisibility(uint256,uint8)": "infinite",
            "upgrade(address,address,uint8)": "infinite",
            "upgradeToAndCall(address,bytes)": "infinite",
            "userGoals(address,uint256)": "7437",
            "userReputation(address)": "3220"
        },
        "internal": {
            "_assignPosition(uint256)": "infinite",
            "_authorizeUpgrade(address)": "infinite",
            "_calcCollateral(uint256,uint256)": "241",
            "_getByPos(uint256,uint256)": "infinite",
            "_nextDeadline(enum CirclePotV1.Frequency,uint256)": "infinite",
            "_payoutRound(uint256,uint256)": "infinite",
            "_progressNextRound(struct CirclePotV1.Circle storage pointer,uint256,uint256)": "infinite",
            "_releaseAllCollateral(uint256)": "infinite",
            "_startCircleInternal(uint256)": "infinite",
            "_ultimatum(enum CirclePotV1.Frequency)": "infinite"
        }
    }
}