{
    "contractName": "CirclePotV1",
    "abi": [
        {
            "inputs": [],
            "stateMutability": "nonpayable",
            "type": "constructor"
        },
        {
            "inputs": [
                {
                    "internalType": "address",
                    "name": "target",
                    "type": "address"
                }
            ],
            "name": "AddressEmptyCode",
            "type": "error"
        },
        {
            "inputs": [],
            "name": "AddressZeroNotAllowed",
            "type": "error"
        },
        {
            "inputs": [],
            "name": "AlreadyJoined",
            "type": "error"
        },
        {
            "inputs": [],
            "name": "AlreadyVoted",
            "type": "error"
        },
        {
            "inputs": [],
            "name": "CircleFull",
            "type": "error"
        },
        {
            "inputs": [],
            "name": "CircleNotActive",
            "type": "error"
        },
        {
            "inputs": [],
            "name": "CircleNotExist",
            "type": "error"
        },
        {
            "inputs": [],
            "name": "CircleNotOpen",
            "type": "error"
        },
        {
            "inputs": [],
            "name": "CircleNotPrivate",
            "type": "error"
        },
        {
            "inputs": [
                {
                    "internalType": "address",
                    "name": "implementation",
                    "type": "address"
                }
            ],
            "name": "ERC1967InvalidImplementation",
            "type": "error"
        },
        {
            "inputs": [],
            "name": "ERC1967NonPayable",
            "type": "error"
        },
        {
            "inputs": [],
            "name": "FailedCall",
            "type": "error"
        },
        {
            "inputs": [],
            "name": "InvalidCircle",
            "type": "error"
        },
        {
            "inputs": [],
            "name": "InvalidContributionAmount",
            "type": "error"
        },
        {
            "inputs": [],
            "name": "InvalidInitialization",
            "type": "error"
        },
        {
            "inputs": [],
            "name": "InvalidMemberCount",
            "type": "error"
        },
        {
            "inputs": [],
            "name": "InvalidTreasuryAddress",
            "type": "error"
        },
        {
            "inputs": [],
            "name": "InvalidVoteChoice",
            "type": "error"
        },
        {
            "inputs": [],
            "name": "MinMembersNotReached",
            "type": "error"
        },
        {
            "inputs": [],
            "name": "NotActiveMember",
            "type": "error"
        },
        {
            "inputs": [],
            "name": "NotInitializing",
            "type": "error"
        },
        {
            "inputs": [],
            "name": "NotInvited",
            "type": "error"
        },
        {
            "inputs": [],
            "name": "OnlyCreator",
            "type": "error"
        },
        {
            "inputs": [
                {
                    "internalType": "address",
                    "name": "owner",
                    "type": "address"
                }
            ],
            "name": "OwnableInvalidOwner",
            "type": "error"
        },
        {
            "inputs": [
                {
                    "internalType": "address",
                    "name": "account",
                    "type": "address"
                }
            ],
            "name": "OwnableUnauthorizedAccount",
            "type": "error"
        },
        {
            "inputs": [],
            "name": "ReentrancyGuardReentrantCall",
            "type": "error"
        },
        {
            "inputs": [
                {
                    "internalType": "address",
                    "name": "token",
                    "type": "address"
                }
            ],
            "name": "SafeERC20FailedOperation",
            "type": "error"
        },
        {
            "inputs": [],
            "name": "SameVisibility",
            "type": "error"
        },
        {
            "inputs": [],
            "name": "UUPSUnauthorizedCallContext",
            "type": "error"
        },
        {
            "inputs": [
                {
                    "internalType": "bytes32",
                    "name": "slot",
                    "type": "bytes32"
                }
            ],
            "name": "UUPSUnsupportedProxiableUUID",
            "type": "error"
        },
        {
            "inputs": [],
            "name": "UltimatumNotPassed",
            "type": "error"
        },
        {
            "inputs": [],
            "name": "UltimatumNotReached",
            "type": "error"
        },
        {
            "inputs": [],
            "name": "VoteAlreadyExecuted",
            "type": "error"
        },
        {
            "inputs": [],
            "name": "VotingAlreadyExecuted",
            "type": "error"
        },
        {
            "inputs": [],
            "name": "VotingNotActive",
            "type": "error"
        },
        {
            "inputs": [],
            "name": "VotingPeriodEnded",
            "type": "error"
        },
        {
            "inputs": [],
            "name": "VotingStillActive",
            "type": "error"
        },
        {
            "anonymous": false,
            "inputs": [
                {
                    "indexed": true,
                    "internalType": "uint256",
                    "name": "circleId",
                    "type": "uint256"
                }
            ],
            "name": "CircleCompleted",
            "type": "event"
        },
        {
            "anonymous": false,
            "inputs": [
                {
                    "indexed": false,
                    "internalType": "uint256",
                    "name": "circleId",
                    "type": "uint256"
                },
                {
                    "indexed": false,
                    "internalType": "address",
                    "name": "creator",
                    "type": "address"
                },
                {
                    "indexed": false,
                    "internalType": "uint256",
                    "name": "contributionAmount",
                    "type": "uint256"
                }
            ],
            "name": "CircleCreated",
            "type": "event"
        },
        {
            "anonymous": false,
            "inputs": [
                {
                    "indexed": true,
                    "internalType": "uint256",
                    "name": "circleId",
                    "type": "uint256"
                },
                {
                    "indexed": true,
                    "internalType": "address",
                    "name": "member",
                    "type": "address"
                }
            ],
            "name": "CircleJoined",
            "type": "event"
        },
        {
            "anonymous": false,
            "inputs": [
                {
                    "indexed": true,
                    "internalType": "uint256",
                    "name": "circleId",
                    "type": "uint256"
                },
                {
                    "indexed": false,
                    "internalType": "uint256",
                    "name": "startedAt",
                    "type": "uint256"
                }
            ],
            "name": "CircleStarted",
            "type": "event"
        },
        {
            "anonymous": false,
            "inputs": [
                {
                    "indexed": true,
                    "internalType": "uint256",
                    "name": "circleId",
                    "type": "uint256"
                },
                {
                    "indexed": true,
                    "internalType": "address",
                    "name": "member",
                    "type": "address"
                },
                {
                    "indexed": false,
                    "internalType": "uint256",
                    "name": "amount",
                    "type": "uint256"
                }
            ],
            "name": "CollateralWithdrawn",
            "type": "event"
        },
        {
            "anonymous": false,
            "inputs": [
                {
                    "indexed": true,
                    "internalType": "address",
                    "name": "newImplementation",
                    "type": "address"
                },
                {
                    "indexed": false,
                    "internalType": "uint8",
                    "name": "version",
                    "type": "uint8"
                }
            ],
            "name": "ContractUpgraded",
            "type": "event"
        },
        {
            "anonymous": false,
            "inputs": [
                {
                    "indexed": false,
                    "internalType": "uint64",
                    "name": "version",
                    "type": "uint64"
                }
            ],
            "name": "Initialized",
            "type": "event"
        },
        {
            "anonymous": false,
            "inputs": [
                {
                    "indexed": true,
                    "internalType": "uint256",
                    "name": "circleId",
                    "type": "uint256"
                },
                {
                    "indexed": true,
                    "internalType": "address",
                    "name": "_invitee",
                    "type": "address"
                }
            ],
            "name": "MemberInvited",
            "type": "event"
        },
        {
            "anonymous": false,
            "inputs": [
                {
                    "indexed": true,
                    "internalType": "address",
                    "name": "previousOwner",
                    "type": "address"
                },
                {
                    "indexed": true,
                    "internalType": "address",
                    "name": "newOwner",
                    "type": "address"
                }
            ],
            "name": "OwnershipTransferred",
            "type": "event"
        },
        {
            "anonymous": false,
            "inputs": [
                {
                    "indexed": true,
                    "internalType": "uint256",
                    "name": "circleId",
                    "type": "uint256"
                },
                {
                    "indexed": true,
                    "internalType": "uint256",
                    "name": "round",
                    "type": "uint256"
                },
                {
                    "indexed": true,
                    "internalType": "address",
                    "name": "recipient",
                    "type": "address"
                },
                {
                    "indexed": false,
                    "internalType": "uint256",
                    "name": "amount",
                    "type": "uint256"
                }
            ],
            "name": "PayoutDistributed",
            "type": "event"
        },
        {
            "anonymous": false,
            "inputs": [
                {
                    "indexed": true,
                    "internalType": "uint256",
                    "name": "circledId",
                    "type": "uint256"
                },
                {
                    "indexed": true,
                    "internalType": "address",
                    "name": "member",
                    "type": "address"
                },
                {
                    "indexed": false,
                    "internalType": "uint256",
                    "name": "position",
                    "type": "uint256"
                }
            ],
            "name": "PositionAssigned",
            "type": "event"
        },
        {
            "anonymous": false,
            "inputs": [
                {
                    "indexed": true,
                    "internalType": "address",
                    "name": "implementation",
                    "type": "address"
                }
            ],
            "name": "Upgraded",
            "type": "event"
        },
        {
            "anonymous": false,
            "inputs": [
                {
                    "indexed": true,
                    "internalType": "uint256",
                    "name": "circleId",
                    "type": "uint256"
                },
                {
                    "indexed": true,
                    "internalType": "address",
                    "name": "creator",
                    "type": "address"
                }
            ],
            "name": "VisibilityUpdated",
            "type": "event"
        },
        {
            "anonymous": false,
            "inputs": [
                {
                    "indexed": true,
                    "internalType": "uint256",
                    "name": "circleId",
                    "type": "uint256"
                },
                {
                    "indexed": true,
                    "internalType": "address",
                    "name": "voter",
                    "type": "address"
                },
                {
                    "indexed": false,
                    "internalType": "enum CirclePotV1.VoteChoice",
                    "name": "choice",
                    "type": "uint8"
                }
            ],
            "name": "VoteCast",
            "type": "event"
        },
        {
            "anonymous": false,
            "inputs": [
                {
                    "indexed": true,
                    "internalType": "uint256",
                    "name": "circleId",
                    "type": "uint256"
                },
                {
                    "indexed": false,
                    "internalType": "bool",
                    "name": "circleStarted",
                    "type": "bool"
                },
                {
                    "indexed": false,
                    "internalType": "uint256",
                    "name": "startVoteCount",
                    "type": "uint256"
                },
                {
                    "indexed": false,
                    "internalType": "uint256",
                    "name": "withdrawVoteCount",
                    "type": "uint256"
                }
            ],
            "name": "VoteExecuted",
            "type": "event"
        },
        {
            "anonymous": false,
            "inputs": [
                {
                    "indexed": true,
                    "internalType": "uint256",
                    "name": "circleId",
                    "type": "uint256"
                },
                {
                    "indexed": true,
                    "internalType": "uint256",
                    "name": "votingEndTime",
                    "type": "uint256"
                }
            ],
            "name": "VotingInitiated",
            "type": "event"
        },
        {
            "inputs": [],
            "name": "LATE_FEE_BPS",
            "outputs": [
                {
                    "internalType": "uint256",
                    "name": "",
                    "type": "uint256"
                }
            ],
            "stateMutability": "view",
            "type": "function"
        },
        {
            "inputs": [],
            "name": "MAX_CONTRIBUTION",
            "outputs": [
                {
                    "internalType": "uint256",
                    "name": "",
                    "type": "uint256"
                }
            ],
            "stateMutability": "view",
            "type": "function"
        },
        {
            "inputs": [],
            "name": "MAX_MEMBERS",
            "outputs": [
                {
                    "internalType": "uint8",
                    "name": "",
                    "type": "uint8"
                }
            ],
            "stateMutability": "view",
            "type": "function"
        },
        {
            "inputs": [],
            "name": "MIN_CONTRIBUTION",
            "outputs": [
                {
                    "internalType": "uint256",
                    "name": "",
                    "type": "uint256"
                }
            ],
            "stateMutability": "view",
            "type": "function"
        },
        {
            "inputs": [],
            "name": "MIN_MEMBERS",
            "outputs": [
                {
                    "internalType": "uint8",
                    "name": "",
                    "type": "uint8"
                }
            ],
            "stateMutability": "view",
            "type": "function"
        },
        {
            "inputs": [],
            "name": "PLATFORM_FEE_BPS",
            "outputs": [
                {
                    "internalType": "uint256",
                    "name": "",
                    "type": "uint256"
                }
            ],
            "stateMutability": "view",
            "type": "function"
        },
        {
            "inputs": [],
            "name": "START_VOTE_THRESHOLD",
            "outputs": [
                {
                    "internalType": "uint256",
                    "name": "",
                    "type": "uint256"
                }
            ],
            "stateMutability": "view",
            "type": "function"
        },
        {
            "inputs": [],
            "name": "UPGRADE_INTERFACE_VERSION",
            "outputs": [
                {
                    "internalType": "string",
                    "name": "",
                    "type": "string"
                }
            ],
            "stateMutability": "view",
            "type": "function"
        },
        {
            "inputs": [],
            "name": "VERSION",
            "outputs": [
                {
                    "internalType": "uint8",
                    "name": "",
                    "type": "uint8"
                }
            ],
            "stateMutability": "view",
            "type": "function"
        },
        {
            "inputs": [],
            "name": "VISIBILITY_UPDATE_FEE",
            "outputs": [
                {
                    "internalType": "uint256",
                    "name": "",
                    "type": "uint256"
                }
            ],
            "stateMutability": "view",
            "type": "function"
        },
        {
            "inputs": [],
            "name": "VOTING_PERIOD",
            "outputs": [
                {
                    "internalType": "uint256",
                    "name": "",
                    "type": "uint256"
                }
            ],
            "stateMutability": "view",
            "type": "function"
        },
        {
            "inputs": [
                {
                    "internalType": "uint256",
                    "name": "_circleId",
                    "type": "uint256"
                }
            ],
            "name": "WithdrawCollateral",
            "outputs": [],
            "stateMutability": "nonpayable",
            "type": "function"
        },
        {
            "inputs": [],
            "name": "cUSDToken",
            "outputs": [
                {
                    "internalType": "address",
                    "name": "",
                    "type": "address"
                }
            ],
            "stateMutability": "view",
            "type": "function"
        },
        {
            "inputs": [
                {
                    "internalType": "uint256",
                    "name": "_circleId",
                    "type": "uint256"
                }
            ],
            "name": "canWithdrawAfterVote",
            "outputs": [
                {
                    "internalType": "bool",
                    "name": "",
                    "type": "bool"
                }
            ],
            "stateMutability": "view",
            "type": "function"
        },
        {
            "inputs": [
                {
                    "internalType": "uint256",
                    "name": "_circleId",
                    "type": "uint256"
                },
                {
                    "internalType": "enum CirclePotV1.VoteChoice",
                    "name": "_choice",
                    "type": "uint8"
                }
            ],
            "name": "castVote",
            "outputs": [],
            "stateMutability": "nonpayable",
            "type": "function"
        },
        {
            "inputs": [],
            "name": "circleCounter",
            "outputs": [
                {
                    "internalType": "uint256",
                    "name": "",
                    "type": "uint256"
                }
            ],
            "stateMutability": "view",
            "type": "function"
        },
        {
            "inputs": [
                {
                    "internalType": "uint256",
                    "name": "",
                    "type": "uint256"
                },
                {
                    "internalType": "address",
                    "name": "",
                    "type": "address"
                }
            ],
            "name": "circleInvitations",
            "outputs": [
                {
                    "internalType": "bool",
                    "name": "",
                    "type": "bool"
                }
            ],
            "stateMutability": "view",
            "type": "function"
        },
        {
            "inputs": [
                {
                    "internalType": "uint256",
                    "name": "",
                    "type": "uint256"
                },
                {
                    "internalType": "uint256",
                    "name": "",
                    "type": "uint256"
                }
            ],
            "name": "circleMemberList",
            "outputs": [
                {
                    "internalType": "address",
                    "name": "",
                    "type": "address"
                }
            ],
            "stateMutability": "view",
            "type": "function"
        },
        {
            "inputs": [
                {
                    "internalType": "uint256",
                    "name": "",
                    "type": "uint256"
                },
                {
                    "internalType": "address",
                    "name": "",
                    "type": "address"
                }
            ],
            "name": "circleMembers",
            "outputs": [
                {
                    "internalType": "uint8",
                    "name": "position",
                    "type": "uint8"
                },
                {
                    "internalType": "uint256",
                    "name": "totalContributed",
                    "type": "uint256"
                },
                {
                    "internalType": "bool",
                    "name": "hasReceivedPayout",
                    "type": "bool"
                },
                {
                    "internalType": "bool",
                    "name": "isActive",
                    "type": "bool"
                },
                {
                    "internalType": "uint256",
                    "name": "collateralLocked",
                    "type": "uint256"
                },
                {
                    "internalType": "uint256",
                    "name": "joinedAt",
                    "type": "uint256"
                }
            ],
            "stateMutability": "view",
            "type": "function"
        },
        {
            "inputs": [
                {
                    "internalType": "uint256",
                    "name": "",
                    "type": "uint256"
                },
                {
                    "internalType": "uint256",
                    "name": "",
                    "type": "uint256"
                }
            ],
            "name": "circleRoundDeadlines",
            "outputs": [
                {
                    "internalType": "uint256",
                    "name": "",
                    "type": "uint256"
                }
            ],
            "stateMutability": "view",
            "type": "function"
        },
        {
            "inputs": [
                {
                    "internalType": "uint256",
                    "name": "",
                    "type": "uint256"
                }
            ],
            "name": "circleVotes",
            "outputs": [
                {
                    "internalType": "uint256",
                    "name": "votingStartTime",
                    "type": "uint256"
                },
                {
                    "internalType": "uint256",
                    "name": "votingEndTime",
                    "type": "uint256"
                },
                {
                    "internalType": "uint8",
                    "name": "startVoteCount",
                    "type": "uint8"
                },
                {
                    "internalType": "uint8",
                    "name": "withdrawVoteCount",
                    "type": "uint8"
                },
                {
                    "internalType": "bool",
                    "name": "votingActive",
                    "type": "bool"
                },
                {
                    "internalType": "bool",
                    "name": "voteExecuted",
                    "type": "bool"
                }
            ],
            "stateMutability": "view",
            "type": "function"
        },
        {
            "inputs": [
                {
                    "internalType": "uint256",
                    "name": "",
                    "type": "uint256"
                }
            ],
            "name": "circles",
            "outputs": [
                {
                    "internalType": "uint256",
                    "name": "circleId",
                    "type": "uint256"
                },
                {
                    "internalType": "address",
                    "name": "creator",
                    "type": "address"
                },
                {
                    "internalType": "uint256",
                    "name": "contributionAmount",
                    "type": "uint256"
                },
                {
                    "internalType": "enum CirclePotV1.Frequency",
                    "name": "frequency",
                    "type": "uint8"
                },
                {
                    "internalType": "uint8",
                    "name": "maxMembers",
                    "type": "uint8"
                },
                {
                    "internalType": "uint8",
                    "name": "currentMembers",
                    "type": "uint8"
                },
                {
                    "internalType": "uint8",
                    "name": "currentRound",
                    "type": "uint8"
                },
                {
                    "internalType": "uint8",
                    "name": "totalRounds",
                    "type": "uint8"
                },
                {
                    "internalType": "enum CirclePotV1.CircleState",
                    "name": "state",
                    "type": "uint8"
                },
                {
                    "internalType": "enum CirclePotV1.Visibility",
                    "name": "visibility",
                    "type": "uint8"
                },
                {
                    "internalType": "uint256",
                    "name": "createdAt",
                    "type": "uint256"
                },
                {
                    "internalType": "uint256",
                    "name": "startedAt",
                    "type": "uint256"
                },
                {
                    "internalType": "uint256",
                    "name": "totalPot",
                    "type": "uint256"
                }
            ],
            "stateMutability": "view",
            "type": "function"
        },
        {
            "inputs": [
                {
                    "internalType": "address",
                    "name": "",
                    "type": "address"
                }
            ],
            "name": "completedCircles",
            "outputs": [
                {
                    "internalType": "uint256",
                    "name": "",
                    "type": "uint256"
                }
            ],
            "stateMutability": "view",
            "type": "function"
        },
        {
            "inputs": [
                {
                    "internalType": "uint256",
                    "name": "_circleId",
                    "type": "uint256"
                }
            ],
            "name": "contribute",
            "outputs": [],
            "stateMutability": "nonpayable",
            "type": "function"
        },
        {
            "inputs": [
                {
                    "components": [
                        {
                            "internalType": "uint256",
                            "name": "contributionAmount",
                            "type": "uint256"
                        },
                        {
                            "internalType": "enum CirclePotV1.Frequency",
                            "name": "frequency",
                            "type": "uint8"
                        },
                        {
                            "internalType": "uint8",
                            "name": "maxMembers",
                            "type": "uint8"
                        },
                        {
                            "internalType": "enum CirclePotV1.Visibility",
                            "name": "visibility",
                            "type": "uint8"
                        }
                    ],
                    "internalType": "struct CirclePotV1.CreateCircleParams",
                    "name": "params",
                    "type": "tuple"
                }
            ],
            "name": "createCircle",
            "outputs": [
                {
                    "internalType": "uint256",
                    "name": "",
                    "type": "uint256"
                }
            ],
            "stateMutability": "nonpayable",
            "type": "function"
        },
        {
            "inputs": [
                {
                    "internalType": "uint256",
                    "name": "_circleId",
                    "type": "uint256"
                }
            ],
            "name": "executeVote",
            "outputs": [],
            "stateMutability": "nonpayable",
            "type": "function"
        },
        {
            "inputs": [],
            "name": "goalCounter",
            "outputs": [
                {
                    "internalType": "uint256",
                    "name": "",
                    "type": "uint256"
                }
            ],
            "stateMutability": "view",
            "type": "function"
        },
        {
            "inputs": [
                {
                    "internalType": "address",
                    "name": "_cUSDToken",
                    "type": "address"
                },
                {
                    "internalType": "address",
                    "name": "_treasury",
                    "type": "address"
                },
                {
                    "internalType": "address",
                    "name": "initialOwner",
                    "type": "address"
                }
            ],
            "name": "initialize",
            "outputs": [],
            "stateMutability": "nonpayable",
            "type": "function"
        },
        {
            "inputs": [
                {
                    "internalType": "uint256",
                    "name": "_circleId",
                    "type": "uint256"
                }
            ],
            "name": "initiateVoting",
            "outputs": [],
            "stateMutability": "nonpayable",
            "type": "function"
        },
        {
            "inputs": [
                {
                    "internalType": "uint256",
                    "name": "_circleId",
                    "type": "uint256"
                },
                {
                    "internalType": "address[]",
                    "name": "_invitees",
                    "type": "address[]"
                }
            ],
            "name": "inviteMembers",
            "outputs": [],
            "stateMutability": "nonpayable",
            "type": "function"
        },
        {
            "inputs": [
                {
                    "internalType": "uint256",
                    "name": "_circleId",
                    "type": "uint256"
                }
            ],
            "name": "joinCircle",
            "outputs": [],
            "stateMutability": "nonpayable",
            "type": "function"
        },
        {
            "inputs": [
                {
                    "internalType": "address",
                    "name": "",
                    "type": "address"
                }
            ],
            "name": "latePayments",
            "outputs": [
                {
                    "internalType": "uint256",
                    "name": "",
                    "type": "uint256"
                }
            ],
            "stateMutability": "view",
            "type": "function"
        },
        {
            "inputs": [
                {
                    "internalType": "uint256",
                    "name": "",
                    "type": "uint256"
                },
                {
                    "internalType": "address",
                    "name": "",
                    "type": "address"
                }
            ],
            "name": "memberVotes",
            "outputs": [
                {
                    "internalType": "enum CirclePotV1.VoteChoice",
                    "name": "",
                    "type": "uint8"
                }
            ],
            "stateMutability": "view",
            "type": "function"
        },
        {
            "inputs": [],
            "name": "owner",
            "outputs": [
                {
                    "internalType": "address",
                    "name": "",
                    "type": "address"
                }
            ],
            "stateMutability": "view",
            "type": "function"
        },
        {
            "inputs": [
                {
                    "internalType": "uint256",
                    "name": "",
                    "type": "uint256"
                }
            ],
            "name": "personalGoals",
            "outputs": [
                {
                    "internalType": "address",
                    "name": "owner",
                    "type": "address"
                },
                {
                    "internalType": "string",
                    "name": "name",
                    "type": "string"
                },
                {
                    "internalType": "uint256",
                    "name": "targetAmount",
                    "type": "uint256"
                },
                {
                    "internalType": "uint256",
                    "name": "currentAmount",
                    "type": "uint256"
                },
                {
                    "internalType": "uint256",
                    "name": "contributionAmount",
                    "type": "uint256"
                },
                {
                    "internalType": "enum CirclePotV1.Frequency",
                    "name": "frequency",
                    "type": "uint8"
                },
                {
                    "internalType": "uint256",
                    "name": "deadline",
                    "type": "uint256"
                },
                {
                    "internalType": "uint256",
                    "name": "createdAt",
                    "type": "uint256"
                },
                {
                    "internalType": "bool",
                    "name": "isActive",
                    "type": "bool"
                },
                {
                    "internalType": "uint256",
                    "name": "lastContributionAt",
                    "type": "uint256"
                }
            ],
            "stateMutability": "view",
            "type": "function"
        },
        {
            "inputs": [],
            "name": "platformFeeBps",
            "outputs": [
                {
                    "internalType": "uint256",
                    "name": "",
                    "type": "uint256"
                }
            ],
            "stateMutability": "view",
            "type": "function"
        },
        {
            "inputs": [],
            "name": "proxiableUUID",
            "outputs": [
                {
                    "internalType": "bytes32",
                    "name": "",
                    "type": "bytes32"
                }
            ],
            "stateMutability": "view",
            "type": "function"
        },
        {
            "inputs": [],
            "name": "renounceOwnership",
            "outputs": [],
            "stateMutability": "nonpayable",
            "type": "function"
        },
        {
            "inputs": [
                {
                    "internalType": "uint256",
                    "name": "",
                    "type": "uint256"
                },
                {
                    "internalType": "uint8",
                    "name": "",
                    "type": "uint8"
                },
                {
                    "internalType": "address",
                    "name": "",
                    "type": "address"
                }
            ],
            "name": "roundContributions",
            "outputs": [
                {
                    "internalType": "bool",
                    "name": "",
                    "type": "bool"
                }
            ],
            "stateMutability": "view",
            "type": "function"
        },
        {
            "inputs": [
                {
                    "internalType": "uint256",
                    "name": "_circleId",
                    "type": "uint256"
                }
            ],
            "name": "startCircle",
            "outputs": [],
            "stateMutability": "nonpayable",
            "type": "function"
        },
        {
            "inputs": [],
            "name": "totalPlatformFees",
            "outputs": [
                {
                    "internalType": "uint256",
                    "name": "",
                    "type": "uint256"
                }
            ],
            "stateMutability": "view",
            "type": "function"
        },
        {
            "inputs": [
                {
                    "internalType": "address",
                    "name": "newOwner",
                    "type": "address"
                }
            ],
            "name": "transferOwnership",
            "outputs": [],
            "stateMutability": "nonpayable",
            "type": "function"
        },
        {
            "inputs": [],
            "name": "treasury",
            "outputs": [
                {
                    "internalType": "address",
                    "name": "",
                    "type": "address"
                }
            ],
            "stateMutability": "view",
            "type": "function"
        },
        {
            "inputs": [
                {
                    "internalType": "uint256",
                    "name": "_circleId",
                    "type": "uint256"
                },
                {
                    "internalType": "enum CirclePotV1.Visibility",
                    "name": "_newVisibility",
                    "type": "uint8"
                }
            ],
            "name": "updateCircleVisibility",
            "outputs": [],
            "stateMutability": "nonpayable",
            "type": "function"
        },
        {
            "inputs": [
                {
                    "internalType": "address",
                    "name": "_cUSDToken",
                    "type": "address"
                },
                {
                    "internalType": "address",
                    "name": "_treasury",
                    "type": "address"
                },
                {
                    "internalType": "uint8",
                    "name": "_version",
                    "type": "uint8"
                }
            ],
            "name": "upgrade",
            "outputs": [],
            "stateMutability": "nonpayable",
            "type": "function"
        },
        {
            "inputs": [
                {
                    "internalType": "address",
                    "name": "newImplementation",
                    "type": "address"
                },
                {
                    "internalType": "bytes",
                    "name": "data",
                    "type": "bytes"
                }
            ],
            "name": "upgradeToAndCall",
            "outputs": [],
            "stateMutability": "payable",
            "type": "function"
        },
        {
            "inputs": [
                {
                    "internalType": "address",
                    "name": "",
                    "type": "address"
                },
                {
                    "internalType": "uint256",
                    "name": "",
                    "type": "uint256"
                }
            ],
            "name": "userGoals",
            "outputs": [
                {
                    "internalType": "uint256",
                    "name": "",
                    "type": "uint256"
                }
            ],
            "stateMutability": "view",
            "type": "function"
        },
        {
            "inputs": [
                {
                    "internalType": "address",
                    "name": "",
                    "type": "address"
                }
            ],
            "name": "userReputation",
            "outputs": [
                {
                    "internalType": "uint256",
                    "name": "",
                    "type": "uint256"
                }
            ],
            "stateMutability": "view",
            "type": "function"
        }
    ],
    "bytecode": "60a080604052346100c257306080525f5160206130a25f395f51905f525460ff8160401c166100b3576002600160401b03196001600160401b03821601610060575b604051612fdb90816100c78239608051818181611bf50152611cc50152f35b6001600160401b0319166001600160401b039081175f5160206130a25f395f51905f525581527fc7f505b2f371ae2175ee4913f4499e1f2633a7b5936321eed1cdaeb6115181d290602090a15f80610041565b63f92ee8a960e01b5f5260045ffd5b5f80fdfe6080806040526004361015610012575f80fd5b5f3560e01c9081630ea86ad814612273575080630f8019881461223b578063157a7ec7146120df57806322dcd13e146120c25780632c2b97a41461203d5780632dfa67681461201557806340650c9114611ff35780634571468414611ec657806346c39a1d14611ea45780634f1ef28614611c4957806352d1902d14611be3578063539aa77f1461073f5780635678138814611a1357806358f8d6ff146119f757806361a524a11461199557806361d027b31461196d57806363fc152e1461191d57806369be46bf146118ee578063715018a6146118875780637ee839c4146117315780638261efa71461131357806386d6cfb31461107e5780638da5cb5b1461104a5780638fda34bf1461100257806394d95f8f14610fde57806398d4c1dd14610f95578063a8c9305714610f7a578063ad3cb1cc14610f2f578063ad5a698214610dad578063b1610d7e14610d90578063b6b3eedf14610d38578063bc5e0f3014610c5a578063c0c53b8b14610a16578063c1cbbca71461098b578063c4ce74e014610922578063d3631fa514610905578063d4bf578c146107ad578063d9a6722014610792578063e503bb051461075a578063ea0e35b11461073f578063ec6b733f14610664578063f2fde38b14610639578063f3890e1f1461061c578063f98a4eca1461047a578063f9e9ad391461045d578063fc226bcc14610283578063fd81593f1461024b5763ffa1ad741461022c575f80fd5b34610247575f36600319011261024757602060405160018152f35b5f80fd5b34610247576020366003190112610247576001600160a01b0361026c612295565b165f52600f602052602060405f2054604051908152f35b346102475760203660031901126102475760043561029f612587565b80158015610451575b61044257805f52600460205260405f209060038201549160ff8360281c16600581101561042e5760010361041f57815f52600560205260405f2060018060a01b0333165f5260205260405f20600281019182549460ff8660081c161561041057845f52600960205260405f209160ff60025f94015460181c1680610401575b156103a95750505060015b1561039a57600301925f8454945561ff001916905561035b823360018060a01b035f5416612a7d565b6040519182527f7c5e5cb62e5ed3caf3764e4b0afedfedef533e27809d43367799787ad2abcd4160203393a360015f516020612f665f395f51905f5255005b630c2eba2560e21b5f5260045ffd5b6103c39060046103bb60ff8516612603565b91015461239e565b4211156103d1575b50610332565b60ff806064816103e5818660081c166124b1565b1604169160101c16106103f9575b856103cb565b5060016103f3565b5061040b86612428565b610327565b631687e47360e31b5f5260045ffd5b63d883bee960e01b5f5260045ffd5b634e487b7160e01b5f52602160045260245ffd5b632fb08c4f60e11b5f5260045ffd5b506002548110156102a8565b34610247575f366003190112610247576020600354604051908152f35b346102475760203660031901126102475760043580158015610610575b61044257805f526004602052600360405f200160ff815460281c16600581101561042e5760020361060157815f52600960205260405f206002810180549160ff8360101c161561060157600101544211156105f25760ff8260181c166105e3577f7da55ba157db41984697c3f1b900905283b3f9673437a67da9e3bfc9662c3a049260609260ff6105418180630100000063ffff00001986161794858855169360081c16836123d4565b1680156105d55761056061ffff9161055b6113ec946123e8565b612400565b16106105a357805465ff000000000019166501000000000017905561058484612705565b5460ff6040519160018352818116602084015260081c166040820152a2005b6501000000000060ff60281b198254161790555460ff6040519160018352818116602084015260081c166040820152a2005b50506113ec61ffff5f610560565b63745266fd60e11b5f5260045ffd5b633483eb6360e01b5f5260045ffd5b639b8cc47560e01b5f5260045ffd5b50600254811015610497565b34610247575f366003190112610247576020600254604051908152f35b3461024757602036600319011261024757610662610655612295565b61065d61263d565b61255a565b005b346102475760203660031901126102475760043580158015610733575b610442575f81815260046020526040902060018101546001600160a01b031633036107245760038101549060ff8260281c16600581101561042e5760010361041f5760ff6064816106d6818660081c166124b1565b16041660ff8360101c16106107155760046103bb60ff6106f69416612603565b4211156107065761066290612705565b63a217083960e01b5f5260045ffd5b63505768b960e11b5f5260045ffd5b6308f78f9960e31b5f5260045ffd5b50600254811015610681565b34610247575f36600319011261024757602060405160148152f35b34610247576020366003190112610247576001600160a01b0361077b612295565b165f52600e602052602060405f2054604051908152f35b34610247575f36600319011261024757602060405160058152f35b346102475760403660031901126102475760043560243567ffffffffffffffff811161024757366023820112156102475780600401359167ffffffffffffffff8311610247576024820191602436918560051b01011161024757801580156108f9575b610442575f81815260046020526040902060018101546001600160a01b03163303610724576003015460ff8160301c16600281101561042e576108ea5760281c60ff16600581101561042e5760010361041f575f5b83811061086e57005b600190825f52600b60205260405f2061089061088b838888612536565b612546565b838060a01b03165f5260205260405f208260ff19825416179055818060a01b036108be61088b838888612536565b16837f6e32da99952e6892c42b54eec8c835d9a2e0a6c879c0219cc693229e6894175a5f80a301610865565b633a46c93160e01b5f5260045ffd5b50600254811015610810565b34610247575f366003190112610247576020601154604051908152f35b34610247576020366003190112610247576004355f52600960205260c060405f2060ff815491600260018201549101549060405193845260208401528181166040840152818160081c166060840152818160101c161515608084015260181c16151560a0820152f35b346102475760203660031901126102475760043580158015610a0a575b61044257805f52600460205260ff600360405f20015460281c16600581101561042e576003036109fb575f90815260056020908152604080832033845290915290206002015460081c60ff161561041057005b633fe6c08b60e21b5f5260045ffd5b506002548110156109a8565b3461024757606036600319011261024757610a2f612295565b610a376122ab565b610a3f6122c1565b905f516020612f865f395f51905f52549267ffffffffffffffff60ff8560401c1615941680159081610c52575b6001149081610c48575b159081610c3f575b50610c305783600167ffffffffffffffff195f516020612f865f395f51905f525416175f516020612f865f395f51905f5255610c00575b610abd612e0d565b610ac5612e0d565b610ace8361255a565b610ad6612e0d565b610ade612e0d565b60015f516020612f665f395f51905f5255610af7612e0d565b6001600160a01b031680158015610bef575b610be0575f80546001600160a01b0319908116929092179055600180549091166001600160a01b039283161781556002819055600355601460125581168015159081610bbe575b50610baf575b50610b5d57005b60ff60401b195f516020612f865f395f51905f5254165f516020612f865f395f51905f52557fc7f505b2f371ae2175ee4913f4499e1f2633a7b5936321eed1cdaeb6115181d2602060405160018152a1005b610bb890612670565b81610b56565b5f516020612f265f395f51905f52546001600160a01b03161415905083610b50565b63cfe2ea6360e01b5f5260045ffd5b506001600160a01b03821615610b09565b600160401b60ff60401b195f516020612f865f395f51905f525416175f516020612f865f395f51905f5255610ab5565b63f92ee8a960e01b5f5260045ffd5b90501585610a7e565b303b159150610a76565b859150610a6c565b34610247576020366003190112610247576004355f52600460205260405f20805460018060a01b0360018301541660028301549260038101549360ff85169460ff808260281c1691818160301c16976004860154946006600588015497015497604051998a5260208a01526040890152610cd381612331565b6060880152818160081c166080880152818160101c1660a0880152818160181c1660c088015260201c1660e0860152600581101561042e57610100850152600285101561042e576101a094610120850152610140840152610160830152610180820152f35b3461024757604036600319011261024757610d51612295565b6001600160a01b03165f908152600d602052604090208054602435919082101561024757602091610d8191612351565b90549060031b1c604051908152f35b34610247575f3660031901126102475760206040516202a3008152f35b34610247576020366003190112610247576004355f52600c60205260405f2060018060a01b038154166001820191604051925f8154908160011c9260018316928315610f25575b602085108414610f11578488528793908115610eef5750600114610eab575b50610e20925003846122f3565b600281015490600381015490600481015460ff600583015416600683015490600784015492600960ff60088701541695015495610e716040519a8b9a8b5261014060208c01526101408b019061237a565b9760408a015260608901526080880152610e8a81612331565b60a087015260c086015260e085015215156101008401526101208301520390f35b90505f9291925260205f20905f915b818310610ed3575050906020610e209282010186610e13565b6020919350806001915483858a01015201910190918592610eba565b905060209250610e2094915060ff191682840152151560051b82010186610e13565b634e487b7160e01b5f52602260045260245ffd5b93607f1693610df4565b34610247575f36600319011261024757610f76604051610f506040826122f3565b60058152640352e302e360dc1b602082015260405191829160208352602083019061237a565b0390f35b34610247575f36600319011261024757602060405160648152f35b3461024757604036600319011261024757610fae6122ab565b6004355f52600b60205260405f209060018060a01b03165f52602052602060ff60405f2054166040519015158152f35b34610247575f36600319011261024757602060405169010f0cf064dd592000008152f35b34610247576110103661233b565b905f52600660205260405f2080548210156102475760209161103191612351565b905460405160039290921b1c6001600160a01b03168152f35b34610247575f366003190112610247575f516020612f265f395f51905f52546040516001600160a01b039091168152602090f35b346102475760203660031901126102475760043561109a612587565b80158015611307575b61044257805f52600460205260405f206003810190815460ff8160281c16600581101561042e5760010361041f5760ff8160081c16908160ff8260101c16146112f8575f85815260056020908152604080832033845290915290206002015460081c60ff166112ea5760301c60ff16600281101561042e57156112bb575b600261112e9201546126d7565b5f54611148908290309033906001600160a01b03166125bf565b600460405191611157836122d7565b5f835260208301905f82526111eb604085015f815260608601600181526080870193845260a0870194428652895f52600560205260405f2060018060a01b0333165f5260205260ff8060405f209951161660ff198954161788555160018801556111d46002880192511515839060ff801983541691151516179055565b51815461ff00191690151560081b61ff0016179055565b51600384015551910155815f52600660205261120a3360405f206124f5565b61123561121d60ff835460101c166124c6565b825462ff0000191660109190911b62ff000016178255565b33827fa7858a1f19449eeaf5fbe2692047577d00116ecb460791549c018c79e3ce483b5f80a35460ff808260081c169160101c1614611282575b60015f516020612f665f395f51905f5255005b61128b81612705565b7faf0f41c2e769faca4f3422a53417b14043b989e8d29fd8aa1f0fb10273d20f1f6020604051428152a28061126f565b5f848152600b6020908152604080832033845290915290205460ff166111215763779a6f4160e01b5f5260045ffd5b621d934160e11b5f5260045ffd5b63f277526560e01b5f5260045ffd5b506002548110156110a3565b346102475760803660031901126102475761132c612587565b331561172257600435670de0b6b3a76400008110801561170f575b61170057600560ff6113576124d7565b161080156116ec575b6116dd57600254611370816124e7565b60025561138760ff6113806124d7565b16836126d7565b91606435906002821015610247576001821461167a575b5f546113b8908590309033906001600160a01b03166125bf565b602435906003821015610247576113cd6124d7565b946113d66124d7565b93604051906101a082019082821067ffffffffffffffff8311176116665787916040528183526020830198338a526040840197868952606085019761141a81612331565b8852608085019160ff16825260a085016001815260c08601905f825260e087019260ff16835261010087019360018552610120880195865261014088019b428d5261016089019e8f5f90526101808a01985f8a525f52600460205260405f2099518a5560018a0190600160a01b600190039051166001600160601b0360a01b825416179055516002890155600388019a516114b481612331565b6114bd81612331565b8b54915161ffff1990921660ff919091161760089190911b61ff0016178a5551895462ff0000191660109190911b62ff00001617895551885463ff000000191660189190911b63ff000000161788555187549060201b64ff00000000169064ff00000000191617875551600581101561042e5760ff60281b87549160281b169060ff60281b19161786555190600282101561042e576020987f83b945859e19f480c406ac4e6ac635d422aad2665c1d65da9419b81d51ba61a8976115856006946060996123ab565b516004850155516005840155519101556004604051916115a4836122d7565b5f8352878301905f825261161d604085015f8152878601600181526080870193845260a08701944286528b5f5260058d5260405f2060018060a01b0333165f528d5260ff8060405f209951161660ff198954161788555160018801556111d46002880192511515839060ff801983541691151516179055565b51600384015551910155835f526006855261163b3360405f206124f5565b6040519084825233868301526040820152a160015f516020612f665f395f51905f5255604051908152f35b634e487b7160e01b5f52604160045260245ffd5b6706f05b59d3b20000840184116116c9576011546706f05b59d3b200008101106116c95733837f46fc58301c2ea9f88a47be840edd44559d82b3c0a69ed37ac62f63b313540b615f80a361139e565b634e487b7160e01b5f52601160045260245ffd5b63027ee80d60e51b5f5260045ffd5b50601460ff6116f96124d7565b1611611360565b631717aceb60e31b5f5260045ffd5b5069010f0cf064dd592000008111611347565b6302154e0360e21b5f5260045ffd5b346102475760603660031901126102475761174a612295565b6117526122ab565b60443560ff8116809103610247575f516020612f865f395f51905f52548160ff8260401c16918215611872575b5050610c30577fc7f505b2f371ae2175ee4913f4499e1f2633a7b5936321eed1cdaeb6115181d2926020928267ffffffffffffffff195f516020612f865f395f51905f525416175f516020612f865f395f51905f525560ff60401b195f516020612f865f395f51905f52541691600160401b83175f516020612f865f395f51905f525561180a61263d565b6001600160a01b03168061185b575b506001600160a01b031680611842575b505f516020612f865f395f51905f5255604051908152a1005b6001600160601b0360a01b600154161760015584611829565b6001600160601b0360a01b5f5416175f5585611819565b67ffffffffffffffff1610159050818561177f565b34610247575f3660031901126102475761189f61263d565b5f516020612f265f395f51905f5280546001600160a01b031981169091555f906001600160a01b03167f8be0079c531659141344cd1fd0a4f28419497f9722a3daafe3b4186f6b6457e08280a3005b34610247576118fc3661233b565b905f52600860205260405f20905f52602052602060405f2054604051908152f35b34610247576040366003190112610247576119366122ab565b6004355f52600a60205260405f209060018060a01b03165f52602052602060ff60405f2054166040519061196981612331565b8152f35b34610247575f366003190112610247576001546040516001600160a01b039091168152602090f35b346102475760603660031901126102475760243560ff8116809103610247576119bc6122c1565b906004355f52600760205260405f20905f5260205260405f209060018060a01b03165f52602052602060ff60405f2054166040519015158152f35b34610247575f3660031901126102475760206040516113ec8152f35b346102475760403660031901126102475760243560043560038210156102475780158015611bd7575b61044257611a4982612331565b8115611bc857805f52600460205260ff600360405f20015460281c16600581101561042e57600203610601575f81815260056020908152604080832033845290915290206002015460081c60ff161561041057805f52600960205260405f20600281019060ff825460101c161561060157600101544211611bb9575f828152600a6020908152604080832033845290915290205460ff16611ae981612331565b611baa575f828152600a602090815260408083203384529091529020611b0e84612331565b60ff1981541660ff8516179055611b2483612331565b60018303611b7c5760ff611b3a818354166124c6565b1660ff198254161790555b60405191611b5281612331565b82527feba4866100b822f0f391e610e7edfab790b9e8766c0012733c26b2f1858e8dd760203393a3005b80611b9060ff611ba5935460081c166124c6565b61ff0082549160081b169061ff001916179055565b611b45565b637c9a1cf960e01b5f5260045ffd5b63370ec37160e21b5f5260045ffd5b6364a2c03160e11b5f5260045ffd5b50600254811015611a3c565b34610247575f366003190112610247577f00000000000000000000000000000000000000000000000000000000000000006001600160a01b03163003611c3a5760206040515f516020612f465f395f51905f528152f35b63703e46dd60e11b5f5260045ffd5b604036600319011261024757611c5d612295565b6024359067ffffffffffffffff8211610247573660238301121561024757816004013590611c8a82612315565b91611c9860405193846122f3565b8083526020830193366024838301011161024757815f926024602093018737840101526001600160a01b037f000000000000000000000000000000000000000000000000000000000000000016308114908115611e82575b50611c3a57611cfd61263d565b60018060a01b03811692837f8c26ec1c89a900331babb88eefa754f9b9ed370abe61944d6874e37612764c3f602060405160018152a26040516352d1902d60e01b8152602081600481885afa5f9181611e4e575b50611d695784634c9c8ce360e01b5f5260045260245ffd5b805f516020612f465f395f51905f52869203611e3c5750823b15611e2a575f516020612f465f395f51905f5280546001600160a01b031916821790557fbc7cd75a20ee27fd9adebab32041f755214dbc6bffa90cc0225b39da2e5c2d3b5f80a2825115611e11575f8091610662945190845af43d15611e09573d91611ded83612315565b92611dfb60405194856122f3565b83523d5f602085013e612ec7565b606091612ec7565b50505034611e1b57005b63b398979f60e01b5f5260045ffd5b634c9c8ce360e01b5f5260045260245ffd5b632a87526960e21b5f5260045260245ffd5b9091506020813d602011611e7a575b81611e6a602093836122f3565b8101031261024757519086611d51565b3d9150611e5d565b5f516020612f465f395f51905f52546001600160a01b03161415905084611cf0565b34610247575f3660031901126102475760206040516706f05b59d3b200008152f35b346102475760203660031901126102475760043580158015611fe7575b61044257805f52600460205260405f20600381019081549060ff8260281c16600581101561042e5760010361041f5760ff606481611f25818660081c166124b1565b16041660ff8360101c16106107155760046103bb60ff611f459416612603565b42101561070657815f52600960205260405f209060028201805460ff8160101c166105f25760181c60ff16611fd8574283556202a3004201928342116116c957600101928355805463ffffffff191662010000179055805465ff000000000019166502000000000017905554907ff4e39a27c6c29179b6afb3a070360307cdbda13933023287f5ca10a69b3628e25f80a3005b63f792f8f960e01b5f5260045ffd5b50600254811015611ee3565b34610247575f366003190112610247576020604051670de0b6b3a76400008152f35b34610247576020366003190112610247576020612033600435612428565b6040519015158152f35b34610247576040366003190112610247576120566122ab565b6004355f52600560205260405f209060018060a01b03165f5260205260c060405f2060ff8154169060018101549060ff6002820154600460038401549301549360405195865260208601528181161515604086015260081c1615156060840152608083015260a0820152f35b34610247575f366003190112610247576020601254604051908152f35b3461024757604036600319011261024757600435602435600281101561024757612107612587565b8115801561222f575b610442575f82815260046020526040902060018101546001600160a01b031633036107245760030190815460ff8160281c16600581101561042e576001036122205760301c60ff16600281101561042e578114612211575f546040516323b872dd60e01b60208201523360248201523060448201526706f05b59d3b2000060648083019190915281526121b6916001600160a01b03166121b16084836122f3565b612ab8565b601154916706f05b59d3b2000083018093116116c9576121d8926011556123ab565b33907f46fc58301c2ea9f88a47be840edd44559d82b3c0a69ed37ac62f63b313540b615f80a360015f516020612f665f395f51905f5255005b63051a3ed560e11b5f5260045ffd5b63a407615b60e01b5f5260045ffd5b50600254821015612110565b34610247576020366003190112610247576001600160a01b0361225c612295565b165f526010602052602060405f2054604051908152f35b34610247575f366003190112610247575f546001600160a01b03168152602090f35b600435906001600160a01b038216820361024757565b602435906001600160a01b038216820361024757565b604435906001600160a01b038216820361024757565b60c0810190811067ffffffffffffffff82111761166657604052565b90601f8019910116810190811067ffffffffffffffff82111761166657604052565b67ffffffffffffffff811161166657601f01601f191660200190565b6003111561042e57565b6040906003190112610247576004359060243590565b8054821015612366575f5260205f2001905f90565b634e487b7160e01b5f52603260045260245ffd5b805180835260209291819084018484015e5f828201840152601f01601f1916010190565b919082018092116116c957565b90600281101561042e5766ff00000000000082549160301b169066ff0000000000001916179055565b9060ff8091169116019060ff82116116c957565b61ffff6127109116029061ffff82169182036116c957565b9061ffff169081156124145761ffff160490565b634e487b7160e01b5f52601260045260245ffd5b805f52600460205260405f20905f526009602052600260405f2001549060ff8260181c16156124ab576003015460281c60ff16600581101561042e576003146124a65760ff61247f818084169360081c16836123d4565b16801561249e5761249961ffff9161055b6113ec946123e8565b161090565b506001919050565b505f90565b50505f90565b60ff603c9116029060ff82169182036116c957565b60ff1660ff81146116c95760010190565b60443560ff811681036102475790565b5f1981146116c95760010190565b8054600160401b8110156116665761251291600182018155612351565b81546001600160a01b0393841660039290921b91821b9390911b1916919091179055565b91908110156123665760051b0190565b356001600160a01b03811681036102475790565b6001600160a01b038116156125745761257290612670565b565b631e4fbdf760e01b5f525f60045260245ffd5b60025f516020612f665f395f51905f5254146125b05760025f516020612f665f395f51905f5255565b633ee5aeb560e01b5f5260045ffd5b6040516323b872dd60e01b60208201526001600160a01b039283166024820152929091166044830152606480830193909352918152612572916121b16084836122f3565b61260c81612331565b8015908115612629575b50612622576212750090565b62093a8090565b6001915061263681612331565b145f612616565b5f516020612f265f395f51905f52546001600160a01b0316330361265d57565b63118cdaa760e01b5f523360045260245ffd5b5f516020612f265f395f51905f5280546001600160a01b039283166001600160a01b0319821681179092559091167f8be0079c531659141344cd1fd0a4f28419497f9722a3daafe3b4186f6b6457e05f80a3565b818102929181159184041417156116c957565b906126e1916126c4565b6064810290808204606414811517156116c95761271061270292049061239e565b90565b5f8181526004602090815260408083206006835281842060058452828520600180840180546001600160a01b03908116895292875296859020805460ff191682179055955493519586529096919592169391929091849184917ffc79da6c5316f4c3a2841a4a8ee84045b0cda7f9c0b91deec048b7f26d4293cf9190a38454925f198401958487116116c95761279a87612b1b565b946127a860405196876122f3565b878652601f196127b789612b1b565b013660208801376127c788612b1b565b926127d560405194856122f3565b888452601f196127e48a612b1b565b013660208601375f905f5b8381106129a45750505050505f5b8681106129325750505f5b60ff811690868210156128ad576002820160ff81116116c957847ffc79da6c5316f4c3a2841a4a8ee84045b0cda7f9c0b91deec048b7f26d4293cf60206128a895835f526005825260405f2060018060a01b03612865838d612b33565b516001600160a01b03911681165f9081529184526040909120805460ff191660ff881617905590612896908b612b33565b51169360ff60405191168152a36124c6565b612808565b50506003840180544260059096018690556503000100000065ff00ff00000019821617909155909450612572939192506128ea919060ff16612b47565b815f52600860205260405f2060015f5260205260405f2055807faf0f41c2e769faca4f3422a53417b14043b989e8d29fd8aa1f0fb10273d20f1f6020604051428152a2612b98565b600181018082116116c9575b87811061294e57506001016127fd565b8061295b60019285612b33565b516129668486612b33565b5110612973575b0161293e565b61297d8385612b33565b516129888286612b33565b516129938587612b33565b5261299e8286612b33565b5261296d565b816129af8287612351565b905460039190911b1c6001600160a01b0316036129cf575b6001016127ef565b916129da8386612351565b905460039190911b1c6001600160a01b03166129f6828b612b33565b52612a018386612351565b60018060a01b0391549060031b1c165f52600e60205260405f205490612a278487612351565b60018060a01b0391549060031b1c165f52600f60205260405f205490600a820291808304600a14901517156116c957612a65612a759260019461239e565b612a6f828a612b33565b526124e7565b9290506129c7565b60405163a9059cbb60e01b60208201526001600160a01b039092166024830152604480830193909352918152612572916121b16064836122f3565b905f602091828151910182855af115612b10575f513d612b0757506001600160a01b0381163b155b612ae75750565b635274afe760e01b5f9081526001600160a01b0391909116600452602490fd5b60011415612ae0565b6040513d5f823e3d90fd5b67ffffffffffffffff81116116665760051b60200190565b80518210156123665760209160051b010190565b612b5081612331565b8015612b8757600190612b6281612331565b14612b775762278d0081018091116116c95790565b62093a8081018091116116c95790565b506201518081018091116116c95790565b805f52600460205260405f20612baf600183612e38565b906001600160a01b0382168015612e0757835f52600560205260405f20815f52602052600260405f20019260ff845416612e0057600683018054600185015490959086906001600160a01b03168503612dc3575b5f80549094612c1b92916001600160a01b0316612a7d565b600160ff1982541617905555805f52600e60205260405f20805493600585018095116116c9577f52e998e38a9505deab1cc0e4a47bdd8426a6fde45f6693db2fd122e537fcf22b6020879260039760019555855f52600f825260405f20612c8281546124e7565b9055604051908152a401805460201c60ff1660011015612cd757805463ff000000198116630200000017909155612cbd90429060ff16612b47565b905f52600860205260405f2060015f5260205260405f2055565b6504000000000060ff60281b19825416179055805f52600660205260405f205f5b8154811015612d9b57600190835f52600560205260405f20612d1a8285612351565b848060a01b0391549060031b1c16838060a01b03165f5260205260405f2060ff600282015460081c1680612d8e575b612d55575b5001612cf8565b6003612d8891015f81549155838060a01b035f5416612d748487612351565b868060a01b0391549060031b1c1690612a7d565b5f612d4e565b5060038101541515612d49565b50507ffccd3901546cfbb42742cac2c7335bce34f1f8d9844f4f4b53640f79e31010875f80a2565b50612710612dd3601254886126c4565b04958681039081116116c957612df4965f94612c1b9298899260115461239e565b60115594509050612c03565b5050505050565b50505050565b60ff5f516020612f865f395f51905f525460401c1615612e2957565b631afcd79f60e31b5f5260045ffd5b90815f52600660205260405f20905f928254935b848110612e5c5750505050505f90565b815f52600560205260405f20612e728286612351565b905460039190911b1c6001600160a01b03165f908152602091909152604090205460ff168314612ea457600101612e4c565b92915050612eb29250612351565b905460039190911b1c6001600160a01b031690565b90612eeb5750805115612edc57602081519101fd5b63d6bda27560e01b5f5260045ffd5b81511580612f1c575b612efc575090565b639996b31560e01b5f9081526001600160a01b0391909116600452602490fd5b50803b15612ef456fe9016d09d72d40fdae2fd8ceac6b6234c7706214fd39c1cd1e609a0528c199300360894a13ba1a3210667c828492db98dca3e2076cc3735a920a3ca505d382bbc9b779b17422d0df92223018b32b4d1fa46e071723d6817e2486d003becc55f00f0c57e16840df040f15088dc2f81fe391c3923bec73e23a9662efc9c229c6a00a26469706673582212200abf068f9db5d26fc594191befc7ba67a02cdd42725d7420aeed2a4ec4784d4164736f6c634300081e0033f0c57e16840df040f15088dc2f81fe391c3923bec73e23a9662efc9c229c6a00",
    "sourcePath": "/home/isiaq/workspace/CirclePot/smart-contract/src/CirclePotV1.sol",
    "compiler": {
        "name": "solc",
        "version": "0.8.30+commit.73712a01"
    },
    "functionHashes": {
        "LATE_FEE_BPS()": "a8c93057",
        "MAX_CONTRIBUTION()": "94d95f8f",
        "MAX_MEMBERS()": "ea0e35b1",
        "MIN_CONTRIBUTION()": "40650c91",
        "MIN_MEMBERS()": "d9a67220",
        "PLATFORM_FEE_BPS()": "539aa77f",
        "START_VOTE_THRESHOLD()": "58f8d6ff",
        "UPGRADE_INTERFACE_VERSION()": "ad3cb1cc",
        "VERSION()": "ffa1ad74",
        "VISIBILITY_UPDATE_FEE()": "46c39a1d",
        "VOTING_PERIOD()": "b1610d7e",
        "WithdrawCollateral(uint256)": "fc226bcc",
        "cUSDToken()": "0ea86ad8",
        "canWithdrawAfterVote(uint256)": "2dfa6768",
        "castVote(uint256,uint8)": "56781388",
        "circleCounter()": "f3890e1f",
        "circleInvitations(uint256,address)": "98d4c1dd",
        "circleMemberList(uint256,uint256)": "8fda34bf",
        "circleMembers(uint256,address)": "2c2b97a4",
        "circleRoundDeadlines(uint256,uint256)": "69be46bf",
        "circleVotes(uint256)": "c4ce74e0",
        "circles(uint256)": "bc5e0f30",
        "completedCircles(address)": "fd81593f",
        "contribute(uint256)": "c1cbbca7",
        "createCircle((uint256,uint8,uint8,uint8))": "8261efa7",
        "executeVote(uint256)": "f98a4eca",
        "goalCounter()": "f9e9ad39",
        "initialize(address,address,address)": "c0c53b8b",
        "initiateVoting(uint256)": "45714684",
        "inviteMembers(uint256,address[])": "d4bf578c",
        "joinCircle(uint256)": "86d6cfb3",
        "latePayments(address)": "0f801988",
        "memberVotes(uint256,address)": "63fc152e",
        "owner()": "8da5cb5b",
        "personalGoals(uint256)": "ad5a6982",
        "platformFeeBps()": "22dcd13e",
        "proxiableUUID()": "52d1902d",
        "renounceOwnership()": "715018a6",
        "roundContributions(uint256,uint8,address)": "61a524a1",
        "startCircle(uint256)": "ec6b733f",
        "totalPlatformFees()": "d3631fa5",
        "transferOwnership(address)": "f2fde38b",
        "treasury()": "61d027b3",
        "updateCircleVisibility(uint256,uint8)": "157a7ec7",
        "upgrade(address,address,uint8)": "7ee839c4",
        "upgradeToAndCall(address,bytes)": "4f1ef286",
        "userGoals(address,uint256)": "b6b3eedf",
        "userReputation(address)": "e503bb05"
    },
    "gasEstimates": {
        "creation": {
            "codeDepositCost": "2450200",
            "executionCost": "infinite",
            "totalCost": "infinite"
        },
        "external": {
            "LATE_FEE_BPS()": "725",
            "MAX_CONTRIBUTION()": "681",
            "MAX_MEMBERS()": "1011",
            "MIN_CONTRIBUTION()": "285",
            "MIN_MEMBERS()": "967",
            "PLATFORM_FEE_BPS()": "395",
            "START_VOTE_THRESHOLD()": "439",
            "UPGRADE_INTERFACE_VERSION()": "1038",
            "VERSION()": "1184",
            "VISIBILITY_UPDATE_FEE()": "329",
            "VOTING_PERIOD()": "791",
            "WithdrawCollateral(uint256)": "infinite",
            "cUSDToken()": "2265",
            "canWithdrawAfterVote(uint256)": "5020",
            "castVote(uint256,uint8)": "infinite",
            "circleCounter()": "3180",
            "circleInvitations(uint256,address)": "3035",
            "circleMemberList(uint256,uint256)": "7242",
            "circleMembers(uint256,address)": "11123",
            "circleRoundDeadlines(uint256,uint256)": "2798",
            "circleVotes(uint256)": "7434",
            "circles(uint256)": "16077",
            "completedCircles(address)": "3418",
            "contribute(uint256)": "7546",
            "createCircle((uint256,uint8,uint8,uint8))": "infinite",
            "executeVote(uint256)": "infinite",
            "goalCounter()": "3224",
            "initialize(address,address,address)": "infinite",
            "initiateVoting(uint256)": "infinite",
            "inviteMembers(uint256,address[])": "infinite",
            "joinCircle(uint256)": "infinite",
            "latePayments(address)": "2428",
            "memberVotes(uint256,address)": "2888",
            "owner()": "infinite",
            "personalGoals(uint256)": "infinite",
            "platformFeeBps()": "2322",
            "proxiableUUID()": "infinite",
            "renounceOwnership()": "28514",
            "roundContributions(uint256,uint8,address)": "2894",
            "startCircle(uint256)": "infinite",
            "totalPlatformFees()": "3026",
            "transferOwnership(address)": "29197",
            "treasury()": "2610",
            "updateCircleVisibility(uint256,uint8)": "infinite",
            "upgrade(address,address,uint8)": "infinite",
            "upgradeToAndCall(address,bytes)": "infinite",
            "userGoals(address,uint256)": "7437",
            "userReputation(address)": "3242"
        },
        "internal": {
            "_assignPosition(uint256)": "infinite",
            "_authorizeUpgrade(address)": "infinite",
            "_calcCollateral(uint256,uint256)": "241",
            "_getByPos(uint256,uint256)": "infinite",
            "_nextDeadline(enum CirclePotV1.Frequency,uint256)": "infinite",
            "_payoutRound(uint256,uint8)": "infinite",
            "_progressNextRound(struct CirclePotV1.Circle storage pointer,uint256,uint8)": "infinite",
            "_releaseAllCollateral(uint256)": "infinite",
            "_startCircleInternal(uint256)": "infinite",
            "_ultimatum(enum CirclePotV1.Frequency)": "infinite"
        }
    }
}