{
    "contractName": "CirclePotV1",
    "abi": [
        {
            "inputs": [],
            "stateMutability": "nonpayable",
            "type": "constructor"
        },
        {
            "inputs": [
                {
                    "internalType": "address",
                    "name": "target",
                    "type": "address"
                }
            ],
            "name": "AddressEmptyCode",
            "type": "error"
        },
        {
            "inputs": [],
            "name": "AddressZeroNotAllowed",
            "type": "error"
        },
        {
            "inputs": [],
            "name": "AlreadyJoined",
            "type": "error"
        },
        {
            "inputs": [],
            "name": "AlreadyVoted",
            "type": "error"
        },
        {
            "inputs": [],
            "name": "CircleFull",
            "type": "error"
        },
        {
            "inputs": [],
            "name": "CircleNotExist",
            "type": "error"
        },
        {
            "inputs": [],
            "name": "CircleNotOpen",
            "type": "error"
        },
        {
            "inputs": [
                {
                    "internalType": "address",
                    "name": "implementation",
                    "type": "address"
                }
            ],
            "name": "ERC1967InvalidImplementation",
            "type": "error"
        },
        {
            "inputs": [],
            "name": "ERC1967NonPayable",
            "type": "error"
        },
        {
            "inputs": [],
            "name": "FailedCall",
            "type": "error"
        },
        {
            "inputs": [],
            "name": "InvalidCircle",
            "type": "error"
        },
        {
            "inputs": [],
            "name": "InvalidContributionAmount",
            "type": "error"
        },
        {
            "inputs": [],
            "name": "InvalidInitialization",
            "type": "error"
        },
        {
            "inputs": [],
            "name": "InvalidMemberCount",
            "type": "error"
        },
        {
            "inputs": [],
            "name": "InvalidTreasuryAddress",
            "type": "error"
        },
        {
            "inputs": [],
            "name": "InvalidVoteChoice",
            "type": "error"
        },
        {
            "inputs": [],
            "name": "MinMembersNotReached",
            "type": "error"
        },
        {
            "inputs": [],
            "name": "NotActiveMember",
            "type": "error"
        },
        {
            "inputs": [],
            "name": "NotInitializing",
            "type": "error"
        },
        {
            "inputs": [],
            "name": "OnlyCreator",
            "type": "error"
        },
        {
            "inputs": [
                {
                    "internalType": "address",
                    "name": "owner",
                    "type": "address"
                }
            ],
            "name": "OwnableInvalidOwner",
            "type": "error"
        },
        {
            "inputs": [
                {
                    "internalType": "address",
                    "name": "account",
                    "type": "address"
                }
            ],
            "name": "OwnableUnauthorizedAccount",
            "type": "error"
        },
        {
            "inputs": [],
            "name": "ReentrancyGuardReentrantCall",
            "type": "error"
        },
        {
            "inputs": [
                {
                    "internalType": "address",
                    "name": "token",
                    "type": "address"
                }
            ],
            "name": "SafeERC20FailedOperation",
            "type": "error"
        },
        {
            "inputs": [],
            "name": "SameVisibility",
            "type": "error"
        },
        {
            "inputs": [],
            "name": "UUPSUnauthorizedCallContext",
            "type": "error"
        },
        {
            "inputs": [
                {
                    "internalType": "bytes32",
                    "name": "slot",
                    "type": "bytes32"
                }
            ],
            "name": "UUPSUnsupportedProxiableUUID",
            "type": "error"
        },
        {
            "inputs": [],
            "name": "UltimatumNotPassed",
            "type": "error"
        },
        {
            "inputs": [],
            "name": "UltimatumNotReached",
            "type": "error"
        },
        {
            "inputs": [],
            "name": "VotingAlreadyExecuted",
            "type": "error"
        },
        {
            "inputs": [],
            "name": "VotingNotActive",
            "type": "error"
        },
        {
            "inputs": [],
            "name": "VotingPeriodEnded",
            "type": "error"
        },
        {
            "inputs": [],
            "name": "VotingStillActive",
            "type": "error"
        },
        {
            "anonymous": false,
            "inputs": [
                {
                    "indexed": true,
                    "internalType": "uint256",
                    "name": "circleId",
                    "type": "uint256"
                }
            ],
            "name": "CircleCompleted",
            "type": "event"
        },
        {
            "anonymous": false,
            "inputs": [
                {
                    "indexed": false,
                    "internalType": "uint256",
                    "name": "circleId",
                    "type": "uint256"
                },
                {
                    "indexed": false,
                    "internalType": "address",
                    "name": "creator",
                    "type": "address"
                },
                {
                    "indexed": false,
                    "internalType": "uint256",
                    "name": "contributionAmount",
                    "type": "uint256"
                }
            ],
            "name": "CircleCreated",
            "type": "event"
        },
        {
            "anonymous": false,
            "inputs": [
                {
                    "indexed": true,
                    "internalType": "uint256",
                    "name": "circleId",
                    "type": "uint256"
                },
                {
                    "indexed": true,
                    "internalType": "address",
                    "name": "member",
                    "type": "address"
                }
            ],
            "name": "CircleJoined",
            "type": "event"
        },
        {
            "anonymous": false,
            "inputs": [
                {
                    "indexed": true,
                    "internalType": "uint256",
                    "name": "circleId",
                    "type": "uint256"
                },
                {
                    "indexed": false,
                    "internalType": "uint256",
                    "name": "startedAt",
                    "type": "uint256"
                }
            ],
            "name": "CircleStarted",
            "type": "event"
        },
        {
            "anonymous": false,
            "inputs": [
                {
                    "indexed": true,
                    "internalType": "uint256",
                    "name": "circleId",
                    "type": "uint256"
                },
                {
                    "indexed": true,
                    "internalType": "address",
                    "name": "member",
                    "type": "address"
                },
                {
                    "indexed": false,
                    "internalType": "uint256",
                    "name": "amount",
                    "type": "uint256"
                }
            ],
            "name": "CollateralWithdrawn",
            "type": "event"
        },
        {
            "anonymous": false,
            "inputs": [
                {
                    "indexed": true,
                    "internalType": "address",
                    "name": "newImplementation",
                    "type": "address"
                },
                {
                    "indexed": false,
                    "internalType": "uint8",
                    "name": "version",
                    "type": "uint8"
                }
            ],
            "name": "ContractUpgraded",
            "type": "event"
        },
        {
            "anonymous": false,
            "inputs": [
                {
                    "indexed": false,
                    "internalType": "uint64",
                    "name": "version",
                    "type": "uint64"
                }
            ],
            "name": "Initialized",
            "type": "event"
        },
        {
            "anonymous": false,
            "inputs": [
                {
                    "indexed": true,
                    "internalType": "address",
                    "name": "previousOwner",
                    "type": "address"
                },
                {
                    "indexed": true,
                    "internalType": "address",
                    "name": "newOwner",
                    "type": "address"
                }
            ],
            "name": "OwnershipTransferred",
            "type": "event"
        },
        {
            "anonymous": false,
            "inputs": [
                {
                    "indexed": true,
                    "internalType": "uint256",
                    "name": "circleId",
                    "type": "uint256"
                },
                {
                    "indexed": true,
                    "internalType": "uint256",
                    "name": "round",
                    "type": "uint256"
                },
                {
                    "indexed": true,
                    "internalType": "address",
                    "name": "recipient",
                    "type": "address"
                },
                {
                    "indexed": false,
                    "internalType": "uint256",
                    "name": "amount",
                    "type": "uint256"
                }
            ],
            "name": "PayoutDistributed",
            "type": "event"
        },
        {
            "anonymous": false,
            "inputs": [
                {
                    "indexed": true,
                    "internalType": "uint256",
                    "name": "circledId",
                    "type": "uint256"
                },
                {
                    "indexed": true,
                    "internalType": "address",
                    "name": "member",
                    "type": "address"
                },
                {
                    "indexed": false,
                    "internalType": "uint256",
                    "name": "position",
                    "type": "uint256"
                }
            ],
            "name": "PositionAssigned",
            "type": "event"
        },
        {
            "anonymous": false,
            "inputs": [
                {
                    "indexed": true,
                    "internalType": "address",
                    "name": "implementation",
                    "type": "address"
                }
            ],
            "name": "Upgraded",
            "type": "event"
        },
        {
            "anonymous": false,
            "inputs": [
                {
                    "indexed": true,
                    "internalType": "uint256",
                    "name": "circleId",
                    "type": "uint256"
                },
                {
                    "indexed": true,
                    "internalType": "address",
                    "name": "creator",
                    "type": "address"
                }
            ],
            "name": "VisibilityUpdated",
            "type": "event"
        },
        {
            "anonymous": false,
            "inputs": [
                {
                    "indexed": true,
                    "internalType": "uint256",
                    "name": "circleId",
                    "type": "uint256"
                },
                {
                    "indexed": true,
                    "internalType": "address",
                    "name": "voter",
                    "type": "address"
                },
                {
                    "indexed": false,
                    "internalType": "enum CirclePotV1.VoteChoice",
                    "name": "choice",
                    "type": "uint8"
                }
            ],
            "name": "VoteCast",
            "type": "event"
        },
        {
            "anonymous": false,
            "inputs": [
                {
                    "indexed": true,
                    "internalType": "uint256",
                    "name": "circleId",
                    "type": "uint256"
                },
                {
                    "indexed": true,
                    "internalType": "uint256",
                    "name": "votingEndTime",
                    "type": "uint256"
                }
            ],
            "name": "VotingInitiated",
            "type": "event"
        },
        {
            "inputs": [],
            "name": "LATE_FEE_BPS",
            "outputs": [
                {
                    "internalType": "uint256",
                    "name": "",
                    "type": "uint256"
                }
            ],
            "stateMutability": "view",
            "type": "function"
        },
        {
            "inputs": [],
            "name": "MAX_CONTRIBUTION",
            "outputs": [
                {
                    "internalType": "uint256",
                    "name": "",
                    "type": "uint256"
                }
            ],
            "stateMutability": "view",
            "type": "function"
        },
        {
            "inputs": [],
            "name": "MAX_MEMBERS",
            "outputs": [
                {
                    "internalType": "uint256",
                    "name": "",
                    "type": "uint256"
                }
            ],
            "stateMutability": "view",
            "type": "function"
        },
        {
            "inputs": [],
            "name": "MIN_CONTRIBUTION",
            "outputs": [
                {
                    "internalType": "uint256",
                    "name": "",
                    "type": "uint256"
                }
            ],
            "stateMutability": "view",
            "type": "function"
        },
        {
            "inputs": [],
            "name": "MIN_MEMBERS",
            "outputs": [
                {
                    "internalType": "uint256",
                    "name": "",
                    "type": "uint256"
                }
            ],
            "stateMutability": "view",
            "type": "function"
        },
        {
            "inputs": [],
            "name": "PLATFORM_FEE_BPS",
            "outputs": [
                {
                    "internalType": "uint256",
                    "name": "",
                    "type": "uint256"
                }
            ],
            "stateMutability": "view",
            "type": "function"
        },
        {
            "inputs": [],
            "name": "START_VOTE_THRESHOLD",
            "outputs": [
                {
                    "internalType": "uint256",
                    "name": "",
                    "type": "uint256"
                }
            ],
            "stateMutability": "view",
            "type": "function"
        },
        {
            "inputs": [],
            "name": "UPGRADE_INTERFACE_VERSION",
            "outputs": [
                {
                    "internalType": "string",
                    "name": "",
                    "type": "string"
                }
            ],
            "stateMutability": "view",
            "type": "function"
        },
        {
            "inputs": [],
            "name": "VERSION",
            "outputs": [
                {
                    "internalType": "uint8",
                    "name": "",
                    "type": "uint8"
                }
            ],
            "stateMutability": "view",
            "type": "function"
        },
        {
            "inputs": [],
            "name": "VISIBILITY_UPDATE_FEE",
            "outputs": [
                {
                    "internalType": "uint256",
                    "name": "",
                    "type": "uint256"
                }
            ],
            "stateMutability": "view",
            "type": "function"
        },
        {
            "inputs": [],
            "name": "VOTING_PERIOD",
            "outputs": [
                {
                    "internalType": "uint256",
                    "name": "",
                    "type": "uint256"
                }
            ],
            "stateMutability": "view",
            "type": "function"
        },
        {
            "inputs": [
                {
                    "internalType": "uint256",
                    "name": "_circleId",
                    "type": "uint256"
                }
            ],
            "name": "WithdrawCollateral",
            "outputs": [],
            "stateMutability": "nonpayable",
            "type": "function"
        },
        {
            "inputs": [],
            "name": "cUSDToken",
            "outputs": [
                {
                    "internalType": "address",
                    "name": "",
                    "type": "address"
                }
            ],
            "stateMutability": "view",
            "type": "function"
        },
        {
            "inputs": [
                {
                    "internalType": "uint256",
                    "name": "_circleId",
                    "type": "uint256"
                }
            ],
            "name": "canWithdrawAfterVote",
            "outputs": [
                {
                    "internalType": "bool",
                    "name": "",
                    "type": "bool"
                }
            ],
            "stateMutability": "view",
            "type": "function"
        },
        {
            "inputs": [
                {
                    "internalType": "uint256",
                    "name": "_circleId",
                    "type": "uint256"
                },
                {
                    "internalType": "enum CirclePotV1.VoteChoice",
                    "name": "_choice",
                    "type": "uint8"
                }
            ],
            "name": "castVote",
            "outputs": [],
            "stateMutability": "nonpayable",
            "type": "function"
        },
        {
            "inputs": [],
            "name": "circleCounter",
            "outputs": [
                {
                    "internalType": "uint256",
                    "name": "",
                    "type": "uint256"
                }
            ],
            "stateMutability": "view",
            "type": "function"
        },
        {
            "inputs": [
                {
                    "internalType": "uint256",
                    "name": "",
                    "type": "uint256"
                },
                {
                    "internalType": "uint256",
                    "name": "",
                    "type": "uint256"
                }
            ],
            "name": "circleMemberList",
            "outputs": [
                {
                    "internalType": "address",
                    "name": "",
                    "type": "address"
                }
            ],
            "stateMutability": "view",
            "type": "function"
        },
        {
            "inputs": [
                {
                    "internalType": "uint256",
                    "name": "",
                    "type": "uint256"
                },
                {
                    "internalType": "address",
                    "name": "",
                    "type": "address"
                }
            ],
            "name": "circleMembers",
            "outputs": [
                {
                    "internalType": "uint256",
                    "name": "position",
                    "type": "uint256"
                },
                {
                    "internalType": "uint256",
                    "name": "totalContributed",
                    "type": "uint256"
                },
                {
                    "internalType": "bool",
                    "name": "hasReceivedPayout",
                    "type": "bool"
                },
                {
                    "internalType": "bool",
                    "name": "isActive",
                    "type": "bool"
                },
                {
                    "internalType": "uint256",
                    "name": "collateralLocked",
                    "type": "uint256"
                },
                {
                    "internalType": "uint256",
                    "name": "joinedAt",
                    "type": "uint256"
                }
            ],
            "stateMutability": "view",
            "type": "function"
        },
        {
            "inputs": [
                {
                    "internalType": "uint256",
                    "name": "",
                    "type": "uint256"
                },
                {
                    "internalType": "uint256",
                    "name": "",
                    "type": "uint256"
                }
            ],
            "name": "circleRoundDeadlines",
            "outputs": [
                {
                    "internalType": "uint256",
                    "name": "",
                    "type": "uint256"
                }
            ],
            "stateMutability": "view",
            "type": "function"
        },
        {
            "inputs": [
                {
                    "internalType": "uint256",
                    "name": "",
                    "type": "uint256"
                }
            ],
            "name": "circleVotes",
            "outputs": [
                {
                    "internalType": "uint256",
                    "name": "votingStartTime",
                    "type": "uint256"
                },
                {
                    "internalType": "uint256",
                    "name": "votingEndTime",
                    "type": "uint256"
                },
                {
                    "internalType": "uint8",
                    "name": "startVoteCount",
                    "type": "uint8"
                },
                {
                    "internalType": "uint8",
                    "name": "withdrawVoteCount",
                    "type": "uint8"
                },
                {
                    "internalType": "bool",
                    "name": "votingActive",
                    "type": "bool"
                },
                {
                    "internalType": "bool",
                    "name": "voteExecuted",
                    "type": "bool"
                }
            ],
            "stateMutability": "view",
            "type": "function"
        },
        {
            "inputs": [
                {
                    "internalType": "uint256",
                    "name": "",
                    "type": "uint256"
                }
            ],
            "name": "circles",
            "outputs": [
                {
                    "internalType": "uint256",
                    "name": "circleId",
                    "type": "uint256"
                },
                {
                    "internalType": "address",
                    "name": "creator",
                    "type": "address"
                },
                {
                    "internalType": "uint256",
                    "name": "contributionAmount",
                    "type": "uint256"
                },
                {
                    "internalType": "enum CirclePotV1.Frequency",
                    "name": "frequency",
                    "type": "uint8"
                },
                {
                    "internalType": "uint256",
                    "name": "maxMembers",
                    "type": "uint256"
                },
                {
                    "internalType": "uint256",
                    "name": "currentMembers",
                    "type": "uint256"
                },
                {
                    "internalType": "uint256",
                    "name": "currentRound",
                    "type": "uint256"
                },
                {
                    "internalType": "uint256",
                    "name": "totalRounds",
                    "type": "uint256"
                },
                {
                    "internalType": "enum CirclePotV1.CircleState",
                    "name": "state",
                    "type": "uint8"
                },
                {
                    "internalType": "enum CirclePotV1.Visibility",
                    "name": "visibility",
                    "type": "uint8"
                },
                {
                    "internalType": "uint256",
                    "name": "createdAt",
                    "type": "uint256"
                },
                {
                    "internalType": "uint256",
                    "name": "startedAt",
                    "type": "uint256"
                },
                {
                    "internalType": "uint256",
                    "name": "totalPot",
                    "type": "uint256"
                }
            ],
            "stateMutability": "view",
            "type": "function"
        },
        {
            "inputs": [
                {
                    "internalType": "address",
                    "name": "",
                    "type": "address"
                }
            ],
            "name": "completedCircles",
            "outputs": [
                {
                    "internalType": "uint256",
                    "name": "",
                    "type": "uint256"
                }
            ],
            "stateMutability": "view",
            "type": "function"
        },
        {
            "inputs": [
                {
                    "components": [
                        {
                            "internalType": "uint256",
                            "name": "contributionAmount",
                            "type": "uint256"
                        },
                        {
                            "internalType": "enum CirclePotV1.Frequency",
                            "name": "frequency",
                            "type": "uint8"
                        },
                        {
                            "internalType": "uint256",
                            "name": "maxMembers",
                            "type": "uint256"
                        },
                        {
                            "internalType": "enum CirclePotV1.Visibility",
                            "name": "visibility",
                            "type": "uint8"
                        }
                    ],
                    "internalType": "struct CirclePotV1.CreateCircleParams",
                    "name": "params",
                    "type": "tuple"
                }
            ],
            "name": "createCircle",
            "outputs": [
                {
                    "internalType": "uint256",
                    "name": "",
                    "type": "uint256"
                }
            ],
            "stateMutability": "nonpayable",
            "type": "function"
        },
        {
            "inputs": [],
            "name": "goalCounter",
            "outputs": [
                {
                    "internalType": "uint256",
                    "name": "",
                    "type": "uint256"
                }
            ],
            "stateMutability": "view",
            "type": "function"
        },
        {
            "inputs": [
                {
                    "internalType": "address",
                    "name": "_cUSDToken",
                    "type": "address"
                },
                {
                    "internalType": "address",
                    "name": "_treasury",
                    "type": "address"
                },
                {
                    "internalType": "address",
                    "name": "initialOwner",
                    "type": "address"
                }
            ],
            "name": "initialize",
            "outputs": [],
            "stateMutability": "nonpayable",
            "type": "function"
        },
        {
            "inputs": [
                {
                    "internalType": "uint256",
                    "name": "_circleId",
                    "type": "uint256"
                }
            ],
            "name": "initiateVoting",
            "outputs": [],
            "stateMutability": "nonpayable",
            "type": "function"
        },
        {
            "inputs": [
                {
                    "internalType": "uint256",
                    "name": "_circleId",
                    "type": "uint256"
                }
            ],
            "name": "joinCircle",
            "outputs": [],
            "stateMutability": "nonpayable",
            "type": "function"
        },
        {
            "inputs": [
                {
                    "internalType": "address",
                    "name": "",
                    "type": "address"
                }
            ],
            "name": "latePayments",
            "outputs": [
                {
                    "internalType": "uint256",
                    "name": "",
                    "type": "uint256"
                }
            ],
            "stateMutability": "view",
            "type": "function"
        },
        {
            "inputs": [
                {
                    "internalType": "uint256",
                    "name": "",
                    "type": "uint256"
                },
                {
                    "internalType": "address",
                    "name": "",
                    "type": "address"
                }
            ],
            "name": "memberVotes",
            "outputs": [
                {
                    "internalType": "enum CirclePotV1.VoteChoice",
                    "name": "",
                    "type": "uint8"
                }
            ],
            "stateMutability": "view",
            "type": "function"
        },
        {
            "inputs": [],
            "name": "owner",
            "outputs": [
                {
                    "internalType": "address",
                    "name": "",
                    "type": "address"
                }
            ],
            "stateMutability": "view",
            "type": "function"
        },
        {
            "inputs": [
                {
                    "internalType": "uint256",
                    "name": "",
                    "type": "uint256"
                }
            ],
            "name": "personalGoals",
            "outputs": [
                {
                    "internalType": "address",
                    "name": "owner",
                    "type": "address"
                },
                {
                    "internalType": "string",
                    "name": "name",
                    "type": "string"
                },
                {
                    "internalType": "uint256",
                    "name": "targetAmount",
                    "type": "uint256"
                },
                {
                    "internalType": "uint256",
                    "name": "currentAmount",
                    "type": "uint256"
                },
                {
                    "internalType": "uint256",
                    "name": "contributionAmount",
                    "type": "uint256"
                },
                {
                    "internalType": "enum CirclePotV1.Frequency",
                    "name": "frequency",
                    "type": "uint8"
                },
                {
                    "internalType": "uint256",
                    "name": "deadline",
                    "type": "uint256"
                },
                {
                    "internalType": "uint256",
                    "name": "createdAt",
                    "type": "uint256"
                },
                {
                    "internalType": "bool",
                    "name": "isActive",
                    "type": "bool"
                },
                {
                    "internalType": "uint256",
                    "name": "lastContributionAt",
                    "type": "uint256"
                }
            ],
            "stateMutability": "view",
            "type": "function"
        },
        {
            "inputs": [],
            "name": "platformFeeBps",
            "outputs": [
                {
                    "internalType": "uint256",
                    "name": "",
                    "type": "uint256"
                }
            ],
            "stateMutability": "view",
            "type": "function"
        },
        {
            "inputs": [],
            "name": "proxiableUUID",
            "outputs": [
                {
                    "internalType": "bytes32",
                    "name": "",
                    "type": "bytes32"
                }
            ],
            "stateMutability": "view",
            "type": "function"
        },
        {
            "inputs": [],
            "name": "renounceOwnership",
            "outputs": [],
            "stateMutability": "nonpayable",
            "type": "function"
        },
        {
            "inputs": [
                {
                    "internalType": "uint256",
                    "name": "",
                    "type": "uint256"
                },
                {
                    "internalType": "uint256",
                    "name": "",
                    "type": "uint256"
                },
                {
                    "internalType": "address",
                    "name": "",
                    "type": "address"
                }
            ],
            "name": "roundContributions",
            "outputs": [
                {
                    "internalType": "bool",
                    "name": "",
                    "type": "bool"
                }
            ],
            "stateMutability": "view",
            "type": "function"
        },
        {
            "inputs": [
                {
                    "internalType": "uint256",
                    "name": "_circleId",
                    "type": "uint256"
                }
            ],
            "name": "startCircle",
            "outputs": [],
            "stateMutability": "nonpayable",
            "type": "function"
        },
        {
            "inputs": [],
            "name": "totalPlatformFees",
            "outputs": [
                {
                    "internalType": "uint256",
                    "name": "",
                    "type": "uint256"
                }
            ],
            "stateMutability": "view",
            "type": "function"
        },
        {
            "inputs": [
                {
                    "internalType": "address",
                    "name": "newOwner",
                    "type": "address"
                }
            ],
            "name": "transferOwnership",
            "outputs": [],
            "stateMutability": "nonpayable",
            "type": "function"
        },
        {
            "inputs": [],
            "name": "treasury",
            "outputs": [
                {
                    "internalType": "address",
                    "name": "",
                    "type": "address"
                }
            ],
            "stateMutability": "view",
            "type": "function"
        },
        {
            "inputs": [
                {
                    "internalType": "uint256",
                    "name": "_circleId",
                    "type": "uint256"
                },
                {
                    "internalType": "enum CirclePotV1.Visibility",
                    "name": "_newVisibility",
                    "type": "uint8"
                }
            ],
            "name": "updateCircleVisibility",
            "outputs": [],
            "stateMutability": "nonpayable",
            "type": "function"
        },
        {
            "inputs": [
                {
                    "internalType": "address",
                    "name": "_cUSDToken",
                    "type": "address"
                },
                {
                    "internalType": "address",
                    "name": "_treasury",
                    "type": "address"
                },
                {
                    "internalType": "uint8",
                    "name": "_version",
                    "type": "uint8"
                }
            ],
            "name": "upgrade",
            "outputs": [],
            "stateMutability": "nonpayable",
            "type": "function"
        },
        {
            "inputs": [
                {
                    "internalType": "address",
                    "name": "newImplementation",
                    "type": "address"
                },
                {
                    "internalType": "bytes",
                    "name": "data",
                    "type": "bytes"
                }
            ],
            "name": "upgradeToAndCall",
            "outputs": [],
            "stateMutability": "payable",
            "type": "function"
        },
        {
            "inputs": [
                {
                    "internalType": "address",
                    "name": "",
                    "type": "address"
                },
                {
                    "internalType": "uint256",
                    "name": "",
                    "type": "uint256"
                }
            ],
            "name": "userGoals",
            "outputs": [
                {
                    "internalType": "uint256",
                    "name": "",
                    "type": "uint256"
                }
            ],
            "stateMutability": "view",
            "type": "function"
        },
        {
            "inputs": [
                {
                    "internalType": "address",
                    "name": "",
                    "type": "address"
                }
            ],
            "name": "userReputation",
            "outputs": [
                {
                    "internalType": "uint256",
                    "name": "",
                    "type": "uint256"
                }
            ],
            "stateMutability": "view",
            "type": "function"
        }
    ],
    "bytecode": "60a080604052346100c257306080525f516020612ae85f395f51905f525460ff8160401c166100b3576002600160401b03196001600160401b03821601610060575b604051612a2190816100c782396080518181816116de01526117ae0152f35b6001600160401b0319166001600160401b039081175f516020612ae85f395f51905f525581527fc7f505b2f371ae2175ee4913f4499e1f2633a7b5936321eed1cdaeb6115181d290602090a15f80610041565b63f92ee8a960e01b5f5260045ffd5b5f80fdfe6080806040526004361015610012575f80fd5b5f3560e01c9081630ea86ad814611d5f575080630f80198814611d27578063157a7ec714611bce57806322dcd13e14611bb15780632c2b97a414611b2f5780632dfa676814611b0757806340650c9114611ae557806345714684146119af57806346c39a1d1461198d5780634f1ef2861461173257806352d1902d146116cc578063539aa77f1461059357806356781388146114f657806358f8d6ff146114da57806361d027b3146114b257806363fc152e14611462578063656cf711146110e457806369be46bf146110b5578063715018a61461104e5780637ee839c414610ef857806384bb19cc14610ea357806386d6cfb314610c8e5780638da5cb5b14610c5a5780638fda34bf14610c1257806394d95f8f14610bee578063a8c9305714610bd3578063ad3cb1cc14610b88578063ad5a698214610a06578063b1610d7e146109e9578063b6b3eedf14610991578063bc5e0f30146108b5578063c0c53b8b14610671578063c4ce74e014610608578063d3631fa5146105eb578063d9a67220146105d0578063e503bb0514610598578063ea0e35b114610593578063ec6b733f146104ac578063f2fde38b14610481578063f3890e1f14610464578063f9e9ad3914610447578063fc226bcc14610257578063fd81593f1461021f5763ffa1ad7414610200575f80fd5b3461021b575f36600319011261021b57602060405160018152f35b5f80fd5b3461021b57602036600319011261021b576001600160a01b03610240611d81565b165f52600e602052602060405f2054604051908152f35b3461021b57602036600319011261021b5760043561027361201c565b8015801561043b575b61042c57805f52600460205260405f209060ff60088301541660058110156104185760010361040957805f52600560205260405f2060018060a01b0333165f5260205260405f20600281019081549360ff8560081c16156103fa57835f52600960205260405f209060ff60025f93015460181c16806103eb575b1561037757505060015b1561036857600301925f8454945561ff0019169055610329823360018060a01b035f54166124d9565b6040519182527f7c5e5cb62e5ed3caf3764e4b0afedfedef533e27809d43367799787ad2abcd4160203393a360015f5160206129ac5f395f51905f5255005b630c2eba2560e21b5f5260045ffd5b61039461038a60ff600384015416612098565b6009830154611ea5565b4211156103a2575b50610300565b60046005820154910154603c810290808204603c14901517156103d75760649004116103cf575b8561039c565b5060016103c9565b634e487b7160e01b5f52601160045260245ffd5b506103f585611ed1565b6102f6565b631687e47360e31b5f5260045ffd5b63d883bee960e01b5f5260045ffd5b634e487b7160e01b5f52602160045260245ffd5b632fb08c4f60e11b5f5260045ffd5b5060025481101561027c565b3461021b575f36600319011261021b576020600354604051908152f35b3461021b575f36600319011261021b576020600254604051908152f35b3461021b57602036600319011261021b576104aa61049d611d81565b6104a5612100565b611fef565b005b3461021b57602036600319011261021b5760043580158015610587575b61042c575f81815260046020526040902060018101546001600160a01b031633036105785760ff6008820154166005811015610418576001036104095760058101546004820154603c810290808204603c14901517156103d75760649004116105695780600961054260ff600361054a95015416612098565b910154611ea5565b42111561055a576104aa90612187565b63a217083960e01b5f5260045ffd5b63505768b960e11b5f5260045ffd5b6308f78f9960e31b5f5260045ffd5b506002548110156104c9565b611e1d565b3461021b57602036600319011261021b576001600160a01b036105b9611d81565b165f52600d602052602060405f2054604051908152f35b3461021b575f36600319011261021b57602060405160058152f35b3461021b575f36600319011261021b576020601054604051908152f35b3461021b57602036600319011261021b576004355f52600960205260c060405f2060ff815491600260018201549101549060405193845260208401528181166040840152818160081c166060840152818160101c161515608084015260181c16151560a0820152f35b3461021b57606036600319011261021b5761068a611d81565b610692611d97565b61069a611dad565b905f5160206129cc5f395f51905f52549267ffffffffffffffff60ff8560401c16159416801590816108ad575b60011490816108a3575b15908161089a575b5061088b5783600167ffffffffffffffff195f5160206129cc5f395f51905f525416175f5160206129cc5f395f51905f525561085b575b610718612856565b610720612856565b61072983611fef565b610731612856565b610739612856565b60015f5160206129ac5f395f51905f5255610752612856565b6001600160a01b03168015801561084a575b61083b575f80546001600160a01b0319908116929092179055600180549091166001600160a01b039283161781556002819055600355601460115581168015159081610819575b5061080a575b506107b857005b60ff60401b195f5160206129cc5f395f51905f5254165f5160206129cc5f395f51905f52557fc7f505b2f371ae2175ee4913f4499e1f2633a7b5936321eed1cdaeb6115181d2602060405160018152a1005b61081390612133565b816107b1565b5f51602061296c5f395f51905f52546001600160a01b031614159050836107ab565b63cfe2ea6360e01b5f5260045ffd5b506001600160a01b03821615610764565b600160401b60ff60401b195f5160206129cc5f395f51905f525416175f5160206129cc5f395f51905f5255610710565b63f92ee8a960e01b5f5260045ffd5b905015856106d9565b303b1591506106d1565b8591506106c7565b3461021b57602036600319011261021b576004355f52600460205260405f20805460018060a01b0360018301541660028301549260ff6003820154169360048201546005830154600684015460078501549160088601549360ff8086169560081c1699600988015496600b600a8a0154990154996040519b8c5260208c015260408b015261094281611e38565b60608a0152608089015260a088015260c087015260e08601526005811015610418576101008501526002851015610418576101a094610120850152610140840152610160830152610180820152f35b3461021b57604036600319011261021b576109aa611d81565b6001600160a01b03165f908152600c602052604090208054602435919082101561021b576020916109da91611e58565b90549060031b1c604051908152f35b3461021b575f36600319011261021b5760206040516202a3008152f35b3461021b57602036600319011261021b576004355f52600b60205260405f2060018060a01b038154166001820191604051925f8154908160011c9260018316928315610b7e575b602085108414610b6a578488528793908115610b485750600114610b04575b50610a7992500384611ddf565b600281015490600381015490600481015460ff600583015416600683015490600784015492600960ff60088701541695015495610aca6040519a8b9a8b5261014060208c01526101408b0190611e81565b9760408a015260608901526080880152610ae381611e38565b60a087015260c086015260e085015215156101008401526101208301520390f35b90505f9291925260205f20905f915b818310610b2c575050906020610a799282010186610a6c565b6020919350806001915483858a01015201910190918592610b13565b905060209250610a7994915060ff191682840152151560051b82010186610a6c565b634e487b7160e01b5f52602260045260245ffd5b93607f1693610a4d565b3461021b575f36600319011261021b57610bcf604051610ba9604082611ddf565b60058152640352e302e360dc1b6020820152604051918291602083526020830190611e81565b0390f35b3461021b575f36600319011261021b57602060405160648152f35b3461021b575f36600319011261021b57602060405169010f0cf064dd592000008152f35b3461021b57610c2036611e42565b905f52600660205260405f20805482101561021b57602091610c4191611e58565b905460405160039290921b1c6001600160a01b03168152f35b3461021b575f36600319011261021b575f51602061296c5f395f51905f52546040516001600160a01b039091168152602090f35b3461021b57602036600319011261021b57600435610caa61201c565b80158015610e97575b61042c57805f52600460205260405f2060ff60088201541660058110156104185760010361040957600581019081549060048101918254809114610e88575f85815260056020908152604080832033845290915290206002015460081c60ff16610e7a576002610d249201546120d2565b5f54610d3e908290309033906001600160a01b0316612054565b600460405191610d4d83611dc3565b5f835260208301905f8252610dd5604085015f815260608601600181526080870193845260a08701944286528a5f52600560205260405f2060018060a01b0333165f5260205260405f2097518855516001880155610dbe6002880192511515839060ff801983541691151516179055565b51815461ff00191690151560081b61ff0016179055565b51600384015551910155825f526006602052610df43360405f20611fae565b610dfe8254611fa0565b80925533837fa7858a1f19449eeaf5fbe2692047577d00116ecb460791549c018c79e3ce483b5f80a35414610e41575b60015f5160206129ac5f395f51905f5255005b610e4a81612187565b7faf0f41c2e769faca4f3422a53417b14043b989e8d29fd8aa1f0fb10273d20f1f6020604051428152a280610e2e565b621d934160e11b5f5260045ffd5b63f277526560e01b5f5260045ffd5b50600254811015610cb3565b3461021b57606036600319011261021b57610ebc611dad565b6004355f52600760205260405f206024355f5260205260405f209060018060a01b03165f52602052602060ff60405f2054166040519015158152f35b3461021b57606036600319011261021b57610f11611d81565b610f19611d97565b60443560ff811680910361021b575f5160206129cc5f395f51905f52548160ff8260401c16918215611039575b505061088b577fc7f505b2f371ae2175ee4913f4499e1f2633a7b5936321eed1cdaeb6115181d2926020928267ffffffffffffffff195f5160206129cc5f395f51905f525416175f5160206129cc5f395f51905f525560ff60401b195f5160206129cc5f395f51905f52541691600160401b83175f5160206129cc5f395f51905f5255610fd1612100565b6001600160a01b031680611022575b506001600160a01b031680611009575b505f5160206129cc5f395f51905f5255604051908152a1005b6001600160601b0360a01b600154161760015584610ff0565b6001600160601b0360a01b5f5416175f5585610fe0565b67ffffffffffffffff16101590508185610f46565b3461021b575f36600319011261021b57611066612100565b5f51602061296c5f395f51905f5280546001600160a01b031981169091555f906001600160a01b03167f8be0079c531659141344cd1fd0a4f28419497f9722a3daafe3b4186f6b6457e08280a3005b3461021b576110c336611e42565b905f52600860205260405f20905f52602052602060405f2054604051908152f35b3461021b57608036600319011261021b576110fd61201c565b331561145357600435670de0b6b3a764000081108015611440575b61143157604435600581108015611427575b611418576002549061113b82611fa0565b60025561114881846120d2565b60643593600285101561021b57600185146113c9575b5f54611178908390309033906001600160a01b0316612054565b60243591600383101561021b576040516101a0810181811067ffffffffffffffff8211176113b557604052858152856020820197338952604083019685885260608401966111c581611e38565b87526080840181815260a085016001815260c08601915f835260e0870193845261010087019960018b52610120880195865261014088019b428d5261016089019e8f5f90526101808a01985f8a525f52600460205260405f2099518a5560018a0190600160a01b600190039051166001600160601b0360a01b82541617905551600289015560038801905161125981611e38565b61126281611e38565b60ff198254169060ff1617905551600487015551600586015551600685015551600784015560088301955160058110156104185760ff8019885416911617865551906002821015610418576020987f83b945859e19f480c406ac4e6ac635d422aad2665c1d65da9419b81d51ba61a8976112e0600b94606099611eb2565b51600985015551600a840155519101556004604051916112ff83611dc3565b5f8352878301905f825261136c604085015f8152878601600181526080870193845260a08701944286528b5f5260058d5260405f2060018060a01b0333165f528d5260405f2097518855516001880155610dbe6002880192511515839060ff801983541691151516179055565b51600384015551910155835f526006855261138a3360405f20611fae565b6040519084825233868301526040820152a160015f5160206129ac5f395f51905f5255604051908152f35b634e487b7160e01b5f52604160045260245ffd5b6706f05b59d3b20000820182116103d7576010546706f05b59d3b200008101106103d75733847f46fc58301c2ea9f88a47be840edd44559d82b3c0a69ed37ac62f63b313540b615f80a361115e565b63027ee80d60e51b5f5260045ffd5b506014811161112a565b631717aceb60e31b5f5260045ffd5b5069010f0cf064dd592000008111611118565b6302154e0360e21b5f5260045ffd5b3461021b57604036600319011261021b5761147b611d97565b6004355f52600a60205260405f209060018060a01b03165f52602052602060ff60405f205416604051906114ae81611e38565b8152f35b3461021b575f36600319011261021b576001546040516001600160a01b039091168152602090f35b3461021b575f36600319011261021b5760206040516113ec8152f35b3461021b57604036600319011261021b57602435600435600382101561021b57801580156116c0575b61042c5761152c82611e38565b81156116b157805f52600460205260ff600860405f200154166005811015610418576002036116a2575f81815260056020908152604080832033845290915290206002015460081c60ff16156103fa57805f52600960205260405f20600281019060ff825460101c16156116a257600101544211611693575f828152600a6020908152604080832033845290915290205460ff166115c981611e38565b611684575f828152600a6020908152604080832033845290915290206115ee84611e38565b60ff1981541660ff851617905561160483611e38565b6001830361165c5760ff61161a81835416611f8f565b1660ff198254161790555b6040519161163281611e38565b82527feba4866100b822f0f391e610e7edfab790b9e8766c0012733c26b2f1858e8dd760203393a3005b61166c60ff825460081c16611f8f565b61ff0082549160081b169061ff001916179055611625565b637c9a1cf960e01b5f5260045ffd5b63370ec37160e21b5f5260045ffd5b639b8cc47560e01b5f5260045ffd5b6364a2c03160e11b5f5260045ffd5b5060025481101561151f565b3461021b575f36600319011261021b577f00000000000000000000000000000000000000000000000000000000000000006001600160a01b031630036117235760206040515f51602061298c5f395f51905f528152f35b63703e46dd60e11b5f5260045ffd5b604036600319011261021b57611746611d81565b6024359067ffffffffffffffff821161021b573660238301121561021b5781600401359061177382611e01565b916117816040519384611ddf565b8083526020830193366024838301011161021b57815f926024602093018737840101526001600160a01b037f00000000000000000000000000000000000000000000000000000000000000001630811490811561196b575b50611723576117e6612100565b60018060a01b03811692837f8c26ec1c89a900331babb88eefa754f9b9ed370abe61944d6874e37612764c3f602060405160018152a26040516352d1902d60e01b8152602081600481885afa5f9181611937575b506118525784634c9c8ce360e01b5f5260045260245ffd5b805f51602061298c5f395f51905f528692036119255750823b15611913575f51602061298c5f395f51905f5280546001600160a01b031916821790557fbc7cd75a20ee27fd9adebab32041f755214dbc6bffa90cc0225b39da2e5c2d3b5f80a28251156118fa575f80916104aa945190845af43d156118f2573d916118d683611e01565b926118e46040519485611ddf565b83523d5f602085013e61290d565b60609161290d565b5050503461190457005b63b398979f60e01b5f5260045ffd5b634c9c8ce360e01b5f5260045260245ffd5b632a87526960e21b5f5260045260245ffd5b9091506020813d602011611963575b8161195360209383611ddf565b8101031261021b5751908661183a565b3d9150611946565b5f51602061298c5f395f51905f52546001600160a01b031614159050846117d9565b3461021b575f36600319011261021b5760206040516706f05b59d3b200008152f35b3461021b57602036600319011261021b5760043580158015611ad9575b61042c57805f52600460205260405f20600881019060ff8254166005811015610418576001036104095760058101546004820154603c810290808204603c14901517156103d75760649004116105695780600961054260ff6003611a3295015416612098565b42101561055a57815f52600960205260405f209060028201805460ff8160101c16611aca5760181c60ff16611abb574283556202a3004201928342116103d757600101928355805463ffffffff191662010000179055805460ff1916600217905554907ff4e39a27c6c29179b6afb3a070360307cdbda13933023287f5ca10a69b3628e25f80a3005b63f792f8f960e01b5f5260045ffd5b633483eb6360e01b5f5260045ffd5b506002548110156119cc565b3461021b575f36600319011261021b576020604051670de0b6b3a76400008152f35b3461021b57602036600319011261021b576020611b25600435611ed1565b6040519015158152f35b3461021b57604036600319011261021b57611b48611d97565b6004355f52600560205260405f209060018060a01b03165f5260205260c060405f2080549060018101549060ff6002820154600460038401549301549360405195865260208601528181161515604086015260081c1615156060840152608083015260a0820152f35b3461021b575f36600319011261021b576020601154604051908152f35b3461021b57604036600319011261021b57600435602435600281101561021b57611bf661201c565b81158015611d1b575b61042c575f82815260046020526040902060018101546001600160a01b031633036105785760080190815460ff8116600581101561041857600103611d0c5760081c60ff166002811015610418578114611cfd575f546040516323b872dd60e01b60208201523360248201523060448201526706f05b59d3b200006064808301919091528152611ca2916001600160a01b0316611c9d608483611ddf565b612514565b601054916706f05b59d3b2000083018093116103d757611cc492601055611eb2565b33907f46fc58301c2ea9f88a47be840edd44559d82b3c0a69ed37ac62f63b313540b615f80a360015f5160206129ac5f395f51905f5255005b63051a3ed560e11b5f5260045ffd5b63a407615b60e01b5f5260045ffd5b50600254821015611bff565b3461021b57602036600319011261021b576001600160a01b03611d48611d81565b165f52600f602052602060405f2054604051908152f35b3461021b575f36600319011261021b575f546001600160a01b03168152602090f35b600435906001600160a01b038216820361021b57565b602435906001600160a01b038216820361021b57565b604435906001600160a01b038216820361021b57565b60c0810190811067ffffffffffffffff8211176113b557604052565b90601f8019910116810190811067ffffffffffffffff8211176113b557604052565b67ffffffffffffffff81116113b557601f01601f191660200190565b3461021b575f36600319011261021b57602060405160148152f35b6003111561041857565b604090600319011261021b576004359060243590565b8054821015611e6d575f5260205f2001905f90565b634e487b7160e01b5f52603260045260245ffd5b805180835260209291819084018484015e5f828201840152601f01601f1916010190565b919082018092116103d757565b9060028110156104185761ff0082549160081b169061ff001916179055565b805f52600460205260405f20905f526009602052600260405f2001549060ff8260181c1615611f76576008015460ff16600581101561041857600314611f715760ff8082169160081c16810160ff81116103d75760ff169081159081611f6857612710029061ffff82169182036103d757611f54576113ec9161ffff9104161090565b634e487b7160e01b5f52601260045260245ffd5b50600192915050565b505f90565b50505f90565b818102929181159184041417156103d757565b60ff1660ff81146103d75760010190565b5f1981146103d75760010190565b8054600160401b8110156113b557611fcb91600182018155611e58565b81546001600160a01b0393841660039290921b91821b9390911b1916919091179055565b6001600160a01b038116156120095761200790612133565b565b631e4fbdf760e01b5f525f60045260245ffd5b60025f5160206129ac5f395f51905f5254146120455760025f5160206129ac5f395f51905f5255565b633ee5aeb560e01b5f5260045ffd5b6040516323b872dd60e01b60208201526001600160a01b03928316602482015292909116604483015260648083019390935291815261200791611c9d608483611ddf565b6120a181611e38565b80159081156120be575b506120b7576212750090565b62093a8090565b600191506120cb81611e38565b145f6120ab565b906120dc91611f7c565b6064810290808204606414811517156103d7576127106120fd920490611ea5565b90565b5f51602061296c5f395f51905f52546001600160a01b0316330361212057565b63118cdaa760e01b5f523360045260245ffd5b5f51602061296c5f395f51905f5280546001600160a01b039283166001600160a01b0319821681179092559091167f8be0079c531659141344cd1fd0a4f28419497f9722a3daafe3b4186f6b6457e05f80a3565b5f8181526004602090815260408083206006835281842060058452828520600180840180546001600160a01b03908116895292875296859020819055955493519586529196959492909116929091839185917ffc79da6c5316f4c3a2841a4a8ee84045b0cda7f9c0b91deec048b7f26d4293cf9190a38054915f198301918383116103d75761221583612577565b936122236040519586611ddf565b838552601f1961223285612577565b0136602087013761224284612577565b926122506040519485611ddf565b848452601f1961225f86612577565b013660208601375f905f5b8381106124005750505050505f5b82811061238e5750505f5b818110612307575050506122bf836008612007949501600360ff1982541617905542600a8201556001600682015560ff600342920154166125a3565b815f52600860205260405f2060015f5260205260405f2055807faf0f41c2e769faca4f3422a53417b14043b989e8d29fd8aa1f0fb10273d20f1f6020604051428152a26125f4565b60028101908181116103d7575f858152600560205260409020600192906001600160a01b03612336848861258f565b5116848060a01b03165f526020528060405f2055857ffc79da6c5316f4c3a2841a4a8ee84045b0cda7f9c0b91deec048b7f26d4293cf6020858060a01b0361237e868a61258f565b511693604051908152a301612283565b600181018082116103d7575b8381106123aa5750600101612278565b806123b76001928561258f565b516123c2848661258f565b51106123cf575b0161239a565b6123d9838561258f565b516123e4828661258f565b516123ef858761258f565b526123fa828661258f565b526123c9565b8161240b8287611e58565b905460039190911b1c6001600160a01b03160361242b575b60010161226a565b916124368386611e58565b905460039190911b1c6001600160a01b0316612452828a61258f565b5261245d8386611e58565b60018060a01b0391549060031b1c165f52600d60205260405f2054906124838487611e58565b60018060a01b0391549060031b1c165f52600e60205260405f205490600a820291808304600a14901517156103d7576124c16124d192600194611ea5565b6124cb828a61258f565b52611fa0565b929050612423565b60405163a9059cbb60e01b60208201526001600160a01b03909216602483015260448083019390935291815261200791611c9d606483611ddf565b905f602091828151910182855af11561256c575f513d61256357506001600160a01b0381163b155b6125435750565b635274afe760e01b5f9081526001600160a01b0391909116600452602490fd5b6001141561253c565b6040513d5f823e3d90fd5b67ffffffffffffffff81116113b55760051b60200190565b8051821015611e6d5760209160051b010190565b6125ac81611e38565b80156125e3576001906125be81611e38565b146125d35762278d0081018091116103d75790565b62093a8081018091116103d75790565b506201518081018091116103d75790565b805f52600460205260405f2061260b600183612881565b6001600160a01b03811690811561285057835f52600560205260405f20825f52602052600260405f20019060ff82541661284957600b84018054600186015490939084906001600160a01b0316860361280c575b5f8054909461267792916001600160a01b03166124d9565b600160ff1982541617905555815f52600d60205260405f20908154600581018091116103d757602086927f52e998e38a9505deab1cc0e4a47bdd8426a6fde45f6693db2fd122e537fcf22b9260019555855f52600e825260405f206126dc8154611fa0565b9055604051908152a46007810154600110156127255760ff600361270b926002600682015501541642906125a3565b905f52600860205260405f2060015f5260205260405f2055565b600801600460ff19825416179055805f52600660205260405f205f5b81548110156127e457600190835f52600560205260405f206127638285611e58565b848060a01b0391549060031b1c16838060a01b03165f5260205260405f2060ff600282015460081c16806127d7575b61279e575b5001612741565b60036127d191015f81549155838060a01b035f54166127bd8487611e58565b868060a01b0391549060031b1c16906124d9565b5f612797565b5060038101541515612792565b50507ffccd3901546cfbb42742cac2c7335bce34f1f8d9844f4f4b53640f79e31010875f80a2565b5061271061281c60115486611f7c565b04938481039081116103d75761283d945f9461267792968792601054611ea5565b6010559450905061265f565b5050505050565b50505050565b60ff5f5160206129cc5f395f51905f525460401c161561287257565b631afcd79f60e31b5f5260045ffd5b90815f52600660205260405f20905f928254935b8481106128a55750505050505f90565b815f52600560205260405f206128bb8286611e58565b905460039190911b1c6001600160a01b03165f908152602091909152604090205483146128ea57600101612895565b929150506128f89250611e58565b905460039190911b1c6001600160a01b031690565b90612931575080511561292257602081519101fd5b63d6bda27560e01b5f5260045ffd5b81511580612962575b612942575090565b639996b31560e01b5f9081526001600160a01b0391909116600452602490fd5b50803b1561293a56fe9016d09d72d40fdae2fd8ceac6b6234c7706214fd39c1cd1e609a0528c199300360894a13ba1a3210667c828492db98dca3e2076cc3735a920a3ca505d382bbc9b779b17422d0df92223018b32b4d1fa46e071723d6817e2486d003becc55f00f0c57e16840df040f15088dc2f81fe391c3923bec73e23a9662efc9c229c6a00a26469706673582212200d0e0b3fd3f6fd16a9e0e5e69b34570c8fce74fa19a3f8fa0c66e99d8d4a446364736f6c634300081e0033f0c57e16840df040f15088dc2f81fe391c3923bec73e23a9662efc9c229c6a00",
    "sourcePath": "/home/isiaq/workspace/CirclePot/smart-contract/src/CirclePotV1.sol",
    "compiler": {
        "name": "solc",
        "version": "0.8.30+commit.73712a01"
    },
    "functionHashes": {
        "LATE_FEE_BPS()": "a8c93057",
        "MAX_CONTRIBUTION()": "94d95f8f",
        "MAX_MEMBERS()": "ea0e35b1",
        "MIN_CONTRIBUTION()": "40650c91",
        "MIN_MEMBERS()": "d9a67220",
        "PLATFORM_FEE_BPS()": "539aa77f",
        "START_VOTE_THRESHOLD()": "58f8d6ff",
        "UPGRADE_INTERFACE_VERSION()": "ad3cb1cc",
        "VERSION()": "ffa1ad74",
        "VISIBILITY_UPDATE_FEE()": "46c39a1d",
        "VOTING_PERIOD()": "b1610d7e",
        "WithdrawCollateral(uint256)": "fc226bcc",
        "cUSDToken()": "0ea86ad8",
        "canWithdrawAfterVote(uint256)": "2dfa6768",
        "castVote(uint256,uint8)": "56781388",
        "circleCounter()": "f3890e1f",
        "circleMemberList(uint256,uint256)": "8fda34bf",
        "circleMembers(uint256,address)": "2c2b97a4",
        "circleRoundDeadlines(uint256,uint256)": "69be46bf",
        "circleVotes(uint256)": "c4ce74e0",
        "circles(uint256)": "bc5e0f30",
        "completedCircles(address)": "fd81593f",
        "createCircle((uint256,uint8,uint256,uint8))": "656cf711",
        "goalCounter()": "f9e9ad39",
        "initialize(address,address,address)": "c0c53b8b",
        "initiateVoting(uint256)": "45714684",
        "joinCircle(uint256)": "86d6cfb3",
        "latePayments(address)": "0f801988",
        "memberVotes(uint256,address)": "63fc152e",
        "owner()": "8da5cb5b",
        "personalGoals(uint256)": "ad5a6982",
        "platformFeeBps()": "22dcd13e",
        "proxiableUUID()": "52d1902d",
        "renounceOwnership()": "715018a6",
        "roundContributions(uint256,uint256,address)": "84bb19cc",
        "startCircle(uint256)": "ec6b733f",
        "totalPlatformFees()": "d3631fa5",
        "transferOwnership(address)": "f2fde38b",
        "treasury()": "61d027b3",
        "updateCircleVisibility(uint256,uint8)": "157a7ec7",
        "upgrade(address,address,uint8)": "7ee839c4",
        "upgradeToAndCall(address,bytes)": "4f1ef286",
        "userGoals(address,uint256)": "b6b3eedf",
        "userReputation(address)": "e503bb05"
    },
    "gasEstimates": {
        "creation": {
            "codeDepositCost": "2157000",
            "executionCost": "infinite",
            "totalCost": "infinite"
        },
        "external": {
            "LATE_FEE_BPS()": "703",
            "MAX_CONTRIBUTION()": "681",
            "MAX_MEMBERS()": "957",
            "MIN_CONTRIBUTION()": "285",
            "MIN_MEMBERS()": "901",
            "PLATFORM_FEE_BPS()": "407",
            "START_VOTE_THRESHOLD()": "439",
            "UPGRADE_INTERFACE_VERSION()": "1016",
            "VERSION()": "1096",
            "VISIBILITY_UPDATE_FEE()": "329",
            "VOTING_PERIOD()": "769",
            "WithdrawCollateral(uint256)": "infinite",
            "cUSDToken()": "2265",
            "canWithdrawAfterVote(uint256)": "4891",
            "castVote(uint256,uint8)": "infinite",
            "circleCounter()": "3114",
            "circleMemberList(uint256,uint256)": "7242",
            "circleMembers(uint256,address)": "11117",
            "circleRoundDeadlines(uint256,uint256)": "2798",
            "circleVotes(uint256)": "7390",
            "circles(uint256)": "26534",
            "completedCircles(address)": "3330",
            "createCircle((uint256,uint8,uint256,uint8))": "infinite",
            "goalCounter()": "3136",
            "initialize(address,address,address)": "infinite",
            "initiateVoting(uint256)": "infinite",
            "joinCircle(uint256)": "infinite",
            "latePayments(address)": "2428",
            "memberVotes(uint256,address)": "2866",
            "owner()": "infinite",
            "personalGoals(uint256)": "infinite",
            "platformFeeBps()": "2322",
            "proxiableUUID()": "infinite",
            "renounceOwnership()": "28514",
            "roundContributions(uint256,uint256,address)": "2989",
            "startCircle(uint256)": "infinite",
            "totalPlatformFees()": "2982",
            "transferOwnership(address)": "29131",
            "treasury()": "2588",
            "updateCircleVisibility(uint256,uint8)": "infinite",
            "upgrade(address,address,uint8)": "infinite",
            "upgradeToAndCall(address,bytes)": "infinite",
            "userGoals(address,uint256)": "7415",
            "userReputation(address)": "3176"
        },
        "internal": {
            "_assignPosition(uint256)": "infinite",
            "_authorizeUpgrade(address)": "infinite",
            "_calcCollateral(uint256,uint256)": "241",
            "_getByPos(uint256,uint256)": "infinite",
            "_nextDeadline(enum CirclePotV1.Frequency,uint256)": "infinite",
            "_payoutRound(uint256,uint256)": "infinite",
            "_progressNextRound(struct CirclePotV1.Circle storage pointer,uint256,uint256)": "infinite",
            "_releaseAllCollateral(uint256)": "infinite",
            "_startCircleInternal(uint256)": "infinite",
            "_ultimatum(enum CirclePotV1.Frequency)": "infinite"
        }
    }
}