{
    "contractName": "CirclePotV1",
    "abi": [
        {
            "inputs": [],
            "stateMutability": "nonpayable",
            "type": "constructor"
        },
        {
            "inputs": [
                {
                    "internalType": "address",
                    "name": "target",
                    "type": "address"
                }
            ],
            "name": "AddressEmptyCode",
            "type": "error"
        },
        {
            "inputs": [],
            "name": "AddressZeroNotAllowed",
            "type": "error"
        },
        {
            "inputs": [],
            "name": "AlreadyContributed",
            "type": "error"
        },
        {
            "inputs": [],
            "name": "AlreadyJoined",
            "type": "error"
        },
        {
            "inputs": [],
            "name": "AlreadyVoted",
            "type": "error"
        },
        {
            "inputs": [],
            "name": "CircleFull",
            "type": "error"
        },
        {
            "inputs": [],
            "name": "CircleNotActive",
            "type": "error"
        },
        {
            "inputs": [],
            "name": "CircleNotExist",
            "type": "error"
        },
        {
            "inputs": [],
            "name": "CircleNotOpen",
            "type": "error"
        },
        {
            "inputs": [],
            "name": "CircleNotPrivate",
            "type": "error"
        },
        {
            "inputs": [
                {
                    "internalType": "address",
                    "name": "implementation",
                    "type": "address"
                }
            ],
            "name": "ERC1967InvalidImplementation",
            "type": "error"
        },
        {
            "inputs": [],
            "name": "ERC1967NonPayable",
            "type": "error"
        },
        {
            "inputs": [],
            "name": "FailedCall",
            "type": "error"
        },
        {
            "inputs": [],
            "name": "GoalNotActive",
            "type": "error"
        },
        {
            "inputs": [],
            "name": "InsufficientBalance",
            "type": "error"
        },
        {
            "inputs": [],
            "name": "InvalidCircle",
            "type": "error"
        },
        {
            "inputs": [],
            "name": "InvalidContributionAmount",
            "type": "error"
        },
        {
            "inputs": [],
            "name": "InvalidDeadline",
            "type": "error"
        },
        {
            "inputs": [],
            "name": "InvalidGoalAmount",
            "type": "error"
        },
        {
            "inputs": [],
            "name": "InvalidInitialization",
            "type": "error"
        },
        {
            "inputs": [],
            "name": "InvalidMemberCount",
            "type": "error"
        },
        {
            "inputs": [],
            "name": "InvalidSavingGoal",
            "type": "error"
        },
        {
            "inputs": [],
            "name": "InvalidTreasuryAddress",
            "type": "error"
        },
        {
            "inputs": [],
            "name": "InvalidVoteChoice",
            "type": "error"
        },
        {
            "inputs": [],
            "name": "MinMembersNotReached",
            "type": "error"
        },
        {
            "inputs": [],
            "name": "NotActiveMember",
            "type": "error"
        },
        {
            "inputs": [],
            "name": "NotGoalOwner",
            "type": "error"
        },
        {
            "inputs": [],
            "name": "NotInitializing",
            "type": "error"
        },
        {
            "inputs": [],
            "name": "NotInvited",
            "type": "error"
        },
        {
            "inputs": [],
            "name": "OnlyCreator",
            "type": "error"
        },
        {
            "inputs": [
                {
                    "internalType": "address",
                    "name": "owner",
                    "type": "address"
                }
            ],
            "name": "OwnableInvalidOwner",
            "type": "error"
        },
        {
            "inputs": [
                {
                    "internalType": "address",
                    "name": "account",
                    "type": "address"
                }
            ],
            "name": "OwnableUnauthorizedAccount",
            "type": "error"
        },
        {
            "inputs": [],
            "name": "ReentrancyGuardReentrantCall",
            "type": "error"
        },
        {
            "inputs": [
                {
                    "internalType": "address",
                    "name": "token",
                    "type": "address"
                }
            ],
            "name": "SafeERC20FailedOperation",
            "type": "error"
        },
        {
            "inputs": [],
            "name": "SameVisibility",
            "type": "error"
        },
        {
            "inputs": [],
            "name": "UUPSUnauthorizedCallContext",
            "type": "error"
        },
        {
            "inputs": [
                {
                    "internalType": "bytes32",
                    "name": "slot",
                    "type": "bytes32"
                }
            ],
            "name": "UUPSUnsupportedProxiableUUID",
            "type": "error"
        },
        {
            "inputs": [],
            "name": "UltimatumNotPassed",
            "type": "error"
        },
        {
            "inputs": [],
            "name": "UltimatumNotReached",
            "type": "error"
        },
        {
            "inputs": [],
            "name": "VoteAlreadyExecuted",
            "type": "error"
        },
        {
            "inputs": [],
            "name": "VotingAlreadyExecuted",
            "type": "error"
        },
        {
            "inputs": [],
            "name": "VotingNotActive",
            "type": "error"
        },
        {
            "inputs": [],
            "name": "VotingPeriodEnded",
            "type": "error"
        },
        {
            "inputs": [],
            "name": "VotingStillActive",
            "type": "error"
        },
        {
            "anonymous": false,
            "inputs": [
                {
                    "indexed": true,
                    "internalType": "uint256",
                    "name": "circleId",
                    "type": "uint256"
                }
            ],
            "name": "CircleCompleted",
            "type": "event"
        },
        {
            "anonymous": false,
            "inputs": [
                {
                    "indexed": false,
                    "internalType": "uint256",
                    "name": "circleId",
                    "type": "uint256"
                },
                {
                    "indexed": false,
                    "internalType": "address",
                    "name": "creator",
                    "type": "address"
                },
                {
                    "indexed": false,
                    "internalType": "uint256",
                    "name": "contributionAmount",
                    "type": "uint256"
                }
            ],
            "name": "CircleCreated",
            "type": "event"
        },
        {
            "anonymous": false,
            "inputs": [
                {
                    "indexed": true,
                    "internalType": "uint256",
                    "name": "circleId",
                    "type": "uint256"
                },
                {
                    "indexed": true,
                    "internalType": "address",
                    "name": "member",
                    "type": "address"
                }
            ],
            "name": "CircleJoined",
            "type": "event"
        },
        {
            "anonymous": false,
            "inputs": [
                {
                    "indexed": true,
                    "internalType": "uint256",
                    "name": "circleId",
                    "type": "uint256"
                },
                {
                    "indexed": false,
                    "internalType": "uint256",
                    "name": "startedAt",
                    "type": "uint256"
                }
            ],
            "name": "CircleStarted",
            "type": "event"
        },
        {
            "anonymous": false,
            "inputs": [
                {
                    "indexed": true,
                    "internalType": "uint256",
                    "name": "circleId",
                    "type": "uint256"
                },
                {
                    "indexed": true,
                    "internalType": "address",
                    "name": "member",
                    "type": "address"
                },
                {
                    "indexed": false,
                    "internalType": "uint256",
                    "name": "amount",
                    "type": "uint256"
                }
            ],
            "name": "CollateralWithdrawn",
            "type": "event"
        },
        {
            "anonymous": false,
            "inputs": [
                {
                    "indexed": true,
                    "internalType": "address",
                    "name": "newImplementation",
                    "type": "address"
                },
                {
                    "indexed": false,
                    "internalType": "uint8",
                    "name": "version",
                    "type": "uint8"
                }
            ],
            "name": "ContractUpgraded",
            "type": "event"
        },
        {
            "anonymous": false,
            "inputs": [
                {
                    "indexed": true,
                    "internalType": "uint256",
                    "name": "circleId",
                    "type": "uint256"
                },
                {
                    "indexed": false,
                    "internalType": "uint8",
                    "name": "round",
                    "type": "uint8"
                },
                {
                    "indexed": false,
                    "internalType": "address",
                    "name": "member",
                    "type": "address"
                },
                {
                    "indexed": true,
                    "internalType": "uint256",
                    "name": "amount",
                    "type": "uint256"
                }
            ],
            "name": "ContributionMade",
            "type": "event"
        },
        {
            "anonymous": false,
            "inputs": [
                {
                    "indexed": true,
                    "internalType": "uint256",
                    "name": "goalId",
                    "type": "uint256"
                },
                {
                    "indexed": true,
                    "internalType": "address",
                    "name": "owner",
                    "type": "address"
                }
            ],
            "name": "GoalCompleted",
            "type": "event"
        },
        {
            "anonymous": false,
            "inputs": [
                {
                    "indexed": true,
                    "internalType": "uint256",
                    "name": "goalId",
                    "type": "uint256"
                },
                {
                    "indexed": true,
                    "internalType": "address",
                    "name": "owner",
                    "type": "address"
                },
                {
                    "indexed": false,
                    "internalType": "uint256",
                    "name": "amount",
                    "type": "uint256"
                }
            ],
            "name": "GoalContribution",
            "type": "event"
        },
        {
            "anonymous": false,
            "inputs": [
                {
                    "indexed": true,
                    "internalType": "uint256",
                    "name": "goalId",
                    "type": "uint256"
                },
                {
                    "indexed": true,
                    "internalType": "address",
                    "name": "owner",
                    "type": "address"
                },
                {
                    "indexed": false,
                    "internalType": "uint256",
                    "name": "_amount",
                    "type": "uint256"
                },
                {
                    "indexed": false,
                    "internalType": "uint256",
                    "name": "penalty",
                    "type": "uint256"
                }
            ],
            "name": "GoalWithdrawn",
            "type": "event"
        },
        {
            "anonymous": false,
            "inputs": [
                {
                    "indexed": false,
                    "internalType": "uint64",
                    "name": "version",
                    "type": "uint64"
                }
            ],
            "name": "Initialized",
            "type": "event"
        },
        {
            "anonymous": false,
            "inputs": [
                {
                    "indexed": true,
                    "internalType": "uint256",
                    "name": "circleId",
                    "type": "uint256"
                },
                {
                    "indexed": false,
                    "internalType": "uint8",
                    "name": "round",
                    "type": "uint8"
                },
                {
                    "indexed": false,
                    "internalType": "address",
                    "name": "member",
                    "type": "address"
                },
                {
                    "indexed": true,
                    "internalType": "uint256",
                    "name": "fee",
                    "type": "uint256"
                }
            ],
            "name": "LatePayment",
            "type": "event"
        },
        {
            "anonymous": false,
            "inputs": [
                {
                    "indexed": true,
                    "internalType": "uint256",
                    "name": "circleId",
                    "type": "uint256"
                },
                {
                    "indexed": true,
                    "internalType": "address",
                    "name": "_invitee",
                    "type": "address"
                }
            ],
            "name": "MemberInvited",
            "type": "event"
        },
        {
            "anonymous": false,
            "inputs": [
                {
                    "indexed": true,
                    "internalType": "address",
                    "name": "previousOwner",
                    "type": "address"
                },
                {
                    "indexed": true,
                    "internalType": "address",
                    "name": "newOwner",
                    "type": "address"
                }
            ],
            "name": "OwnershipTransferred",
            "type": "event"
        },
        {
            "anonymous": false,
            "inputs": [
                {
                    "indexed": true,
                    "internalType": "uint256",
                    "name": "circleId",
                    "type": "uint256"
                },
                {
                    "indexed": true,
                    "internalType": "uint256",
                    "name": "round",
                    "type": "uint256"
                },
                {
                    "indexed": true,
                    "internalType": "address",
                    "name": "recipient",
                    "type": "address"
                },
                {
                    "indexed": false,
                    "internalType": "uint256",
                    "name": "amount",
                    "type": "uint256"
                }
            ],
            "name": "PayoutDistributed",
            "type": "event"
        },
        {
            "anonymous": false,
            "inputs": [
                {
                    "indexed": true,
                    "internalType": "uint256",
                    "name": "goalId",
                    "type": "uint256"
                },
                {
                    "indexed": true,
                    "internalType": "address",
                    "name": "owner",
                    "type": "address"
                },
                {
                    "indexed": false,
                    "internalType": "string",
                    "name": "name",
                    "type": "string"
                },
                {
                    "indexed": true,
                    "internalType": "uint256",
                    "name": "amount",
                    "type": "uint256"
                }
            ],
            "name": "PersonalGoalCreated",
            "type": "event"
        },
        {
            "anonymous": false,
            "inputs": [
                {
                    "indexed": true,
                    "internalType": "uint256",
                    "name": "circledId",
                    "type": "uint256"
                },
                {
                    "indexed": true,
                    "internalType": "address",
                    "name": "member",
                    "type": "address"
                },
                {
                    "indexed": false,
                    "internalType": "uint256",
                    "name": "position",
                    "type": "uint256"
                }
            ],
            "name": "PositionAssigned",
            "type": "event"
        },
        {
            "anonymous": false,
            "inputs": [
                {
                    "indexed": true,
                    "internalType": "address",
                    "name": "implementation",
                    "type": "address"
                }
            ],
            "name": "Upgraded",
            "type": "event"
        },
        {
            "anonymous": false,
            "inputs": [
                {
                    "indexed": true,
                    "internalType": "uint256",
                    "name": "circleId",
                    "type": "uint256"
                },
                {
                    "indexed": true,
                    "internalType": "address",
                    "name": "creator",
                    "type": "address"
                }
            ],
            "name": "VisibilityUpdated",
            "type": "event"
        },
        {
            "anonymous": false,
            "inputs": [
                {
                    "indexed": true,
                    "internalType": "uint256",
                    "name": "circleId",
                    "type": "uint256"
                },
                {
                    "indexed": true,
                    "internalType": "address",
                    "name": "voter",
                    "type": "address"
                },
                {
                    "indexed": false,
                    "internalType": "enum CirclePotV1.VoteChoice",
                    "name": "choice",
                    "type": "uint8"
                }
            ],
            "name": "VoteCast",
            "type": "event"
        },
        {
            "anonymous": false,
            "inputs": [
                {
                    "indexed": true,
                    "internalType": "uint256",
                    "name": "circleId",
                    "type": "uint256"
                },
                {
                    "indexed": false,
                    "internalType": "bool",
                    "name": "circleStarted",
                    "type": "bool"
                },
                {
                    "indexed": false,
                    "internalType": "uint256",
                    "name": "startVoteCount",
                    "type": "uint256"
                },
                {
                    "indexed": false,
                    "internalType": "uint256",
                    "name": "withdrawVoteCount",
                    "type": "uint256"
                }
            ],
            "name": "VoteExecuted",
            "type": "event"
        },
        {
            "anonymous": false,
            "inputs": [
                {
                    "indexed": true,
                    "internalType": "uint256",
                    "name": "circleId",
                    "type": "uint256"
                },
                {
                    "indexed": true,
                    "internalType": "uint256",
                    "name": "votingEndTime",
                    "type": "uint256"
                }
            ],
            "name": "VotingInitiated",
            "type": "event"
        },
        {
            "inputs": [
                {
                    "internalType": "uint256",
                    "name": "_goalId",
                    "type": "uint256"
                }
            ],
            "name": "CompleteGoal",
            "outputs": [],
            "stateMutability": "nonpayable",
            "type": "function"
        },
        {
            "inputs": [
                {
                    "internalType": "uint256",
                    "name": "_goalId",
                    "type": "uint256"
                }
            ],
            "name": "ContributeToGoal",
            "outputs": [],
            "stateMutability": "nonpayable",
            "type": "function"
        },
        {
            "inputs": [],
            "name": "LATE_FEE_BPS",
            "outputs": [
                {
                    "internalType": "uint256",
                    "name": "",
                    "type": "uint256"
                }
            ],
            "stateMutability": "view",
            "type": "function"
        },
        {
            "inputs": [],
            "name": "MAX_CONTRIBUTION",
            "outputs": [
                {
                    "internalType": "uint256",
                    "name": "",
                    "type": "uint256"
                }
            ],
            "stateMutability": "view",
            "type": "function"
        },
        {
            "inputs": [],
            "name": "MAX_MEMBERS",
            "outputs": [
                {
                    "internalType": "uint8",
                    "name": "",
                    "type": "uint8"
                }
            ],
            "stateMutability": "view",
            "type": "function"
        },
        {
            "inputs": [],
            "name": "MIN_CONTRIBUTION",
            "outputs": [
                {
                    "internalType": "uint256",
                    "name": "",
                    "type": "uint256"
                }
            ],
            "stateMutability": "view",
            "type": "function"
        },
        {
            "inputs": [],
            "name": "MIN_MEMBERS",
            "outputs": [
                {
                    "internalType": "uint8",
                    "name": "",
                    "type": "uint8"
                }
            ],
            "stateMutability": "view",
            "type": "function"
        },
        {
            "inputs": [],
            "name": "PLATFORM_FEE_BPS",
            "outputs": [
                {
                    "internalType": "uint256",
                    "name": "",
                    "type": "uint256"
                }
            ],
            "stateMutability": "view",
            "type": "function"
        },
        {
            "inputs": [],
            "name": "START_VOTE_THRESHOLD",
            "outputs": [
                {
                    "internalType": "uint256",
                    "name": "",
                    "type": "uint256"
                }
            ],
            "stateMutability": "view",
            "type": "function"
        },
        {
            "inputs": [],
            "name": "UPGRADE_INTERFACE_VERSION",
            "outputs": [
                {
                    "internalType": "string",
                    "name": "",
                    "type": "string"
                }
            ],
            "stateMutability": "view",
            "type": "function"
        },
        {
            "inputs": [],
            "name": "VERSION",
            "outputs": [
                {
                    "internalType": "uint8",
                    "name": "",
                    "type": "uint8"
                }
            ],
            "stateMutability": "view",
            "type": "function"
        },
        {
            "inputs": [],
            "name": "VISIBILITY_UPDATE_FEE",
            "outputs": [
                {
                    "internalType": "uint256",
                    "name": "",
                    "type": "uint256"
                }
            ],
            "stateMutability": "view",
            "type": "function"
        },
        {
            "inputs": [],
            "name": "VOTING_PERIOD",
            "outputs": [
                {
                    "internalType": "uint256",
                    "name": "",
                    "type": "uint256"
                }
            ],
            "stateMutability": "view",
            "type": "function"
        },
        {
            "inputs": [
                {
                    "internalType": "uint256",
                    "name": "_circleId",
                    "type": "uint256"
                }
            ],
            "name": "WithdrawCollateral",
            "outputs": [],
            "stateMutability": "nonpayable",
            "type": "function"
        },
        {
            "inputs": [
                {
                    "internalType": "enum CirclePotV1.Frequency",
                    "name": "f",
                    "type": "uint8"
                }
            ],
            "name": "_getGracePeriod",
            "outputs": [
                {
                    "internalType": "uint256",
                    "name": "",
                    "type": "uint256"
                }
            ],
            "stateMutability": "pure",
            "type": "function"
        },
        {
            "inputs": [],
            "name": "cUSDToken",
            "outputs": [
                {
                    "internalType": "address",
                    "name": "",
                    "type": "address"
                }
            ],
            "stateMutability": "view",
            "type": "function"
        },
        {
            "inputs": [
                {
                    "internalType": "uint256",
                    "name": "_circleId",
                    "type": "uint256"
                }
            ],
            "name": "canWithdrawAfterVote",
            "outputs": [
                {
                    "internalType": "bool",
                    "name": "",
                    "type": "bool"
                }
            ],
            "stateMutability": "view",
            "type": "function"
        },
        {
            "inputs": [
                {
                    "internalType": "uint256",
                    "name": "_circleId",
                    "type": "uint256"
                },
                {
                    "internalType": "enum CirclePotV1.VoteChoice",
                    "name": "_choice",
                    "type": "uint8"
                }
            ],
            "name": "castVote",
            "outputs": [],
            "stateMutability": "nonpayable",
            "type": "function"
        },
        {
            "inputs": [],
            "name": "circleCounter",
            "outputs": [
                {
                    "internalType": "uint256",
                    "name": "",
                    "type": "uint256"
                }
            ],
            "stateMutability": "view",
            "type": "function"
        },
        {
            "inputs": [
                {
                    "internalType": "uint256",
                    "name": "",
                    "type": "uint256"
                },
                {
                    "internalType": "address",
                    "name": "",
                    "type": "address"
                }
            ],
            "name": "circleInvitations",
            "outputs": [
                {
                    "internalType": "bool",
                    "name": "",
                    "type": "bool"
                }
            ],
            "stateMutability": "view",
            "type": "function"
        },
        {
            "inputs": [
                {
                    "internalType": "uint256",
                    "name": "",
                    "type": "uint256"
                },
                {
                    "internalType": "uint256",
                    "name": "",
                    "type": "uint256"
                }
            ],
            "name": "circleMemberList",
            "outputs": [
                {
                    "internalType": "address",
                    "name": "",
                    "type": "address"
                }
            ],
            "stateMutability": "view",
            "type": "function"
        },
        {
            "inputs": [
                {
                    "internalType": "uint256",
                    "name": "",
                    "type": "uint256"
                },
                {
                    "internalType": "address",
                    "name": "",
                    "type": "address"
                }
            ],
            "name": "circleMembers",
            "outputs": [
                {
                    "internalType": "uint8",
                    "name": "position",
                    "type": "uint8"
                },
                {
                    "internalType": "uint256",
                    "name": "totalContributed",
                    "type": "uint256"
                },
                {
                    "internalType": "bool",
                    "name": "hasReceivedPayout",
                    "type": "bool"
                },
                {
                    "internalType": "bool",
                    "name": "isActive",
                    "type": "bool"
                },
                {
                    "internalType": "uint256",
                    "name": "collateralLocked",
                    "type": "uint256"
                },
                {
                    "internalType": "uint256",
                    "name": "joinedAt",
                    "type": "uint256"
                }
            ],
            "stateMutability": "view",
            "type": "function"
        },
        {
            "inputs": [
                {
                    "internalType": "uint256",
                    "name": "",
                    "type": "uint256"
                },
                {
                    "internalType": "uint256",
                    "name": "",
                    "type": "uint256"
                }
            ],
            "name": "circleRoundDeadlines",
            "outputs": [
                {
                    "internalType": "uint256",
                    "name": "",
                    "type": "uint256"
                }
            ],
            "stateMutability": "view",
            "type": "function"
        },
        {
            "inputs": [
                {
                    "internalType": "uint256",
                    "name": "",
                    "type": "uint256"
                }
            ],
            "name": "circleVotes",
            "outputs": [
                {
                    "internalType": "uint256",
                    "name": "votingStartTime",
                    "type": "uint256"
                },
                {
                    "internalType": "uint256",
                    "name": "votingEndTime",
                    "type": "uint256"
                },
                {
                    "internalType": "uint8",
                    "name": "startVoteCount",
                    "type": "uint8"
                },
                {
                    "internalType": "uint8",
                    "name": "withdrawVoteCount",
                    "type": "uint8"
                },
                {
                    "internalType": "bool",
                    "name": "votingActive",
                    "type": "bool"
                },
                {
                    "internalType": "bool",
                    "name": "voteExecuted",
                    "type": "bool"
                }
            ],
            "stateMutability": "view",
            "type": "function"
        },
        {
            "inputs": [
                {
                    "internalType": "uint256",
                    "name": "",
                    "type": "uint256"
                }
            ],
            "name": "circles",
            "outputs": [
                {
                    "internalType": "uint256",
                    "name": "circleId",
                    "type": "uint256"
                },
                {
                    "internalType": "address",
                    "name": "creator",
                    "type": "address"
                },
                {
                    "internalType": "uint256",
                    "name": "contributionAmount",
                    "type": "uint256"
                },
                {
                    "internalType": "enum CirclePotV1.Frequency",
                    "name": "frequency",
                    "type": "uint8"
                },
                {
                    "internalType": "uint8",
                    "name": "maxMembers",
                    "type": "uint8"
                },
                {
                    "internalType": "uint8",
                    "name": "currentMembers",
                    "type": "uint8"
                },
                {
                    "internalType": "uint8",
                    "name": "currentRound",
                    "type": "uint8"
                },
                {
                    "internalType": "uint8",
                    "name": "totalRounds",
                    "type": "uint8"
                },
                {
                    "internalType": "enum CirclePotV1.CircleState",
                    "name": "state",
                    "type": "uint8"
                },
                {
                    "internalType": "enum CirclePotV1.Visibility",
                    "name": "visibility",
                    "type": "uint8"
                },
                {
                    "internalType": "uint256",
                    "name": "createdAt",
                    "type": "uint256"
                },
                {
                    "internalType": "uint256",
                    "name": "startedAt",
                    "type": "uint256"
                },
                {
                    "internalType": "uint256",
                    "name": "totalPot",
                    "type": "uint256"
                }
            ],
            "stateMutability": "view",
            "type": "function"
        },
        {
            "inputs": [
                {
                    "internalType": "address",
                    "name": "",
                    "type": "address"
                }
            ],
            "name": "completedCircles",
            "outputs": [
                {
                    "internalType": "uint256",
                    "name": "",
                    "type": "uint256"
                }
            ],
            "stateMutability": "view",
            "type": "function"
        },
        {
            "inputs": [
                {
                    "internalType": "uint256",
                    "name": "_circleId",
                    "type": "uint256"
                }
            ],
            "name": "contribute",
            "outputs": [],
            "stateMutability": "nonpayable",
            "type": "function"
        },
        {
            "inputs": [
                {
                    "components": [
                        {
                            "internalType": "uint256",
                            "name": "contributionAmount",
                            "type": "uint256"
                        },
                        {
                            "internalType": "enum CirclePotV1.Frequency",
                            "name": "frequency",
                            "type": "uint8"
                        },
                        {
                            "internalType": "uint8",
                            "name": "maxMembers",
                            "type": "uint8"
                        },
                        {
                            "internalType": "enum CirclePotV1.Visibility",
                            "name": "visibility",
                            "type": "uint8"
                        }
                    ],
                    "internalType": "struct CirclePotV1.CreateCircleParams",
                    "name": "params",
                    "type": "tuple"
                }
            ],
            "name": "createCircle",
            "outputs": [
                {
                    "internalType": "uint256",
                    "name": "",
                    "type": "uint256"
                }
            ],
            "stateMutability": "nonpayable",
            "type": "function"
        },
        {
            "inputs": [
                {
                    "components": [
                        {
                            "internalType": "string",
                            "name": "name",
                            "type": "string"
                        },
                        {
                            "internalType": "uint256",
                            "name": "targetAmount",
                            "type": "uint256"
                        },
                        {
                            "internalType": "uint256",
                            "name": "contributionAmount",
                            "type": "uint256"
                        },
                        {
                            "internalType": "enum CirclePotV1.Frequency",
                            "name": "frequency",
                            "type": "uint8"
                        },
                        {
                            "internalType": "uint256",
                            "name": "deadline",
                            "type": "uint256"
                        }
                    ],
                    "internalType": "struct CirclePotV1.CreateGoalParams",
                    "name": "params",
                    "type": "tuple"
                }
            ],
            "name": "createPersonalGoal",
            "outputs": [
                {
                    "internalType": "uint256",
                    "name": "",
                    "type": "uint256"
                }
            ],
            "stateMutability": "nonpayable",
            "type": "function"
        },
        {
            "inputs": [
                {
                    "internalType": "uint256",
                    "name": "_circleId",
                    "type": "uint256"
                }
            ],
            "name": "executeVote",
            "outputs": [],
            "stateMutability": "nonpayable",
            "type": "function"
        },
        {
            "inputs": [
                {
                    "internalType": "uint256",
                    "name": "_circleId",
                    "type": "uint256"
                }
            ],
            "name": "getCircleDetails",
            "outputs": [
                {
                    "components": [
                        {
                            "internalType": "uint256",
                            "name": "circleId",
                            "type": "uint256"
                        },
                        {
                            "internalType": "address",
                            "name": "creator",
                            "type": "address"
                        },
                        {
                            "internalType": "uint256",
                            "name": "contributionAmount",
                            "type": "uint256"
                        },
                        {
                            "internalType": "enum CirclePotV1.Frequency",
                            "name": "frequency",
                            "type": "uint8"
                        },
                        {
                            "internalType": "uint8",
                            "name": "maxMembers",
                            "type": "uint8"
                        },
                        {
                            "internalType": "uint8",
                            "name": "currentMembers",
                            "type": "uint8"
                        },
                        {
                            "internalType": "uint8",
                            "name": "currentRound",
                            "type": "uint8"
                        },
                        {
                            "internalType": "uint8",
                            "name": "totalRounds",
                            "type": "uint8"
                        },
                        {
                            "internalType": "enum CirclePotV1.CircleState",
                            "name": "state",
                            "type": "uint8"
                        },
                        {
                            "internalType": "enum CirclePotV1.Visibility",
                            "name": "visibility",
                            "type": "uint8"
                        },
                        {
                            "internalType": "uint256",
                            "name": "createdAt",
                            "type": "uint256"
                        },
                        {
                            "internalType": "uint256",
                            "name": "startedAt",
                            "type": "uint256"
                        },
                        {
                            "internalType": "uint256",
                            "name": "totalPot",
                            "type": "uint256"
                        }
                    ],
                    "internalType": "struct CirclePotV1.Circle",
                    "name": "circle",
                    "type": "tuple"
                },
                {
                    "internalType": "uint256",
                    "name": "membersJoined",
                    "type": "uint256"
                },
                {
                    "internalType": "uint256",
                    "name": "currentDeadline",
                    "type": "uint256"
                },
                {
                    "internalType": "bool",
                    "name": "canStart",
                    "type": "bool"
                }
            ],
            "stateMutability": "view",
            "type": "function"
        },
        {
            "inputs": [
                {
                    "internalType": "uint256",
                    "name": "_circleId",
                    "type": "uint256"
                }
            ],
            "name": "getCircleMembers",
            "outputs": [
                {
                    "internalType": "address[]",
                    "name": "",
                    "type": "address[]"
                }
            ],
            "stateMutability": "view",
            "type": "function"
        },
        {
            "inputs": [
                {
                    "internalType": "uint256",
                    "name": "_circleId",
                    "type": "uint256"
                }
            ],
            "name": "getCircleProgress",
            "outputs": [
                {
                    "internalType": "uint8",
                    "name": "currentRound",
                    "type": "uint8"
                },
                {
                    "internalType": "uint8",
                    "name": "totalRounds",
                    "type": "uint8"
                },
                {
                    "internalType": "uint256",
                    "name": "contributionsThisRound",
                    "type": "uint256"
                },
                {
                    "internalType": "uint8",
                    "name": "totalMembers",
                    "type": "uint8"
                }
            ],
            "stateMutability": "view",
            "type": "function"
        },
        {
            "inputs": [
                {
                    "internalType": "uint256",
                    "name": "_circleId",
                    "type": "uint256"
                },
                {
                    "internalType": "address",
                    "name": "_member",
                    "type": "address"
                }
            ],
            "name": "getMemberInfo",
            "outputs": [
                {
                    "components": [
                        {
                            "internalType": "uint8",
                            "name": "position",
                            "type": "uint8"
                        },
                        {
                            "internalType": "uint256",
                            "name": "totalContributed",
                            "type": "uint256"
                        },
                        {
                            "internalType": "bool",
                            "name": "hasReceivedPayout",
                            "type": "bool"
                        },
                        {
                            "internalType": "bool",
                            "name": "isActive",
                            "type": "bool"
                        },
                        {
                            "internalType": "uint256",
                            "name": "collateralLocked",
                            "type": "uint256"
                        },
                        {
                            "internalType": "uint256",
                            "name": "joinedAt",
                            "type": "uint256"
                        }
                    ],
                    "internalType": "struct CirclePotV1.Member",
                    "name": "memberInfo",
                    "type": "tuple"
                },
                {
                    "internalType": "bool",
                    "name": "hasContributedThisRound",
                    "type": "bool"
                },
                {
                    "internalType": "uint256",
                    "name": "nextDeadline",
                    "type": "uint256"
                }
            ],
            "stateMutability": "view",
            "type": "function"
        },
        {
            "inputs": [
                {
                    "internalType": "address",
                    "name": "_user",
                    "type": "address"
                }
            ],
            "name": "getUserCircles",
            "outputs": [
                {
                    "internalType": "uint256[]",
                    "name": "",
                    "type": "uint256[]"
                }
            ],
            "stateMutability": "view",
            "type": "function"
        },
        {
            "inputs": [
                {
                    "internalType": "address",
                    "name": "_user",
                    "type": "address"
                }
            ],
            "name": "getUserGoals",
            "outputs": [
                {
                    "internalType": "uint256[]",
                    "name": "",
                    "type": "uint256[]"
                }
            ],
            "stateMutability": "view",
            "type": "function"
        },
        {
            "inputs": [
                {
                    "internalType": "address",
                    "name": "_user",
                    "type": "address"
                }
            ],
            "name": "getUserReputation",
            "outputs": [
                {
                    "internalType": "uint256",
                    "name": "reputation",
                    "type": "uint256"
                },
                {
                    "internalType": "uint256",
                    "name": "circlesCompleted",
                    "type": "uint256"
                },
                {
                    "internalType": "uint256",
                    "name": "latePaymentsCount",
                    "type": "uint256"
                }
            ],
            "stateMutability": "view",
            "type": "function"
        },
        {
            "inputs": [
                {
                    "internalType": "uint256",
                    "name": "_circleId",
                    "type": "uint256"
                }
            ],
            "name": "getVoteInfo",
            "outputs": [
                {
                    "internalType": "uint256",
                    "name": "votingEndTime",
                    "type": "uint256"
                },
                {
                    "internalType": "uint8",
                    "name": "startVoteCount",
                    "type": "uint8"
                },
                {
                    "internalType": "uint8",
                    "name": "withdrawVoteCount",
                    "type": "uint8"
                },
                {
                    "internalType": "bool",
                    "name": "votingActive",
                    "type": "bool"
                },
                {
                    "internalType": "bool",
                    "name": "voteExecuted",
                    "type": "bool"
                },
                {
                    "internalType": "enum CirclePotV1.VoteChoice",
                    "name": "userVote",
                    "type": "uint8"
                }
            ],
            "stateMutability": "view",
            "type": "function"
        },
        {
            "inputs": [],
            "name": "goalCounter",
            "outputs": [
                {
                    "internalType": "uint256",
                    "name": "",
                    "type": "uint256"
                }
            ],
            "stateMutability": "view",
            "type": "function"
        },
        {
            "inputs": [
                {
                    "internalType": "address",
                    "name": "_cUSDToken",
                    "type": "address"
                },
                {
                    "internalType": "address",
                    "name": "_treasury",
                    "type": "address"
                },
                {
                    "internalType": "address",
                    "name": "initialOwner",
                    "type": "address"
                }
            ],
            "name": "initialize",
            "outputs": [],
            "stateMutability": "nonpayable",
            "type": "function"
        },
        {
            "inputs": [
                {
                    "internalType": "uint256",
                    "name": "_circleId",
                    "type": "uint256"
                }
            ],
            "name": "initiateVoting",
            "outputs": [],
            "stateMutability": "nonpayable",
            "type": "function"
        },
        {
            "inputs": [
                {
                    "internalType": "uint256",
                    "name": "_circleId",
                    "type": "uint256"
                },
                {
                    "internalType": "address[]",
                    "name": "_invitees",
                    "type": "address[]"
                }
            ],
            "name": "inviteMembers",
            "outputs": [],
            "stateMutability": "nonpayable",
            "type": "function"
        },
        {
            "inputs": [
                {
                    "internalType": "uint256",
                    "name": "_circleId",
                    "type": "uint256"
                },
                {
                    "internalType": "address",
                    "name": "_user",
                    "type": "address"
                }
            ],
            "name": "isInvited",
            "outputs": [
                {
                    "internalType": "bool",
                    "name": "",
                    "type": "bool"
                }
            ],
            "stateMutability": "view",
            "type": "function"
        },
        {
            "inputs": [
                {
                    "internalType": "uint256",
                    "name": "_circleId",
                    "type": "uint256"
                }
            ],
            "name": "joinCircle",
            "outputs": [],
            "stateMutability": "nonpayable",
            "type": "function"
        },
        {
            "inputs": [
                {
                    "internalType": "address",
                    "name": "",
                    "type": "address"
                }
            ],
            "name": "latePayments",
            "outputs": [
                {
                    "internalType": "uint256",
                    "name": "",
                    "type": "uint256"
                }
            ],
            "stateMutability": "view",
            "type": "function"
        },
        {
            "inputs": [
                {
                    "internalType": "uint256",
                    "name": "",
                    "type": "uint256"
                },
                {
                    "internalType": "address",
                    "name": "",
                    "type": "address"
                }
            ],
            "name": "memberVotes",
            "outputs": [
                {
                    "internalType": "enum CirclePotV1.VoteChoice",
                    "name": "",
                    "type": "uint8"
                }
            ],
            "stateMutability": "view",
            "type": "function"
        },
        {
            "inputs": [],
            "name": "owner",
            "outputs": [
                {
                    "internalType": "address",
                    "name": "",
                    "type": "address"
                }
            ],
            "stateMutability": "view",
            "type": "function"
        },
        {
            "inputs": [
                {
                    "internalType": "uint256",
                    "name": "",
                    "type": "uint256"
                }
            ],
            "name": "personalGoals",
            "outputs": [
                {
                    "internalType": "address",
                    "name": "owner",
                    "type": "address"
                },
                {
                    "internalType": "string",
                    "name": "name",
                    "type": "string"
                },
                {
                    "internalType": "uint256",
                    "name": "targetAmount",
                    "type": "uint256"
                },
                {
                    "internalType": "uint256",
                    "name": "currentAmount",
                    "type": "uint256"
                },
                {
                    "internalType": "uint256",
                    "name": "contributionAmount",
                    "type": "uint256"
                },
                {
                    "internalType": "enum CirclePotV1.Frequency",
                    "name": "frequency",
                    "type": "uint8"
                },
                {
                    "internalType": "uint256",
                    "name": "deadline",
                    "type": "uint256"
                },
                {
                    "internalType": "uint256",
                    "name": "createdAt",
                    "type": "uint256"
                },
                {
                    "internalType": "bool",
                    "name": "isActive",
                    "type": "bool"
                },
                {
                    "internalType": "uint256",
                    "name": "lastContributionAt",
                    "type": "uint256"
                }
            ],
            "stateMutability": "view",
            "type": "function"
        },
        {
            "inputs": [],
            "name": "platformFeeBps",
            "outputs": [
                {
                    "internalType": "uint256",
                    "name": "",
                    "type": "uint256"
                }
            ],
            "stateMutability": "view",
            "type": "function"
        },
        {
            "inputs": [],
            "name": "proxiableUUID",
            "outputs": [
                {
                    "internalType": "bytes32",
                    "name": "",
                    "type": "bytes32"
                }
            ],
            "stateMutability": "view",
            "type": "function"
        },
        {
            "inputs": [],
            "name": "renounceOwnership",
            "outputs": [],
            "stateMutability": "nonpayable",
            "type": "function"
        },
        {
            "inputs": [
                {
                    "internalType": "uint256",
                    "name": "",
                    "type": "uint256"
                },
                {
                    "internalType": "uint8",
                    "name": "",
                    "type": "uint8"
                },
                {
                    "internalType": "address",
                    "name": "",
                    "type": "address"
                }
            ],
            "name": "roundContributions",
            "outputs": [
                {
                    "internalType": "bool",
                    "name": "",
                    "type": "bool"
                }
            ],
            "stateMutability": "view",
            "type": "function"
        },
        {
            "inputs": [
                {
                    "internalType": "uint256",
                    "name": "_circleId",
                    "type": "uint256"
                }
            ],
            "name": "startCircle",
            "outputs": [],
            "stateMutability": "nonpayable",
            "type": "function"
        },
        {
            "inputs": [],
            "name": "totalPlatformFees",
            "outputs": [
                {
                    "internalType": "uint256",
                    "name": "",
                    "type": "uint256"
                }
            ],
            "stateMutability": "view",
            "type": "function"
        },
        {
            "inputs": [
                {
                    "internalType": "address",
                    "name": "newOwner",
                    "type": "address"
                }
            ],
            "name": "transferOwnership",
            "outputs": [],
            "stateMutability": "nonpayable",
            "type": "function"
        },
        {
            "inputs": [],
            "name": "treasury",
            "outputs": [
                {
                    "internalType": "address",
                    "name": "",
                    "type": "address"
                }
            ],
            "stateMutability": "view",
            "type": "function"
        },
        {
            "inputs": [
                {
                    "internalType": "uint256",
                    "name": "_circleId",
                    "type": "uint256"
                },
                {
                    "internalType": "enum CirclePotV1.Visibility",
                    "name": "_newVisibility",
                    "type": "uint8"
                }
            ],
            "name": "updateCircleVisibility",
            "outputs": [],
            "stateMutability": "nonpayable",
            "type": "function"
        },
        {
            "inputs": [
                {
                    "internalType": "address",
                    "name": "_cUSDToken",
                    "type": "address"
                },
                {
                    "internalType": "address",
                    "name": "_treasury",
                    "type": "address"
                },
                {
                    "internalType": "uint8",
                    "name": "_version",
                    "type": "uint8"
                }
            ],
            "name": "upgrade",
            "outputs": [],
            "stateMutability": "nonpayable",
            "type": "function"
        },
        {
            "inputs": [
                {
                    "internalType": "address",
                    "name": "newImplementation",
                    "type": "address"
                },
                {
                    "internalType": "bytes",
                    "name": "data",
                    "type": "bytes"
                }
            ],
            "name": "upgradeToAndCall",
            "outputs": [],
            "stateMutability": "payable",
            "type": "function"
        },
        {
            "inputs": [
                {
                    "internalType": "address",
                    "name": "",
                    "type": "address"
                },
                {
                    "internalType": "uint256",
                    "name": "",
                    "type": "uint256"
                }
            ],
            "name": "userGoals",
            "outputs": [
                {
                    "internalType": "uint256",
                    "name": "",
                    "type": "uint256"
                }
            ],
            "stateMutability": "view",
            "type": "function"
        },
        {
            "inputs": [
                {
                    "internalType": "address",
                    "name": "",
                    "type": "address"
                }
            ],
            "name": "userReputation",
            "outputs": [
                {
                    "internalType": "uint256",
                    "name": "",
                    "type": "uint256"
                }
            ],
            "stateMutability": "view",
            "type": "function"
        },
        {
            "inputs": [],
            "name": "version",
            "outputs": [
                {
                    "internalType": "string",
                    "name": "",
                    "type": "string"
                }
            ],
            "stateMutability": "pure",
            "type": "function"
        },
        {
            "inputs": [
                {
                    "internalType": "uint256",
                    "name": "_goalId",
                    "type": "uint256"
                },
                {
                    "internalType": "uint256",
                    "name": "_amount",
                    "type": "uint256"
                }
            ],
            "name": "withdrawFromGoal",
            "outputs": [],
            "stateMutability": "nonpayable",
            "type": "function"
        }
    ],
    "bytecode": "60a080604052346100c257306080525f5160206148bd5f395f51905f525460ff8160401c166100b3576002600160401b03196001600160401b03821601610060575b6040516147f690816100c78239608051818181612e500152612ef20152f35b6001600160401b0319166001600160401b039081175f5160206148bd5f395f51905f525581527fc7f505b2f371ae2175ee4913f4499e1f2633a7b5936321eed1cdaeb6115181d290602090a15f80610041565b63f92ee8a960e01b5f5260045ffd5b5f80fdfe6080806040526004361015610012575f80fd5b5f3560e01c9081630ea86ad8146136ad575080630f8019881461367557806312e81b80146118ef578063157a7ec7146135195780631e67939e1461338c57806322dcd13e1461336f5780632c2b97a4146132ea5780632dfa6768146132c257806335742c631461324457806340650c911461322257806345714684146130f557806346c39a1d146130d35780634f1ef28614612ea457806352d1902d14612e3e578063539aa77f14610aaa57806354fd4d5014612df75780635678138814612c2757806358f8d6ff14612c0b5780635fcd98e214612ab457806361a524a114612a5057806361d027b314612a2857806363fc152e146129d857806369be46bf146129a95780636cd5bf8f14612733578063715018a6146126cc57806373705573146123285780637ee839c4146121ca5780638261efa714611de457806386d6cfb314611b5057806388e81d8a14611a6a5780638d824273146119d85780638da5cb5b146119a45780638fda34bf1461195c57806394d95f8f1461193857806398d4c1dd146118ef578063a8c93057146118d4578063ad3cb1cc14611889578063ad5a698214611733578063b1610d7e14611716578063b6b3eedf146116be578063baccbfdb14611667578063bc38b8f714611563578063bc5e0f3014611487578063c0c53b8b14611245578063c1cbbca714610ddc578063c4ce74e014610d73578063cb815ab914610cbb578063d3631fa514610c9e578063d4bf578c14610b48578063d4cfc5dc14610b18578063d9a6722014610afd578063e503bb0514610ac5578063ea0e35b114610aaa578063ec6b733f146109cf578063efc80c16146108ea578063f2fde38b146108bf578063f3890e1f146108a2578063f98a4eca14610700578063f9d040b81461051f578063f9e9ad3914610502578063fc226bcc14610328578063fd81593f146102f05763ffa1ad74146102d1575f80fd5b346102ec575f3660031901126102ec57602060405160018152f35b5f80fd5b346102ec5760203660031901126102ec576001600160a01b036103116136cf565b165f52600f602052602060405f2054604051908152f35b346102ec5760203660031901126102ec57600435610344613b85565b801580156104f6575b6104e757805f52600460205260405f209060038201549160ff8360281c1660058110156104d3576001036104c457815f52600560205260405f2060018060a01b0333165f5260205260405f20600281019182549460ff8660081c16156104b557845f52600960205260405f209160ff60025f94015460181c16806104a6575b1561044e5750505060015b1561043f57600301925f8454945561ff0019169055610400823360018060a01b035f5416614099565b6040519182527f7c5e5cb62e5ed3caf3764e4b0afedfedef533e27809d43367799787ad2abcd4160203393a360015f5160206147815f395f51905f5255005b630c2eba2560e21b5f5260045ffd5b61046890600461046060ff8516613c01565b9101546138b2565b421115610476575b506103d7565b60ff8060648161048a818660081c166139c3565b1604169160101c161061049e575b85610470565b506001610498565b506104b08661393a565b6103cc565b631687e47360e31b5f5260045ffd5b63d883bee960e01b5f5260045ffd5b634e487b7160e01b5f52602160045260245ffd5b632fb08c4f60e11b5f5260045ffd5b5060025481101561034d565b346102ec575f3660031901126102ec576020600354604051908152f35b346102ec5761052d36613821565b610535613b85565b811580156106f4575b6106e5575f828152600c6020526040902080549091906001600160a01b031633036106d657600882019260ff845416156106c75760038301928354908184116106b857612710820290828204612710148315171561068a57600201549081156106a4576105bb6105b56105e59361271093046140d4565b86613b65565b04916105d1856105cb8582613b78565b92613b78565b86555f5433906001600160a01b0316614099565b6105f1816011546138b2565b601155335f52600e602052600560405f2054115f1461069e57335f52600e60205260405f2054600419810190811161068a575b335f52600e60205260405f205560405192835260208301527f9afd0ee3a19cb2b48004294a6891077bc04e270308738449a2798cd3cc7aa60b60403393a3541561067c575b60015f5160206147815f395f51905f5255005b805460ff1916905580610669565b634e487b7160e01b5f52601160045260245ffd5b5f610624565b634e487b7160e01b5f52601260045260245ffd5b631e9acf1760e31b5f5260045ffd5b637cc648f160e01b5f5260045ffd5b632be0096160e11b5f5260045ffd5b631bc5b4e960e11b5f5260045ffd5b5060035482101561053e565b346102ec5760203660031901126102ec5760043580158015610896575b6104e757805f526004602052600360405f200160ff815460281c1660058110156104d35760020361088757815f52600960205260405f206002810180549160ff8360101c161561088757600101544211156108785760ff8260181c16610869577f7da55ba157db41984697c3f1b900905283b3f9673437a67da9e3bfc9662c3a049260609260ff6107c78180630100000063ffff00001986161794858855169360081c16836138fa565b16801561085b576107e661ffff916107e16113ec9461390e565b613926565b161061082957805465ff000000000019166501000000000017905561080a84613d1f565b5460ff6040519160018352818116602084015260081c166040820152a2005b6501000000000060ff60281b198254161790555460ff6040519160018352818116602084015260081c166040820152a2005b50506113ec61ffff5f6107e6565b63745266fd60e11b5f5260045ffd5b633483eb6360e01b5f5260045ffd5b639b8cc47560e01b5f5260045ffd5b5060025481101561071d565b346102ec575f3660031901126102ec576020600254604051908152f35b346102ec5760203660031901126102ec576108e86108db6136cf565b6108e3613c6a565b613b38565b005b346102ec5760203660031901126102ec57600435610906613b85565b801580156109c3575b6106e5575f818152600c6020526040902080546001600160a01b031633036106d6576008810190815460ff8116156106c757600382016002815493015483106106b85761096f935f9260ff19169055553360018060a01b035f5416614099565b335f52600e60205260405f20805490600a820180921161068a575533907fdbd2de8162656b063ee98bde00a4a9cbcf05c27bca773cf331c6c4a39bab5e185f80a360015f5160206147815f395f51905f5255005b5060035481101561090f565b346102ec5760203660031901126102ec5760043580158015610a9e575b6104e7575f81815260046020526040902060018101546001600160a01b03163303610a8f5760038101549060ff8260281c1660058110156104d3576001036104c45760ff606481610a41818660081c166139c3565b16041660ff8360101c1610610a8057600461046060ff610a619416613c01565b421115610a71576108e890613d1f565b63a217083960e01b5f5260045ffd5b63505768b960e11b5f5260045ffd5b6308f78f9960e31b5f5260045ffd5b506002548110156109ec565b346102ec575f3660031901126102ec57602060405160148152f35b346102ec5760203660031901126102ec576001600160a01b03610ae66136cf565b165f52600e602052602060405f2054604051908152f35b346102ec575f3660031901126102ec57602060405160058152f35b346102ec5760203660031901126102ec5760043560038110156102ec57610b40602091613b1f565b604051908152f35b346102ec5760403660031901126102ec576004356024356001600160401b0381116102ec57366023820112156102ec578060040135916001600160401b0383116102ec576024820191602436918560051b0101116102ec5780158015610c92575b6104e7575f81815260046020526040902060018101546001600160a01b03163303610a8f576003015460ff8160301c1660028110156104d357610c835760281c60ff1660058110156104d3576001036104c4575f5b838110610c0757005b600190825f52600b60205260405f20610c29610c24838888613afb565b613b0b565b838060a01b03165f5260205260405f208260ff19825416179055818060a01b03610c57610c24838888613afb565b16837f6e32da99952e6892c42b54eec8c835d9a2e0a6c879c0219cc693229e6894175a5f80a301610bfe565b633a46c93160e01b5f5260045ffd5b50600254811015610ba9565b346102ec575f3660031901126102ec576020601154604051908152f35b346102ec5760203660031901126102ec576004355f52600660205260405f20604051806020835491828152019081935f5260205f20905f5b818110610d545750505081610d09910382613781565b604051918291602083019060208452518091526040830191905f5b818110610d32575050500390f35b82516001600160a01b0316845285945060209384019390920191600101610d24565b82546001600160a01b0316845260209093019260019283019201610cf3565b346102ec5760203660031901126102ec576004355f52600960205260c060405f2060ff815491600260018201549101549060405193845260208401528181166040840152818160081c166060840152818160101c161515608084015260181c16151560a0820152f35b346102ec5760203660031901126102ec5760043580158015611239575b6104e757805f52600460205260405f2060038101805460ff8160281c1660058110156104d35760030361122a57835f52600560205260405f2060018060a01b0333165f5260205260405f209060ff600283015460081c16156104b55760ff9060181c1692845f52600760205260405f2060ff85165f5260205260405f2060018060a01b0333165f5260205260ff60405f20541661121b575f546002820180549094879492610ee192610eb791309033906001600160a01b0316613bbd565b845f52600860205260405f20875f52602052610edb60ff60405f2054925416613b1f565b906138b2565b4211156111cb575050508054606481028181046064148215171561068a57612710900490845f52600560205260405f2060018060a01b0333165f5260205260405f206003610f2f84846138b2565b910190808254115f146111c257610f47908254613b78565b90555b845f526004602052610f64600660405f20019182546138b2565b9055610f72816011546138b2565b601155335f52600e60205283600560405f2054115f146111955750335f52600e60205260405f2054600419810190811161068a5784927fe424be6ebafcdee4341d3bfb4024c9ccd11789227ab9b4c8f5d4cb8db8d1188392611076925b335f52600e60205260405f2055335f52601060205260405f20610ff281546139f5565b90556040805160ff8816815233602082015286917fadfae21200a077d32929aeac100ac5a5390ce655175dd0f2982da63acd823ae791a35b5f84815260076020908152604080832060ff989098168084529782528083203380855290835292819020805460ff19166001179055925483519788529087019190915294918291820190565b0390a35f818152600460209081526040808320600690925282208054939190835b8560ff8216106110d3575050600301549169ffffffffffffffffffff60ff8460101c169116146110c357005b60ff6108e89260181c1690614449565b6110dd8183613851565b90545f86815260056020908152604080832060039590951b9390931c6001600160a01b0316808352939052206002015460081c60ff169081611155575b5061112e575b611129906139d8565b611097565b9369ffffffffffffffffffff1669ffffffffffffffffffff811461068a5760010193611120565b9050845f52600760205260405f2060ff80600387015460181c16165f5260205260405f209060018060a01b03165f5260205260ff60405f2054168761111a565b91611076907fe424be6ebafcdee4341d3bfb4024c9ccd11789227ab9b4c8f5d4cb8db8d11883925f610fcf565b505f9055610f4a565b926110769161121460017fe424be6ebafcdee4341d3bfb4024c9ccd11789227ab9b4c8f5d4cb8db8d1188395966006855494016112098582546138b2565b9055019182546138b2565b905561102a565b6305d252c360e01b5f5260045ffd5b633fe6c08b60e21b5f5260045ffd5b50600254811015610df9565b346102ec5760603660031901126102ec5761125e6136cf565b6112666136e5565b61126e6136fb565b905f5160206147a15f395f51905f5254926001600160401b0360ff8560401c161594168015908161147f575b6001149081611475575b15908161146c575b5061145d578360016001600160401b03195f5160206147a15f395f51905f525416175f5160206147a15f395f51905f525561142d575b6112ea61461f565b6112f261461f565b6112fb83613b38565b61130361461f565b61130b61461f565b60015f5160206147815f395f51905f525561132461461f565b6001600160a01b03168015801561141c575b61140d575f80546001600160a01b0319908116929092179055600180549091166001600160a01b0392831617815560028190556003556014601255811680151590816113eb575b506113dc575b5061138a57005b60ff60401b195f5160206147a15f395f51905f5254165f5160206147a15f395f51905f52557fc7f505b2f371ae2175ee4913f4499e1f2633a7b5936321eed1cdaeb6115181d2602060405160018152a1005b6113e590613c9d565b81611383565b5f5160206147415f395f51905f52546001600160a01b0316141590508361137d565b63cfe2ea6360e01b5f5260045ffd5b506001600160a01b03821615611336565b600160401b60ff60401b195f5160206147a15f395f51905f525416175f5160206147a15f395f51905f52556112e2565b63f92ee8a960e01b5f5260045ffd5b905015856112ac565b303b1591506112a4565b85915061129a565b346102ec5760203660031901126102ec576004355f5260046020526101a060405f2080549060018060a01b0360018201541690600281015461154f600383015460ff81166004850154936006600587015496015496604051988952602089015260408801526114f581613817565b606087015260ff8160081c16608087015260ff8160101c1660a087015260ff8160181c1660c087015260ff8160201c1660e087015261153e610100870160ff8360281c16613837565b60ff61012087019160301c16613844565b610140840152610160830152610180820152f35b346102ec5760203660031901126102ec576004355f90805f526004602052600360405f2001549160ff8360181c169160ff8460281c1660058110156104d3576003146115d2575b5060809260ff91604051938452828260201c166020850152604084015260101c166060820152f35b805f52600660205260405f205f81549260ff8616915b8460ff8216106115fb57505050506115aa565b815f52600760205260405f20835f5260205260405f2061161b8286613851565b905460039190911b1c6001600160a01b03165f908152602091909152604090205460ff16611652575b61164d906139d8565b6115e8565b9461165f61164d916139f5565b959050611644565b346102ec5760203660031901126102ec5760606001600160a01b0361168a6136cf565b165f908152600e6020908152604080832054600f835281842054601084529382902054825191825292810193909352820152f35b346102ec5760403660031901126102ec576116d76136cf565b6001600160a01b03165f908152600d60205260409020805460243591908210156102ec5760209161170791613851565b90549060031b1c604051908152f35b346102ec575f3660031901126102ec5760206040516202a3008152f35b346102ec5760203660031901126102ec576004355f52600c60205260405f2060018060a01b03815416600182019160405192835f8254926117738461387a565b80845293600181169081156118675750600114611823575b5061179892500384613781565b600281015490600381015490600481015460ff600583015416600683015490600784015492600960ff600887015416950154956117e96040519a8b9a8b5261014060208c01526101408b01906137f3565b9760408a01526060890152608088015261180281613817565b60a087015260c086015260e085015215156101008401526101208301520390f35b90505f9291925260205f20905f915b81831061184b575050906020611798928201018661178b565b6020919350806001915483858a01015201910190918592611832565b90506020925061179894915060ff191682840152151560051b8201018661178b565b346102ec575f3660031901126102ec576118d06040516118aa604082613781565b60058152640352e302e360dc1b60208201526040519182916020835260208301906137f3565b0390f35b346102ec575f3660031901126102ec57602060405160648152f35b346102ec5760403660031901126102ec576119086136e5565b6004355f52600b60205260405f209060018060a01b03165f52602052602060ff60405f2054166040519015158152f35b346102ec575f3660031901126102ec57602060405169010f0cf064dd592000008152f35b346102ec5761196a36613821565b905f52600660205260405f2080548210156102ec5760209161198b91613851565b905460405160039290921b1c6001600160a01b03168152f35b346102ec575f3660031901126102ec575f5160206147415f395f51905f52546040516001600160a01b039091168152602090f35b346102ec5760203660031901126102ec5760c0600435805f52600960205260405f209060026001830154920154905f52600a60205260405f2060018060a01b0333165f5260205260ff8060405f205416916040519384528181166020850152818160081c166040850152818160101c161515606085015260181c1615156080830152611a6381613817565b60a0820152f35b346102ec5760203660031901126102ec57611a836136cf565b6002546001600160a01b03909116905f60015b828110611b0f5750611aa790613ab5565b915f9060015b838110611ac257604051806118d08782613711565b805f52600560205260405f20825f5260205260ff600260405f20015460081c16611aef575b600101611aad565b91611b07816001611b01819489613ae7565b526139f5565b929050611ae7565b805f52600560205260405f20845f5260205260ff600260405f20015460081c16611b3c575b600101611a96565b90611b486001916139f5565b919050611b34565b346102ec5760203660031901126102ec57600435611b6c613b85565b80158015611dd8575b6104e757805f52600460205260405f206003810190815460ff8160281c1660058110156104d3576001036104c45760ff8160081c16908160ff8260101c1614611dc9575f85815260056020908152604080832033845290915290206002015460081c60ff16611dbb5760301c60ff1660028110156104d35715611d8c575b6002611c00920154613cf1565b5f54611c1a908290309033906001600160a01b0316613bbd565b600460405191611c298361374a565b5f835260208301905f8252611cbd604085015f815260608601600181526080870193845260a0870194428652895f52600560205260405f2060018060a01b0333165f5260205260ff8060405f209951161660ff19895416178855516001880155611ca66002880192511515839060ff801983541691151516179055565b51815461ff00191690151560081b61ff0016179055565b51600384015551910155815f526006602052611cdc3360405f20613a5d565b611d07611cef60ff835460101c166139d8565b825462ff0000191660109190911b62ff000016178255565b33827fa7858a1f19449eeaf5fbe2692047577d00116ecb460791549c018c79e3ce483b5f80a35460ff808260081c169160101c1614611d535760015f5160206147815f395f51905f5255005b611d5c81613d1f565b7faf0f41c2e769faca4f3422a53417b14043b989e8d29fd8aa1f0fb10273d20f1f6020604051428152a280610669565b5f848152600b6020908152604080832033845290915290205460ff16611bf35763779a6f4160e01b5f5260045ffd5b621d934160e11b5f5260045ffd5b63f277526560e01b5f5260045ffd5b50600254811015611b75565b346102ec5760803660031901126102ec57611dfd613b85565b33156121bb57600435670de0b6b3a7640000811080156121a8575b61219957600560ff611e28613a4d565b16108015612185575b61217657600254611e41816139f5565b600255611e5860ff611e51613a4d565b1683613cf1565b916064359060028210156102ec5760018214612127575b5f54611e89908590309033906001600160a01b0316613bbd565b6024359060038210156102ec57611e9e613a4d565b94611ea7613a4d565b938560405191611eb683613765565b8183526020830198338a5260408401978689526060850197611ed781613817565b8852608085019160ff16825260a085016001815260c08601905f825260e087019260ff16835261010087019360018552610120880195611f1790876139e9565b4261014089019081525f6101608a018181526101808b018281529982526004602052604090912099518a559e5160018a0180546001600160a01b0319166001600160a01b03929092169190911790559b5160028901559951600388019a90611f7e81613817565b611f88908c613a35565b518a5461ff00191660089190911b61ff0016178a5551895462ff0000191660109190911b62ff00001617895551885463ff000000191660189190911b63ff000000161788555187549060201b64ff00000000169064ff0000000019161787555160058110156104d35760ff60281b87549160281b169060ff60281b1916178655519060028210156104d3576020987f83b945859e19f480c406ac4e6ac635d422aad2665c1d65da9419b81d51ba61a8976120466006946060996138bf565b516004850155516005840155519101556004604051916120658361374a565b5f8352878301905f82526120de604085015f8152878601600181526080870193845260a08701944286528b5f5260058d5260405f2060018060a01b0333165f528d5260ff8060405f209951161660ff19895416178855516001880155611ca66002880192511515839060ff801983541691151516179055565b51600384015551910155835f52600685526120fc3360405f20613a5d565b6040519084825233868301526040820152a160015f5160206147815f395f51905f5255604051908152f35b6706f05b59d3b200008401841161068a576011546706f05b59d3b2000081011061068a5733837f46fc58301c2ea9f88a47be840edd44559d82b3c0a69ed37ac62f63b313540b615f80a3611e6f565b63027ee80d60e51b5f5260045ffd5b50601460ff612192613a4d565b1611611e31565b631717aceb60e31b5f5260045ffd5b5069010f0cf064dd592000008111611e18565b6302154e0360e21b5f5260045ffd5b346102ec5760603660031901126102ec576121e36136cf565b6121eb6136e5565b60443560ff81168091036102ec575f5160206147a15f395f51905f52548160ff8260401c16918215612314575b505061145d577fc7f505b2f371ae2175ee4913f4499e1f2633a7b5936321eed1cdaeb6115181d292602092826001600160401b03195f5160206147a15f395f51905f525416175f5160206147a15f395f51905f525560ff60401b195f5160206147a15f395f51905f52541691600160401b83175f5160206147a15f395f51905f52556122a2613c6a565b6001600160a01b0316806122f8575b506001600160a01b0316806122da575b505f5160206147a15f395f51905f5255604051908152a1005b6bffffffffffffffffffffffff60a01b6001541617600155846122c1565b6bffffffffffffffffffffffff60a01b5f5416175f55856122b1565b6001600160401b0316101590508185612218565b346102ec5760203660031901126102ec576004356001600160401b0381116102ec57806004019060a060031982360301126102ec576024810135678ac7230489e80000811080156126b9575b6126aa5760448201359182156121995760848101354281111561269b576064600354946123a0866139f5565b6003556123ad8780613a03565b92909401359160038310156102ec57604051946101408601918683106001600160401b038411176125c3576123e99260405233875236916137bd565b9260208501938452604085019286845260608601925f84526080870190815260a087019161241681613817565b825260c087019283524260e08801908152600161010089018181525f6101208b018181528d8252600c60205260409091209a518b546001600160a01b0319166001600160a01b0391909116178b55985180519198939793928b0191906001600160401b0382116125c35761248a835461387a565b601f8111612656575b50602090601f83116001146125e25792826124f7969361251b9b99969360099e9d9b99965f926125d7575b50508160011b915f199060031b1c19161790555b5160028c01555160038b01555160048a0155516124ee81613817565b60058901613a35565b516006870155516007860155511515600885019060ff801983541691151516179055565b51910155335f52600d60205260405f2092835493600160401b8510156125c35761258d7fb47a43768ee11a2c39a20c45e1527daa1433176193efb66ef41b41811516b4d492612573878794600160209a018155613851565b81549060031b9085821b915f19901b191617905580613a03565b92908360405191888352818984015260408301375f604085830101526040813395601f80199101168101030190a4604051908152f35b634e487b7160e01b5f52604160045260245ffd5b015190505f806124be565b90601f19831691845f52815f20925f5b81811061263e57509361251b9b99969360099e9d9b999693600193836124f79b9810612626575b505050811b0190556124d2565b01515f1960f88460031b161c191690555f8080612619565b929360206001819287860151815501950193016125f2565b835f5260205f20601f840160051c81019160208510612691575b601f0160051c01905b8181106126865750612493565b5f8155600101612679565b9091508190612670565b631da7447960e21b5f5260045ffd5b631f5aab1b60e21b5f5260045ffd5b50690a968163f0a57b4000008111612374565b346102ec575f3660031901126102ec576126e4613c6a565b5f5160206147415f395f51905f5280546001600160a01b031981169091555f906001600160a01b03167f8be0079c531659141344cd1fd0a4f28419497f9722a3daafe3b4186f6b6457e08280a3005b346102ec5760203660031901126102ec576004355f61018060405161275781613765565b8281528260208201528260408201528260608201528260808201528260a08201528260c08201528260e08201528261010082015282610120820152826101408201528261016082015201525f815f52600460205260405f2090604051916127bd83613765565b8054835260018101546001600160a01b031660208401526002810154604084015260038101549060ff82166127f181613817565b606085015260ff8260081c16608085015260ff8260101c1660a085015260ff8260181c1660c085015260ff8260201c1660e085015260ff8260281c169160058310156104d35760ff6128549160069461010088015260301c1661012086016139e9565b60048101546101408501526005810154610160850152015461018083015260ff60a0830151166101008301519360058510156104d35760036102009514612980575b5060ff908160a085015116926064836128b4816080890151166139c3565b160491610180604051968051885260018060a01b0360208201511660208901526040810151604089015260608101516128ec81613817565b60608901528560808201511660808901528560a08201511660a08901528560c08201511660c08901528560e08201511660e08901526129356101008201516101008a0190613837565b6129496101208201516101208a0190613844565b61014081015161014089015261016081015161016089015201516101808701526101a08601526101c08501521611156101e0820152f35b9091505f52600860205260405f2060ff60c0840151165f5260205260ff60405f20549190612896565b346102ec576129b736613821565b905f52600860205260405f20905f52602052602060405f2054604051908152f35b346102ec5760403660031901126102ec576129f16136e5565b6004355f52600a60205260405f209060018060a01b03165f52602052602060ff60405f20541660405190612a2481613817565b8152f35b346102ec575f3660031901126102ec576001546040516001600160a01b039091168152602090f35b346102ec5760603660031901126102ec5760243560ff811681036102ec57612a766136fb565b906004355f52600760205260ff60405f2091165f5260205260405f209060018060a01b03165f52602052602060ff60405f2054166040519015158152f35b346102ec5760203660031901126102ec57600435612ad0613b85565b80158015612bff575b6106e5575f818152600c6020526040902080546001600160a01b031633036106d65760ff600882015416156106c7576009810190815480612bdf575b505f5460048201805460029392612b399190309033906001600160a01b0316613bbd565b546003820193612b4a8286546138b2565b809555429055604051908152847ff8dcd2004b46a5e4335af67b6a35f66ce85cdb18dd62428d855d7630f46e275760203393a301541115612b985760015f5160206147815f395f51905f5255005b335f52600e60205260405f20805490600a820180921161068a575533907fdbd2de8162656b063ee98bde00a4a9cbcf05c27bca773cf331c6c4a39bab5e185f80a380610669565b612bf390610edb60ff600585015416613c3b565b421161121b5783612b15565b50600354811015612ad9565b346102ec575f3660031901126102ec5760206040516113ec8152f35b346102ec5760403660031901126102ec5760243560043560038210156102ec5780158015612deb575b6104e757612c5d82613817565b8115612ddc57805f52600460205260ff600360405f20015460281c1660058110156104d357600203610887575f81815260056020908152604080832033845290915290206002015460081c60ff16156104b557805f52600960205260405f20600281019060ff825460101c161561088757600101544211612dcd575f828152600a6020908152604080832033845290915290205460ff16612cfd81613817565b612dbe575f828152600a602090815260408083203384529091529020612d2284613817565b60ff1981541660ff8516179055612d3883613817565b60018303612d905760ff612d4e818354166139d8565b1660ff198254161790555b60405191612d6681613817565b82527feba4866100b822f0f391e610e7edfab790b9e8766c0012733c26b2f1858e8dd760203393a3005b80612da460ff612db9935460081c166139d8565b61ff0082549160081b169061ff001916179055565b612d59565b637c9a1cf960e01b5f5260045ffd5b63370ec37160e21b5f5260045ffd5b6364a2c03160e11b5f5260045ffd5b50600254811015612c50565b346102ec575f3660031901126102ec576118d0604051612e18604082613781565b60058152640312e302e360dc1b60208201526040519182916020835260208301906137f3565b346102ec575f3660031901126102ec577f00000000000000000000000000000000000000000000000000000000000000006001600160a01b03163003612e955760206040515f5160206147615f395f51905f528152f35b63703e46dd60e11b5f5260045ffd5b60403660031901126102ec57612eb86136cf565b6024356001600160401b0381116102ec57366023820112156102ec57612ee89036906024816004013591016137bd565b6001600160a01b037f0000000000000000000000000000000000000000000000000000000000000000163081149081156130b1575b50612e9557612f2a613c6a565b60018060a01b03821691827f8c26ec1c89a900331babb88eefa754f9b9ed370abe61944d6874e37612764c3f602060405160018152a26040516352d1902d60e01b8152602081600481875afa5f918161307d575b50612f965783634c9c8ce360e01b5f5260045260245ffd5b805f5160206147615f395f51905f5285920361306b5750813b15613059575f5160206147615f395f51905f5280546001600160a01b031916821790557fbc7cd75a20ee27fd9adebab32041f755214dbc6bffa90cc0225b39da2e5c2d3b5f80a2815115613041575f808360206108e895519101845af43d15613039573d9161301d836137a2565b9261302b6040519485613781565b83523d5f602085013e6146e2565b6060916146e2565b50503461304a57005b63b398979f60e01b5f5260045ffd5b634c9c8ce360e01b5f5260045260245ffd5b632a87526960e21b5f5260045260245ffd5b9091506020813d6020116130a9575b8161309960209383613781565b810103126102ec57519085612f7e565b3d915061308c565b5f5160206147615f395f51905f52546001600160a01b03161415905083612f1d565b346102ec575f3660031901126102ec5760206040516706f05b59d3b200008152f35b346102ec5760203660031901126102ec5760043580158015613216575b6104e757805f52600460205260405f20600381019081549060ff8260281c1660058110156104d3576001036104c45760ff606481613154818660081c166139c3565b16041660ff8360101c1610610a8057600461046060ff6131749416613c01565b421015610a7157815f52600960205260405f209060028201805460ff8160101c166108785760181c60ff16613207574283556202a30042019283421161068a57600101928355805463ffffffff191662010000179055805465ff000000000019166502000000000017905554907ff4e39a27c6c29179b6afb3a070360307cdbda13933023287f5ca10a69b3628e25f80a3005b63f792f8f960e01b5f5260045ffd5b50600254811015613112565b346102ec575f3660031901126102ec576020604051670de0b6b3a76400008152f35b346102ec5760203660031901126102ec576001600160a01b036132656136cf565b165f52600d60205260405f206040519081602082549182815201915f5260205f20905f5b8181106132ac576118d0856132a081870382613781565b60405191829182613711565b8254845260209093019260019283019201613289565b346102ec5760203660031901126102ec5760206132e060043561393a565b6040519015158152f35b346102ec5760403660031901126102ec576133036136e5565b6004355f52600560205260405f209060018060a01b03165f5260205260c060405f2060ff8154169060018101549060ff6002820154600460038401549301549360405195865260208601528181161515604086015260081c1615156060840152608083015260a0820152f35b346102ec575f3660031901126102ec576020601254604051908152f35b346102ec5760403660031901126102ec576004356133a86136e5565b905f60a06040516133b88161374a565b82815282602082015282604082015282606082015282608082015201525f5f90825f52600560205260405f2060018060a01b0385165f5260205260405f2092604051936134048561374a565b60ff8154168552600181015460208601908152600282015490604087019060ff83161515825260ff606089019360081c1615158352600460038501549460808a0195865201549460a08901958652805f526004602052600360405f20015460ff8160281c169a60058c10156104d35760036101009c146134bc575b50505060ff6040519851168852516020880152511515604087015251151560608601525160808501525160a0840152151560c083015260e0820152f35b919750919750865f52600760205260ff60405f209260181c169160ff83165f5260205260405f209060018060a01b03165f5260205260ff60405f205416955f52600860205260405f20905f5260205260405f20549589808061347f565b346102ec5760403660031901126102ec5760043560243560028110156102ec57613541613b85565b81158015613669575b6104e7575f82815260046020526040902060018101546001600160a01b03163303610a8f5760030190815460ff8160281c1660058110156104d35760010361365a5760301c60ff1660028110156104d357811461364b575f546040516323b872dd60e01b60208201523360248201523060448201526706f05b59d3b2000060648083019190915281526135f0916001600160a01b03166135eb608483613781565b614112565b601154916706f05b59d3b20000830180931161068a57613612926011556138bf565b33907f46fc58301c2ea9f88a47be840edd44559d82b3c0a69ed37ac62f63b313540b615f80a360015f5160206147815f395f51905f5255005b63051a3ed560e11b5f5260045ffd5b63a407615b60e01b5f5260045ffd5b5060025482101561354a565b346102ec5760203660031901126102ec576001600160a01b036136966136cf565b165f526010602052602060405f2054604051908152f35b346102ec575f3660031901126102ec575f546001600160a01b03168152602090f35b600435906001600160a01b03821682036102ec57565b602435906001600160a01b03821682036102ec57565b604435906001600160a01b03821682036102ec57565b60206040818301928281528451809452019201905f5b8181106137345750505090565b8251845260209384019390920191600101613727565b60c081019081106001600160401b038211176125c357604052565b6101a081019081106001600160401b038211176125c357604052565b90601f801991011681019081106001600160401b038211176125c357604052565b6001600160401b0381116125c357601f01601f191660200190565b9291926137c9826137a2565b916137d76040519384613781565b8294818452818301116102ec578281602093845f960137010152565b805180835260209291819084018484015e5f828201840152601f01601f1916010190565b600311156104d357565b60409060031901126102ec576004359060243590565b9060058210156104d35752565b9060028210156104d35752565b8054821015613866575f5260205f2001905f90565b634e487b7160e01b5f52603260045260245ffd5b90600182811c921680156138a8575b602083101461389457565b634e487b7160e01b5f52602260045260245ffd5b91607f1691613889565b9190820180921161068a57565b9060028110156104d35766ff00000000000082549160301b169066ff0000000000001916179055565b60ff60019116019060ff821161068a57565b9060ff8091169116019060ff821161068a57565b61ffff6127109116029061ffff821691820361068a57565b9061ffff169081156106a45761ffff160490565b805f52600460205260405f20905f526009602052600260405f2001549060ff8260181c16156139bd576003015460281c60ff1660058110156104d3576003146139b85760ff613991818084169360081c16836138fa565b1680156139b0576139ab61ffff916107e16113ec9461390e565b161090565b506001919050565b505f90565b50505f90565b60ff603c9116029060ff821691820361068a57565b60ff1660ff811461068a5760010190565b60028210156104d35752565b5f19811461068a5760010190565b903590601e19813603018212156102ec57018035906001600160401b0382116102ec576020019181360383136102ec57565b90613a3f81613817565b60ff80198354169116179055565b60443560ff811681036102ec5790565b8054600160401b8110156125c357613a7a91600182018155613851565b81546001600160a01b0393841660039290921b91821b9390911b1916919091179055565b6001600160401b0381116125c35760051b60200190565b90613abf82613a9e565b613acc6040519182613781565b8281528092613add601f1991613a9e565b0190602036910137565b80518210156138665760209160051b010190565b91908110156138665760051b0190565b356001600160a01b03811681036102ec5790565b613b2881613817565b15613b34576202a30090565b5f90565b6001600160a01b03811615613b5257613b5090613c9d565b565b631e4fbdf760e01b5f525f60045260245ffd5b8181029291811591840414171561068a57565b9190820391821161068a57565b60025f5160206147815f395f51905f525414613bae5760025f5160206147815f395f51905f5255565b633ee5aeb560e01b5f5260045ffd5b6040516323b872dd60e01b60208201526001600160a01b039283166024820152929091166044830152606480830193909352918152613b50916135eb608483613781565b613c0a81613817565b8015908115613c27575b50613c20576212750090565b62093a8090565b60019150613c3481613817565b145f613c14565b613c4481613817565b8015613c6257600190613c5681613817565b14613c205762278d0090565b506201518090565b5f5160206147415f395f51905f52546001600160a01b03163303613c8a57565b63118cdaa760e01b5f523360045260245ffd5b5f5160206147415f395f51905f5280546001600160a01b039283166001600160a01b0319821681179092559091167f8be0079c531659141344cd1fd0a4f28419497f9722a3daafe3b4186f6b6457e05f80a3565b90613cfb91613b65565b60648102908082046064148115171561068a57612710613d1c9204906138b2565b90565b5f8181526004602090815260408083206006835281842060058452828520600180840180546001600160a01b03908116895292875296859020805460ff191682179055955493519586529596909590949216929091839187917ffc79da6c5316f4c3a2841a4a8ee84045b0cda7f9c0b91deec048b7f26d4293cf9190a383545f1981019481861161068a57613db386613a9e565b91613dc16040519384613781565b868352601f19613dd088613a9e565b01366020850137613de087613ab5565b945f905f5b8360ff821610613fbf5750505050505f955b60ff87169486861015613e8b57613e0d886138e8565b60ff811688811015613e77579081613e28613e409389613ae7565b51613e338a8a613ae7565b5110613e45575b506139d8565b613e0d565b613e70613e528a8a613ae7565b5191613e5e818b613ae7565b51613e698c8c613ae7565b5289613ae7565b525f613e3a565b5050945095613e85906139d8565b95613df7565b92959650925092505f5b60ff81169086821015613f3a576002820160ff811161068a57847ffc79da6c5316f4c3a2841a4a8ee84045b0cda7f9c0b91deec048b7f26d4293cf6020613f3595835f526005825260405f2060018060a01b03613ef2838d613ae7565b516001600160a01b03911681165f9081529184526040909120805460ff191660ff881617905590613f23908b613ae7565b51169360ff60405191168152a36139d8565b613e95565b50506003840180544260059096018690556503000100000065ff00ff00000019821617909155909450613b5093919250613f77919060ff16614175565b815f52600860205260405f2060015f5260205260405f2055807faf0f41c2e769faca4f3422a53417b14043b989e8d29fd8aa1f0fb10273d20f1f6020604051428152a26141c6565b81613fca8287613851565b905460039190911b1c6001600160a01b031603613ff0575b613feb906139d8565b613de5565b91613ffb8386613851565b905460039190911b1c6001600160a01b03166140178288613ae7565b526140228386613851565b60018060a01b0391549060031b1c165f52600e60205260405f2054906140488487613851565b60018060a01b0391549060031b1c165f52600f60205260405f205490600a820291808304600a149015171561068a5761408761409192613feb946138b2565b611b01828c613ae7565b929050613fe2565b60405163a9059cbb60e01b60208201526001600160a01b039092166024830152604480830193909352918152613b50916135eb606483613781565b6109c4811061410c57611388811061410657611d4c811061410057612710116140fb575f90565b600a90565b50601e90565b50603c90565b50606490565b905f602091828151910182855af11561416a575f513d61416157506001600160a01b0381163b155b6141415750565b635274afe760e01b5f9081526001600160a01b0391909116600452602490fd5b6001141561413a565b6040513d5f823e3d90fd5b61417e81613817565b80156141b55760019061419081613817565b146141a55762278d00810180911161068a5790565b62093a80810180911161068a5790565b5062015180810180911161068a5790565b805f52600460205260405f206141dd60018361464a565b906001600160a01b038216801561444357835f52600560205260405f20815f52602052600260405f200160ff81541661443c57600683019081549460018060a01b0360018601541684036143fe575b90614243865f949360018060a01b03865416614099565b600160ff1982541617905555805f52600e60205260405f208054936005850180951161068a577f52e998e38a9505deab1cc0e4a47bdd8426a6fde45f6693db2fd122e537fcf22b6020879260039760019555855f52600f825260405f206142aa81546139f5565b9055604051908152a401805460201c60ff166001101561430057805463ff000000191663020000001781556142e69060ff905b54164290614175565b905f52600860205260405f2060015f5260205260405f2055565b6504000000000060ff60281b19825416179055805f52600660205260405f205f5b815460ff821610156143d65761438290835f52600560205260405f206143478285613851565b905460039190911b1c6001600160a01b03165f90815260209190915260409020600281015460081c60ff16806143c9575b61438757506139d8565b614321565b60030180545f9182905590546143c391906001600160a01b03166143ab8487613851565b905460039190911b1c6001600160a01b031690614099565b5f613e3a565b5060038101541515614378565b50507ffccd3901546cfbb42742cac2c7335bce34f1f8d9844f4f4b53640f79e31010875f80a2565b9061424361442e965f949361442361271061441b60125485613b65565b048093613b78565b9889926011546138b2565b60115592939450505061422c565b5050505050565b50505050565b90815f52600460205260405f209060ff811691614466838561464a565b906001600160a01b038216801561461757855f52600560205260405f20815f52602052600260405f200160ff81541661460e57600683019081549460018060a01b0360018601541684036145e3575b906144cc865f949360018060a01b03865416614099565b600160ff1982541617905555805f52600e60205260405f208054936005850180951161068a577f52e998e38a9505deab1cc0e4a47bdd8426a6fde45f6693db2fd122e537fcf22b602089926003978a9555855f52600f825260405f2061453281546139f5565b9055604051908152a4019060ff825460201c1683105f1461459257614579916142dd61455f60ff936138e8565b825463ff000000191660189190911b63ff00000016178255565b915f52600860205260405f20905f5260205260405f2055565b50805465ff0000000000191665040000000000179055505f818152600660205260408120905b815460ff821610156143d6576145de90835f52600560205260405f206143478285613851565b6145b8565b906144cc614600965f949361442361271061441b60125485613b65565b6011559293945050506144b5565b50505050505050565b505050505050565b60ff5f5160206147a15f395f51905f525460401c161561463b57565b631afcd79f60e31b5f5260045ffd5b90815f52600660205260405f20905f928254935b8460ff8216106146715750505050505f90565b815f52600560205260405f206146878286613851565b905460039190911b1c6001600160a01b03165f908152602091909152604090205460ff1683146146bf576146ba906139d8565b61465e565b929150506146cd9250613851565b905460039190911b1c6001600160a01b031690565b9061470657508051156146f757602081519101fd5b63d6bda27560e01b5f5260045ffd5b81511580614737575b614717575090565b639996b31560e01b5f9081526001600160a01b0391909116600452602490fd5b50803b1561470f56fe9016d09d72d40fdae2fd8ceac6b6234c7706214fd39c1cd1e609a0528c199300360894a13ba1a3210667c828492db98dca3e2076cc3735a920a3ca505d382bbc9b779b17422d0df92223018b32b4d1fa46e071723d6817e2486d003becc55f00f0c57e16840df040f15088dc2f81fe391c3923bec73e23a9662efc9c229c6a00a2646970667358221220c32deb92398d5261d4fd339f98252970b0b77f73331b5cd24a979b841eb835ad64736f6c634300081e0033f0c57e16840df040f15088dc2f81fe391c3923bec73e23a9662efc9c229c6a00",
    "sourcePath": "/home/isiaq/workspace/CirclePot/smart-contract/src/CirclePotV1.sol",
    "compiler": {
        "name": "solc",
        "version": "0.8.30+commit.73712a01"
    },
    "functionHashes": {
        "CompleteGoal(uint256)": "efc80c16",
        "ContributeToGoal(uint256)": "5fcd98e2",
        "LATE_FEE_BPS()": "a8c93057",
        "MAX_CONTRIBUTION()": "94d95f8f",
        "MAX_MEMBERS()": "ea0e35b1",
        "MIN_CONTRIBUTION()": "40650c91",
        "MIN_MEMBERS()": "d9a67220",
        "PLATFORM_FEE_BPS()": "539aa77f",
        "START_VOTE_THRESHOLD()": "58f8d6ff",
        "UPGRADE_INTERFACE_VERSION()": "ad3cb1cc",
        "VERSION()": "ffa1ad74",
        "VISIBILITY_UPDATE_FEE()": "46c39a1d",
        "VOTING_PERIOD()": "b1610d7e",
        "WithdrawCollateral(uint256)": "fc226bcc",
        "_getGracePeriod(uint8)": "d4cfc5dc",
        "cUSDToken()": "0ea86ad8",
        "canWithdrawAfterVote(uint256)": "2dfa6768",
        "castVote(uint256,uint8)": "56781388",
        "circleCounter()": "f3890e1f",
        "circleInvitations(uint256,address)": "98d4c1dd",
        "circleMemberList(uint256,uint256)": "8fda34bf",
        "circleMembers(uint256,address)": "2c2b97a4",
        "circleRoundDeadlines(uint256,uint256)": "69be46bf",
        "circleVotes(uint256)": "c4ce74e0",
        "circles(uint256)": "bc5e0f30",
        "completedCircles(address)": "fd81593f",
        "contribute(uint256)": "c1cbbca7",
        "createCircle((uint256,uint8,uint8,uint8))": "8261efa7",
        "createPersonalGoal((string,uint256,uint256,uint8,uint256))": "73705573",
        "executeVote(uint256)": "f98a4eca",
        "getCircleDetails(uint256)": "6cd5bf8f",
        "getCircleMembers(uint256)": "cb815ab9",
        "getCircleProgress(uint256)": "bc38b8f7",
        "getMemberInfo(uint256,address)": "1e67939e",
        "getUserCircles(address)": "88e81d8a",
        "getUserGoals(address)": "35742c63",
        "getUserReputation(address)": "baccbfdb",
        "getVoteInfo(uint256)": "8d824273",
        "goalCounter()": "f9e9ad39",
        "initialize(address,address,address)": "c0c53b8b",
        "initiateVoting(uint256)": "45714684",
        "inviteMembers(uint256,address[])": "d4bf578c",
        "isInvited(uint256,address)": "12e81b80",
        "joinCircle(uint256)": "86d6cfb3",
        "latePayments(address)": "0f801988",
        "memberVotes(uint256,address)": "63fc152e",
        "owner()": "8da5cb5b",
        "personalGoals(uint256)": "ad5a6982",
        "platformFeeBps()": "22dcd13e",
        "proxiableUUID()": "52d1902d",
        "renounceOwnership()": "715018a6",
        "roundContributions(uint256,uint8,address)": "61a524a1",
        "startCircle(uint256)": "ec6b733f",
        "totalPlatformFees()": "d3631fa5",
        "transferOwnership(address)": "f2fde38b",
        "treasury()": "61d027b3",
        "updateCircleVisibility(uint256,uint8)": "157a7ec7",
        "upgrade(address,address,uint8)": "7ee839c4",
        "upgradeToAndCall(address,bytes)": "4f1ef286",
        "userGoals(address,uint256)": "b6b3eedf",
        "userReputation(address)": "e503bb05",
        "version()": "54fd4d50",
        "withdrawFromGoal(uint256,uint256)": "f9d040b8"
    },
    "gasEstimates": {
        "creation": {
            "codeDepositCost": "3684400",
            "executionCost": "infinite",
            "totalCost": "infinite"
        },
        "external": {
            "CompleteGoal(uint256)": "infinite",
            "ContributeToGoal(uint256)": "infinite",
            "LATE_FEE_BPS()": "923",
            "MAX_CONTRIBUTION()": "879",
            "MAX_MEMBERS()": "1297",
            "MIN_CONTRIBUTION()": "351",
            "MIN_MEMBERS()": "1253",
            "PLATFORM_FEE_BPS()": "461",
            "START_VOTE_THRESHOLD()": "527",
            "UPGRADE_INTERFACE_VERSION()": "1248",
            "VERSION()": "1514",
            "VISIBILITY_UPDATE_FEE()": "395",
            "VOTING_PERIOD()": "989",
            "WithdrawCollateral(uint256)": "infinite",
            "_getGracePeriod(uint8)": "1361",
            "cUSDToken()": "2265",
            "canWithdrawAfterVote(uint256)": "5064",
            "castVote(uint256,uint8)": "infinite",
            "circleCounter()": "3488",
            "circleInvitations(uint256,address)": "3233",
            "circleMemberList(uint256,uint256)": "7440",
            "circleMembers(uint256,address)": "11167",
            "circleRoundDeadlines(uint256,uint256)": "2908",
            "circleVotes(uint256)": "7676",
            "circles(uint256)": "16364",
            "completedCircles(address)": "3748",
            "contribute(uint256)": "infinite",
            "createCircle((uint256,uint8,uint8,uint8))": "infinite",
            "createPersonalGoal((string,uint256,uint256,uint8,uint256))": "infinite",
            "executeVote(uint256)": "infinite",
            "getCircleDetails(uint256)": "infinite",
            "getCircleMembers(uint256)": "infinite",
            "getCircleProgress(uint256)": "infinite",
            "getMemberInfo(uint256,address)": "infinite",
            "getUserCircles(address)": "infinite",
            "getUserGoals(address)": "infinite",
            "getUserReputation(address)": "7655",
            "getVoteInfo(uint256)": "7548",
            "goalCounter()": "3554",
            "initialize(address,address,address)": "infinite",
            "initiateVoting(uint256)": "infinite",
            "inviteMembers(uint256,address[])": "infinite",
            "isInvited(uint256,address)": "2529",
            "joinCircle(uint256)": "infinite",
            "latePayments(address)": "2428",
            "memberVotes(uint256,address)": "2998",
            "owner()": "infinite",
            "personalGoals(uint256)": "infinite",
            "platformFeeBps()": "2366",
            "proxiableUUID()": "infinite",
            "renounceOwnership()": "28646",
            "roundContributions(uint256,uint8,address)": "3007",
            "startCircle(uint256)": "infinite",
            "totalPlatformFees()": "3290",
            "transferOwnership(address)": "29505",
            "treasury()": "2720",
            "updateCircleVisibility(uint256,uint8)": "infinite",
            "upgrade(address,address,uint8)": "infinite",
            "upgradeToAndCall(address,bytes)": "infinite",
            "userGoals(address,uint256)": "7635",
            "userReputation(address)": "3528",
            "version()": "786",
            "withdrawFromGoal(uint256,uint256)": "infinite"
        },
        "internal": {
            "_assignPosition(uint256)": "infinite",
            "_authorizeUpgrade(address)": "infinite",
            "_calcCollateral(uint256,uint256)": "241",
            "_checkComplete(uint256)": "infinite",
            "_freqSeconds(enum CirclePotV1.Frequency)": "infinite",
            "_getByPos(uint256,uint256)": "infinite",
            "_handleLate(uint256,uint8,uint256)": "infinite",
            "_nextDeadline(enum CirclePotV1.Frequency,uint256)": "infinite",
            "_payoutRound(uint256,uint8)": "infinite",
            "_penaltyBps(uint256)": "101",
            "_progressNextRound(struct CirclePotV1.Circle storage pointer,uint256,uint8)": "infinite",
            "_releaseAllCollateral(uint256)": "infinite",
            "_startCircleInternal(uint256)": "infinite",
            "_ultimatum(enum CirclePotV1.Frequency)": "infinite"
        }
    }
}