{
  "contractName": "CircleSavingsV1",
  "abi": [
    {
      "inputs": [],
      "stateMutability": "nonpayable",
      "type": "constructor"
    },
    {
      "inputs": [
        {
          "internalType": "address",
          "name": "target",
          "type": "address"
        }
      ],
      "name": "AddressEmptyCode",
      "type": "error"
    },
    {
      "inputs": [],
      "name": "AddressZeroNotAllowed",
      "type": "error"
    },
    {
      "inputs": [],
      "name": "AlreadyContributed",
      "type": "error"
    },
    {
      "inputs": [],
      "name": "AlreadyJoined",
      "type": "error"
    },
    {
      "inputs": [],
      "name": "AlreadyVoted",
      "type": "error"
    },
    {
      "inputs": [],
      "name": "CircleNotActive",
      "type": "error"
    },
    {
      "inputs": [],
      "name": "CircleNotExist",
      "type": "error"
    },
    {
      "inputs": [],
      "name": "CircleNotOpen",
      "type": "error"
    },
    {
      "inputs": [],
      "name": "CircleNotPrivate",
      "type": "error"
    },
    {
      "inputs": [
        {
          "internalType": "address",
          "name": "implementation",
          "type": "address"
        }
      ],
      "name": "ERC1967InvalidImplementation",
      "type": "error"
    },
    {
      "inputs": [],
      "name": "ERC1967NonPayable",
      "type": "error"
    },
    {
      "inputs": [],
      "name": "FailedCall",
      "type": "error"
    },
    {
      "inputs": [],
      "name": "GracePeriodNotExpired",
      "type": "error"
    },
    {
      "inputs": [],
      "name": "InsufficientCollateral",
      "type": "error"
    },
    {
      "inputs": [],
      "name": "InvalidCircle",
      "type": "error"
    },
    {
      "inputs": [],
      "name": "InvalidContributionAmount",
      "type": "error"
    },
    {
      "inputs": [],
      "name": "InvalidInitialization",
      "type": "error"
    },
    {
      "inputs": [],
      "name": "InvalidMemberCount",
      "type": "error"
    },
    {
      "inputs": [],
      "name": "InvalidVoteChoice",
      "type": "error"
    },
    {
      "inputs": [],
      "name": "MinMembersNotReached",
      "type": "error"
    },
    {
      "inputs": [],
      "name": "NotActiveMember",
      "type": "error"
    },
    {
      "inputs": [],
      "name": "NotInitializing",
      "type": "error"
    },
    {
      "inputs": [],
      "name": "NotInvited",
      "type": "error"
    },
    {
      "inputs": [],
      "name": "NotNextRecipient",
      "type": "error"
    },
    {
      "inputs": [],
      "name": "OnlyCreator",
      "type": "error"
    },
    {
      "inputs": [
        {
          "internalType": "address",
          "name": "owner",
          "type": "address"
        }
      ],
      "name": "OwnableInvalidOwner",
      "type": "error"
    },
    {
      "inputs": [
        {
          "internalType": "address",
          "name": "account",
          "type": "address"
        }
      ],
      "name": "OwnableUnauthorizedAccount",
      "type": "error"
    },
    {
      "inputs": [],
      "name": "ReentrancyGuardReentrantCall",
      "type": "error"
    },
    {
      "inputs": [
        {
          "internalType": "address",
          "name": "token",
          "type": "address"
        }
      ],
      "name": "SafeERC20FailedOperation",
      "type": "error"
    },
    {
      "inputs": [],
      "name": "SameVisibility",
      "type": "error"
    },
    {
      "inputs": [],
      "name": "TitleTooShortOrLong",
      "type": "error"
    },
    {
      "inputs": [],
      "name": "UUPSUnauthorizedCallContext",
      "type": "error"
    },
    {
      "inputs": [
        {
          "internalType": "bytes32",
          "name": "slot",
          "type": "bytes32"
        }
      ],
      "name": "UUPSUnsupportedProxiableUUID",
      "type": "error"
    },
    {
      "inputs": [],
      "name": "UltimatumNotPassed",
      "type": "error"
    },
    {
      "inputs": [],
      "name": "UltimatumNotReached",
      "type": "error"
    },
    {
      "inputs": [],
      "name": "VoteAlreadyExecuted",
      "type": "error"
    },
    {
      "inputs": [],
      "name": "VotingAlreadyExecuted",
      "type": "error"
    },
    {
      "inputs": [],
      "name": "VotingNotActive",
      "type": "error"
    },
    {
      "inputs": [],
      "name": "VotingPeriodEnded",
      "type": "error"
    },
    {
      "inputs": [],
      "name": "VotingStillActive",
      "type": "error"
    },
    {
      "anonymous": false,
      "inputs": [
        {
          "indexed": true,
          "internalType": "uint256",
          "name": "circleId",
          "type": "uint256"
        },
        {
          "indexed": false,
          "internalType": "string",
          "name": "title",
          "type": "string"
        },
        {
          "indexed": false,
          "internalType": "string",
          "name": "description",
          "type": "string"
        },
        {
          "indexed": true,
          "internalType": "address",
          "name": "creator",
          "type": "address"
        },
        {
          "indexed": true,
          "internalType": "uint256",
          "name": "contributionAmount",
          "type": "uint256"
        },
        {
          "indexed": false,
          "internalType": "enum CircleSavingsV1.Frequency",
          "name": "frequency",
          "type": "uint8"
        },
        {
          "indexed": false,
          "internalType": "uint256",
          "name": "maxMembers",
          "type": "uint256"
        },
        {
          "indexed": false,
          "internalType": "enum CircleSavingsV1.Visibility",
          "name": "visibility",
          "type": "uint8"
        },
        {
          "indexed": false,
          "internalType": "uint256",
          "name": "createdAt",
          "type": "uint256"
        },
        {
          "indexed": false,
          "internalType": "uint256",
          "name": "collateralLocked",
          "type": "uint256"
        }
      ],
      "name": "CircleCreated",
      "type": "event"
    },
    {
      "anonymous": false,
      "inputs": [
        {
          "indexed": true,
          "internalType": "uint256",
          "name": "circleId",
          "type": "uint256"
        },
        {
          "indexed": true,
          "internalType": "address",
          "name": "member",
          "type": "address"
        },
        {
          "indexed": true,
          "internalType": "uint256",
          "name": "currentMembers",
          "type": "uint256"
        },
        {
          "indexed": false,
          "internalType": "enum CircleSavingsV1.CircleState",
          "name": "state",
          "type": "uint8"
        }
      ],
      "name": "CircleJoined",
      "type": "event"
    },
    {
      "anonymous": false,
      "inputs": [
        {
          "indexed": true,
          "internalType": "uint256",
          "name": "circleId",
          "type": "uint256"
        },
        {
          "indexed": false,
          "internalType": "uint256",
          "name": "startedAt",
          "type": "uint256"
        },
        {
          "indexed": false,
          "internalType": "enum CircleSavingsV1.CircleState",
          "name": "state",
          "type": "uint8"
        }
      ],
      "name": "CircleStarted",
      "type": "event"
    },
    {
      "anonymous": false,
      "inputs": [
        {
          "indexed": true,
          "internalType": "uint256",
          "name": "circleId",
          "type": "uint256"
        },
        {
          "indexed": true,
          "internalType": "address",
          "name": "member",
          "type": "address"
        },
        {
          "indexed": false,
          "internalType": "uint256",
          "name": "amount",
          "type": "uint256"
        }
      ],
      "name": "CollateralWithdrawn",
      "type": "event"
    },
    {
      "anonymous": false,
      "inputs": [
        {
          "indexed": true,
          "internalType": "address",
          "name": "newImplementation",
          "type": "address"
        },
        {
          "indexed": false,
          "internalType": "uint256",
          "name": "version",
          "type": "uint256"
        }
      ],
      "name": "ContractUpgraded",
      "type": "event"
    },
    {
      "anonymous": false,
      "inputs": [
        {
          "indexed": true,
          "internalType": "uint256",
          "name": "circleId",
          "type": "uint256"
        },
        {
          "indexed": false,
          "internalType": "uint256",
          "name": "round",
          "type": "uint256"
        },
        {
          "indexed": false,
          "internalType": "address",
          "name": "member",
          "type": "address"
        },
        {
          "indexed": true,
          "internalType": "uint256",
          "name": "amount",
          "type": "uint256"
        }
      ],
      "name": "ContributionMade",
      "type": "event"
    },
    {
      "anonymous": false,
      "inputs": [
        {
          "indexed": false,
          "internalType": "uint64",
          "name": "version",
          "type": "uint64"
        }
      ],
      "name": "Initialized",
      "type": "event"
    },
    {
      "anonymous": false,
      "inputs": [
        {
          "indexed": true,
          "internalType": "uint256",
          "name": "circleId",
          "type": "uint256"
        },
        {
          "indexed": false,
          "internalType": "uint256",
          "name": "round",
          "type": "uint256"
        },
        {
          "indexed": false,
          "internalType": "address",
          "name": "member",
          "type": "address"
        },
        {
          "indexed": true,
          "internalType": "uint256",
          "name": "deduction",
          "type": "uint256"
        },
        {
          "indexed": true,
          "internalType": "address",
          "name": "forfeiter",
          "type": "address"
        }
      ],
      "name": "MemberForfeited",
      "type": "event"
    },
    {
      "anonymous": false,
      "inputs": [
        {
          "indexed": true,
          "internalType": "uint256",
          "name": "circleId",
          "type": "uint256"
        },
        {
          "indexed": true,
          "internalType": "address",
          "name": "creator",
          "type": "address"
        },
        {
          "indexed": true,
          "internalType": "address",
          "name": "invitee",
          "type": "address"
        },
        {
          "indexed": false,
          "internalType": "uint256",
          "name": "invitedAt",
          "type": "uint256"
        }
      ],
      "name": "MemberInvited",
      "type": "event"
    },
    {
      "anonymous": false,
      "inputs": [
        {
          "indexed": true,
          "internalType": "address",
          "name": "previousOwner",
          "type": "address"
        },
        {
          "indexed": true,
          "internalType": "address",
          "name": "newOwner",
          "type": "address"
        }
      ],
      "name": "OwnershipTransferred",
      "type": "event"
    },
    {
      "anonymous": false,
      "inputs": [
        {
          "indexed": true,
          "internalType": "uint256",
          "name": "circleId",
          "type": "uint256"
        },
        {
          "indexed": true,
          "internalType": "uint256",
          "name": "round",
          "type": "uint256"
        },
        {
          "indexed": true,
          "internalType": "address",
          "name": "recipient",
          "type": "address"
        },
        {
          "indexed": false,
          "internalType": "uint256",
          "name": "amount",
          "type": "uint256"
        }
      ],
      "name": "PayoutDistributed",
      "type": "event"
    },
    {
      "anonymous": false,
      "inputs": [
        {
          "indexed": true,
          "internalType": "uint256",
          "name": "circleId",
          "type": "uint256"
        },
        {
          "indexed": true,
          "internalType": "address",
          "name": "member",
          "type": "address"
        },
        {
          "indexed": false,
          "internalType": "uint256",
          "name": "position",
          "type": "uint256"
        }
      ],
      "name": "PositionAssigned",
      "type": "event"
    },
    {
      "anonymous": false,
      "inputs": [
        {
          "indexed": true,
          "internalType": "address",
          "name": "newContract",
          "type": "address"
        }
      ],
      "name": "ReputationContractUpdated",
      "type": "event"
    },
    {
      "anonymous": false,
      "inputs": [
        {
          "indexed": true,
          "internalType": "address",
          "name": "implementation",
          "type": "address"
        }
      ],
      "name": "Upgraded",
      "type": "event"
    },
    {
      "anonymous": false,
      "inputs": [
        {
          "indexed": true,
          "internalType": "uint256",
          "name": "circleId",
          "type": "uint256"
        },
        {
          "indexed": true,
          "internalType": "address",
          "name": "creator",
          "type": "address"
        }
      ],
      "name": "VisibilityUpdated",
      "type": "event"
    },
    {
      "anonymous": false,
      "inputs": [
        {
          "indexed": true,
          "internalType": "uint256",
          "name": "circleId",
          "type": "uint256"
        },
        {
          "indexed": true,
          "internalType": "address",
          "name": "voter",
          "type": "address"
        },
        {
          "indexed": false,
          "internalType": "enum CircleSavingsV1.VoteChoice",
          "name": "choice",
          "type": "uint8"
        }
      ],
      "name": "VoteCast",
      "type": "event"
    },
    {
      "anonymous": false,
      "inputs": [
        {
          "indexed": true,
          "internalType": "uint256",
          "name": "circleId",
          "type": "uint256"
        },
        {
          "indexed": false,
          "internalType": "bool",
          "name": "circleStarted",
          "type": "bool"
        },
        {
          "indexed": false,
          "internalType": "uint256",
          "name": "startVoteCount",
          "type": "uint256"
        },
        {
          "indexed": false,
          "internalType": "uint256",
          "name": "withdrawVoteCount",
          "type": "uint256"
        }
      ],
      "name": "VoteExecuted",
      "type": "event"
    },
    {
      "anonymous": false,
      "inputs": [
        {
          "indexed": true,
          "internalType": "uint256",
          "name": "circleId",
          "type": "uint256"
        },
        {
          "indexed": true,
          "internalType": "uint256",
          "name": "votingStartTime",
          "type": "uint256"
        },
        {
          "indexed": true,
          "internalType": "uint256",
          "name": "votingEndTime",
          "type": "uint256"
        }
      ],
      "name": "VotingInitiated",
      "type": "event"
    },
    {
      "inputs": [],
      "name": "LATE_FEE_BPS",
      "outputs": [
        {
          "internalType": "uint256",
          "name": "",
          "type": "uint256"
        }
      ],
      "stateMutability": "view",
      "type": "function"
    },
    {
      "inputs": [],
      "name": "MAX_CONTRIBUTION",
      "outputs": [
        {
          "internalType": "uint256",
          "name": "",
          "type": "uint256"
        }
      ],
      "stateMutability": "view",
      "type": "function"
    },
    {
      "inputs": [],
      "name": "MAX_MEMBERS",
      "outputs": [
        {
          "internalType": "uint256",
          "name": "",
          "type": "uint256"
        }
      ],
      "stateMutability": "view",
      "type": "function"
    },
    {
      "inputs": [],
      "name": "MIN_CONTRIBUTION",
      "outputs": [
        {
          "internalType": "uint256",
          "name": "",
          "type": "uint256"
        }
      ],
      "stateMutability": "view",
      "type": "function"
    },
    {
      "inputs": [],
      "name": "MIN_MEMBERS",
      "outputs": [
        {
          "internalType": "uint256",
          "name": "",
          "type": "uint256"
        }
      ],
      "stateMutability": "view",
      "type": "function"
    },
    {
      "inputs": [],
      "name": "PLATFORM_FEE_BPS",
      "outputs": [
        {
          "internalType": "uint256",
          "name": "",
          "type": "uint256"
        }
      ],
      "stateMutability": "view",
      "type": "function"
    },
    {
      "inputs": [],
      "name": "START_VOTE_THRESHOLD",
      "outputs": [
        {
          "internalType": "uint256",
          "name": "",
          "type": "uint256"
        }
      ],
      "stateMutability": "view",
      "type": "function"
    },
    {
      "inputs": [],
      "name": "UPGRADE_INTERFACE_VERSION",
      "outputs": [
        {
          "internalType": "string",
          "name": "",
          "type": "string"
        }
      ],
      "stateMutability": "view",
      "type": "function"
    },
    {
      "inputs": [],
      "name": "VERSION",
      "outputs": [
        {
          "internalType": "uint256",
          "name": "",
          "type": "uint256"
        }
      ],
      "stateMutability": "view",
      "type": "function"
    },
    {
      "inputs": [],
      "name": "VISIBILITY_UPDATE_FEE",
      "outputs": [
        {
          "internalType": "uint256",
          "name": "",
          "type": "uint256"
        }
      ],
      "stateMutability": "view",
      "type": "function"
    },
    {
      "inputs": [],
      "name": "VOTING_PERIOD",
      "outputs": [
        {
          "internalType": "uint256",
          "name": "",
          "type": "uint256"
        }
      ],
      "stateMutability": "view",
      "type": "function"
    },
    {
      "inputs": [
        {
          "internalType": "uint256",
          "name": "_circleId",
          "type": "uint256"
        }
      ],
      "name": "WithdrawCollateral",
      "outputs": [],
      "stateMutability": "nonpayable",
      "type": "function"
    },
    {
      "inputs": [
        {
          "internalType": "enum CircleSavingsV1.Frequency",
          "name": "f",
          "type": "uint8"
        }
      ],
      "name": "_getGracePeriod",
      "outputs": [
        {
          "internalType": "uint256",
          "name": "",
          "type": "uint256"
        }
      ],
      "stateMutability": "pure",
      "type": "function"
    },
    {
      "inputs": [],
      "name": "USDmToken",
      "outputs": [
        {
          "internalType": "address",
          "name": "",
          "type": "address"
        }
      ],
      "stateMutability": "view",
      "type": "function"
    },
    {
      "inputs": [
        {
          "internalType": "uint256",
          "name": "_circleId",
          "type": "uint256"
        }
      ],
      "name": "canWithdrawAfterVote",
      "outputs": [
        {
          "internalType": "bool",
          "name": "",
          "type": "bool"
        }
      ],
      "stateMutability": "view",
      "type": "function"
    },
    {
      "inputs": [
        {
          "internalType": "uint256",
          "name": "_circleId",
          "type": "uint256"
        },
        {
          "internalType": "enum CircleSavingsV1.VoteChoice",
          "name": "_choice",
          "type": "uint8"
        }
      ],
      "name": "castVote",
      "outputs": [],
      "stateMutability": "nonpayable",
      "type": "function"
    },
    {
      "inputs": [],
      "name": "circleCounter",
      "outputs": [
        {
          "internalType": "uint256",
          "name": "",
          "type": "uint256"
        }
      ],
      "stateMutability": "view",
      "type": "function"
    },
    {
      "inputs": [
        {
          "internalType": "uint256",
          "name": "",
          "type": "uint256"
        },
        {
          "internalType": "address",
          "name": "",
          "type": "address"
        }
      ],
      "name": "circleInvitations",
      "outputs": [
        {
          "internalType": "bool",
          "name": "",
          "type": "bool"
        }
      ],
      "stateMutability": "view",
      "type": "function"
    },
    {
      "inputs": [
        {
          "internalType": "uint256",
          "name": "",
          "type": "uint256"
        },
        {
          "internalType": "uint256",
          "name": "",
          "type": "uint256"
        }
      ],
      "name": "circleMemberList",
      "outputs": [
        {
          "internalType": "address",
          "name": "",
          "type": "address"
        }
      ],
      "stateMutability": "view",
      "type": "function"
    },
    {
      "inputs": [
        {
          "internalType": "uint256",
          "name": "",
          "type": "uint256"
        },
        {
          "internalType": "address",
          "name": "",
          "type": "address"
        }
      ],
      "name": "circleMembers",
      "outputs": [
        {
          "internalType": "uint256",
          "name": "position",
          "type": "uint256"
        },
        {
          "internalType": "uint256",
          "name": "totalContributed",
          "type": "uint256"
        },
        {
          "internalType": "bool",
          "name": "hasReceivedPayout",
          "type": "bool"
        },
        {
          "internalType": "bool",
          "name": "isActive",
          "type": "bool"
        },
        {
          "internalType": "uint256",
          "name": "collateralLocked",
          "type": "uint256"
        },
        {
          "internalType": "uint256",
          "name": "joinedAt",
          "type": "uint256"
        }
      ],
      "stateMutability": "view",
      "type": "function"
    },
    {
      "inputs": [
        {
          "internalType": "uint256",
          "name": "",
          "type": "uint256"
        },
        {
          "internalType": "uint256",
          "name": "",
          "type": "uint256"
        }
      ],
      "name": "circleRoundDeadlines",
      "outputs": [
        {
          "internalType": "uint256",
          "name": "",
          "type": "uint256"
        }
      ],
      "stateMutability": "view",
      "type": "function"
    },
    {
      "inputs": [
        {
          "internalType": "uint256",
          "name": "",
          "type": "uint256"
        }
      ],
      "name": "circleVotes",
      "outputs": [
        {
          "internalType": "uint256",
          "name": "votingStartTime",
          "type": "uint256"
        },
        {
          "internalType": "uint256",
          "name": "votingEndTime",
          "type": "uint256"
        },
        {
          "internalType": "uint256",
          "name": "startVoteCount",
          "type": "uint256"
        },
        {
          "internalType": "uint256",
          "name": "withdrawVoteCount",
          "type": "uint256"
        },
        {
          "internalType": "bool",
          "name": "votingActive",
          "type": "bool"
        },
        {
          "internalType": "bool",
          "name": "voteExecuted",
          "type": "bool"
        }
      ],
      "stateMutability": "view",
      "type": "function"
    },
    {
      "inputs": [
        {
          "internalType": "uint256",
          "name": "",
          "type": "uint256"
        }
      ],
      "name": "circles",
      "outputs": [
        {
          "internalType": "uint256",
          "name": "circleId",
          "type": "uint256"
        },
        {
          "internalType": "string",
          "name": "title",
          "type": "string"
        },
        {
          "internalType": "string",
          "name": "description",
          "type": "string"
        },
        {
          "internalType": "address",
          "name": "creator",
          "type": "address"
        },
        {
          "internalType": "uint256",
          "name": "contributionAmount",
          "type": "uint256"
        },
        {
          "internalType": "enum CircleSavingsV1.Frequency",
          "name": "frequency",
          "type": "uint8"
        },
        {
          "internalType": "uint256",
          "name": "maxMembers",
          "type": "uint256"
        },
        {
          "internalType": "uint256",
          "name": "currentMembers",
          "type": "uint256"
        },
        {
          "internalType": "uint256",
          "name": "currentRound",
          "type": "uint256"
        },
        {
          "internalType": "uint256",
          "name": "totalRounds",
          "type": "uint256"
        },
        {
          "internalType": "enum CircleSavingsV1.CircleState",
          "name": "state",
          "type": "uint8"
        },
        {
          "internalType": "enum CircleSavingsV1.Visibility",
          "name": "visibility",
          "type": "uint8"
        },
        {
          "internalType": "uint256",
          "name": "createdAt",
          "type": "uint256"
        },
        {
          "internalType": "uint256",
          "name": "startedAt",
          "type": "uint256"
        },
        {
          "internalType": "uint256",
          "name": "totalPot",
          "type": "uint256"
        }
      ],
      "stateMutability": "view",
      "type": "function"
    },
    {
      "inputs": [
        {
          "internalType": "uint256",
          "name": "_circleId",
          "type": "uint256"
        }
      ],
      "name": "contribute",
      "outputs": [],
      "stateMutability": "nonpayable",
      "type": "function"
    },
    {
      "inputs": [
        {
          "components": [
            {
              "internalType": "string",
              "name": "title",
              "type": "string"
            },
            {
              "internalType": "string",
              "name": "description",
              "type": "string"
            },
            {
              "internalType": "uint256",
              "name": "contributionAmount",
              "type": "uint256"
            },
            {
              "internalType": "enum CircleSavingsV1.Frequency",
              "name": "frequency",
              "type": "uint8"
            },
            {
              "internalType": "uint256",
              "name": "maxMembers",
              "type": "uint256"
            },
            {
              "internalType": "enum CircleSavingsV1.Visibility",
              "name": "visibility",
              "type": "uint8"
            }
          ],
          "internalType": "struct CircleSavingsV1.CreateCircleParams",
          "name": "params",
          "type": "tuple"
        }
      ],
      "name": "createCircle",
      "outputs": [
        {
          "internalType": "uint256",
          "name": "",
          "type": "uint256"
        }
      ],
      "stateMutability": "nonpayable",
      "type": "function"
    },
    {
      "inputs": [
        {
          "internalType": "uint256",
          "name": "_circleId",
          "type": "uint256"
        }
      ],
      "name": "executeVote",
      "outputs": [],
      "stateMutability": "nonpayable",
      "type": "function"
    },
    {
      "inputs": [
        {
          "internalType": "uint256",
          "name": "_circleId",
          "type": "uint256"
        }
      ],
      "name": "forfeitMember",
      "outputs": [],
      "stateMutability": "nonpayable",
      "type": "function"
    },
    {
      "inputs": [
        {
          "internalType": "uint256",
          "name": "_circleId",
          "type": "uint256"
        }
      ],
      "name": "getCircleDetails",
      "outputs": [
        {
          "components": [
            {
              "internalType": "uint256",
              "name": "circleId",
              "type": "uint256"
            },
            {
              "internalType": "string",
              "name": "title",
              "type": "string"
            },
            {
              "internalType": "string",
              "name": "description",
              "type": "string"
            },
            {
              "internalType": "address",
              "name": "creator",
              "type": "address"
            },
            {
              "internalType": "uint256",
              "name": "contributionAmount",
              "type": "uint256"
            },
            {
              "internalType": "enum CircleSavingsV1.Frequency",
              "name": "frequency",
              "type": "uint8"
            },
            {
              "internalType": "uint256",
              "name": "maxMembers",
              "type": "uint256"
            },
            {
              "internalType": "uint256",
              "name": "currentMembers",
              "type": "uint256"
            },
            {
              "internalType": "uint256",
              "name": "currentRound",
              "type": "uint256"
            },
            {
              "internalType": "uint256",
              "name": "totalRounds",
              "type": "uint256"
            },
            {
              "internalType": "enum CircleSavingsV1.CircleState",
              "name": "state",
              "type": "uint8"
            },
            {
              "internalType": "enum CircleSavingsV1.Visibility",
              "name": "visibility",
              "type": "uint8"
            },
            {
              "internalType": "uint256",
              "name": "createdAt",
              "type": "uint256"
            },
            {
              "internalType": "uint256",
              "name": "startedAt",
              "type": "uint256"
            },
            {
              "internalType": "uint256",
              "name": "totalPot",
              "type": "uint256"
            }
          ],
          "internalType": "struct CircleSavingsV1.Circle",
          "name": "circle",
          "type": "tuple"
        },
        {
          "internalType": "uint256",
          "name": "membersJoined",
          "type": "uint256"
        },
        {
          "internalType": "uint256",
          "name": "currentDeadline",
          "type": "uint256"
        },
        {
          "internalType": "bool",
          "name": "canStart",
          "type": "bool"
        }
      ],
      "stateMutability": "view",
      "type": "function"
    },
    {
      "inputs": [
        {
          "internalType": "uint256",
          "name": "_circleId",
          "type": "uint256"
        }
      ],
      "name": "getCircleMembers",
      "outputs": [
        {
          "internalType": "address[]",
          "name": "",
          "type": "address[]"
        }
      ],
      "stateMutability": "view",
      "type": "function"
    },
    {
      "inputs": [
        {
          "internalType": "uint256",
          "name": "_circleId",
          "type": "uint256"
        }
      ],
      "name": "getCircleProgress",
      "outputs": [
        {
          "internalType": "uint256",
          "name": "currentRound",
          "type": "uint256"
        },
        {
          "internalType": "uint256",
          "name": "totalRounds",
          "type": "uint256"
        },
        {
          "internalType": "uint256",
          "name": "contributionsThisRound",
          "type": "uint256"
        },
        {
          "internalType": "uint256",
          "name": "totalMembers",
          "type": "uint256"
        }
      ],
      "stateMutability": "view",
      "type": "function"
    },
    {
      "inputs": [
        {
          "internalType": "uint256",
          "name": "_circleId",
          "type": "uint256"
        },
        {
          "internalType": "address",
          "name": "_member",
          "type": "address"
        }
      ],
      "name": "getMemberInfo",
      "outputs": [
        {
          "components": [
            {
              "internalType": "uint256",
              "name": "position",
              "type": "uint256"
            },
            {
              "internalType": "uint256",
              "name": "totalContributed",
              "type": "uint256"
            },
            {
              "internalType": "bool",
              "name": "hasReceivedPayout",
              "type": "bool"
            },
            {
              "internalType": "bool",
              "name": "isActive",
              "type": "bool"
            },
            {
              "internalType": "uint256",
              "name": "collateralLocked",
              "type": "uint256"
            },
            {
              "internalType": "uint256",
              "name": "joinedAt",
              "type": "uint256"
            }
          ],
          "internalType": "struct CircleSavingsV1.Member",
          "name": "memberInfo",
          "type": "tuple"
        },
        {
          "internalType": "bool",
          "name": "hasContributedThisRound",
          "type": "bool"
        },
        {
          "internalType": "uint256",
          "name": "nextDeadline",
          "type": "uint256"
        }
      ],
      "stateMutability": "view",
      "type": "function"
    },
    {
      "inputs": [
        {
          "internalType": "address",
          "name": "_user",
          "type": "address"
        }
      ],
      "name": "getUserCircles",
      "outputs": [
        {
          "internalType": "uint256[]",
          "name": "",
          "type": "uint256[]"
        }
      ],
      "stateMutability": "view",
      "type": "function"
    },
    {
      "inputs": [
        {
          "internalType": "uint256",
          "name": "_circleId",
          "type": "uint256"
        }
      ],
      "name": "getVoteInfo",
      "outputs": [
        {
          "internalType": "uint256",
          "name": "votingEndTime",
          "type": "uint256"
        },
        {
          "internalType": "uint256",
          "name": "startVoteCount",
          "type": "uint256"
        },
        {
          "internalType": "uint256",
          "name": "withdrawVoteCount",
          "type": "uint256"
        },
        {
          "internalType": "bool",
          "name": "votingActive",
          "type": "bool"
        },
        {
          "internalType": "bool",
          "name": "voteExecuted",
          "type": "bool"
        },
        {
          "internalType": "enum CircleSavingsV1.VoteChoice",
          "name": "userVote",
          "type": "uint8"
        }
      ],
      "stateMutability": "view",
      "type": "function"
    },
    {
      "inputs": [
        {
          "internalType": "address",
          "name": "_USDmToken",
          "type": "address"
        },
        {
          "internalType": "address",
          "name": "_treasury",
          "type": "address"
        },
        {
          "internalType": "address",
          "name": "_reputationContract",
          "type": "address"
        },
        {
          "internalType": "address",
          "name": "initialOwner",
          "type": "address"
        }
      ],
      "name": "initialize",
      "outputs": [],
      "stateMutability": "nonpayable",
      "type": "function"
    },
    {
      "inputs": [
        {
          "internalType": "uint256",
          "name": "_circleId",
          "type": "uint256"
        }
      ],
      "name": "initiateVoting",
      "outputs": [],
      "stateMutability": "nonpayable",
      "type": "function"
    },
    {
      "inputs": [
        {
          "internalType": "uint256",
          "name": "_circleId",
          "type": "uint256"
        },
        {
          "internalType": "address[]",
          "name": "_invitees",
          "type": "address[]"
        }
      ],
      "name": "inviteMembers",
      "outputs": [],
      "stateMutability": "nonpayable",
      "type": "function"
    },
    {
      "inputs": [
        {
          "internalType": "uint256",
          "name": "_circleId",
          "type": "uint256"
        },
        {
          "internalType": "address",
          "name": "_user",
          "type": "address"
        }
      ],
      "name": "isInvited",
      "outputs": [
        {
          "internalType": "bool",
          "name": "",
          "type": "bool"
        }
      ],
      "stateMutability": "view",
      "type": "function"
    },
    {
      "inputs": [
        {
          "internalType": "uint256",
          "name": "_circleId",
          "type": "uint256"
        }
      ],
      "name": "joinCircle",
      "outputs": [],
      "stateMutability": "nonpayable",
      "type": "function"
    },
    {
      "inputs": [
        {
          "internalType": "uint256",
          "name": "",
          "type": "uint256"
        },
        {
          "internalType": "address",
          "name": "",
          "type": "address"
        }
      ],
      "name": "memberVotes",
      "outputs": [
        {
          "internalType": "enum CircleSavingsV1.VoteChoice",
          "name": "",
          "type": "uint8"
        }
      ],
      "stateMutability": "view",
      "type": "function"
    },
    {
      "inputs": [],
      "name": "owner",
      "outputs": [
        {
          "internalType": "address",
          "name": "",
          "type": "address"
        }
      ],
      "stateMutability": "view",
      "type": "function"
    },
    {
      "inputs": [],
      "name": "platformFeeBps",
      "outputs": [
        {
          "internalType": "uint256",
          "name": "",
          "type": "uint256"
        }
      ],
      "stateMutability": "view",
      "type": "function"
    },
    {
      "inputs": [],
      "name": "proxiableUUID",
      "outputs": [
        {
          "internalType": "bytes32",
          "name": "",
          "type": "bytes32"
        }
      ],
      "stateMutability": "view",
      "type": "function"
    },
    {
      "inputs": [],
      "name": "renounceOwnership",
      "outputs": [],
      "stateMutability": "nonpayable",
      "type": "function"
    },
    {
      "inputs": [],
      "name": "reputationContract",
      "outputs": [
        {
          "internalType": "address",
          "name": "",
          "type": "address"
        }
      ],
      "stateMutability": "view",
      "type": "function"
    },
    {
      "inputs": [
        {
          "internalType": "uint256",
          "name": "",
          "type": "uint256"
        },
        {
          "internalType": "uint256",
          "name": "",
          "type": "uint256"
        },
        {
          "internalType": "address",
          "name": "",
          "type": "address"
        }
      ],
      "name": "roundContributions",
      "outputs": [
        {
          "internalType": "bool",
          "name": "",
          "type": "bool"
        }
      ],
      "stateMutability": "view",
      "type": "function"
    },
    {
      "inputs": [
        {
          "internalType": "uint256",
          "name": "_newBps",
          "type": "uint256"
        }
      ],
      "name": "setPlatformFeeBps",
      "outputs": [],
      "stateMutability": "nonpayable",
      "type": "function"
    },
    {
      "inputs": [
        {
          "internalType": "uint256",
          "name": "_circleId",
          "type": "uint256"
        }
      ],
      "name": "startCircle",
      "outputs": [],
      "stateMutability": "nonpayable",
      "type": "function"
    },
    {
      "inputs": [],
      "name": "totalPlatformFees",
      "outputs": [
        {
          "internalType": "uint256",
          "name": "",
          "type": "uint256"
        }
      ],
      "stateMutability": "view",
      "type": "function"
    },
    {
      "inputs": [
        {
          "internalType": "address",
          "name": "newOwner",
          "type": "address"
        }
      ],
      "name": "transferOwnership",
      "outputs": [],
      "stateMutability": "nonpayable",
      "type": "function"
    },
    {
      "inputs": [],
      "name": "treasury",
      "outputs": [
        {
          "internalType": "address",
          "name": "",
          "type": "address"
        }
      ],
      "stateMutability": "view",
      "type": "function"
    },
    {
      "inputs": [
        {
          "internalType": "uint256",
          "name": "_circleId",
          "type": "uint256"
        },
        {
          "internalType": "enum CircleSavingsV1.Visibility",
          "name": "_newVisibility",
          "type": "uint8"
        }
      ],
      "name": "updateCircleVisibility",
      "outputs": [],
      "stateMutability": "nonpayable",
      "type": "function"
    },
    {
      "inputs": [
        {
          "internalType": "address",
          "name": "_newReputationContract",
          "type": "address"
        }
      ],
      "name": "updateReputationContract",
      "outputs": [],
      "stateMutability": "nonpayable",
      "type": "function"
    },
    {
      "inputs": [
        {
          "internalType": "address",
          "name": "_new",
          "type": "address"
        }
      ],
      "name": "updateTreasury",
      "outputs": [],
      "stateMutability": "nonpayable",
      "type": "function"
    },
    {
      "inputs": [
        {
          "internalType": "address",
          "name": "_USDmToken",
          "type": "address"
        },
        {
          "internalType": "address",
          "name": "_treasury",
          "type": "address"
        },
        {
          "internalType": "address",
          "name": "_reputationContract",
          "type": "address"
        },
        {
          "internalType": "uint8",
          "name": "_version",
          "type": "uint8"
        }
      ],
      "name": "upgrade",
      "outputs": [],
      "stateMutability": "nonpayable",
      "type": "function"
    },
    {
      "inputs": [
        {
          "internalType": "address",
          "name": "newImplementation",
          "type": "address"
        },
        {
          "internalType": "bytes",
          "name": "data",
          "type": "bytes"
        }
      ],
      "name": "upgradeToAndCall",
      "outputs": [],
      "stateMutability": "payable",
      "type": "function"
    },
    {
      "inputs": [],
      "name": "version",
      "outputs": [
        {
          "internalType": "string",
          "name": "",
          "type": "string"
        }
      ],
      "stateMutability": "pure",
      "type": "function"
    },
    {
      "inputs": [],
      "name": "withdrawPlatformFees",
      "outputs": [],
      "stateMutability": "nonpayable",
      "type": "function"
    }
  ],
  "bytecode": "60a080604052346100e65760017f9b779b17422d0df92223018b32b4d1fa46e071723d6817e2486d003becc55f0055306080525f5160206145b55f395f51905f525460ff8160401c166100d7576002600160401b03196001600160401b03821601610084575b6040516144ca90816100eb823960805181818161236201526124050152f35b6001600160401b0319166001600160401b039081175f5160206145b55f395f51905f525581527fc7f505b2f371ae2175ee4913f4499e1f2633a7b5936321eed1cdaeb6115181d290602090a15f80610065565b63f92ee8a960e01b5f5260045ffd5b5f80fdfe6080806040526004361015610012575f80fd5b5f3560e01c9081630ea86ad81461325a5750806312e81b8014611700578063157a7ec7146130c85780631e67939e14612f4957806322dcd13e14612f2c5780632c2b97a414612eaa5780632dfa676814612e8257806340650c9114612e605780634571468414612d3257806346c39a1d14612d105780634eac58e3146125ab5780634f1ef286146123b657806352d1902d14612350578063539aa77f14610b6657806354fd4d5014612309578063567813881461216357806358f8d6ff1461214757806361d027b31461211f57806363fc152e146120cf57806369be46bf146120a05780636cd5bf8f14611dc9578063715018a614611d625780637f51bb1f14611d1b57806384bb19cc14611cc657806386d6cfb314611a2757806387bc1425146119ff57806388e81d8a146118e25780638d824273146118515780638da5cb5b1461181d5780638fda34bf146117d5578063905baa611461176d57806394d95f8f1461174957806398d4c1dd14611700578063a8c93057146116e5578063ad3cb1cc1461169a578063b1610d7e1461167d578063b4d0ae6d146113bd578063bc38b8f7146112d3578063bc5e0f30146111b2578063c1cbbca714610ee8578063c4ce74e014610e80578063c580c94214610e23578063cb815ab914610d6b578063d0b7830b14610d2e578063d3631fa514610d11578063d4bf578c14610bb6578063d4cfc5dc14610b86578063d9a6722014610b6b578063ea0e35b114610b66578063ec6b733f14610a7f578063ecac35a2146108f8578063f2fde38b146108cd578063f3890e1f146108b0578063f8c8765e14610651578063f98a4eca146104b0578063fc226bcc146102ae5763ffa1ad741461028f575f80fd5b346102aa575f3660031901126102aa57602060405160018152f35b5f80fd5b346102aa5760203660031901126102aa576004356102ca613770565b801580156104a4575b61047557805f52600460205260405f2090600a820160ff81541660068110156104905760018114159081610484575b5061047557815f52600560205260405f2060018060a01b0333165f5260205260405f20600281019081549460ff8660081c161561046657845f52600960205260405f209060ff60045f93015460081c1680610457575b156103e457505060015b156103d557600301935f8554955561ff0019169055600560ff19825416179055610396823360018060a01b035f5416613dea565b6040519182527f7c5e5cb62e5ed3caf3764e4b0afedfedef533e27809d43367799787ad2abcd4160203393a360015f5160206144555f395f51905f5255005b630c2eba2560e21b5f5260045ffd5b6104016103f760ff600584015416613831565b600b8301546134d5565b421161040e575b50610362565b60066007820154910154603c810290808204603c149015171561044357606490041161043b575b86610408565b506001610435565b634e487b7160e01b5f52601160045260245ffd5b5061046186613532565b610358565b631687e47360e31b5f5260045ffd5b632fb08c4f60e11b5f5260045ffd5b60059150141584610302565b634e487b7160e01b5f52602160045260245ffd5b506003548110156102d3565b346102aa5760203660031901126102aa5760043580158015610645575b61047557805f526004602052600a60405f200160ff81541660068110156104905760020361063657815f52600960205260405f2060048101805460ff8116156106365760018301544211156106275760ff8160081c16610618576101009061ffff191617905560028101600381549201906105498254846134d5565b9384156105e8576127108402938085046127101490151715610443576113ec6105957f7da55ba157db41984697c3f1b900905283b3f9673437a67da9e3bfc9662c3a0496606096613514565b106105c657805460ff191660011790556105ae85613920565b549054604051916001835260208301526040820152a2005b600160ff19825416179055549054604051915f835260208301526040820152a2005b7f7da55ba157db41984697c3f1b900905283b3f9673437a67da9e3bfc9662c3a049450606093506113ec5f610595565b63745266fd60e11b5f5260045ffd5b633483eb6360e01b5f5260045ffd5b639b8cc47560e01b5f5260045ffd5b506003548110156104cd565b346102aa5760803660031901126102aa5761066a613292565b61067261327c565b61067a6132a8565b606435916001600160a01b03831691908284036102aa575f5160206144755f395f51905f5254946001600160401b0360ff8760401c16159616801590816108a8575b600114908161089e575b159081610895575b50610886578560016001600160401b03195f5160206144755f395f51905f525416175f5160206144755f395f51905f5255610856575b61070c61425a565b61071461425a565b61071d85613745565b6001600160a01b031680158015610845575b8015610834575b610825576001600160601b0360a01b5f5416175f5560018060a01b03166001600160601b0360a01b600154161760015560018060a01b03166001600160601b0360a01b600254161760025560016003556014600d558015159081610803575b506107f4575b506107a257005b60ff60401b195f5160206144755f395f51905f5254165f5160206144755f395f51905f52557fc7f505b2f371ae2175ee4913f4499e1f2633a7b5936321eed1cdaeb6115181d2602060405160018152a1005b6107fd906138cc565b8161079b565b5f5160206144155f395f51905f52546001600160a01b03161415905083610795565b6302154e0360e21b5f5260045ffd5b506001600160a01b03831615610736565b506001600160a01b0382161561072f565b600160401b60ff60401b195f5160206144755f395f51905f525416175f5160206144755f395f51905f5255610704565b63f92ee8a960e01b5f5260045ffd5b905015876106ce565b303b1591506106c6565b8791506106bc565b346102aa575f3660031901126102aa576020600354604051908152f35b346102aa5760203660031901126102aa576108f66108e9613292565b6108f1613899565b613745565b005b346102aa5760803660031901126102aa57610911613292565b61091961327c565b6109216132a8565b916064359060ff82168092036102aa575f5160206144755f395f51905f52548260ff8260401c16918215610a6b575b5050610886577fc7f505b2f371ae2175ee4913f4499e1f2633a7b5936321eed1cdaeb6115181d293602093836001600160401b03195f5160206144755f395f51905f525416175f5160206144755f395f51905f525560ff60401b195f5160206144755f395f51905f52541692600160401b84175f5160206144755f395f51905f52556109da613899565b6001600160a01b031680610a54575b506001600160a01b031680610a3b575b506001600160a01b031680610a22575b505f5160206144755f395f51905f5255604051908152a1005b6001600160601b0360a01b600254161760025584610a09565b6001600160601b0360a01b6001541617600155856109f9565b6001600160601b0360a01b5f5416175f55866109e9565b6001600160401b0316101590508286610950565b346102aa5760203660031901126102aa5760043580158015610b5a575b610475575f81815260046020526040902060038101546001600160a01b03163303610b4b5760ff600a820154166006811015610490576001036104755760078101546006820154603c810290808204603c1490151715610443576064900411610b3c5780600b610b1560ff6005610b1d95015416613831565b9101546134d5565b421115610b2d576108f690613920565b63a217083960e01b5f5260045ffd5b63505768b960e11b5f5260045ffd5b6308f78f9960e31b5f5260045ffd5b50600354811015610a9c565b61335b565b346102aa575f3660031901126102aa57602060405160058152f35b346102aa5760203660031901126102aa5760043560038110156102aa57610bae60209161372a565b604051908152f35b346102aa5760403660031901126102aa576004356024356001600160401b0381116102aa57366023820112156102aa578060040135916001600160401b0383116102aa576024820191602436918560051b0101116102aa5780158015610d05575b610475575f81815260046020526040902060038101546001600160a01b03163303610b4b57600a015460ff8160081c16600281101561049057610cf65760ff16600681101561049057600103610475575f5b838110610c7257005b600190825f52600b60205260405f20610c94610c8f838888613706565b613716565b838060a01b03165f5260205260405f208260ff19825416179055818060a01b03610cc2610c8f838888613706565b16604051428152847f92dac91084eb5de442e30890982eaf97d79475bde1331a627f2cf1c23f539ff260203393a401610c69565b633a46c93160e01b5f5260045ffd5b50600354811015610c17565b346102aa575f3660031901126102aa576020600c54604051908152f35b346102aa575f3660031901126102aa57610d46613899565b600c80545f9182905590546001546108f692916001600160a01b039182169116613dea565b346102aa5760203660031901126102aa576004355f52600660205260405f20604051806020835491828152019081935f5260205f20905f5b818110610e045750505081610db99103826132f5565b604051918291602083019060208452518091526040830191905f5b818110610de2575050500390f35b82516001600160a01b0316845285945060209384019390920191600101610dd4565b82546001600160a01b0316845260209093019260019283019201610da3565b346102aa5760203660031901126102aa57600435610e3f613899565b60648111610e4c57600d55005b60405162461bcd60e51b815260206004820152600c60248201526b0cccaca40e8dede40d0d2ced60a31b6044820152606490fd5b346102aa5760203660031901126102aa576004355f52600960205260c060405f2060ff815491600181015490600281015460046003830154920154926040519586526020860152604085015260608401528181161515608084015260081c16151560a0820152f35b346102aa5760203660031901126102aa57600435801580156111a6575b61047557805f52600460205260405f209060ff600a83015416600681101561049057600303611197575f8181526005602090815260408083203384529091529020600281015460081c60ff161561046657600883015490825f52600560205260405f2060018060a01b0333165f5260205260ff600260405f20015460081c1615610466575f838152600760209081526040808320858452825280832033845290915290205460ff1661118857825f52600860205260405f20825f52602052610fe160405f2054610fdb60ff60058801541661372a565b906134d5565b4211156111185750600483015460648102818104606414821517156104435761271090049061101082826134d5565b94845f52600560205260405f2060018060a01b0333165f52602052600360405f200190815490878210611109576110bc87957f11bfe06cab306870bd20ccf0ba9baecc5275f39c28419943f429294cb04580a195611101956110776108f69c6004976136cf565b9055875f5284602052611092600d60405f20019182546134d5565b90556110a081600c546134d5565b600c556110b46110ae6136dc565b33613c3c565b878733613cab565b5f85815260076020908152604080832089845282528083203380855290835292819020805460ff19166001179055939092015483519788529187015294918291820190565b0390a3613cff565b633a23d82560e01b5f5260045ffd5b7f11bfe06cab306870bd20ccf0ba9baecc5275f39c28419943f429294cb04580a161110160046108f69686946111816001808060a01b035f541661116586860191825490309033906137a8565b5492600d85016111768582546134d5565b9055019182546134d5565b90556110bc565b6305d252c360e01b5f5260045ffd5b633fe6c08b60e21b5f5260045ffd5b50600354811015610f05565b346102aa5760203660031901126102aa576004355f52600460205260405f208054600182016111e090613435565b916111ed60028201613435565b600160a01b60019003600383015416916004810154600582015460ff1660068301546007840154600885015490600986015492600a87015494600b88015496600c89015498600d0154996040519d8e9d8e528d602081016101e090526101e00161125691613376565b8d810360408f015261126791613376565b9a60608d015260808c015261127b8161339a565b60a08b015260c08a015260e08901526101008801526101208701526112a7610140870160ff83166133ba565b61016086019060081c60ff16906112bd916133c7565b6101808501526101a08401526101c08301520390f35b346102aa5760203660031901126102aa576004355f815f52600460205260405f20600881015491600982015460ff600a600785015494015416600681101561049057600314611338575b60809450604051938452602084015260408301526060820152f35b5f8581526006602052604081208054915b8281106113585750505061131d565b875f52600760205260405f20875f5260205260405f2061137882846133d4565b905460039190911b1c6001600160a01b03165f908152602091909152604090205460ff166113a9575b600101611349565b936113b56001916135f7565b9490506113a1565b346102aa5760203660031901126102aa576004356113d9613770565b805f52600460205260405f209060ff600a83015416600681101561049057600303611197576008820154815f52600560205260405f2060018060a01b0333165f5260205260ff600260405f20015460081c161561046657815f52600860205260405f20815f5260205261145a60405f2054610fdb60ff60058701541661372a565b42111561166e57815f52600660205260405f20915f925f5b81548110156116455761148581836133d4565b90545f858152600760209081526040808320898452825280832060039590951b9390931c6001600160a01b0316808352939052205460ff161580611617575b6114d2575b50600101611472565b909450825f52600560205260405f2060018060a01b0382165f5260205260405f206004870190815460648102818104606414821517156104435761151d6127106003920480936134d5565b92019283549383851061160f575b611539846115bd95966136cf565b905554808411156116055761156d905b61155381866136cf565b90611563600d8d019182546134d5565b9055600c546134d5565b600c555f8681526007602090815260408083208a845282528083206001600160a01b03881684529091529020805460ff191660011790556115b56115af6136dc565b85613c3c565b868685613cab565b604080518681526001600160a01b03939093166020840152339285917f97c5c423fc773e128d260f34efc67b80fb64b96872c483bde6202b23f90b5c5991a4600193846114c9565b5061156d83611549565b84935061152b565b50835f52600560205260405f2060018060a01b0382165f5260205260ff600260405f20015460081c166114c4565b828561165f575b60015f5160206144555f395f51905f5255005b61166890613cff565b8061164c565b6363e5f12d60e11b5f5260045ffd5b346102aa575f3660031901126102aa5760206040516202a3008152f35b346102aa575f3660031901126102aa576116e16040516116bb6040826132f5565b60058152640352e302e360dc1b6020820152604051918291602083526020830190613376565b0390f35b346102aa575f3660031901126102aa57602060405160648152f35b346102aa5760403660031901126102aa5761171961327c565b6004355f52600b60205260405f209060018060a01b03165f52602052602060ff60405f2054166040519015158152f35b346102aa575f3660031901126102aa57602060405169010f0cf064dd592000008152f35b346102aa5760203660031901126102aa57611786613292565b61178e613899565b6001600160a01b0316801561082557600280546001600160a01b031916821790557fb48fa9bf541befcb145fb17ed9591349d15db698f48943730a3e93592b4011e45f80a2005b346102aa576117e3366133a4565b905f52600660205260405f2080548210156102aa57602091611804916133d4565b905460405160039290921b1c6001600160a01b03168152f35b346102aa575f3660031901126102aa575f5160206144155f395f51905f52546040516001600160a01b039091168152602090f35b346102aa5760203660031901126102aa5760c0600435805f52600960205260405f2060ff60018201549260028301549260046003820154910154915f52600a60205260405f2060018060a01b0333165f526020528260405f20541693604051958652602086015260408501528181161515606085015260081c16151560808301526118db8161339a565b60a0820152f35b346102aa5760203660031901126102aa576118fb613292565b6003546001600160a01b03909116905f60015b8281106119be575061191f90613689565b915f9060015b83811061197157846040518091602082016020835281518091526020604084019201905f5b818110611958575050500390f35b825184528594506020938401939092019160010161194a565b805f52600560205260405f20825f5260205260ff600260405f20015460081c1661199e575b600101611925565b916119b681846119b0600194896136bb565b526135f7565b929050611996565b805f52600560205260405f20845f5260205260ff600260405f20015460081c166119eb575b60010161190e565b906119f76001916135f7565b9190506119e3565b346102aa575f3660031901126102aa576002546040516001600160a01b039091168152602090f35b346102aa5760203660031901126102aa57600435611a43613770565b80158015611cba575b61047557805f52600460205260405f20600781019081549160068201908154809414611cab575f85815260056020908152604080832033845290915290206002015460081c60ff16611c9d57600a830193845460ff811660068110156104905760018114159081611c91575b506104755760081c60ff1660028110156104905715611c62575b611ae090600485015461386b565b5f54611afa908290309033906001600160a01b03166137a8565b600460405191611b09836132be565b5f835260208301905f8252611b91604085015f815260608601600181526080870193845260a08701944286528c5f52600560205260405f2060018060a01b0333165f5260205260405f2097518855516001880155611b7a6002880192511515839060ff801983541691151516179055565b51815461ff00191690151560081b61ff0016179055565b51600384015551910155845f526006602052611bb03360405f20613611565b6008611bbc82546135f7565b938480935501558160ff845416611bd660405180926133ba565b857f215c516fbbb103ce0a14103afb5fea2d54075884678cb3cf5c11b5b2cbbe267f60203393a45414611c165760015f5160206144555f395f51905f5255005b604060ff7f963cc5d07cd05294a1f93e4009ff3a58abca0fac4d28373a4b8dc91e8ee3984d92611c4585613920565b5416611c5a82519142835260208301906133ba565ba2808061164c565b5f868152600b6020908152604080832033845290915290205460ff16611ad25763779a6f4160e01b5f5260045ffd5b60029150141588611ab8565b621d934160e11b5f5260045ffd5b63d883bee960e01b5f5260045ffd5b50600354811015611a4c565b346102aa5760603660031901126102aa57611cdf6132a8565b6004355f52600760205260405f206024355f5260205260405f209060018060a01b03165f52602052602060ff60405f2054166040519015158152f35b346102aa5760203660031901126102aa57611d34613292565b611d3c613899565b6001600160a01b03168015610825576001600160601b0360a01b60015416176001555f80f35b346102aa575f3660031901126102aa57611d7a613899565b5f5160206144155f395f51905f5280546001600160a01b031981169091555f906001600160a01b03167f8be0079c531659141344cd1fd0a4f28419497f9722a3daafe3b4186f6b6457e08280a3005b346102aa5760203660031901126102aa576004355f6101c0604051611ded816132d9565b82815260606020820152606060408201528260608201528260808201528260a08201528260c08201528260e08201528261010082015282610120820152826101408201528261016082015282610180820152826101a082015201525f90805f52600460205260405f2060405190611e63826132d9565b80548252611e7360018201613435565b6020830152611e8460028201613435565b604083015260038101546001600160a01b0316606083015260048101546080830152600581015460ff16611eb78161339a565b60a0830152600681015460c0830152600781015460e083015260088101546101008301526009810154610120830152600a8101549060ff82169160068310156104905760ff611f1791600d9461014087015260081c166101608501613605565b600b810154610180840152600c8101546101a084015201546101c082015260e08101519161014082015160068110156104905760031461207b575b5060e081015160c082015180603c810204603c148115171561044357603c60649160405196879660808852865160808901526101c0611fbb611fa560208a01516101e060a08d01526102608c0190613376565b60408a01518b8203607f190160c08d0152613376565b60608901516001600160a01b031660e08b015260808901516101008b015260a0890151909890611fea8161339a565b6101208b015260c08101516101408b015260e08101516101608b01526101008101516101808b01526101208101516101a08b0152612030610140820151838c01906133ba565b6120446101608201516101e08c01906133c7565b6101808101516102008b01526101a08101516102208b01520151610240890152602088015260408701520204111560608301520390f35b9092505f52600860205260405f206101008301515f5260205260405f20549183611f52565b346102aa576120ae366133a4565b905f52600860205260405f20905f52602052602060405f2054604051908152f35b346102aa5760403660031901126102aa576120e861327c565b6004355f52600a60205260405f209060018060a01b03165f52602052602060ff60405f2054166040519061211b8161339a565b8152f35b346102aa575f3660031901126102aa576001546040516001600160a01b039091168152602090f35b346102aa575f3660031901126102aa5760206040516113ec8152f35b346102aa5760403660031901126102aa5760243560043560038210156102aa57801580156122fd575b610475576121998261339a565b81156122ee57805f52600460205260ff600a60405f20015416600681101561049057600203610636575f81815260056020908152604080832033845290915290206002015460081c60ff161561046657805f52600960205260405f2060ff6004820154161561063657600181015442116122df575f828152600a6020908152604080832033845290915290205460ff166122328161339a565b6122d0575f828152600a6020908152604080832033845290915290206122578461339a565b60ff1981541660ff851617905561226d8361339a565b600183036122bc5760020161228281546135f7565b90555b604051916122928161339a565b82527feba4866100b822f0f391e610e7edfab790b9e8766c0012733c26b2f1858e8dd760203393a3005b6003016122c981546135f7565b9055612285565b637c9a1cf960e01b5f5260045ffd5b63370ec37160e21b5f5260045ffd5b6364a2c03160e11b5f5260045ffd5b5060035481101561218c565b346102aa575f3660031901126102aa576116e160405161232a6040826132f5565b60058152640312e302e360dc1b6020820152604051918291602083526020830190613376565b346102aa575f3660031901126102aa577f00000000000000000000000000000000000000000000000000000000000000006001600160a01b031630036123a75760206040515f5160206144355f395f51905f528152f35b63703e46dd60e11b5f5260045ffd5b60403660031901126102aa576123ca613292565b6024356001600160401b0381116102aa57366023820112156102aa576123fa903690602481600401359101613316565b906001600160a01b037f000000000000000000000000000000000000000000000000000000000000000016308114908115612589575b506123a75761243d613899565b60018060a01b03811691827f36ad2521ebac3d572eeb7e618d4f6d0a8e1e6180634926360341d6beb52bf9d8602060405160018152a26040516352d1902d60e01b8152602081600481875afa5f9181612555575b506124a95783634c9c8ce360e01b5f5260045260245ffd5b805f5160206144355f395f51905f528592036125435750823b15612531575f5160206144355f395f51905f5280546001600160a01b031916821790557fbc7cd75a20ee27fd9adebab32041f755214dbc6bffa90cc0225b39da2e5c2d3b5f80a2805115612519576108f691614285565b50503461252257005b63b398979f60e01b5f5260045ffd5b634c9c8ce360e01b5f5260045260245ffd5b632a87526960e21b5f5260045260245ffd5b9091506020813d602011612581575b81612571602093836132f5565b810103126102aa57519085612491565b3d9150612564565b5f5160206144355f395f51905f52546001600160a01b03161415905083612430565b346102aa5760203660031901126102aa576004356001600160401b0381116102aa5760c060031982360301126102aa576125e3613770565b331561082557670de0b6b3a76400006044820135108015612cf9575b612cea5760056084820135108015612cdc575b612ccd5761262360048201806135c5565b9050158015612cb5575b612ca65760035461263d816135f7565b6003556126526084830135604484013561386b565b9182600260a483013510156102aa57600160a483013514612c4a575b5f546126879190309033906001600160a01b03166137a8565b61269460048201806135c5565b91906126a660248301836004016135c5565b6003606485013510156102aa576126d16126dd93604051966126c7886132d9565b8888523691613316565b60208601523691613316565b6040830152336060830152604481013560808301526126ff606482013561339a565b606481013560a0830152608481013560c0830152600160e08301525f6101008301526001610120830152600161014083015261274360a48201356101608401613605565b426101808301525f6101a08301525f6101c0830152825f52600460205260405f2093825185556001850160208401518051906001600160401b038211612b6f57819061278f84546133fd565b601f8111612bf1575b50602090601f8311600114612b8e575f92612b83575b50508160011b915f199060031b1c19161790555b6002850160408401518051906001600160401b038211612b6f5781906127e884546133fd565b601f8111612b16575b50602090601f8311600114612ab3575f92612aa8575b50508160011b915f199060031b1c19161790555b6003850160018060a01b036060850151166001600160601b0360a01b825416179055608083015160048601556005850160a08401516128598161339a565b6128628161339a565b60ff8019835416911617905560c0830151600686015560e0830151600786015561010083015160088601556101208301516009860155600a85019461014084015160068110156104905760ff80198854169116178655610160840151956002871015610490576101c06044956128dc602099600d946134e2565b610180810151600b8501556101a0810151600c8501550151910155600460405191612906836132be565b5f8352868301905f8252612974604085015f815260608601600181526080870193845260a08701944286528a5f5260058c5260405f2060018060a01b0333165f528c5260405f2097518855516001880155611b7a6002880192511515839060ff801983541691151516179055565b51600384015551910155825f52600684526129923360405f20613611565b827fb44764d2a15df85b3d047f132a557019e3e836b4d4abe6a4841599591b1ca5696129c160048401806135c5565b949093612a1a6129d760248301836004016135c5565b865f5260058b5260405f2060018060a01b0333165f528b52612a0d600360405f200154986040519a60e08c5260e08c0191613652565b918983038c8b0152613652565b94612a28606483013561339a565b6064820135604088015260848201356060880152612a4d6080880160a48401356133c7565b4260a088015260c08701520135938033940390a46001604051818152827f215c516fbbb103ce0a14103afb5fea2d54075884678cb3cf5c11b5b2cbbe267f853393a460015f5160206144555f395f51905f5255604051908152f35b015190508880612807565b5f8581528281209350601f198516905b818110612afe5750908460019594939210612ae6575b505050811b01905561281b565b01515f1960f88460031b161c19169055888080612ad9565b92936020600181928786015181550195019301612ac3565b828111156127f157909150835f5260205f20601f840160051c9060208510612b67575b849392601f0160051c82900391015f5b828110612b575750506127f1565b5f81830155859450600101612b49565b5f9150612b39565b634e487b7160e01b5f52604160045260245ffd5b0151905088806127ae565b5f8581528281209350601f198516905b818110612bd95750908460019594939210612bc1575b505050811b0190556127c2565b01515f1960f88460031b161c19169055888080612bb4565b92936020600181928786015181550195019301612b9e565b8281111561279857909150835f5260205f20601f840160051c9060208510612c42575b849392601f0160051c82900391015f5b828110612c32575050612798565b5f81830155859450600101612c24565b5f9150612c14565b6706f05b59d3b20000810180911161044357600c54906706f05b59d3b2000082018092116104435761268791600c5533847f46fc58301c2ea9f88a47be840edd44559d82b3c0a69ed37ac62f63b313540b615f80a3905061266e565b6304deb0bf60e11b5f5260045ffd5b506020612cc560048301806135c5565b90501161262d565b63027ee80d60e51b5f5260045ffd5b506014608482013511612612565b631717aceb60e31b5f5260045ffd5b5069010f0cf064dd592000006044820135116125ff565b346102aa575f3660031901126102aa5760206040516706f05b59d3b200008152f35b346102aa5760203660031901126102aa5760043580158015612e54575b61047557805f52600460205260405f20600a81019060ff8254166006811015610490576001036104755760078101546006820154603c810290808204603c1490151715610443576064900411610b3c5780600b610b1560ff6005612db595015416613831565b4210610b2d57815f52600960205260405f20600481019182549260ff84166106275760ff8460081c16612e45574283556202a300420193844211610443576001908185019586555f60028601555f600386015561ffff1916179055600260ff19825416179055549054917f396a26677889e884b8ff5169fa1a6d8c651b2211e377c76ad6dd6b7550f846155f80a4005b63f792f8f960e01b5f5260045ffd5b50600354811015612d4f565b346102aa575f3660031901126102aa576020604051670de0b6b3a76400008152f35b346102aa5760203660031901126102aa576020612ea0600435613532565b6040519015158152f35b346102aa5760403660031901126102aa57612ec361327c565b6004355f52600560205260405f209060018060a01b03165f5260205260c060405f2080549060018101549060ff6002820154600460038401549301549360405195865260208601528181161515604086015260081c1615156060840152608083015260a0820152f35b346102aa575f3660031901126102aa576020600d54604051908152f35b346102aa5760403660031901126102aa57600435612f6561327c565b905f60a0604051612f75816132be565b82815282602082015282604082015282606082015282608082015201525f5f90825f52600560205260405f2060018060a01b0385165f5260205260405f209260405193612fc1856132be565b80548552600181015460208601908152600282015490604087019060ff83161515825260ff606089019360081c1615158352600460038501549460808a0195865201549460a08901958652805f52600460205260405f2060ff600a820154169a60068c10156104905760036101009c14613070575b50505060405197518852516020880152511515604087015251151560608601525160808501525160a0840152151560c083015260e0820152f35b919750919750865f526007602052600860405f2092015491825f5260205260405f209060018060a01b03165f5260205260ff60405f205416955f52600860205260405f20905f5260205260405f205495898080613036565b346102aa5760403660031901126102aa5760043560243560028110156102aa576130f0613770565b8115801561324e575b610475575f82815260046020526040902060038101546001600160a01b03163303610b4b57600a0190815460ff811660068110156104905760010361323f5760081c60ff166002811015610490578114613230575f80546040516323b872dd60e01b835233600452306024526706f05b59d3b200006044526001600160a01b039091169160209060648180865af19060015f511482161561320f575b6040525f606052156131fd5750600c54916706f05b59d3b200008301809311610443576131c492600c556134e2565b33907f46fc58301c2ea9f88a47be840edd44559d82b3c0a69ed37ac62f63b313540b615f80a360015f5160206144555f395f51905f5255005b635274afe760e01b5f5260045260245ffd5b90600181151661322757823b15153d15161690613195565b503d5f823e3d90fd5b63051a3ed560e11b5f5260045ffd5b63a407615b60e01b5f5260045ffd5b506003548210156130f9565b346102aa575f3660031901126102aa575f546001600160a01b03168152602090f35b602435906001600160a01b03821682036102aa57565b600435906001600160a01b03821682036102aa57565b604435906001600160a01b03821682036102aa57565b60c081019081106001600160401b03821117612b6f57604052565b6101e081019081106001600160401b03821117612b6f57604052565b90601f801991011681019081106001600160401b03821117612b6f57604052565b9291926001600160401b038211612b6f576040519161333f601f8201601f1916602001846132f5565b8294818452818301116102aa578281602093845f960137010152565b346102aa575f3660031901126102aa57602060405160148152f35b805180835260209291819084018484015e5f828201840152601f01601f1916010190565b6003111561049057565b60409060031901126102aa576004359060243590565b9060068210156104905752565b9060028210156104905752565b80548210156133e9575f5260205f2001905f90565b634e487b7160e01b5f52603260045260245ffd5b90600182811c9216801561342b575b602083101461341757565b634e487b7160e01b5f52602260045260245ffd5b91607f169161340c565b9060405191825f825492613448846133fd565b80845293600181169081156134b3575060011461346f575b5061346d925003836132f5565b565b90505f9291925260205f20905f915b81831061349757505090602061346d928201015f613460565b602091935080600191548385890101520191019091849261347e565b90506020925061346d94915060ff191682840152151560051b8201015f613460565b9190820180921161044357565b9060028110156104905761ff0082549160081b169061ff001916179055565b8181029291811591840414171561044357565b811561351e570490565b634e487b7160e01b5f52601260045260245ffd5b805f52600460205260405f20905f52600960205260405f209060ff600483015460081c16156135bf57600a015460ff166006811015610490576003146135ba5761358560036002830154920154826134d5565b9081156135b2576127108102908082046127101490151715610443576113ec916135ae91613514565b1090565b506001919050565b505f90565b50505f90565b903590601e19813603018212156102aa57018035906001600160401b0382116102aa576020019181360383136102aa57565b5f1981146104435760010190565b60028210156104905752565b8054600160401b811015612b6f5761362e916001820181556133d4565b81546001600160a01b0393841660039290921b91821b9390911b1916919091179055565b908060209392818452848401375f828201840152601f01601f1916010190565b6001600160401b038111612b6f5760051b60200190565b9061369382613672565b6136a060405191826132f5565b82815280926136b1601f1991613672565b0190602036910137565b80518210156133e95760209160051b010190565b9190820391821161044357565b604051906136eb6040836132f5565b600c82526b13185d194814185e5b595b9d60a21b6020830152565b91908110156133e95760051b0190565b356001600160a01b03811681036102aa5790565b6137338161339a565b1561373f576202a30090565b61a8c090565b6001600160a01b0381161561375d5761346d906138cc565b631e4fbdf760e01b5f525f60045260245ffd5b60025f5160206144555f395f51905f5254146137995760025f5160206144555f395f51905f5255565b633ee5aeb560e01b5f5260045ffd5b6040516323b872dd60e01b5f9081526001600160a01b039384166004529290931660245260449390935260209060648180865af19060015f5114821615613819575b6040525f606052156137f95750565b635274afe760e01b5f9081526001600160a01b0391909116600452602490fd5b90600181151661322757823b15153d151616906137ea565b61383a8161339a565b8015908115613857575b50613850576212750090565b62093a8090565b600191506138648161339a565b145f613844565b9061387591613501565b606481029080820460641481151715610443576127106138969204906134d5565b90565b5f5160206144155f395f51905f52546001600160a01b031633036138b957565b63118cdaa760e01b5f523360045260245ffd5b5f5160206144155f395f51905f5280546001600160a01b039283166001600160a01b0319821681179092559091167f8be0079c531659141344cd1fd0a4f28419497f9722a3daafe3b4186f6b6457e05f80a3565b5f81815260046020908152604080832060068352818420600584528285206003830180546001600160a01b0390811688529186529584902060019081905595549351958652919490939290911691829186917ffc79da6c5316f4c3a2841a4a8ee84045b0cda7f9c0b91deec048b7f26d4293cf91a381545f1981019190808311610443576139ad83613672565b936139bb60405195866132f5565b838552601f196139ca85613672565b013660208701376139da84613689565b925f905f5b848110613bb55750505050505f5b828110613b095750505f5b818110613a8257505050604060ff82613a54600a7f963cc5d07cd05294a1f93e4009ff3a58abca0fac4d28373a4b8dc91e8ee3984d9501916003841984541617835542600c820155600160088201558360054292015416613e42565b855f526008602052835f2060015f52602052835f20555416613a7f82519142835260208301906133ba565ba2565b6002810190818111610443575f868152600560205260409020600192906001600160a01b03613ab184886136bb565b5116848060a01b03165f526020528060405f2055867ffc79da6c5316f4c3a2841a4a8ee84045b0cda7f9c0b91deec048b7f26d4293cf6020858060a01b03613af9868a6136bb565b511693604051908152a3016139f8565b60018101808211610443575b838110613b2557506001016139ed565b80613b32600192856136bb565b51613b3d84866136bb565b5110613b4a575b01613b15565b613b5483856136bb565b51613b5f82866136bb565b51613b6a85876136bb565b52613b7582866136bb565b52818060a01b03613b8684886136bb565b5116828060a01b03613b9883896136bb565b5116613ba485896136bb565b52613baf82886136bb565b52613b44565b81613bc082866133d4565b905460039190911b1c6001600160a01b031603613be0575b6001016139df565b91613c34600191613bf185876133d4565b848060a01b0391549060031b1c16613c09828c6136bb565b52613c2a613c1786886133d4565b858060a01b0391549060031b1c16614311565b6119b0828a6136bb565b929050613bd8565b6002546001600160a01b031691823b156102aa5760405163064951eb60e41b81526001600160a01b039092166004830152600560248301526060604483015290915f91839190829084908290613c96906064830190613376565b03925af1613ca15750565b5f61346d916132f5565b6002549293926001600160a01b031690813b156102aa575f60849281956040519788968795637b81ea5d60e11b875260018060a01b031660048701526024860152604485015260648401525af1613ca15750565b90815f52600460205260405f20825f52600660205260405f20925f5f8554905b818110613d495750509091929350600783015414613d3b575050565b600861346d92015490613e93565b613d5381886133d4565b90545f86815260056020908152604080832060039590951b9390931c6001600160a01b0316808352939052206002015460081c60ff169081613db2575b50613d9e575b600101613d1f565b91613daa6001916135f7565b929050613d96565b9050845f52600760205260405f2060088701545f5260205260405f209060018060a01b03165f5260205260ff60405f2054165f613d90565b916040519163a9059cbb60e01b5f5260018060a01b031660045260245260205f60448180865af19060015f5114821615613e2a575b604052156137f95750565b90600181151661322757823b15153d15161690613e1f565b613e4b8161339a565b8015613e8257600190613e5d8161339a565b14613e725762278d0081018091116104435790565b62093a8081018091116104435790565b506201518081018091116104435790565b905f825f52600460205260405f2091613eac8185614388565b926001600160a01b038416801561425257855f52600560205260405f20815f52602052600260405f200160ff81541661424957600d83019081549660018060a01b03600386015416840361420b575b90613f12885f949360018060a01b03865416613dea565b805460ff1916600117905555604080519095613f2e87836132f5565b601682527510da5c98db194814185e5bdd5d08149958d95a5d995960521b60208301526002546001600160a01b031691823b156102aa575f613f9d8a9482938b5194858094819363106e203b60e21b83528b600484015260056024840152606060448401526064830190613376565b03925af16141d3575b50907f52e998e38a9505deab1cc0e4a47bdd8426a6fde45f6693db2fd122e537fcf22b602086938951908152a4600981015482101561402b57600182018092116140175760ff6005828460086140029501550154164290613e42565b93825260086020528282209082526020522055565b634e487b7160e01b83526011600452602483fd5b600a01805460ff19166004179055508281526006602052818120909392909190845b83548110156140ee57600190828752600560205283872061406e82876133d4565b848060a01b0391549060031b1c16838060a01b03165f52602052835f2060ff600282015460081c16806140e1575b6140a8575b500161404d565b60036140db91018881549155838060a01b038954166140c784896133d4565b868060a01b0391549060031b1c1690613dea565b5f6140a1565b506003810154151561409c565b509091508084526006602052818420845b81548110156141cb57828652600560205283862061411d82846133d4565b905460039190911b1c6001600160a01b03165f9081526020919091528490206002015460081c60ff16614153575b6001016140ff565b8561415e82846133d4565b90546002546001600160a01b039081169260031b9190911c16813b156141c757829160448392895194859384926303dccbaf60e61b845260048401528a60248401525af16141ae575b505061414b565b816141b8916132f5565b6141c357855f6141a7565b8580fd5b8280fd5b505050509050565b5f9196506141e192506132f5565b5f9386907f52e998e38a9505deab1cc0e4a47bdd8426a6fde45f6693db2fd122e537fcf22b613fa6565b90613f1261423b985f9493614230612710614228600d5485613501565b0480936136cf565b9a8b92600c546134d5565b600c55929394505050613efb565b50505050505050565b505050505050565b60ff5f5160206144755f395f51905f525460401c161561427657565b631afcd79f60e31b5f5260045ffd5b905f8091602081519101845af480806142fe575b156142b95750506040513d81523d5f602083013e60203d82010160405290565b156142de57639996b31560e01b5f9081526001600160a01b0391909116600452602490fd5b3d156142ef576040513d5f823e3d90fd5b63d6bda27560e01b5f5260045ffd5b503d1515806142995750813b1515614299565b600254604051634085186760e11b81526001600160a01b0392831660048201529160809183916024918391165afa5f9181614351575b5061389657505f90565b9091506080813d608011614380575b8161436d608093836132f5565b810103126102aa5760600151905f614347565b3d9150614360565b90815f52600660205260405f20905f928254935b8481106143ac5750505050505f90565b815f52600560205260405f206143c282866133d4565b905460039190911b1c6001600160a01b03165f908152602091909152604090205483146143f15760010161439c565b929150506143ff92506133d4565b905460039190911b1c6001600160a01b03169056fe9016d09d72d40fdae2fd8ceac6b6234c7706214fd39c1cd1e609a0528c199300360894a13ba1a3210667c828492db98dca3e2076cc3735a920a3ca505d382bbc9b779b17422d0df92223018b32b4d1fa46e071723d6817e2486d003becc55f00f0c57e16840df040f15088dc2f81fe391c3923bec73e23a9662efc9c229c6a00a2646970667358221220ba9875108910f618afca3efcce5f7ac24a83f097ae28d7ea0ef799871f79916064736f6c63430008210033f0c57e16840df040f15088dc2f81fe391c3923bec73e23a9662efc9c229c6a00",
  "sourcePath": "/Users/macuser/Desktop/workspace/circlepot/smart-contract/src/CircleSavingsV1.sol",
  "compiler": {
    "name": "solc",
    "version": "0.8.33+commit.64118f21"
  },
  "functionHashes": {
    "LATE_FEE_BPS()": "a8c93057",
    "MAX_CONTRIBUTION()": "94d95f8f",
    "MAX_MEMBERS()": "ea0e35b1",
    "MIN_CONTRIBUTION()": "40650c91",
    "MIN_MEMBERS()": "d9a67220",
    "PLATFORM_FEE_BPS()": "539aa77f",
    "START_VOTE_THRESHOLD()": "58f8d6ff",
    "UPGRADE_INTERFACE_VERSION()": "ad3cb1cc",
    "VERSION()": "ffa1ad74",
    "VISIBILITY_UPDATE_FEE()": "46c39a1d",
    "VOTING_PERIOD()": "b1610d7e",
    "WithdrawCollateral(uint256)": "fc226bcc",
    "_getGracePeriod(uint8)": "d4cfc5dc",
    "USDmToken()": "0ea86ad8",
    "canWithdrawAfterVote(uint256)": "2dfa6768",
    "castVote(uint256,uint8)": "56781388",
    "circleCounter()": "f3890e1f",
    "circleInvitations(uint256,address)": "98d4c1dd",
    "circleMemberList(uint256,uint256)": "8fda34bf",
    "circleMembers(uint256,address)": "2c2b97a4",
    "circleRoundDeadlines(uint256,uint256)": "69be46bf",
    "circleVotes(uint256)": "c4ce74e0",
    "circles(uint256)": "bc5e0f30",
    "contribute(uint256)": "c1cbbca7",
    "createCircle((string,string,uint256,uint8,uint256,uint8))": "4eac58e3",
    "executeVote(uint256)": "f98a4eca",
    "forfeitMember(uint256)": "b4d0ae6d",
    "getCircleDetails(uint256)": "6cd5bf8f",
    "getCircleMembers(uint256)": "cb815ab9",
    "getCircleProgress(uint256)": "bc38b8f7",
    "getMemberInfo(uint256,address)": "1e67939e",
    "getUserCircles(address)": "88e81d8a",
    "getVoteInfo(uint256)": "8d824273",
    "initialize(address,address,address,address)": "f8c8765e",
    "initiateVoting(uint256)": "45714684",
    "inviteMembers(uint256,address[])": "d4bf578c",
    "isInvited(uint256,address)": "12e81b80",
    "joinCircle(uint256)": "86d6cfb3",
    "memberVotes(uint256,address)": "63fc152e",
    "owner()": "8da5cb5b",
    "platformFeeBps()": "22dcd13e",
    "proxiableUUID()": "52d1902d",
    "renounceOwnership()": "715018a6",
    "reputationContract()": "87bc1425",
    "roundContributions(uint256,uint256,address)": "84bb19cc",
    "setPlatformFeeBps(uint256)": "c580c942",
    "startCircle(uint256)": "ec6b733f",
    "totalPlatformFees()": "d3631fa5",
    "transferOwnership(address)": "f2fde38b",
    "treasury()": "61d027b3",
    "updateCircleVisibility(uint256,uint8)": "157a7ec7",
    "updateReputationContract(address)": "905baa61",
    "updateTreasury(address)": "7f51bb1f",
    "upgrade(address,address,address,uint8)": "ecac35a2",
    "upgradeToAndCall(address,bytes)": "4f1ef286",
    "version()": "54fd4d50",
    "withdrawPlatformFees()": "d0b7830b"
  },
  "gasEstimates": {
    "creation": {
      "codeDepositCost": "3522000",
      "executionCost": "infinite",
      "totalCost": "infinite"
    },
    "external": {
      "LATE_FEE_BPS()": "879",
      "MAX_CONTRIBUTION()": "835",
      "MAX_MEMBERS()": "1221",
      "MIN_CONTRIBUTION()": "307",
      "MIN_MEMBERS()": "1187",
      "PLATFORM_FEE_BPS()": "451",
      "START_VOTE_THRESHOLD()": "505",
      "UPGRADE_INTERFACE_VERSION()": "1204",
      "VERSION()": "1382",
      "VISIBILITY_UPDATE_FEE()": "351",
      "VOTING_PERIOD()": "923",
      "WithdrawCollateral(uint256)": "infinite",
      "_getGracePeriod(uint8)": "1296",
      "USDmToken()": "2265",
      "canWithdrawAfterVote(uint256)": "9169",
      "castVote(uint256,uint8)": "infinite",
      "circleCounter()": "3400",
      "circleInvitations(uint256,address)": "3189",
      "circleMemberList(uint256,uint256)": "7374",
      "circleMembers(uint256,address)": "11139",
      "circleRoundDeadlines(uint256,uint256)": "2842",
      "circleVotes(uint256)": "11757",
      "circles(uint256)": "infinite",
      "contribute(uint256)": "infinite",
      "createCircle((string,string,uint256,uint8,uint256,uint8))": "infinite",
      "executeVote(uint256)": "infinite",
      "forfeitMember(uint256)": "infinite",
      "getCircleDetails(uint256)": "infinite",
      "getCircleMembers(uint256)": "infinite",
      "getCircleProgress(uint256)": "infinite",
      "getMemberInfo(uint256,address)": "infinite",
      "getUserCircles(address)": "infinite",
      "getVoteInfo(uint256)": "11673",
      "initialize(address,address,address,address)": "infinite",
      "initiateVoting(uint256)": "infinite",
      "inviteMembers(uint256,address[])": "infinite",
      "isInvited(uint256,address)": "2507",
      "joinCircle(uint256)": "infinite",
      "memberVotes(uint256,address)": "2932",
      "owner()": "infinite",
      "platformFeeBps()": "2344",
      "proxiableUUID()": "infinite",
      "renounceOwnership()": "28580",
      "reputationContract()": "2830",
      "roundContributions(uint256,uint256,address)": "3055",
      "setPlatformFeeBps(uint256)": "infinite",
      "startCircle(uint256)": "infinite",
      "totalPlatformFees()": "3224",
      "transferOwnership(address)": "29417",
      "treasury()": "2654",
      "updateCircleVisibility(uint256,uint8)": "infinite",
      "updateReputationContract(address)": "28461",
      "updateTreasury(address)": "27154",
      "upgrade(address,address,address,uint8)": "infinite",
      "upgradeToAndCall(address,bytes)": "infinite",
      "version()": "764",
      "withdrawPlatformFees()": "infinite"
    },
    "internal": {
      "_assignPosition(uint256)": "infinite",
      "_authorizeUpgrade(address)": "infinite",
      "_calcCollateral(uint256,uint256)": "241",
      "_checkComplete(uint256)": "infinite",
      "_decreaseReputation(address,uint256,string memory)": "infinite",
      "_getByPos(uint256,uint256)": "infinite",
      "_getReputationScore(address)": "infinite",
      "_handleLate(uint256,uint256,uint256)": "infinite",
      "_increaseReputation(address,uint256,string memory)": "infinite",
      "_nextDeadline(enum CircleSavingsV1.Frequency,uint256)": "infinite",
      "_payoutRound(uint256,uint256)": "infinite",
      "_progressNextRound(struct CircleSavingsV1.Circle storage pointer,uint256,uint256)": "infinite",
      "_recordCircleCompleted(address,uint256)": "infinite",
      "_recordCircleCompletedForAll(uint256)": "infinite",
      "_recordLatePayment(address,uint256,uint256,uint256)": "infinite",
      "_releaseAllCollateral(uint256)": "infinite",
      "_startCircleInternal(uint256)": "infinite",
      "_ultimatum(enum CircleSavingsV1.Frequency)": "infinite"
    }
  }
}