{
    "contractName": "PersonalSavingsV1",
    "abi": [
        {
            "inputs": [],
            "stateMutability": "nonpayable",
            "type": "constructor"
        },
        {
            "inputs": [
                {
                    "internalType": "address",
                    "name": "target",
                    "type": "address"
                }
            ],
            "name": "AddressEmptyCode",
            "type": "error"
        },
        {
            "inputs": [],
            "name": "AddressZeroNotAllowed",
            "type": "error"
        },
        {
            "inputs": [],
            "name": "AlreadyContributed",
            "type": "error"
        },
        {
            "inputs": [
                {
                    "internalType": "address",
                    "name": "implementation",
                    "type": "address"
                }
            ],
            "name": "ERC1967InvalidImplementation",
            "type": "error"
        },
        {
            "inputs": [],
            "name": "ERC1967NonPayable",
            "type": "error"
        },
        {
            "inputs": [],
            "name": "FailedCall",
            "type": "error"
        },
        {
            "inputs": [],
            "name": "GoalNotActive",
            "type": "error"
        },
        {
            "inputs": [],
            "name": "InsufficientBalance",
            "type": "error"
        },
        {
            "inputs": [],
            "name": "InvalidContributionAmount",
            "type": "error"
        },
        {
            "inputs": [],
            "name": "InvalidDeadline",
            "type": "error"
        },
        {
            "inputs": [],
            "name": "InvalidGoalAmount",
            "type": "error"
        },
        {
            "inputs": [],
            "name": "InvalidInitialization",
            "type": "error"
        },
        {
            "inputs": [],
            "name": "InvalidSavingGoal",
            "type": "error"
        },
        {
            "inputs": [],
            "name": "InvalidTreasuryAddress",
            "type": "error"
        },
        {
            "inputs": [],
            "name": "NotGoalOwner",
            "type": "error"
        },
        {
            "inputs": [],
            "name": "NotInitializing",
            "type": "error"
        },
        {
            "inputs": [
                {
                    "internalType": "address",
                    "name": "owner",
                    "type": "address"
                }
            ],
            "name": "OwnableInvalidOwner",
            "type": "error"
        },
        {
            "inputs": [
                {
                    "internalType": "address",
                    "name": "account",
                    "type": "address"
                }
            ],
            "name": "OwnableUnauthorizedAccount",
            "type": "error"
        },
        {
            "inputs": [],
            "name": "ReentrancyGuardReentrantCall",
            "type": "error"
        },
        {
            "inputs": [
                {
                    "internalType": "address",
                    "name": "token",
                    "type": "address"
                }
            ],
            "name": "SafeERC20FailedOperation",
            "type": "error"
        },
        {
            "inputs": [],
            "name": "UUPSUnauthorizedCallContext",
            "type": "error"
        },
        {
            "inputs": [
                {
                    "internalType": "bytes32",
                    "name": "slot",
                    "type": "bytes32"
                }
            ],
            "name": "UUPSUnsupportedProxiableUUID",
            "type": "error"
        },
        {
            "anonymous": false,
            "inputs": [
                {
                    "indexed": true,
                    "internalType": "address",
                    "name": "newImplementation",
                    "type": "address"
                },
                {
                    "indexed": false,
                    "internalType": "uint256",
                    "name": "version",
                    "type": "uint256"
                }
            ],
            "name": "ContractUpgraded",
            "type": "event"
        },
        {
            "anonymous": false,
            "inputs": [
                {
                    "indexed": true,
                    "internalType": "uint256",
                    "name": "goalId",
                    "type": "uint256"
                },
                {
                    "indexed": true,
                    "internalType": "address",
                    "name": "owner",
                    "type": "address"
                },
                {
                    "indexed": false,
                    "internalType": "uint256",
                    "name": "amount",
                    "type": "uint256"
                },
                {
                    "indexed": false,
                    "internalType": "uint256",
                    "name": "currentAmount",
                    "type": "uint256"
                }
            ],
            "name": "GoalContribution",
            "type": "event"
        },
        {
            "anonymous": false,
            "inputs": [
                {
                    "indexed": true,
                    "internalType": "uint256",
                    "name": "goalId",
                    "type": "uint256"
                },
                {
                    "indexed": true,
                    "internalType": "address",
                    "name": "owner",
                    "type": "address"
                },
                {
                    "indexed": false,
                    "internalType": "uint256",
                    "name": "amount",
                    "type": "uint256"
                },
                {
                    "indexed": false,
                    "internalType": "uint256",
                    "name": "penalty",
                    "type": "uint256"
                }
            ],
            "name": "GoalWithdrawn",
            "type": "event"
        },
        {
            "anonymous": false,
            "inputs": [
                {
                    "indexed": false,
                    "internalType": "uint64",
                    "name": "version",
                    "type": "uint64"
                }
            ],
            "name": "Initialized",
            "type": "event"
        },
        {
            "anonymous": false,
            "inputs": [
                {
                    "indexed": true,
                    "internalType": "address",
                    "name": "previousOwner",
                    "type": "address"
                },
                {
                    "indexed": true,
                    "internalType": "address",
                    "name": "newOwner",
                    "type": "address"
                }
            ],
            "name": "OwnershipTransferred",
            "type": "event"
        },
        {
            "anonymous": false,
            "inputs": [
                {
                    "indexed": true,
                    "internalType": "uint256",
                    "name": "goalId",
                    "type": "uint256"
                },
                {
                    "indexed": true,
                    "internalType": "address",
                    "name": "owner",
                    "type": "address"
                },
                {
                    "indexed": false,
                    "internalType": "string",
                    "name": "name",
                    "type": "string"
                },
                {
                    "indexed": true,
                    "internalType": "uint256",
                    "name": "amount",
                    "type": "uint256"
                },
                {
                    "indexed": false,
                    "internalType": "uint256",
                    "name": "currentAmount",
                    "type": "uint256"
                },
                {
                    "indexed": false,
                    "internalType": "enum PersonalSavingsV1.Frequency",
                    "name": "frequency",
                    "type": "uint8"
                },
                {
                    "indexed": false,
                    "internalType": "uint256",
                    "name": "deadline",
                    "type": "uint256"
                },
                {
                    "indexed": false,
                    "internalType": "bool",
                    "name": "isActive",
                    "type": "bool"
                }
            ],
            "name": "PersonalGoalCreated",
            "type": "event"
        },
        {
            "anonymous": false,
            "inputs": [
                {
                    "indexed": true,
                    "internalType": "address",
                    "name": "implementation",
                    "type": "address"
                }
            ],
            "name": "Upgraded",
            "type": "event"
        },
        {
            "inputs": [],
            "name": "UPGRADE_INTERFACE_VERSION",
            "outputs": [
                {
                    "internalType": "string",
                    "name": "",
                    "type": "string"
                }
            ],
            "stateMutability": "view",
            "type": "function"
        },
        {
            "inputs": [],
            "name": "VERSION",
            "outputs": [
                {
                    "internalType": "uint256",
                    "name": "",
                    "type": "uint256"
                }
            ],
            "stateMutability": "view",
            "type": "function"
        },
        {
            "inputs": [],
            "name": "cUSDToken",
            "outputs": [
                {
                    "internalType": "address",
                    "name": "",
                    "type": "address"
                }
            ],
            "stateMutability": "view",
            "type": "function"
        },
        {
            "inputs": [
                {
                    "internalType": "uint256",
                    "name": "_goalId",
                    "type": "uint256"
                }
            ],
            "name": "completeGoal",
            "outputs": [],
            "stateMutability": "nonpayable",
            "type": "function"
        },
        {
            "inputs": [
                {
                    "internalType": "uint256",
                    "name": "_goalId",
                    "type": "uint256"
                }
            ],
            "name": "contributeToGoal",
            "outputs": [],
            "stateMutability": "nonpayable",
            "type": "function"
        },
        {
            "inputs": [
                {
                    "components": [
                        {
                            "internalType": "string",
                            "name": "name",
                            "type": "string"
                        },
                        {
                            "internalType": "uint256",
                            "name": "targetAmount",
                            "type": "uint256"
                        },
                        {
                            "internalType": "uint256",
                            "name": "contributionAmount",
                            "type": "uint256"
                        },
                        {
                            "internalType": "enum PersonalSavingsV1.Frequency",
                            "name": "frequency",
                            "type": "uint8"
                        },
                        {
                            "internalType": "uint256",
                            "name": "deadline",
                            "type": "uint256"
                        }
                    ],
                    "internalType": "struct PersonalSavingsV1.CreateGoalParams",
                    "name": "params",
                    "type": "tuple"
                }
            ],
            "name": "createPersonalGoal",
            "outputs": [
                {
                    "internalType": "uint256",
                    "name": "",
                    "type": "uint256"
                }
            ],
            "stateMutability": "nonpayable",
            "type": "function"
        },
        {
            "inputs": [
                {
                    "internalType": "address",
                    "name": "_user",
                    "type": "address"
                }
            ],
            "name": "getUserGoals",
            "outputs": [
                {
                    "internalType": "uint256[]",
                    "name": "",
                    "type": "uint256[]"
                }
            ],
            "stateMutability": "view",
            "type": "function"
        },
        {
            "inputs": [
                {
                    "internalType": "address",
                    "name": "_user",
                    "type": "address"
                }
            ],
            "name": "getUserReputation",
            "outputs": [
                {
                    "internalType": "uint256",
                    "name": "",
                    "type": "uint256"
                }
            ],
            "stateMutability": "view",
            "type": "function"
        },
        {
            "inputs": [],
            "name": "goalCounter",
            "outputs": [
                {
                    "internalType": "uint256",
                    "name": "",
                    "type": "uint256"
                }
            ],
            "stateMutability": "view",
            "type": "function"
        },
        {
            "inputs": [
                {
                    "internalType": "address",
                    "name": "_cUSDToken",
                    "type": "address"
                },
                {
                    "internalType": "address",
                    "name": "_treasury",
                    "type": "address"
                },
                {
                    "internalType": "address",
                    "name": "_reputationContract",
                    "type": "address"
                },
                {
                    "internalType": "address",
                    "name": "initialOwner",
                    "type": "address"
                }
            ],
            "name": "initialize",
            "outputs": [],
            "stateMutability": "nonpayable",
            "type": "function"
        },
        {
            "inputs": [],
            "name": "owner",
            "outputs": [
                {
                    "internalType": "address",
                    "name": "",
                    "type": "address"
                }
            ],
            "stateMutability": "view",
            "type": "function"
        },
        {
            "inputs": [
                {
                    "internalType": "uint256",
                    "name": "",
                    "type": "uint256"
                }
            ],
            "name": "personalGoals",
            "outputs": [
                {
                    "internalType": "address",
                    "name": "owner",
                    "type": "address"
                },
                {
                    "internalType": "string",
                    "name": "name",
                    "type": "string"
                },
                {
                    "internalType": "uint256",
                    "name": "targetAmount",
                    "type": "uint256"
                },
                {
                    "internalType": "uint256",
                    "name": "currentAmount",
                    "type": "uint256"
                },
                {
                    "internalType": "uint256",
                    "name": "contributionAmount",
                    "type": "uint256"
                },
                {
                    "internalType": "enum PersonalSavingsV1.Frequency",
                    "name": "frequency",
                    "type": "uint8"
                },
                {
                    "internalType": "uint256",
                    "name": "deadline",
                    "type": "uint256"
                },
                {
                    "internalType": "uint256",
                    "name": "createdAt",
                    "type": "uint256"
                },
                {
                    "internalType": "bool",
                    "name": "isActive",
                    "type": "bool"
                },
                {
                    "internalType": "uint256",
                    "name": "lastContributionAt",
                    "type": "uint256"
                }
            ],
            "stateMutability": "view",
            "type": "function"
        },
        {
            "inputs": [],
            "name": "proxiableUUID",
            "outputs": [
                {
                    "internalType": "bytes32",
                    "name": "",
                    "type": "bytes32"
                }
            ],
            "stateMutability": "view",
            "type": "function"
        },
        {
            "inputs": [],
            "name": "renounceOwnership",
            "outputs": [],
            "stateMutability": "nonpayable",
            "type": "function"
        },
        {
            "inputs": [],
            "name": "reputationContract",
            "outputs": [
                {
                    "internalType": "contract IReputation",
                    "name": "",
                    "type": "address"
                }
            ],
            "stateMutability": "view",
            "type": "function"
        },
        {
            "inputs": [],
            "name": "totalPlatformFees",
            "outputs": [
                {
                    "internalType": "uint256",
                    "name": "",
                    "type": "uint256"
                }
            ],
            "stateMutability": "view",
            "type": "function"
        },
        {
            "inputs": [
                {
                    "internalType": "address",
                    "name": "newOwner",
                    "type": "address"
                }
            ],
            "name": "transferOwnership",
            "outputs": [],
            "stateMutability": "nonpayable",
            "type": "function"
        },
        {
            "inputs": [],
            "name": "treasury",
            "outputs": [
                {
                    "internalType": "address",
                    "name": "",
                    "type": "address"
                }
            ],
            "stateMutability": "view",
            "type": "function"
        },
        {
            "inputs": [
                {
                    "internalType": "address",
                    "name": "_new",
                    "type": "address"
                }
            ],
            "name": "updateTreasury",
            "outputs": [],
            "stateMutability": "nonpayable",
            "type": "function"
        },
        {
            "inputs": [
                {
                    "internalType": "address",
                    "name": "_cUSDToken",
                    "type": "address"
                },
                {
                    "internalType": "address",
                    "name": "_treasury",
                    "type": "address"
                },
                {
                    "internalType": "address",
                    "name": "_reputationContract",
                    "type": "address"
                },
                {
                    "internalType": "uint8",
                    "name": "_version",
                    "type": "uint8"
                }
            ],
            "name": "upgrade",
            "outputs": [],
            "stateMutability": "nonpayable",
            "type": "function"
        },
        {
            "inputs": [
                {
                    "internalType": "address",
                    "name": "newImplementation",
                    "type": "address"
                },
                {
                    "internalType": "bytes",
                    "name": "data",
                    "type": "bytes"
                }
            ],
            "name": "upgradeToAndCall",
            "outputs": [],
            "stateMutability": "payable",
            "type": "function"
        },
        {
            "inputs": [
                {
                    "internalType": "address",
                    "name": "",
                    "type": "address"
                },
                {
                    "internalType": "uint256",
                    "name": "",
                    "type": "uint256"
                }
            ],
            "name": "userGoals",
            "outputs": [
                {
                    "internalType": "uint256",
                    "name": "",
                    "type": "uint256"
                }
            ],
            "stateMutability": "view",
            "type": "function"
        },
        {
            "inputs": [],
            "name": "version",
            "outputs": [
                {
                    "internalType": "string",
                    "name": "",
                    "type": "string"
                }
            ],
            "stateMutability": "pure",
            "type": "function"
        },
        {
            "inputs": [
                {
                    "internalType": "uint256",
                    "name": "_goalId",
                    "type": "uint256"
                },
                {
                    "internalType": "uint256",
                    "name": "_amount",
                    "type": "uint256"
                }
            ],
            "name": "withdrawFromGoal",
            "outputs": [],
            "stateMutability": "nonpayable",
            "type": "function"
        },
        {
            "inputs": [],
            "name": "withdrawPlatformFees",
            "outputs": [],
            "stateMutability": "nonpayable",
            "type": "function"
        }
    ],
    "bytecode": "60a080604052346100e65760017f9b779b17422d0df92223018b32b4d1fa46e071723d6817e2486d003becc55f0055306080525f516020611eea5f395f51905f525460ff8160401c166100d7576002600160401b03196001600160401b03821601610084575b604051611dff90816100eb82396080518181816112fe01526113a40152f35b6001600160401b0319166001600160401b039081175f516020611eea5f395f51905f525581527fc7f505b2f371ae2175ee4913f4499e1f2633a7b5936321eed1cdaeb6115181d290602090a15f80610065565b63f92ee8a960e01b5f5260045ffd5b5f80fdfe6080806040526004361015610012575f80fd5b5f905f3560e01c9081630ea86ad8146118165750806330f902501461161757806335742c63146115625780634f1ef2861461135257806352d1902d146112eb57806354fd4d50146112a357806361d027b31461127a578063715018a6146112115780637370557314610d545780637f51bb1f14610cfe57806387bc142514610cd55780638da5cb5b14610ca05780638e03adf314610b05578063ad3cb1cc14610ab9578063ad5a698214610961578063b6b3eedf1461090a578063baccbfdb14610873578063d0b7830b14610836578063d3631fa514610818578063ecac35a21461067a578063f2fde38b1461064d578063f8c8765e146103ef578063f9d040b81461016d578063f9e9ad391461014f5763ffa1ad7414610131575f80fd5b3461014c578060031936011261014c57602060405160018152f35b80fd5b503461014c578060031936011261014c576020600354604051908152f35b503461014c57604036600319011261014c5760043560243561018d611a2a565b811580156103e3575b6103d45781835260056020526040832080549091906001600160a01b031633036103c557600882019260ff845416156103b65760038301928354908184116103a7576127108202908282046127101483151715610393576002015490811561037f57906102039104611c54565b80840290848204148415171561036b5761271090049061022d846102278482611a1d565b92611a1d565b8555811561034d57865461024c919033906001600160a01b0316611bfc565b6102588160045461199c565b6004555b60015486906001600160a01b0316803b156103495781809160a46040518094819363064951eb60e41b83523360048401526005602484015260606044840152601060648401526f11585c9b1e481dda5d1a191c985dd85b60821b60848401525af1801561033e57610325575b505060405192835260208301527f9afd0ee3a19cb2b48004294a6891077bc04e270308738449a2798cd3cc7aa60b60403393a35415610317575b5060015f516020611d8a5f395f51905f525580f35b805460ff191690555f610302565b8161032f9161187a565b61033a57855f6102c8565b8580fd5b6040513d84823e3d90fd5b5080fd5b50855461036690849033906001600160a01b0316611bfc565b61025c565b634e487b7160e01b87526011600452602487fd5b634e487b7160e01b88526012600452602488fd5b634e487b7160e01b88526011600452602488fd5b631e9acf1760e31b8752600487fd5b637cc648f160e01b8552600485fd5b632be0096160e11b8452600484fd5b631bc5b4e960e11b8352600483fd5b50600354821015610196565b503461014c57608036600319011261014c57610409611838565b61041161184e565b610419611864565b606435916001600160a01b0383169182840361033a575f516020611daa5f395f51905f52549467ffffffffffffffff60ff8760401c1615961680159081610645575b600114908161063b575b159081610632575b506106235785600167ffffffffffffffff195f516020611daa5f395f51905f525416175f516020611daa5f395f51905f52556105f3575b6104ac611c92565b6104b4611c92565b6104bd856119f0565b6001600160a01b0316801580156105e2575b80156105d1575b6105c2576001600160601b0360a01b87541617865560018060a01b03166001600160601b0360a01b600154161760015560018060a01b03166001600160601b0360a01b6002541617600255600160035580151590816105a0575b50610591575b5061053e5780f35b60ff60401b195f516020611daa5f395f51905f5254165f516020611daa5f395f51905f52557fc7f505b2f371ae2175ee4913f4499e1f2633a7b5936321eed1cdaeb6115181d2602060405160018152a180f35b61059a90611ba8565b5f610536565b5f516020611d4a5f395f51905f52546001600160a01b0316141590505f610530565b6302154e0360e21b8752600487fd5b506001600160a01b038216156104d6565b506001600160a01b038316156104cf565b600160401b60ff60401b195f516020611daa5f395f51905f525416175f516020611daa5f395f51905f52556104a4565b63f92ee8a960e01b8752600487fd5b9050155f61046d565b303b159150610465565b87915061045b565b503461014c57602036600319011261014c5761067761066a611838565b610672611b75565b6119f0565b80f35b503461014c57608036600319011261014c57610694611838565b61069c61184e565b906106a5611864565b6064359260ff8416809403610814575f516020611daa5f395f51905f52548460ff8260401c169182156107ff575b50506107f0579183916020937fc7f505b2f371ae2175ee4913f4499e1f2633a7b5936321eed1cdaeb6115181d29567ffffffffffffffff195f516020611daa5f395f51905f525416175f516020611daa5f395f51905f525560ff60401b195f516020611daa5f395f51905f52541692600160401b84175f516020611daa5f395f51905f5255610760611b75565b6001600160a01b0316806107db575b506001600160a01b0316806107c2575b506001600160a01b0316806107a9575b505f516020611daa5f395f51905f5255604051908152a180f35b6001600160601b0360a01b60015416176001555f61078f565b6001600160601b0360a01b60025416176002555f61077f565b87546001600160a01b0319161787555f61076f565b63f92ee8a960e01b8552600485fd5b67ffffffffffffffff1610159050845f6106d3565b8480fd5b503461014c578060031936011261014c576020600454604051908152f35b503461014c578060031936011261014c5761084f611b75565b6004805490829055815460025461067792916001600160a01b039182169116611bfc565b503461014c57602036600319011261014c5761088d611838565b600154604051634e44d07160e11b81526001600160a01b0392831660048201529160209183916024918391165afa90811561033e5782916108d4575b602082604051908152f35b90506020813d602011610902575b816108ef6020938361187a565b810103126103495760209150515f6108c9565b3d91506108e2565b503461014c57604036600319011261014c57610924611838565b6001600160a01b031681526006602052604081208054602435929083101561014c5760206109528484611973565b90549060031b1c604051908152f35b503461014c57602036600319011261014c57600435815260056020526040812060018060a01b038154169060018101604051848195908354936109a38561191a565b8085529460018116908115610a955750600114610a53575b50506109c99250038461187a565b600281015490600381015490600481015460ff600583015416610a37600684015491600785015493600960ff60088801541696015496610a1d6040519b8c9b8c5261014060208d01526101408c01906118f6565b9860408b015260608a0152608089015260a0880190611952565b60c086015260e085015215156101008401526101208301520390f35b90809394925052602082205b818310610a795750509060206109c9928201015f806109bb565b6020919350806001915483858a01015201910190918592610a5f565b915050602092506109c994915060ff191682840152151560051b8201015f806109bb565b503461014c578060031936011261014c57610b01604051610adb60408261187a565b60058152640352e302e360dc1b60208201526040519182916020835260208301906118f6565b0390f35b503461014c57602036600319011261014c57600435610b22611a2a565b80158015610c94575b610c855780825260056020526040822080549091906001600160a01b03163303610c76576008820180549060ff8216156103b6576003840191600283549501548510610c675760ff191690558390558254610b9290839033906001600160a01b0316611bfc565b60015483906001600160a01b0316803b156103495781809160a46040518094819363106e203b60e21b8352336004840152600a602484015260606044840152600e60648401526d11dbd85b0818dbdb5c1b195d195960921b60848401525af1801561033e57610c4e575b5050610c088133611b20565b6040519182528260208301527f9afd0ee3a19cb2b48004294a6891077bc04e270308738449a2798cd3cc7aa60b60403393a360015f516020611d8a5f395f51905f525580f35b81610c589161187a565b610c6357825f610bfc565b8280fd5b631e9acf1760e31b8652600486fd5b632be0096160e11b8352600483fd5b631bc5b4e960e11b8252600482fd5b50600354811015610b2b565b503461014c578060031936011261014c575f516020611d4a5f395f51905f52546040516001600160a01b039091168152602090f35b503461014c578060031936011261014c576001546040516001600160a01b039091168152602090f35b503461014c57602036600319011261014c57610d18611838565b610d20611b75565b6001600160a01b03168015610d45576001600160601b0360a01b600254161760025580f35b63cfe2ea6360e01b8252600482fd5b503461014c57602036600319011261014c576004359067ffffffffffffffff821161014c5760a0600319833603011261014c57610d8f611a2a565b678ac7230489e8000060248301351080156111fa575b6111eb576044820135156111dc5742608483013511156111cd57600354905f1982146111b957600182016003558054610df090604485013590309033906001600160a01b0316611a8e565b6040516044840135815260448401356020820152827f2e2ee1d9711fe9ec3e322a4f156ed09540525710aeeed43d126ba7b95e196a6f60403393a3610e3860048401806119bd565b90600360648601351015610c635760405191610140830183811067ffffffffffffffff8211176111a557604052338352610e74913691906118b0565b9060208101918252602485013560408201526044850135606082015260448501356080820152606485013560a0820152608485013560c08201524260e08201526001610100820152426101208201528383526005602052604083209160018060a01b038251166001600160601b0360a01b8454161783555180519067ffffffffffffffff82116111a5578190610f0d600186015461191a565b601f8111611140575b50602090601f83116001146110d85786926110cd575b50508160011b915f199060031b1c19161760018301555b6040810151600283015560608101516003830155608081015160048301556005820160a082015160038110156110b957916101209160099360ff8019835416911617905560c0810151600685015560e0810151600785015560088401610100820151151560ff80198354169116179055015191015533815260066020526040812092835493600160401b8510156110a55784610fe6916001602097018155611973565b81545f1960039290921b91821b19169085901b179055827f368b9d902c1d555a588db1590aab0debc624c7457cdcaa6964ff7d1bd2f58a59602461102d60048501806119bd565b949095856040519760a089528160a08a015260c089013760c08688010152604481013588870152611065604087016064830135611952565b60848101356060870152600160808701520135933393601f01601f1916810181900360c00190a460015f516020611d8a5f395f51905f5255604051908152f35b634e487b7160e01b83526041600452602483fd5b634e487b7160e01b85526021600452602485fd5b015190505f80610f2c565b6001860187528187209250601f198416875b8181106111285750908460019594939210611110575b505050811b016001830155610f43565b01515f1960f88460031b161c191690555f8080611100565b929360206001819287860151815501950193016110ea565b82811115610f165790915060018501865260208620601f840160051c906020851061119d575b929091849288945b81601f840160051c038610611187575050509091610f16565b80820186018a905560019095019486945061116e565b879150611166565b634e487b7160e01b85526041600452602485fd5b634e487b7160e01b81526011600452602490fd5b631da7447960e21b8152600490fd5b631717aceb60e31b8152600490fd5b631f5aab1b60e21b8152600490fd5b50690a968163f0a57b400000602483013511610da5565b503461014c578060031936011261014c5761122a611b75565b5f516020611d4a5f395f51905f5280546001600160a01b0319811690915581906001600160a01b03167f8be0079c531659141344cd1fd0a4f28419497f9722a3daafe3b4186f6b6457e08280a380f35b503461014c578060031936011261014c576002546040516001600160a01b039091168152602090f35b503461014c578060031936011261014c57610b016040516112c560408261187a565b60058152640312e302e360dc1b60208201526040519182916020835260208301906118f6565b503461014c578060031936011261014c577f00000000000000000000000000000000000000000000000000000000000000006001600160a01b031630036113435760206040515f516020611d6a5f395f51905f528152f35b63703e46dd60e11b8152600490fd5b50604036600319011261014c57611367611838565b9060243567ffffffffffffffff81116103495736602382011215610349576113999036906024816004013591016118b0565b916001600160a01b037f000000000000000000000000000000000000000000000000000000000000000016308114908115611540575b50611531576113dc611b75565b60018060a01b03811690817f36ad2521ebac3d572eeb7e618d4f6d0a8e1e6180634926360341d6beb52bf9d8602060405160018152a26040516352d1902d60e01b815293602085600481865afa809585966114fd575b5061144b57634c9c8ce360e01b84526004839052602484fd5b9091845f516020611d6a5f395f51905f5281036114eb5750823b156114d9575f516020611d6a5f395f51905f5280546001600160a01b031916821790557fbc7cd75a20ee27fd9adebab32041f755214dbc6bffa90cc0225b39da2e5c2d3b8480a28051156114c0576114bc91611cbd565b5080f35b5050346114ca5780f35b63b398979f60e01b8152600490fd5b634c9c8ce360e01b8452600452602483fd5b632a87526960e21b8552600452602484fd5b9095506020813d602011611529575b816115196020938361187a565b810103126108145751945f611432565b3d915061150c565b63703e46dd60e11b8252600482fd5b5f516020611d6a5f395f51905f52546001600160a01b0316141590505f6113cf565b503461014c57602036600319011261014c576001600160a01b03611584611838565b168152600660205260408120604051908160208254918281520190819285526020852090855b81811061160157505050826115c091038361187a565b604051928392602084019060208552518091526040840192915b8181106115e8575050500390f35b82518452859450602093840193909201916001016115da565b82548452602090930192600192830192016115aa565b50346117a45760203660031901126117a457600435611634611a2a565b8015801561180a575b6117fb575f81815260056020526040902080546001600160a01b031633036117ec5760ff600882015416156117dd5760098101908154806117a8575b505f546004820180546002939261169d9190309033906001600160a01b0316611a8e565b5460038201936116ae82865461199c565b809555429055604051908152836020820152847f2e2ee1d9711fe9ec3e322a4f156ed09540525710aeeed43d126ba7b95e196a6f60403393a301541115611704575060015f516020611d8a5f395f51905f525580f35b6001546001600160a01b0316803b156117a4575f809160a46040518094819363106e203b60e21b8352336004840152600a602484015260606044840152601360648401527211dbd85b081d185c99d95d081c995858da1959606a1b60848401525af1801561179957611782575b5061177c9033611b20565b5f610302565b61178f9192505f9061187a565b5f9061177c611771565b6040513d5f823e3d90fd5b5f80fd5b6117c2906117bc60ff600585015416611a62565b9061199c565b42106117ce575f611679565b6305d252c360e01b5f5260045ffd5b637cc648f160e01b5f5260045ffd5b632be0096160e11b5f5260045ffd5b631bc5b4e960e11b5f5260045ffd5b5060035481101561163d565b346117a4575f3660031901126117a4575f546001600160a01b03168152602090f35b600435906001600160a01b03821682036117a457565b602435906001600160a01b03821682036117a457565b604435906001600160a01b03821682036117a457565b90601f8019910116810190811067ffffffffffffffff82111761189c57604052565b634e487b7160e01b5f52604160045260245ffd5b92919267ffffffffffffffff821161189c57604051916118da601f8201601f19166020018461187a565b8294818452818301116117a4578281602093845f960137010152565b805180835260209291819084018484015e5f828201840152601f01601f1916010190565b90600182811c92168015611948575b602083101461193457565b634e487b7160e01b5f52602260045260245ffd5b91607f1691611929565b90600382101561195f5752565b634e487b7160e01b5f52602160045260245ffd5b8054821015611988575f5260205f2001905f90565b634e487b7160e01b5f52603260045260245ffd5b919082018092116119a957565b634e487b7160e01b5f52601160045260245ffd5b903590601e19813603018212156117a4570180359067ffffffffffffffff82116117a4576020019181360383136117a457565b6001600160a01b03811615611a0a57611a0890611ba8565b565b631e4fbdf760e01b5f525f60045260245ffd5b919082039182116119a957565b60025f516020611d8a5f395f51905f525414611a535760025f516020611d8a5f395f51905f5255565b633ee5aeb560e01b5f5260045ffd5b600381101561195f578015611a8657600114611a7f5762278d0090565b62093a8090565b506201518090565b6040516323b872dd60e01b5f9081526001600160a01b039384166004529290931660245260449390935260209060648180865af19060015f5114821615611aff575b6040525f60605215611adf5750565b635274afe760e01b5f9081526001600160a01b0391909116600452602490fd5b906001811516611b1757823b15153d15161690611ad0565b503d5f823e3d90fd5b6001546001600160a01b031691823b156117a45760405163fe38b8d160e01b81526001600160a01b0390921660048301526024820152905f908290604490829084905af1611b6b5750565b5f611a089161187a565b5f516020611d4a5f395f51905f52546001600160a01b03163303611b9557565b63118cdaa760e01b5f523360045260245ffd5b5f516020611d4a5f395f51905f5280546001600160a01b039283166001600160a01b0319821681179092559091167f8be0079c531659141344cd1fd0a4f28419497f9722a3daafe3b4186f6b6457e05f80a3565b916040519163a9059cbb60e01b5f5260018060a01b031660045260245260205f60448180865af19060015f5114821615611c3c575b60405215611adf5750565b906001811516611b1757823b15153d15161690611c31565b6109c48110611c8c576113888110611c8657611d4c8110611c805761271011611c7b575f90565b600a90565b50601e90565b50603c90565b50606490565b60ff5f516020611daa5f395f51905f525460401c1615611cae57565b631afcd79f60e31b5f5260045ffd5b905f8091602081519101845af48080611d36575b15611cf15750506040513d81523d5f602083013e60203d82010160405290565b15611d1657639996b31560e01b5f9081526001600160a01b0391909116600452602490fd5b3d15611d27576040513d5f823e3d90fd5b63d6bda27560e01b5f5260045ffd5b503d151580611cd15750813b1515611cd156fe9016d09d72d40fdae2fd8ceac6b6234c7706214fd39c1cd1e609a0528c199300360894a13ba1a3210667c828492db98dca3e2076cc3735a920a3ca505d382bbc9b779b17422d0df92223018b32b4d1fa46e071723d6817e2486d003becc55f00f0c57e16840df040f15088dc2f81fe391c3923bec73e23a9662efc9c229c6a00a26469706673582212202d7be45985f3314ff62aeafa74362fa073bcebc109783792b34c5fbea39c7b1064736f6c63430008210033f0c57e16840df040f15088dc2f81fe391c3923bec73e23a9662efc9c229c6a00",
    "sourcePath": "/Users/macuser/Desktop/workspace/circlepot/smart-contract/src/PersonalSavingsV1.sol",
    "compiler": {
        "name": "solc",
        "version": "0.8.33+commit.64118f21"
    },
    "functionHashes": {
        "UPGRADE_INTERFACE_VERSION()": "ad3cb1cc",
        "VERSION()": "ffa1ad74",
        "cUSDToken()": "0ea86ad8",
        "completeGoal(uint256)": "8e03adf3",
        "contributeToGoal(uint256)": "30f90250",
        "createPersonalGoal((string,uint256,uint256,uint8,uint256))": "73705573",
        "getUserGoals(address)": "35742c63",
        "getUserReputation(address)": "baccbfdb",
        "goalCounter()": "f9e9ad39",
        "initialize(address,address,address,address)": "f8c8765e",
        "owner()": "8da5cb5b",
        "personalGoals(uint256)": "ad5a6982",
        "proxiableUUID()": "52d1902d",
        "renounceOwnership()": "715018a6",
        "reputationContract()": "87bc1425",
        "totalPlatformFees()": "d3631fa5",
        "transferOwnership(address)": "f2fde38b",
        "treasury()": "61d027b3",
        "updateTreasury(address)": "7f51bb1f",
        "upgrade(address,address,address,uint8)": "ecac35a2",
        "upgradeToAndCall(address,bytes)": "4f1ef286",
        "userGoals(address,uint256)": "b6b3eedf",
        "version()": "54fd4d50",
        "withdrawFromGoal(uint256,uint256)": "f9d040b8",
        "withdrawPlatformFees()": "d0b7830b"
    },
    "gasEstimates": {
        "creation": {
            "codeDepositCost": "1535800",
            "executionCost": "infinite",
            "totalCost": "infinite"
        },
        "external": {
            "UPGRADE_INTERFACE_VERSION()": "738",
            "VERSION()": "684",
            "cUSDToken()": "2270",
            "completeGoal(uint256)": "infinite",
            "contributeToGoal(uint256)": "infinite",
            "createPersonalGoal((string,uint256,uint256,uint8,uint256))": "infinite",
            "getUserGoals(address)": "infinite",
            "getUserReputation(address)": "infinite",
            "goalCounter()": "2770",
            "initialize(address,address,address,address)": "infinite",
            "owner()": "infinite",
            "personalGoals(uint256)": "infinite",
            "proxiableUUID()": "infinite",
            "renounceOwnership()": "28284",
            "reputationContract()": "2508",
            "totalPlatformFees()": "2660",
            "transferOwnership(address)": "28745",
            "treasury()": "2420",
            "updateTreasury(address)": "26873",
            "upgrade(address,address,address,uint8)": "infinite",
            "upgradeToAndCall(address,bytes)": "infinite",
            "userGoals(address,uint256)": "7109",
            "version()": "562",
            "withdrawFromGoal(uint256,uint256)": "infinite",
            "withdrawPlatformFees()": "infinite"
        },
        "internal": {
            "_authorizeUpgrade(address)": "infinite",
            "_freqSeconds(enum PersonalSavingsV1.Frequency)": "79",
            "_penaltyBps(uint256)": "101",
            "_recordGoalCompleted(address,uint256)": "infinite"
        }
    }
}