{
    "contractName": "ReputationV1",
    "abi": [
        {
            "inputs": [],
            "stateMutability": "nonpayable",
            "type": "constructor"
        },
        {
            "inputs": [
                {
                    "internalType": "address",
                    "name": "target",
                    "type": "address"
                }
            ],
            "name": "AddressEmptyCode",
            "type": "error"
        },
        {
            "inputs": [
                {
                    "internalType": "address",
                    "name": "implementation",
                    "type": "address"
                }
            ],
            "name": "ERC1967InvalidImplementation",
            "type": "error"
        },
        {
            "inputs": [],
            "name": "ERC1967NonPayable",
            "type": "error"
        },
        {
            "inputs": [],
            "name": "FailedCall",
            "type": "error"
        },
        {
            "inputs": [],
            "name": "InvalidInitialization",
            "type": "error"
        },
        {
            "inputs": [],
            "name": "InvalidScoreChange",
            "type": "error"
        },
        {
            "inputs": [],
            "name": "NotInitializing",
            "type": "error"
        },
        {
            "inputs": [
                {
                    "internalType": "address",
                    "name": "owner",
                    "type": "address"
                }
            ],
            "name": "OwnableInvalidOwner",
            "type": "error"
        },
        {
            "inputs": [
                {
                    "internalType": "address",
                    "name": "account",
                    "type": "address"
                }
            ],
            "name": "OwnableUnauthorizedAccount",
            "type": "error"
        },
        {
            "inputs": [],
            "name": "ScoreOutOfBounds",
            "type": "error"
        },
        {
            "inputs": [],
            "name": "UUPSUnauthorizedCallContext",
            "type": "error"
        },
        {
            "inputs": [
                {
                    "internalType": "bytes32",
                    "name": "slot",
                    "type": "bytes32"
                }
            ],
            "name": "UUPSUnsupportedProxiableUUID",
            "type": "error"
        },
        {
            "inputs": [],
            "name": "UnauthorizedContract",
            "type": "error"
        },
        {
            "anonymous": false,
            "inputs": [
                {
                    "indexed": true,
                    "internalType": "address",
                    "name": "user",
                    "type": "address"
                },
                {
                    "indexed": true,
                    "internalType": "uint256",
                    "name": "cid",
                    "type": "uint256"
                },
                {
                    "indexed": false,
                    "internalType": "uint256",
                    "name": "totalCompleted",
                    "type": "uint256"
                }
            ],
            "name": "CircleCompleted",
            "type": "event"
        },
        {
            "anonymous": false,
            "inputs": [
                {
                    "indexed": true,
                    "internalType": "address",
                    "name": "contractAddress",
                    "type": "address"
                }
            ],
            "name": "ContractAuthorized",
            "type": "event"
        },
        {
            "anonymous": false,
            "inputs": [
                {
                    "indexed": true,
                    "internalType": "address",
                    "name": "contractAddress",
                    "type": "address"
                }
            ],
            "name": "ContractRevoked",
            "type": "event"
        },
        {
            "anonymous": false,
            "inputs": [
                {
                    "indexed": true,
                    "internalType": "address",
                    "name": "newImplementation",
                    "type": "address"
                },
                {
                    "indexed": false,
                    "internalType": "uint256",
                    "name": "version",
                    "type": "uint256"
                }
            ],
            "name": "ContractUpgraded",
            "type": "event"
        },
        {
            "anonymous": false,
            "inputs": [
                {
                    "indexed": true,
                    "internalType": "address",
                    "name": "user",
                    "type": "address"
                },
                {
                    "indexed": true,
                    "internalType": "uint256",
                    "name": "goalId",
                    "type": "uint256"
                },
                {
                    "indexed": false,
                    "internalType": "uint256",
                    "name": "totalCompleted",
                    "type": "uint256"
                }
            ],
            "name": "GoalCompleted",
            "type": "event"
        },
        {
            "anonymous": false,
            "inputs": [
                {
                    "indexed": false,
                    "internalType": "uint64",
                    "name": "version",
                    "type": "uint64"
                }
            ],
            "name": "Initialized",
            "type": "event"
        },
        {
            "anonymous": false,
            "inputs": [
                {
                    "indexed": true,
                    "internalType": "address",
                    "name": "user",
                    "type": "address"
                },
                {
                    "indexed": true,
                    "internalType": "uint256",
                    "name": "cid",
                    "type": "uint256"
                },
                {
                    "indexed": true,
                    "internalType": "uint256",
                    "name": "round",
                    "type": "uint256"
                },
                {
                    "indexed": false,
                    "internalType": "uint256",
                    "name": "fee",
                    "type": "uint256"
                },
                {
                    "indexed": false,
                    "internalType": "uint256",
                    "name": "totalLatePayments",
                    "type": "uint256"
                }
            ],
            "name": "LatePaymentRecorded",
            "type": "event"
        },
        {
            "anonymous": false,
            "inputs": [
                {
                    "indexed": true,
                    "internalType": "address",
                    "name": "previousOwner",
                    "type": "address"
                },
                {
                    "indexed": true,
                    "internalType": "address",
                    "name": "newOwner",
                    "type": "address"
                }
            ],
            "name": "OwnershipTransferred",
            "type": "event"
        },
        {
            "anonymous": false,
            "inputs": [
                {
                    "indexed": true,
                    "internalType": "address",
                    "name": "user",
                    "type": "address"
                },
                {
                    "indexed": false,
                    "internalType": "uint256",
                    "name": "points",
                    "type": "uint256"
                },
                {
                    "indexed": false,
                    "internalType": "string",
                    "name": "reason",
                    "type": "string"
                },
                {
                    "indexed": false,
                    "internalType": "uint256",
                    "name": "newScore",
                    "type": "uint256"
                }
            ],
            "name": "ReputationDecreased",
            "type": "event"
        },
        {
            "anonymous": false,
            "inputs": [
                {
                    "indexed": true,
                    "internalType": "address",
                    "name": "user",
                    "type": "address"
                },
                {
                    "indexed": false,
                    "internalType": "uint256",
                    "name": "points",
                    "type": "uint256"
                },
                {
                    "indexed": false,
                    "internalType": "string",
                    "name": "reason",
                    "type": "string"
                },
                {
                    "indexed": false,
                    "internalType": "uint256",
                    "name": "newScore",
                    "type": "uint256"
                }
            ],
            "name": "ReputationIncreased",
            "type": "event"
        },
        {
            "anonymous": false,
            "inputs": [
                {
                    "indexed": true,
                    "internalType": "address",
                    "name": "user",
                    "type": "address"
                },
                {
                    "indexed": false,
                    "internalType": "enum ReputationV1.ScoreCategory",
                    "name": "oldCategory",
                    "type": "uint8"
                },
                {
                    "indexed": false,
                    "internalType": "enum ReputationV1.ScoreCategory",
                    "name": "newCategory",
                    "type": "uint8"
                }
            ],
            "name": "ScoreCategoryChanged",
            "type": "event"
        },
        {
            "anonymous": false,
            "inputs": [
                {
                    "indexed": true,
                    "internalType": "address",
                    "name": "implementation",
                    "type": "address"
                }
            ],
            "name": "Upgraded",
            "type": "event"
        },
        {
            "inputs": [],
            "name": "DEFAULT_SCORE",
            "outputs": [
                {
                    "internalType": "uint256",
                    "name": "",
                    "type": "uint256"
                }
            ],
            "stateMutability": "view",
            "type": "function"
        },
        {
            "inputs": [],
            "name": "FAIR_THRESHOLD",
            "outputs": [
                {
                    "internalType": "uint256",
                    "name": "",
                    "type": "uint256"
                }
            ],
            "stateMutability": "view",
            "type": "function"
        },
        {
            "inputs": [],
            "name": "GOOD_THRESHOLD",
            "outputs": [
                {
                    "internalType": "uint256",
                    "name": "",
                    "type": "uint256"
                }
            ],
            "stateMutability": "view",
            "type": "function"
        },
        {
            "inputs": [],
            "name": "MAX_SCORE",
            "outputs": [
                {
                    "internalType": "uint256",
                    "name": "",
                    "type": "uint256"
                }
            ],
            "stateMutability": "view",
            "type": "function"
        },
        {
            "inputs": [],
            "name": "MIN_SCORE",
            "outputs": [
                {
                    "internalType": "uint256",
                    "name": "",
                    "type": "uint256"
                }
            ],
            "stateMutability": "view",
            "type": "function"
        },
        {
            "inputs": [],
            "name": "MIN_SCORE_CIRCLE_CREATE",
            "outputs": [
                {
                    "internalType": "uint256",
                    "name": "",
                    "type": "uint256"
                }
            ],
            "stateMutability": "view",
            "type": "function"
        },
        {
            "inputs": [],
            "name": "MIN_SCORE_LARGE_GOAL",
            "outputs": [
                {
                    "internalType": "uint256",
                    "name": "",
                    "type": "uint256"
                }
            ],
            "stateMutability": "view",
            "type": "function"
        },
        {
            "inputs": [],
            "name": "MIN_SCORE_PREMIUM",
            "outputs": [
                {
                    "internalType": "uint256",
                    "name": "",
                    "type": "uint256"
                }
            ],
            "stateMutability": "view",
            "type": "function"
        },
        {
            "inputs": [],
            "name": "POOR_THRESHOLD",
            "outputs": [
                {
                    "internalType": "uint256",
                    "name": "",
                    "type": "uint256"
                }
            ],
            "stateMutability": "view",
            "type": "function"
        },
        {
            "inputs": [],
            "name": "UPGRADE_INTERFACE_VERSION",
            "outputs": [
                {
                    "internalType": "string",
                    "name": "",
                    "type": "string"
                }
            ],
            "stateMutability": "view",
            "type": "function"
        },
        {
            "inputs": [],
            "name": "VERSION",
            "outputs": [
                {
                    "internalType": "uint256",
                    "name": "",
                    "type": "uint256"
                }
            ],
            "stateMutability": "view",
            "type": "function"
        },
        {
            "inputs": [],
            "name": "VERY_GOOD_THRESHOLD",
            "outputs": [
                {
                    "internalType": "uint256",
                    "name": "",
                    "type": "uint256"
                }
            ],
            "stateMutability": "view",
            "type": "function"
        },
        {
            "inputs": [
                {
                    "internalType": "address",
                    "name": "_contract",
                    "type": "address"
                }
            ],
            "name": "authorizeContract",
            "outputs": [],
            "stateMutability": "nonpayable",
            "type": "function"
        },
        {
            "inputs": [
                {
                    "internalType": "address",
                    "name": "",
                    "type": "address"
                }
            ],
            "name": "authorizedContracts",
            "outputs": [
                {
                    "internalType": "bool",
                    "name": "",
                    "type": "bool"
                }
            ],
            "stateMutability": "view",
            "type": "function"
        },
        {
            "inputs": [
                {
                    "internalType": "address",
                    "name": "_user",
                    "type": "address"
                }
            ],
            "name": "canCreateCircle",
            "outputs": [
                {
                    "internalType": "bool",
                    "name": "",
                    "type": "bool"
                }
            ],
            "stateMutability": "view",
            "type": "function"
        },
        {
            "inputs": [
                {
                    "internalType": "address",
                    "name": "_user",
                    "type": "address"
                }
            ],
            "name": "canCreateLargeGoal",
            "outputs": [
                {
                    "internalType": "bool",
                    "name": "",
                    "type": "bool"
                }
            ],
            "stateMutability": "view",
            "type": "function"
        },
        {
            "inputs": [
                {
                    "internalType": "address",
                    "name": "_user",
                    "type": "address"
                },
                {
                    "internalType": "uint256",
                    "name": "_points",
                    "type": "uint256"
                },
                {
                    "internalType": "string",
                    "name": "_reason",
                    "type": "string"
                }
            ],
            "name": "decreaseReputation",
            "outputs": [],
            "stateMutability": "nonpayable",
            "type": "function"
        },
        {
            "inputs": [
                {
                    "internalType": "address",
                    "name": "_user",
                    "type": "address"
                }
            ],
            "name": "getCollateralMultiplier",
            "outputs": [
                {
                    "internalType": "uint256",
                    "name": "",
                    "type": "uint256"
                }
            ],
            "stateMutability": "view",
            "type": "function"
        },
        {
            "inputs": [
                {
                    "internalType": "address",
                    "name": "_user",
                    "type": "address"
                }
            ],
            "name": "getPenaltyMultiplier",
            "outputs": [
                {
                    "internalType": "uint256",
                    "name": "",
                    "type": "uint256"
                }
            ],
            "stateMutability": "view",
            "type": "function"
        },
        {
            "inputs": [
                {
                    "internalType": "address",
                    "name": "_user",
                    "type": "address"
                }
            ],
            "name": "getReputation",
            "outputs": [
                {
                    "internalType": "uint256",
                    "name": "",
                    "type": "uint256"
                }
            ],
            "stateMutability": "view",
            "type": "function"
        },
        {
            "inputs": [
                {
                    "internalType": "address",
                    "name": "_user",
                    "type": "address"
                }
            ],
            "name": "getReputationHistory",
            "outputs": [
                {
                    "components": [
                        {
                            "internalType": "uint256",
                            "name": "timestamp",
                            "type": "uint256"
                        },
                        {
                            "internalType": "int256",
                            "name": "scoreChange",
                            "type": "int256"
                        },
                        {
                            "internalType": "string",
                            "name": "reason",
                            "type": "string"
                        },
                        {
                            "internalType": "uint256",
                            "name": "newScore",
                            "type": "uint256"
                        }
                    ],
                    "internalType": "struct ReputationV1.ReputationHistory[]",
                    "name": "",
                    "type": "tuple[]"
                }
            ],
            "stateMutability": "view",
            "type": "function"
        },
        {
            "inputs": [
                {
                    "internalType": "address",
                    "name": "_user",
                    "type": "address"
                }
            ],
            "name": "getScoreCategory",
            "outputs": [
                {
                    "internalType": "enum ReputationV1.ScoreCategory",
                    "name": "",
                    "type": "uint8"
                }
            ],
            "stateMutability": "view",
            "type": "function"
        },
        {
            "inputs": [
                {
                    "internalType": "address",
                    "name": "_user",
                    "type": "address"
                }
            ],
            "name": "getScoreCategoryString",
            "outputs": [
                {
                    "internalType": "string",
                    "name": "",
                    "type": "string"
                }
            ],
            "stateMutability": "view",
            "type": "function"
        },
        {
            "inputs": [
                {
                    "internalType": "address",
                    "name": "_user",
                    "type": "address"
                }
            ],
            "name": "getUserReputationData",
            "outputs": [
                {
                    "internalType": "uint256",
                    "name": "positiveActions",
                    "type": "uint256"
                },
                {
                    "internalType": "uint256",
                    "name": "negativeActions",
                    "type": "uint256"
                },
                {
                    "internalType": "uint256",
                    "name": "circlesCompleted",
                    "type": "uint256"
                },
                {
                    "internalType": "uint256",
                    "name": "score",
                    "type": "uint256"
                }
            ],
            "stateMutability": "view",
            "type": "function"
        },
        {
            "inputs": [
                {
                    "internalType": "address",
                    "name": "_user",
                    "type": "address"
                }
            ],
            "name": "getUserReputationDetails",
            "outputs": [
                {
                    "internalType": "uint256",
                    "name": "score",
                    "type": "uint256"
                },
                {
                    "internalType": "enum ReputationV1.ScoreCategory",
                    "name": "category",
                    "type": "uint8"
                },
                {
                    "internalType": "uint256",
                    "name": "positiveActions",
                    "type": "uint256"
                },
                {
                    "internalType": "uint256",
                    "name": "negativeActions",
                    "type": "uint256"
                },
                {
                    "internalType": "uint256",
                    "name": "consecutivePayments",
                    "type": "uint256"
                },
                {
                    "internalType": "uint256",
                    "name": "circlesCompleted",
                    "type": "uint256"
                },
                {
                    "internalType": "uint256",
                    "name": "goalsCompleted",
                    "type": "uint256"
                },
                {
                    "internalType": "uint256",
                    "name": "latePayments",
                    "type": "uint256"
                },
                {
                    "internalType": "uint256",
                    "name": "lastUpdated",
                    "type": "uint256"
                }
            ],
            "stateMutability": "view",
            "type": "function"
        },
        {
            "inputs": [
                {
                    "internalType": "address",
                    "name": "_user",
                    "type": "address"
                }
            ],
            "name": "hasPremiumAccess",
            "outputs": [
                {
                    "internalType": "bool",
                    "name": "",
                    "type": "bool"
                }
            ],
            "stateMutability": "view",
            "type": "function"
        },
        {
            "inputs": [
                {
                    "internalType": "address",
                    "name": "_user",
                    "type": "address"
                },
                {
                    "internalType": "uint256",
                    "name": "_points",
                    "type": "uint256"
                },
                {
                    "internalType": "string",
                    "name": "_reason",
                    "type": "string"
                }
            ],
            "name": "increaseReputation",
            "outputs": [],
            "stateMutability": "nonpayable",
            "type": "function"
        },
        {
            "inputs": [
                {
                    "internalType": "address",
                    "name": "initialOwner",
                    "type": "address"
                }
            ],
            "name": "initialize",
            "outputs": [],
            "stateMutability": "nonpayable",
            "type": "function"
        },
        {
            "inputs": [
                {
                    "internalType": "address",
                    "name": "_user",
                    "type": "address"
                },
                {
                    "internalType": "uint256",
                    "name": "_requiredScore",
                    "type": "uint256"
                }
            ],
            "name": "meetsScoreRequirement",
            "outputs": [
                {
                    "internalType": "bool",
                    "name": "",
                    "type": "bool"
                }
            ],
            "stateMutability": "view",
            "type": "function"
        },
        {
            "inputs": [],
            "name": "owner",
            "outputs": [
                {
                    "internalType": "address",
                    "name": "",
                    "type": "address"
                }
            ],
            "stateMutability": "view",
            "type": "function"
        },
        {
            "inputs": [],
            "name": "proxiableUUID",
            "outputs": [
                {
                    "internalType": "bytes32",
                    "name": "",
                    "type": "bytes32"
                }
            ],
            "stateMutability": "view",
            "type": "function"
        },
        {
            "inputs": [
                {
                    "internalType": "address",
                    "name": "_user",
                    "type": "address"
                },
                {
                    "internalType": "uint256",
                    "name": "_cid",
                    "type": "uint256"
                }
            ],
            "name": "recordCircleCompleted",
            "outputs": [],
            "stateMutability": "nonpayable",
            "type": "function"
        },
        {
            "inputs": [
                {
                    "internalType": "address",
                    "name": "_user",
                    "type": "address"
                },
                {
                    "internalType": "uint256",
                    "name": "_goalId",
                    "type": "uint256"
                }
            ],
            "name": "recordGoalCompleted",
            "outputs": [],
            "stateMutability": "nonpayable",
            "type": "function"
        },
        {
            "inputs": [
                {
                    "internalType": "address",
                    "name": "_user",
                    "type": "address"
                },
                {
                    "internalType": "uint256",
                    "name": "_cid",
                    "type": "uint256"
                },
                {
                    "internalType": "uint256",
                    "name": "_round",
                    "type": "uint256"
                },
                {
                    "internalType": "uint256",
                    "name": "_fee",
                    "type": "uint256"
                }
            ],
            "name": "recordLatePayment",
            "outputs": [],
            "stateMutability": "nonpayable",
            "type": "function"
        },
        {
            "inputs": [],
            "name": "renounceOwnership",
            "outputs": [],
            "stateMutability": "nonpayable",
            "type": "function"
        },
        {
            "inputs": [
                {
                    "internalType": "address",
                    "name": "",
                    "type": "address"
                },
                {
                    "internalType": "uint256",
                    "name": "",
                    "type": "uint256"
                }
            ],
            "name": "reputationHistory",
            "outputs": [
                {
                    "internalType": "uint256",
                    "name": "timestamp",
                    "type": "uint256"
                },
                {
                    "internalType": "int256",
                    "name": "scoreChange",
                    "type": "int256"
                },
                {
                    "internalType": "string",
                    "name": "reason",
                    "type": "string"
                },
                {
                    "internalType": "uint256",
                    "name": "newScore",
                    "type": "uint256"
                }
            ],
            "stateMutability": "view",
            "type": "function"
        },
        {
            "inputs": [
                {
                    "internalType": "address",
                    "name": "_contract",
                    "type": "address"
                }
            ],
            "name": "revokeContract",
            "outputs": [],
            "stateMutability": "nonpayable",
            "type": "function"
        },
        {
            "inputs": [
                {
                    "internalType": "address",
                    "name": "newOwner",
                    "type": "address"
                }
            ],
            "name": "transferOwnership",
            "outputs": [],
            "stateMutability": "nonpayable",
            "type": "function"
        },
        {
            "inputs": [
                {
                    "internalType": "address",
                    "name": "newImplementation",
                    "type": "address"
                },
                {
                    "internalType": "bytes",
                    "name": "data",
                    "type": "bytes"
                }
            ],
            "name": "upgradeToAndCall",
            "outputs": [],
            "stateMutability": "payable",
            "type": "function"
        },
        {
            "inputs": [
                {
                    "internalType": "address",
                    "name": "",
                    "type": "address"
                }
            ],
            "name": "userReputations",
            "outputs": [
                {
                    "internalType": "uint256",
                    "name": "score",
                    "type": "uint256"
                },
                {
                    "internalType": "uint256",
                    "name": "totalPositiveActions",
                    "type": "uint256"
                },
                {
                    "internalType": "uint256",
                    "name": "totalNegativeActions",
                    "type": "uint256"
                },
                {
                    "internalType": "uint256",
                    "name": "consecutiveOnTimePayments",
                    "type": "uint256"
                },
                {
                    "internalType": "uint256",
                    "name": "circlesCompleted",
                    "type": "uint256"
                },
                {
                    "internalType": "uint256",
                    "name": "goalsCompleted",
                    "type": "uint256"
                },
                {
                    "internalType": "uint256",
                    "name": "latePayments",
                    "type": "uint256"
                },
                {
                    "internalType": "uint256",
                    "name": "lastUpdated",
                    "type": "uint256"
                },
                {
                    "internalType": "bool",
                    "name": "isInitialized",
                    "type": "bool"
                }
            ],
            "stateMutability": "view",
            "type": "function"
        },
        {
            "inputs": [],
            "name": "version",
            "outputs": [
                {
                    "internalType": "string",
                    "name": "",
                    "type": "string"
                }
            ],
            "stateMutability": "pure",
            "type": "function"
        }
    ],
    "bytecode": "60a080604052346100c257306080525f5160206121a45f395f51905f525460ff8160401c166100b3576002600160401b03196001600160401b03821601610060575b6040516120dd90816100c78239608051818181610e650152610f090152f35b6001600160401b0319166001600160401b039081175f5160206121a45f395f51905f525581527fc7f505b2f371ae2175ee4913f4499e1f2633a7b5936321eed1cdaeb6115181d290602090a15f80610041565b63f92ee8a960e01b5f5260045ffd5b5f80fdfe60806040526004361015610011575f80fd5b5f3560e01c8063257164d1146114cc57806327ff6223146114b057806337b039d61461147857806340b89270146104e357806341b880ec1461120457806348bb0fe4146110af5780634f1ef28614610eb957806352d1902d14610e5357806354fd4d5014610e0c57806364951eb014610c4957806367561d9314610be1578063696cf19314610b2a578063715018a614610ac35780637ffdecb214610aa7578063810a30ce14610a6c5780638519679814610a495780638da5cb5b14610a155780639559cb1c146109f957806395c87aba146109dd578063977b9a02146109c15780639c89a0e214610996578063a67e12a814610936578063ad3cb1cc146108eb578063b2e959821461088b578063bb0f83f61461082b578063bb32a7bd146107a0578063c4d66de814610606578063ca7efc6f146105ea578063cc2e3ee114610585578063d0f32b3414610525578063d5b9221b146104e8578063df65e9e4146104e3578063e4ceaf46146104b1578063f2fde38b14610486578063f43345721461046a578063f703d4ba146103d0578063f732ebc014610345578063f8b11691146102b1578063fb3b8bb614610295578063fe38b8d1146101fb5763ffa1ad74146101dc575f80fd5b346101f7575f3660031901126101f757602060405160018152f35b5f80fd5b346101f75760403660031901126101f7576102146114ef565b335f52600260205260ff60405f205416156102865761023281611c4d565b60018060a01b0316805f525f602052600560405f20019061025382546118ea565b8092556040519182527f5fdb120e2225930f6b50914ed30f8f8b37a0a6c7b6df7b1f0f7f235791bfc341602060243593a3005b6372312d7960e01b5f5260045ffd5b346101f7575f3660031901126101f75760206040516102e38152f35b346101f75760203660031901126101f7576001600160a01b036102d26114ef565b165f525f60205261012060405f2080549060018101549060028101546003820154600483015460058401549160068501549360ff600860078801549701541696604051988952602089015260408801526060870152608086015260a085015260c084015260e08301521515610100820152f35b346101f75760403660031901126101f75761035e6114ef565b335f52600260205260ff60405f205416156102865761037c81611c4d565b60018060a01b0316805f525f602052600460405f20019061039d82546118ea565b8092556040519182527f08ebcfdbb0a06c50776ff1aa1aedeae2dafa02d431abedf2449b941da5cec809602060243593a3005b346101f75760803660031901126101f7576103e96114ef565b335f52600260205260ff60405f205416156102865761040781611c4d565b6001600160a01b03165f818152602081905260409020600601805461042b906118ea565b8091556040519060643582526020820152604435917f7abbb7d533270b742b351344dcf0122d3da475eb9d23c0497c85869bb617d748604060243593a4005b346101f7575f3660031901126101f75760206040516102438152f35b346101f75760203660031901126101f7576104af6104a26114ef565b6104aa611f09565b611c22565b005b346101f75760203660031901126101f75760206104d46104cf6114ef565b611ba9565b6104e16040518092611632565bf35b611529565b346101f75760203660031901126101f7576001600160a01b036105096114ef565b165f526002602052602060ff60405f2054166040519015158152f35b346101f75760403660031901126101f7576001600160a01b036105466114ef565b16805f525f60205260ff600860405f200154165f1461057a575f525f602052602060405f20545b6040519060243511158152f35b50602061012c61056d565b346101f75760203660031901126101f75761059e6114ef565b6105a6611f09565b6001600160a01b03165f818152600260205260408120805460ff191690557f38cef8c286dbc5b3cb3edbc03ac9ab70b4ee28e1620b6c1530f5ae1070cf4aab9080a2005b346101f7575f3660031901126101f75760206040516102588152f35b346101f75760203660031901126101f75761061f6114ef565b5f5160206120885f395f51905f52549060ff8260401c16159167ffffffffffffffff811680159081610798575b600114908161078e575b159081610785575b506107765767ffffffffffffffff1981166001175f5160206120885f395f51905f52558261074a575b50610690611f90565b610698611f90565b6106a181611c22565b6001600160a01b0381168015159081610728575b50610719575b506106c257005b68ff0000000000000000195f5160206120885f395f51905f5254165f5160206120885f395f51905f52557fc7f505b2f371ae2175ee4913f4499e1f2633a7b5936321eed1cdaeb6115181d2602060405160018152a1005b61072290611f3c565b816106bb565b5f5160206120485f395f51905f52546001600160a01b031614159050836106b5565b68ffffffffffffffffff191668010000000000000001175f5160206120885f395f51905f525582610687565b63f92ee8a960e01b5f5260045ffd5b9050158461065e565b303b159150610656565b84915061064c565b346101f75760403660031901126101f7576107b96114ef565b6001600160a01b03165f9081526001602052604090208054602435908110156101f7576107e59161163f565b50805460018201549161082160036107ff600284016116a4565b9201549160405194859485526020850152608060408501526080840190611505565b9060608301520390f35b346101f75760203660031901126101f7576001600160a01b0361084c6114ef565b16805f525f60205260ff600860405f200154165f14610880575f525f602052602060405f20545b6102446040519110158152f35b50602061012c610873565b346101f75760203660031901126101f7576001600160a01b036108ac6114ef565b16805f525f60205260ff600860405f200154165f146108e0575f525f602052602060405f20545b6102586040519110158152f35b50602061012c6108d3565b346101f7575f3660031901126101f75761093260405161090c6040826115ca565b60058152640352e302e360dc1b6020820152604051918291602083526020830190611505565b0390f35b346101f75760203660031901126101f7576001600160a01b036109576114ef565b16805f525f60205260ff600860405f200154165f1461098b575f525f602052602060405f20545b6102e46040519110158152f35b50602061012c61097e565b346101f75760203660031901126101f75760206109b96109b46114ef565b611b72565b604051908152f35b346101f7575f3660031901126101f75760206040516102448152f35b346101f7575f3660031901126101f757602060405161031f8152f35b346101f7575f3660031901126101f75760206040516102e48152f35b346101f7575f3660031901126101f7575f5160206120485f395f51905f52546040516001600160a01b039091168152602090f35b346101f75760203660031901126101f75760206109b9610a676114ef565b611b00565b346101f75760203660031901126101f7576080610a8f610a8a6114ef565b611aae565b91604051938452602084015260408301526060820152f35b346101f7575f3660031901126101f757602060405161029d8152f35b346101f7575f3660031901126101f757610adb611f09565b5f5160206120485f395f51905f5280546001600160a01b031981169091555f906001600160a01b03167f8be0079c531659141344cd1fd0a4f28419497f9722a3daafe3b4186f6b6457e08280a3005b346101f75760203660031901126101f757610120610b466114ef565b6001600160a01b0381165f908152602081905260409020600881015460ff1615610bd557610b75815492611ba9565b90600181015460028201546003830154600484015491600585015493610baf6007600688015497015497604051998a5260208a0190611632565b60408801526060870152608086015260a085015260c084015260e0830152610100820152f35b610b7561012c92611ba9565b346101f75760203660031901126101f757610bfa6114ef565b610c02611f09565b6001600160a01b03165f818152600260205260408120805460ff191660011790557f8983a1f3c3cb45c24c8226b5b805e3b6eb49686530b808534b2a920129eff6519080a2005b346101f757610c5736611545565b92919091335f52600260205260ff60405f2054161561028657610c7981611c4d565b6001600160a01b0381165f8181526020819052604090209094610c9b83611ba9565b94610ca883548096611e74565b948580821115610e0157610cbb91611aa1565b925b61012c8410610df7575b83815560028101610cd881546118ea565b90555f6003820155600742910155865f52600160205260405f2094600160ff1b8114610de357610d6b88947f0d21ea26fa2b845180aa90cfcc95656655a99f09f5111e412b86edb039f8a7e394610d5f610d739960405190610d39826115ae565b428252865f036020830152610d4f36858a6115ec565b60408301528460608301526118f8565b60405194859485611a6e565b0390a2611ba9565b6005821015610dcf576005811015610dcf57818103610d8e57005b7f56e88676ae877a56cbe6d2c02bfbfb1da4f54a97721f324258aec4eadb96c71c91610dcc604092610dc284518094611632565b6020830190611632565ba2005b634e487b7160e01b5f52602160045260245ffd5b634e487b7160e01b5f52601160045260245ffd5b61012c9350610cc7565b505061012c92610cbd565b346101f7575f3660031901126101f757610932604051610e2d6040826115ca565b60058152640312e302e360dc1b6020820152604051918291602083526020830190611505565b346101f7575f3660031901126101f7577f00000000000000000000000000000000000000000000000000000000000000006001600160a01b03163003610eaa5760206040515f5160206120685f395f51905f528152f35b63703e46dd60e11b5f5260045ffd5b60403660031901126101f757610ecd6114ef565b60243567ffffffffffffffff81116101f757366023820112156101f757610efe9036906024816004013591016115ec565b906001600160a01b037f00000000000000000000000000000000000000000000000000000000000000001630811490811561108d575b50610eaa57610f41611f09565b60018060a01b03811691827f36ad2521ebac3d572eeb7e618d4f6d0a8e1e6180634926360341d6beb52bf9d8602060405160018152a26040516352d1902d60e01b8152602081600481875afa5f9181611059575b50610fad5783634c9c8ce360e01b5f5260045260245ffd5b805f5160206120685f395f51905f528592036110475750823b15611035575f5160206120685f395f51905f5280546001600160a01b031916821790557fbc7cd75a20ee27fd9adebab32041f755214dbc6bffa90cc0225b39da2e5c2d3b5f80a280511561101d576104af91611fbb565b50503461102657005b63b398979f60e01b5f5260045ffd5b634c9c8ce360e01b5f5260045260245ffd5b632a87526960e21b5f5260045260245ffd5b9091506020813d602011611085575b81611075602093836115ca565b810103126101f757519085610f95565b3d9150611068565b5f5160206120685f395f51905f52546001600160a01b03161415905083610f34565b346101f75760203660031901126101f7576001600160a01b036110d06114ef565b165f52600160205260405f2080549067ffffffffffffffff82116111f0576040519161110260208260051b01846115ca565b8083526020830180925f5260205f205f915b8383106111a857848660405191829160208301906020845251809152604083019060408160051b85010192915f905b82821061115257505050500390f35b919360019193955060208091603f198982030185528751908151815282820151838201526060806111926040850151608060408601526080850190611505565b9301519101529601920192018594939192611143565b600460206001926040516111bb816115ae565b8554815284860154838201526111d3600287016116a4565b604082015260038601546060820152815201920192019190611114565b634e487b7160e01b5f52604160045260245ffd5b346101f75761121236611545565b9190335f52600260205260ff60405f20541615610286578361137b916112587f0d8a25a9d1d2a647c5d53a69d1846b4d3ea5d0f3691641a5390b8d5028e3541996611c4d565b60018060a01b038216958691825f525f60205260405f2095610d6b61127c86611ba9565b9861129361128c8a548095611d22565b80946118dd565b90610352821161146e575b818a5560018a016112af81546118ea565b90554260078b01556040996112eb8b516112c98d826115ca565b600e81526d11dbd85b0818dbdb5c1b195d195960921b60208201528388611dc3565b8015611432575b61140d575b6113268b516113068d826115ca565b600c81526b21b7b73a3934b13aba34b7b760a11b60208201528388611dc3565b80156113dd575b6113c8575b50865f5260016020526113708a5f208b519061134d826115ae565b42825286602083015261136136858a6115ec565b8d8301528460608301526118f8565b895194859485611a6e565b916005811015610dcf576005831015610dcf5780830361139757005b610dcc7f56e88676ae877a56cbe6d2c02bfbfb1da4f54a97721f324258aec4eadb96c71c93610dc284518094611632565b6003016113d581546118ea565b90558c611332565b506114088b516113ed8d826115ca565b600781526614185e5b595b9d60ca1b60208201528388611dc3565b61132d565b6005810161141b81546118ea565b90556003810161142b81546118ea565b90556112f7565b506114698b516114428d826115ca565b601381527211dbd85b081d185c99d95d081c995858da1959606a1b60208201528388611dc3565b6112f2565b610352915061129e565b346101f75760203660031901126101f75761093261149c6114976114ef565b6117c3565b604051918291602083526020830190611505565b346101f7575f3660031901126101f75760206040516103528152f35b346101f75760203660031901126101f75760206109b96114ea6114ef565b611744565b600435906001600160a01b03821682036101f757565b805180835260209291819084018484015e5f828201840152601f01601f1916010190565b346101f7575f3660031901126101f757602060405161012c8152f35b9060606003198301126101f7576004356001600160a01b03811681036101f757916024359160443567ffffffffffffffff81116101f757826023820112156101f75780600401359267ffffffffffffffff84116101f757602484830101116101f7576024019190565b6080810190811067ffffffffffffffff8211176111f057604052565b90601f8019910116810190811067ffffffffffffffff8211176111f057604052565b92919267ffffffffffffffff82116111f05760405191611616601f8201601f1916602001846115ca565b8294818452818301116101f7578281602093845f960137010152565b906005821015610dcf5752565b8054821015611658575f5260205f209060021b01905f90565b634e487b7160e01b5f52603260045260245ffd5b90600182811c9216801561169a575b602083101461168657565b634e487b7160e01b5f52602260045260245ffd5b91607f169161167b565b9060405191825f8254926116b78461166c565b808452936001811690811561172257506001146116de575b506116dc925003836115ca565b565b90505f9291925260205f20905f915b8183106117065750509060206116dc928201015f6116cf565b60209193508060019154838589010152019101909184926116ed565b9050602092506116dc94915060ff191682840152151560051b8201015f6116cf565b6001600160a01b03165f8181526020819052604090206008015460ff16156117ba575f525f60205260405f20545b6103208110156117b3576102e48110156117ac5761029e8110156117a557610244111561179f5761271090565b61251c90565b5061213490565b50611b5890565b5061138890565b5061012c611772565b6117cc90611ba9565b6005811015610dcf5780156118b05760018114611883576002811461185657600314611825576040516118006040826115ca565b6015815274457863657074696f6e616c20283830302d3835302960581b602082015290565b6040516118336040826115ca565b60138152725665727920476f6f6420283734302d3739392960681b602082015290565b506040516118656040826115ca565b600e81526d476f6f6420283637302d3733392960901b602082015290565b506040516118926040826115ca565b600e81526d4661697220283538302d3636392960901b602082015290565b506040516118bf6040826115ca565b600e81526d506f6f7220283330302d3537392960901b602082015290565b91908201809211610de357565b5f198114610de35760010190565b8054680100000000000000008110156111f05761191a9160018201815561163f565b919091611a5b57805182556020810151600183015560028201604082015180519067ffffffffffffffff82116111f057611954835461166c565b601f8111611a0a575b50602090601f83116001146119a257918060609492600396945f92611997575b50508160011b915f1990871b1c19161790555b0151910155565b015190505f8061197d565b90601f19831691845f52815f20925f5b8181106119f257509260019285926003989660609896106119db575b505050811b019055611990565b01515f1983891b60f8161c191690555f80806119ce565b929360206001819287860151815501950193016119b2565b8281111561195d57835f5260205f20601f840160051c9060208510611a53575b81601f9101920160051c03905f5b828110611a4657505061195d565b5f82820155600101611a38565b5f9150611a2a565b634e487b7160e01b5f525f60045260245ffd5b94939280604093608093885260606020890152816060890152838801375f828288010152601f8019910116850101930152565b91908203918211610de357565b6001600160a01b03165f8181526020819052604090206008015460ff1615611af3575f525f60205260405f206001810154600282015492600483015492549193929190565b505f905f905f9061012c90565b6001600160a01b03165f8181526020819052604090206008015460ff1615611b69575f525f60205260405f20545b610320811015611b62576102e48110156117a55761029e811015611b5b57610244111561179f5761271090565b5061232890565b50611f4090565b5061012c611b2e565b6001600160a01b03165f8181526020819052604090206008015460ff1615611ba2575f525f60205260405f205490565b5061012c90565b6001600160a01b03165f8181526020819052604090206008015460ff1615611c19575f525f60205260405f20545b610243811115611c145761029d811115611c0e576102e3811115611c085761031f1015611c0357600490565b600390565b50600290565b50600190565b505f90565b5061012c611bd7565b6001600160a01b03811615611c3a576116dc90611f3c565b631e4fbdf760e01b5f525f60045260245ffd5b6001600160a01b03165f8181526020819052604090206008015460ff1615611c725750565b60405161012081019080821067ffffffffffffffff8311176111f05760089160405261012c8152602081015f8152604082015f8152606083015f8152608084015f815260a08501915f835260c08601935f855260e087019542875261010088019960018b525f525f60205260405f2097518855516001880155516002870155516003860155516004850155516005840155516006830155516007820155019051151560ff80198354169116179055565b906103208110611d3e575080800460011481151715610de35790565b6102e48110611d5e57508060011b9080820460021490151715610de35790565b61029e8110611d7e5750600381029080820460031490151715610de35790565b61024411611d9c578060021b9080820460041490151715610de35790565b600581029080820460051490151715610de35790565b908151811015611658570160200190565b611dce9136916115ec565b908051825110611e6e575f905b611de88351825190611aa1565b8211611e67576001925f5b8251811015611e5d576001600160f81b0319611e18611e1283876118dd565b84611db2565b51166001600160f81b0319611e2d8386611db2565b511603611e3c57600101611df3565b509250905f5b611e5557611e4f906118ea565b90611ddb565b505050600190565b5092919091611e42565b5050505f90565b50505f90565b906103208110611e9557508060031b9080820460081490151715610de35790565b6102e48110611eb55750600681029080820460061490151715610de35790565b61029e8110611ed55750600581029080820460051490151715610de35790565b61024411611ef3578060021b9080820460041490151715610de35790565b600381029080820460031490151715610de35790565b5f5160206120485f395f51905f52546001600160a01b03163303611f2957565b63118cdaa760e01b5f523360045260245ffd5b5f5160206120485f395f51905f5280546001600160a01b039283166001600160a01b0319821681179092559091167f8be0079c531659141344cd1fd0a4f28419497f9722a3daafe3b4186f6b6457e05f80a3565b60ff5f5160206120885f395f51905f525460401c1615611fac57565b631afcd79f60e31b5f5260045ffd5b905f8091602081519101845af48080612034575b15611fef5750506040513d81523d5f602083013e60203d82010160405290565b1561201457639996b31560e01b5f9081526001600160a01b0391909116600452602490fd5b3d15612025576040513d5f823e3d90fd5b63d6bda27560e01b5f5260045ffd5b503d151580611fcf5750813b1515611fcf56fe9016d09d72d40fdae2fd8ceac6b6234c7706214fd39c1cd1e609a0528c199300360894a13ba1a3210667c828492db98dca3e2076cc3735a920a3ca505d382bbcf0c57e16840df040f15088dc2f81fe391c3923bec73e23a9662efc9c229c6a00a264697066735822122089bacfd570da8f150d4f4756b853e5f431615bda7656b33f47696bde7c7e32f464736f6c63430008210033f0c57e16840df040f15088dc2f81fe391c3923bec73e23a9662efc9c229c6a00",
    "sourcePath": "/Users/macuser/Desktop/workspace/circlepot/smart-contract/src/ReputationV1.sol",
    "compiler": {
        "name": "solc",
        "version": "0.8.33+commit.64118f21"
    },
    "functionHashes": {
        "DEFAULT_SCORE()": "df65e9e4",
        "FAIR_THRESHOLD()": "7ffdecb2",
        "GOOD_THRESHOLD()": "fb3b8bb6",
        "MAX_SCORE()": "27ff6223",
        "MIN_SCORE()": "40b89270",
        "MIN_SCORE_CIRCLE_CREATE()": "977b9a02",
        "MIN_SCORE_LARGE_GOAL()": "ca7efc6f",
        "MIN_SCORE_PREMIUM()": "9559cb1c",
        "POOR_THRESHOLD()": "f4334572",
        "UPGRADE_INTERFACE_VERSION()": "ad3cb1cc",
        "VERSION()": "ffa1ad74",
        "VERY_GOOD_THRESHOLD()": "95c87aba",
        "authorizeContract(address)": "67561d93",
        "authorizedContracts(address)": "d5b9221b",
        "canCreateCircle(address)": "bb0f83f6",
        "canCreateLargeGoal(address)": "b2e95982",
        "decreaseReputation(address,uint256,string)": "64951eb0",
        "getCollateralMultiplier(address)": "85196798",
        "getPenaltyMultiplier(address)": "257164d1",
        "getReputation(address)": "9c89a0e2",
        "getReputationHistory(address)": "48bb0fe4",
        "getScoreCategory(address)": "e4ceaf46",
        "getScoreCategoryString(address)": "37b039d6",
        "getUserReputationData(address)": "810a30ce",
        "getUserReputationDetails(address)": "696cf193",
        "hasPremiumAccess(address)": "a67e12a8",
        "increaseReputation(address,uint256,string)": "41b880ec",
        "initialize(address)": "c4d66de8",
        "meetsScoreRequirement(address,uint256)": "d0f32b34",
        "owner()": "8da5cb5b",
        "proxiableUUID()": "52d1902d",
        "recordCircleCompleted(address,uint256)": "f732ebc0",
        "recordGoalCompleted(address,uint256)": "fe38b8d1",
        "recordLatePayment(address,uint256,uint256,uint256)": "f703d4ba",
        "renounceOwnership()": "715018a6",
        "reputationHistory(address,uint256)": "bb32a7bd",
        "revokeContract(address)": "cc2e3ee1",
        "transferOwnership(address)": "f2fde38b",
        "upgradeToAndCall(address,bytes)": "4f1ef286",
        "userReputations(address)": "f8b11691",
        "version()": "54fd4d50"
    },
    "gasEstimates": {
        "creation": {
            "codeDepositCost": "1682600",
            "executionCost": "infinite",
            "totalCost": "infinite"
        },
        "external": {
            "DEFAULT_SCORE()": "839",
            "FAIR_THRESHOLD()": "431",
            "GOOD_THRESHOLD()": "981",
            "MAX_SCORE()": "167",
            "MIN_SCORE()": "223",
            "MIN_SCORE_CIRCLE_CREATE()": "563",
            "MIN_SCORE_LARGE_GOAL()": "739",
            "MIN_SCORE_PREMIUM()": "519",
            "POOR_THRESHOLD()": "893",
            "UPGRADE_INTERFACE_VERSION()": "920",
            "VERSION()": "1022",
            "VERY_GOOD_THRESHOLD()": "541",
            "authorizeContract(address)": "28048",
            "authorizedContracts(address)": "3070",
            "canCreateCircle(address)": "5128",
            "canCreateLargeGoal(address)": "5106",
            "decreaseReputation(address,uint256,string)": "infinite",
            "getCollateralMultiplier(address)": "5055",
            "getPenaltyMultiplier(address)": "4725",
            "getReputation(address)": "5063",
            "getReputationHistory(address)": "infinite",
            "getScoreCategory(address)": "5481",
            "getScoreCategoryString(address)": "5198",
            "getUserReputationData(address)": "11324",
            "getUserReputationDetails(address)": "24246",
            "hasPremiumAccess(address)": "5062",
            "increaseReputation(address,uint256,string)": "infinite",
            "initialize(address)": "infinite",
            "meetsScoreRequirement(address,uint256)": "5241",
            "owner()": "infinite",
            "proxiableUUID()": "infinite",
            "recordCircleCompleted(address,uint256)": "130409",
            "recordGoalCompleted(address,uint256)": "130475",
            "recordLatePayment(address,uint256,uint256,uint256)": "131056",
            "renounceOwnership()": "28374",
            "reputationHistory(address,uint256)": "infinite",
            "revokeContract(address)": "28438",
            "transferOwnership(address)": "29013",
            "upgradeToAndCall(address,bytes)": "infinite",
            "userReputations(address)": "20233",
            "version()": "612"
        },
        "internal": {
            "_authorizeUpgrade(address)": "infinite",
            "_calculateScoreDecrease(uint256,uint256)": "184",
            "_calculateScoreIncrease(uint256,uint256)": "184",
            "_containsString(string calldata,string memory)": "infinite",
            "_initializeUser(address)": "infinite"
        }
    }
}