{
    "contractName": "UserProfileV1",
    "abi": [
        {
            "inputs": [],
            "stateMutability": "nonpayable",
            "type": "constructor"
        },
        {
            "inputs": [
                {
                    "internalType": "address",
                    "name": "target",
                    "type": "address"
                }
            ],
            "name": "AddressEmptyCode",
            "type": "error"
        },
        {
            "inputs": [
                {
                    "internalType": "address",
                    "name": "implementation",
                    "type": "address"
                }
            ],
            "name": "ERC1967InvalidImplementation",
            "type": "error"
        },
        {
            "inputs": [],
            "name": "ERC1967NonPayable",
            "type": "error"
        },
        {
            "inputs": [],
            "name": "EmailAlreadyTaken",
            "type": "error"
        },
        {
            "inputs": [],
            "name": "EmptyEmail",
            "type": "error"
        },
        {
            "inputs": [],
            "name": "EmptyFullName",
            "type": "error"
        },
        {
            "inputs": [],
            "name": "EmptyPhoto",
            "type": "error"
        },
        {
            "inputs": [],
            "name": "EmptyUsername",
            "type": "error"
        },
        {
            "inputs": [],
            "name": "FailedCall",
            "type": "error"
        },
        {
            "inputs": [],
            "name": "InvalidAccountId",
            "type": "error"
        },
        {
            "inputs": [],
            "name": "InvalidInitialization",
            "type": "error"
        },
        {
            "inputs": [],
            "name": "NoMoreAccountIdsAvailable",
            "type": "error"
        },
        {
            "inputs": [],
            "name": "NotInitializing",
            "type": "error"
        },
        {
            "inputs": [],
            "name": "OnlyProfileOwner",
            "type": "error"
        },
        {
            "inputs": [
                {
                    "internalType": "address",
                    "name": "owner",
                    "type": "address"
                }
            ],
            "name": "OwnableInvalidOwner",
            "type": "error"
        },
        {
            "inputs": [
                {
                    "internalType": "address",
                    "name": "account",
                    "type": "address"
                }
            ],
            "name": "OwnableUnauthorizedAccount",
            "type": "error"
        },
        {
            "inputs": [],
            "name": "PhotoUpdateCooldownNotMet",
            "type": "error"
        },
        {
            "inputs": [],
            "name": "ProfileAlreadyExists",
            "type": "error"
        },
        {
            "inputs": [],
            "name": "ProfileDoesNotExist",
            "type": "error"
        },
        {
            "inputs": [],
            "name": "UUPSUnauthorizedCallContext",
            "type": "error"
        },
        {
            "inputs": [
                {
                    "internalType": "bytes32",
                    "name": "slot",
                    "type": "bytes32"
                }
            ],
            "name": "UUPSUnsupportedProxiableUUID",
            "type": "error"
        },
        {
            "inputs": [],
            "name": "UsernameAlreadyTaken",
            "type": "error"
        },
        {
            "anonymous": false,
            "inputs": [
                {
                    "indexed": true,
                    "internalType": "address",
                    "name": "newImplementation",
                    "type": "address"
                },
                {
                    "indexed": false,
                    "internalType": "uint256",
                    "name": "version",
                    "type": "uint256"
                }
            ],
            "name": "ContractUpgraded",
            "type": "event"
        },
        {
            "anonymous": false,
            "inputs": [
                {
                    "indexed": false,
                    "internalType": "uint64",
                    "name": "version",
                    "type": "uint64"
                }
            ],
            "name": "Initialized",
            "type": "event"
        },
        {
            "anonymous": false,
            "inputs": [
                {
                    "indexed": true,
                    "internalType": "address",
                    "name": "previousOwner",
                    "type": "address"
                },
                {
                    "indexed": true,
                    "internalType": "address",
                    "name": "newOwner",
                    "type": "address"
                }
            ],
            "name": "OwnershipTransferred",
            "type": "event"
        },
        {
            "anonymous": false,
            "inputs": [
                {
                    "indexed": true,
                    "internalType": "address",
                    "name": "user",
                    "type": "address"
                },
                {
                    "indexed": false,
                    "internalType": "string",
                    "name": "photo",
                    "type": "string"
                }
            ],
            "name": "PhotoUpdated",
            "type": "event"
        },
        {
            "anonymous": false,
            "inputs": [
                {
                    "indexed": true,
                    "internalType": "address",
                    "name": "user",
                    "type": "address"
                },
                {
                    "indexed": false,
                    "internalType": "string",
                    "name": "email",
                    "type": "string"
                },
                {
                    "indexed": false,
                    "internalType": "string",
                    "name": "username",
                    "type": "string"
                },
                {
                    "indexed": false,
                    "internalType": "string",
                    "name": "fullName",
                    "type": "string"
                },
                {
                    "indexed": false,
                    "internalType": "uint256",
                    "name": "accountId",
                    "type": "uint256"
                },
                {
                    "indexed": false,
                    "internalType": "string",
                    "name": "profilePhoto",
                    "type": "string"
                },
                {
                    "indexed": false,
                    "internalType": "uint256",
                    "name": "createdAt",
                    "type": "uint256"
                },
                {
                    "indexed": false,
                    "internalType": "bool",
                    "name": "hasProfile",
                    "type": "bool"
                }
            ],
            "name": "ProfileCreated",
            "type": "event"
        },
        {
            "anonymous": false,
            "inputs": [
                {
                    "indexed": true,
                    "internalType": "address",
                    "name": "implementation",
                    "type": "address"
                }
            ],
            "name": "Upgraded",
            "type": "event"
        },
        {
            "inputs": [],
            "name": "PHOTO_UPDATE_COOLDOWN",
            "outputs": [
                {
                    "internalType": "uint256",
                    "name": "",
                    "type": "uint256"
                }
            ],
            "stateMutability": "view",
            "type": "function"
        },
        {
            "inputs": [],
            "name": "UPGRADE_INTERFACE_VERSION",
            "outputs": [
                {
                    "internalType": "string",
                    "name": "",
                    "type": "string"
                }
            ],
            "stateMutability": "view",
            "type": "function"
        },
        {
            "inputs": [],
            "name": "VERSION",
            "outputs": [
                {
                    "internalType": "uint256",
                    "name": "",
                    "type": "uint256"
                }
            ],
            "stateMutability": "view",
            "type": "function"
        },
        {
            "inputs": [
                {
                    "internalType": "uint256",
                    "name": "",
                    "type": "uint256"
                }
            ],
            "name": "accountIdToAddress",
            "outputs": [
                {
                    "internalType": "address",
                    "name": "",
                    "type": "address"
                }
            ],
            "stateMutability": "view",
            "type": "function"
        },
        {
            "inputs": [
                {
                    "internalType": "uint256",
                    "name": "",
                    "type": "uint256"
                }
            ],
            "name": "allUsers",
            "outputs": [
                {
                    "internalType": "address",
                    "name": "",
                    "type": "address"
                }
            ],
            "stateMutability": "view",
            "type": "function"
        },
        {
            "inputs": [
                {
                    "internalType": "string",
                    "name": "_email",
                    "type": "string"
                },
                {
                    "internalType": "string",
                    "name": "_username",
                    "type": "string"
                },
                {
                    "internalType": "string",
                    "name": "_fullName",
                    "type": "string"
                },
                {
                    "internalType": "string",
                    "name": "_profilePhoto",
                    "type": "string"
                }
            ],
            "name": "createProfile",
            "outputs": [],
            "stateMutability": "nonpayable",
            "type": "function"
        },
        {
            "inputs": [
                {
                    "internalType": "string",
                    "name": "",
                    "type": "string"
                }
            ],
            "name": "emailToAddress",
            "outputs": [
                {
                    "internalType": "address",
                    "name": "",
                    "type": "address"
                }
            ],
            "stateMutability": "view",
            "type": "function"
        },
        {
            "inputs": [
                {
                    "internalType": "uint256",
                    "name": "_accountId",
                    "type": "uint256"
                }
            ],
            "name": "getAddressByAccountId",
            "outputs": [
                {
                    "internalType": "address",
                    "name": "",
                    "type": "address"
                }
            ],
            "stateMutability": "view",
            "type": "function"
        },
        {
            "inputs": [
                {
                    "internalType": "string",
                    "name": "_email",
                    "type": "string"
                }
            ],
            "name": "getAddressByEmail",
            "outputs": [
                {
                    "internalType": "address",
                    "name": "",
                    "type": "address"
                }
            ],
            "stateMutability": "view",
            "type": "function"
        },
        {
            "inputs": [
                {
                    "internalType": "string",
                    "name": "_username",
                    "type": "string"
                }
            ],
            "name": "getAddressByUsername",
            "outputs": [
                {
                    "internalType": "address",
                    "name": "",
                    "type": "address"
                }
            ],
            "stateMutability": "view",
            "type": "function"
        },
        {
            "inputs": [
                {
                    "internalType": "address",
                    "name": "_user",
                    "type": "address"
                }
            ],
            "name": "getProfile",
            "outputs": [
                {
                    "components": [
                        {
                            "internalType": "address",
                            "name": "userAddress",
                            "type": "address"
                        },
                        {
                            "internalType": "string",
                            "name": "email",
                            "type": "string"
                        },
                        {
                            "internalType": "string",
                            "name": "username",
                            "type": "string"
                        },
                        {
                            "internalType": "string",
                            "name": "fullName",
                            "type": "string"
                        },
                        {
                            "internalType": "string",
                            "name": "profilePhoto",
                            "type": "string"
                        },
                        {
                            "internalType": "uint256",
                            "name": "accountId",
                            "type": "uint256"
                        },
                        {
                            "internalType": "uint256",
                            "name": "lastPhotoUpdate",
                            "type": "uint256"
                        },
                        {
                            "internalType": "uint256",
                            "name": "createdAt",
                            "type": "uint256"
                        }
                    ],
                    "internalType": "struct UserProfileV1.UserProfile",
                    "name": "",
                    "type": "tuple"
                }
            ],
            "stateMutability": "view",
            "type": "function"
        },
        {
            "inputs": [],
            "name": "getRemainingAccountIds",
            "outputs": [
                {
                    "internalType": "uint256",
                    "name": "",
                    "type": "uint256"
                }
            ],
            "stateMutability": "view",
            "type": "function"
        },
        {
            "inputs": [],
            "name": "getTotalProfiles",
            "outputs": [
                {
                    "internalType": "uint256",
                    "name": "",
                    "type": "uint256"
                }
            ],
            "stateMutability": "view",
            "type": "function"
        },
        {
            "inputs": [
                {
                    "internalType": "uint256",
                    "name": "_accountId",
                    "type": "uint256"
                }
            ],
            "name": "getUserDetailsByAccountId",
            "outputs": [
                {
                    "internalType": "address",
                    "name": "userAddress",
                    "type": "address"
                },
                {
                    "internalType": "string",
                    "name": "fullName",
                    "type": "string"
                },
                {
                    "internalType": "string",
                    "name": "email",
                    "type": "string"
                },
                {
                    "internalType": "string",
                    "name": "username",
                    "type": "string"
                }
            ],
            "stateMutability": "view",
            "type": "function"
        },
        {
            "inputs": [
                {
                    "internalType": "string",
                    "name": "_identifier",
                    "type": "string"
                }
            ],
            "name": "getUserDetailsByIdentifier",
            "outputs": [
                {
                    "internalType": "address",
                    "name": "userAddress",
                    "type": "address"
                },
                {
                    "internalType": "string",
                    "name": "fullName",
                    "type": "string"
                },
                {
                    "internalType": "uint256",
                    "name": "accountId",
                    "type": "uint256"
                },
                {
                    "internalType": "string",
                    "name": "email",
                    "type": "string"
                },
                {
                    "internalType": "string",
                    "name": "username",
                    "type": "string"
                }
            ],
            "stateMutability": "view",
            "type": "function"
        },
        {
            "inputs": [
                {
                    "internalType": "address",
                    "name": "",
                    "type": "address"
                }
            ],
            "name": "hasProfile",
            "outputs": [
                {
                    "internalType": "bool",
                    "name": "",
                    "type": "bool"
                }
            ],
            "stateMutability": "view",
            "type": "function"
        },
        {
            "inputs": [
                {
                    "internalType": "address",
                    "name": "_user",
                    "type": "address"
                }
            ],
            "name": "hasUserProfile",
            "outputs": [
                {
                    "internalType": "bool",
                    "name": "",
                    "type": "bool"
                }
            ],
            "stateMutability": "view",
            "type": "function"
        },
        {
            "inputs": [
                {
                    "internalType": "address",
                    "name": "initialOwner",
                    "type": "address"
                }
            ],
            "name": "initialize",
            "outputs": [],
            "stateMutability": "nonpayable",
            "type": "function"
        },
        {
            "inputs": [
                {
                    "internalType": "string",
                    "name": "_email",
                    "type": "string"
                }
            ],
            "name": "isEmailAvailable",
            "outputs": [
                {
                    "internalType": "bool",
                    "name": "",
                    "type": "bool"
                }
            ],
            "stateMutability": "view",
            "type": "function"
        },
        {
            "inputs": [
                {
                    "internalType": "string",
                    "name": "_username",
                    "type": "string"
                }
            ],
            "name": "isUsernameAvailable",
            "outputs": [
                {
                    "internalType": "bool",
                    "name": "",
                    "type": "bool"
                }
            ],
            "stateMutability": "view",
            "type": "function"
        },
        {
            "inputs": [],
            "name": "owner",
            "outputs": [
                {
                    "internalType": "address",
                    "name": "",
                    "type": "address"
                }
            ],
            "stateMutability": "view",
            "type": "function"
        },
        {
            "inputs": [
                {
                    "internalType": "address",
                    "name": "",
                    "type": "address"
                }
            ],
            "name": "profiles",
            "outputs": [
                {
                    "internalType": "address",
                    "name": "userAddress",
                    "type": "address"
                },
                {
                    "internalType": "string",
                    "name": "email",
                    "type": "string"
                },
                {
                    "internalType": "string",
                    "name": "username",
                    "type": "string"
                },
                {
                    "internalType": "string",
                    "name": "fullName",
                    "type": "string"
                },
                {
                    "internalType": "string",
                    "name": "profilePhoto",
                    "type": "string"
                },
                {
                    "internalType": "uint256",
                    "name": "accountId",
                    "type": "uint256"
                },
                {
                    "internalType": "uint256",
                    "name": "lastPhotoUpdate",
                    "type": "uint256"
                },
                {
                    "internalType": "uint256",
                    "name": "createdAt",
                    "type": "uint256"
                }
            ],
            "stateMutability": "view",
            "type": "function"
        },
        {
            "inputs": [],
            "name": "proxiableUUID",
            "outputs": [
                {
                    "internalType": "bytes32",
                    "name": "",
                    "type": "bytes32"
                }
            ],
            "stateMutability": "view",
            "type": "function"
        },
        {
            "inputs": [],
            "name": "renounceOwnership",
            "outputs": [],
            "stateMutability": "nonpayable",
            "type": "function"
        },
        {
            "inputs": [
                {
                    "internalType": "address",
                    "name": "newOwner",
                    "type": "address"
                }
            ],
            "name": "transferOwnership",
            "outputs": [],
            "stateMutability": "nonpayable",
            "type": "function"
        },
        {
            "inputs": [
                {
                    "internalType": "string",
                    "name": "_profilePhoto",
                    "type": "string"
                }
            ],
            "name": "updatePhoto",
            "outputs": [],
            "stateMutability": "nonpayable",
            "type": "function"
        },
        {
            "inputs": [
                {
                    "internalType": "address",
                    "name": "newImplementation",
                    "type": "address"
                },
                {
                    "internalType": "bytes",
                    "name": "data",
                    "type": "bytes"
                }
            ],
            "name": "upgradeToAndCall",
            "outputs": [],
            "stateMutability": "payable",
            "type": "function"
        },
        {
            "inputs": [
                {
                    "internalType": "string",
                    "name": "",
                    "type": "string"
                }
            ],
            "name": "usernameToAddress",
            "outputs": [
                {
                    "internalType": "address",
                    "name": "",
                    "type": "address"
                }
            ],
            "stateMutability": "view",
            "type": "function"
        },
        {
            "inputs": [],
            "name": "version",
            "outputs": [
                {
                    "internalType": "string",
                    "name": "",
                    "type": "string"
                }
            ],
            "stateMutability": "pure",
            "type": "function"
        }
    ],
    "bytecode": "60a080604052346100c257306080525f516020611ea05f395f51905f525460ff8160401c166100b3576002600160401b03196001600160401b03821601610060575b604051611dd990816100c78239608051818181610f9c015261103f0152f35b6001600160401b0319166001600160401b039081175f516020611ea05f395f51905f525581527fc7f505b2f371ae2175ee4913f4499e1f2633a7b5936321eed1cdaeb6115181d290602090a15f80610041565b63f92ee8a960e01b5f5260045ffd5b5f80fdfe6080806040526004361015610012575f80fd5b5f3560e01c9081630f232b12146117c9575080630f53a47014611637578063173dbeae146115db5780632af4b1fe146115a95780632bc6632f146114305780632c65db801461125e5780633235fbc8146112415780633272187b146111e55780634f1ef28614610ff057806352d1902d14610f8a57806354fd4d5014610f435780635be8dccb14610f215780635c8be37014610de45780636322961d14610d82578063715018a614610d1b5780638da5cb5b14610ce7578063a2bdedf414610ca5578063a787c80b14610c68578063ad3cb1cc14610c1d578063b0c0647f1461058c578063bab17ce91461056f578063bbe156271461048d578063c4d66de8146102f0578063c5caea011461027f578063ea78dcbf14610240578063f2fde38b14610215578063f69c6dec146101b9578063f825f1431461017a5763ffa1ad741461015b575f80fd5b34610176575f36600319011261017657602060405160018152f35b5f80fd5b3461017657602061018a366119ef565b8160405191805191829101835e600190820190815281900382019020546040516001600160a01b039091168152f35b34610176576020366003190112610176576004356001600160401b038111610176576101eb602091369060040161183c565b80604051928337600190820190815281900382019020546040516001600160a01b03909116158152f35b346101765760203660031901126101765761023e610231611802565b610239611b01565b611ad6565b005b34610176576020610250366119ef565b8160405191805191829101835e600290820190815281900382019020546040516001600160a01b039091168152f35b34610176576020366003190112610176576004356001600160401b038111610176576102af90369060040161183c565b8060405192833760029082019081528190036020019020546001600160a01b031680156102e157602090604051908152f35b635a05a1b160e01b5f5260045ffd5b3461017657602036600319011261017657610309611802565b5f516020611d845f395f51905f52549060ff8260401c1615916001600160401b03811680159081610485575b600114908161047b575b159081610472575b506104635767ffffffffffffffff1981166001175f516020611d845f395f51905f525582610437575b50610379611c8c565b610381611c8c565b61038a81611ad6565b5f6005556001600160a01b0381168015159081610415575b50610406575b506103af57005b68ff0000000000000000195f516020611d845f395f51905f5254165f516020611d845f395f51905f52557fc7f505b2f371ae2175ee4913f4499e1f2633a7b5936321eed1cdaeb6115181d2602060405160018152a1005b61040f90611b34565b816103a8565b5f516020611d445f395f51905f52546001600160a01b031614159050836103a2565b68ffffffffffffffffff191668010000000000000001175f516020611d845f395f51905f525582610370565b63f92ee8a960e01b5f5260045ffd5b90501584610347565b303b15915061033f565b849150610335565b34610176576020366003190112610176576001600160a01b036104ae611802565b165f90815260208190526040902080546001600160a01b03166104d36001830161194f565b916104e06002820161194f565b6104ec6003830161194f565b9161055b6104fc6004830161194f565b61054d60058401549561053f60076006870154960154966105316040519b8c9b8c5261010060208d01526101008c0190611818565b908a820360408c0152611818565b9088820360608a0152611818565b908682036080880152611818565b9260a085015260c084015260e08301520390f35b34610176575f366003190112610176576020600654604051908152f35b34610176576080366003190112610176576004356001600160401b038111610176576105bc90369060040161183c565b6024356001600160401b038111610176576105db90369060040161183c565b9190926044356001600160401b038111610176576105fd90369060040161183c565b91906064356001600160401b0381116101765761061e90369060040161183c565b929091335f52600460205260ff60405f205416610c0e578615610bff578515610bf0578415610be1576040518789823760018189019081528190036020019020546001600160a01b0316610bd2576040518683823760028188019081528190036020019020546001600160a01b0316610bc357640218711a006005541015610bb4576106a8611b96565b946040516106b581611869565b3381526106c33689866118a6565b602082019081526106d5368b8d6118a6565b604083019081526106e73685876118a6565b606084019081526106f9368a8a6118a6565b6080850190815260a085018b81525f60c087018181524260e0890190815233835260208390526040909220975188546001600160a01b0319166001600160a01b0391909116178855955180519196959294929160018901916001600160401b038211610a03576107738261076d8554611917565b85611a2d565b602090601f8311600114610b51576107a292915f9183610a17575b50508160011b915f199060031b1c19161790565b90555b51805160028801916001600160401b038211610a03576107c98261076d8554611917565b602090601f8311600114610aee576107f792915f9183610a175750508160011b915f199060031b1c19161790565b90555b51805160038701916001600160401b038211610a035761081e8261076d8554611917565b602090601f8311600114610a8b5761084c92915f9183610a175750508160011b915f199060031b1c19161790565b90555b51805160048601916001600160401b038211610a03576108738261076d8554611917565b602090601f8311600114610a225791806108a892600798979695945f92610a175750508160011b915f199060031b1c19161790565b90555b51600585015551600684015551910155604051888a82376001898201908152819003602001902080546001600160a01b0319163317905560405187848237600281890190815260209082900381019091208054336001600160a01b031991821681179092555f89815260038452604080822080549093168417909255918252600490925220805460ff191660011790556006549668010000000000000000881015610a035760e0997f1bb233d3fb738aad2889156749c34b163d4cefd4d9d59377271d01588759254f996109be6109da966109cc946109938d60016109ed9f016006556118eb565b81546001600160a01b0360039290921b91821b19163390911b1790556040518f81529e8f0191611a8b565b8c810360208e015291611a8b565b9189830360408b0152611a8b565b9260608701528583036080870152611a8b565b914260a0820152600160c08201528033930390a2005b634e487b7160e01b5f52604160045260245ffd5b015190505f8061078e565b90601f19831691845f52815f20925f5b818110610a73575091600193918560079a999897969410610a5b575b505050811b0190556108ab565b01515f1960f88460031b161c191690555f8080610a4e565b92936020600181928786015181550195019301610a32565b90601f19831691845f52815f20925f5b818110610ad65750908460019594939210610abe575b505050811b01905561084f565b01515f1960f88460031b161c191690555f8080610ab1565b92936020600181928786015181550195019301610a9b565b90601f19831691845f52815f20925f5b818110610b395750908460019594939210610b21575b505050811b0190556107fa565b01515f1960f88460031b161c191690555f8080610b14565b92936020600181928786015181550195019301610afe565b90601f19831691845f52815f20925f5b818110610b9c5750908460019594939210610b84575b505050811b0190556107a5565b01515f1960f88460031b161c191690555f8080610b77565b92936020600181928786015181550195019301610b61565b6347e2e49160e11b5f5260045ffd5b636d3bf64960e01b5f5260045ffd5b639e9987d960e01b5f5260045ffd5b637d210c2560e01b5f5260045ffd5b63056c283f60e31b5f5260045ffd5b634ccdfcb560e11b5f5260045ffd5b6337450d8560e11b5f5260045ffd5b34610176575f36600319011261017657610c64604051610c3e604082611885565b60058152640352e302e360dc1b6020820152604051918291602083526020830190611818565b0390f35b34610176576020366003190112610176576001600160a01b03610c89611802565b165f526004602052602060ff60405f2054166040519015158152f35b346101765760203660031901126101765760043560065481101561017657610cce6020916118eb565b905460405160039290921b1c6001600160a01b03168152f35b34610176575f366003190112610176575f516020611d445f395f51905f52546040516001600160a01b039091168152602090f35b34610176575f36600319011261017657610d33611b01565b5f516020611d445f395f51905f5280546001600160a01b031981169091555f906001600160a01b03167f8be0079c531659141344cd1fd0a4f28419497f9722a3daafe3b4186f6b6457e08280a3005b34610176576020366003190112610176576004356001600160401b03811161017657610db290369060040161183c565b8060405192833760019082019081528190036020019020546001600160a01b031680156102e157602090604051908152f35b3461017657602036600319011261017657600435633b9aca0081108015610f13575b610f04575f908152600360205260409020546001600160a01b031680156102e1575f525f60205260405f2060405190610e3e82611869565b80546001600160a01b03168252610c64610e5a6001830161194f565b9260208101938452610ef6610e716002850161194f565b91604081019283526007610e876003870161194f565b9560608301968752610e9b6004820161194f565b6080840152600581015460a0840152600681015460c0840152015460e082015260018060a01b0390511693519451915191610ee86040519687968752608060208801526080870190611818565b908582036040870152611818565b908382036060850152611818565b630d57928360e21b5f5260045ffd5b506402540be3ff8111610e06565b34610176575f366003190112610176576020610f3b611aab565b604051908152f35b34610176575f36600319011261017657610c64604051610f64604082611885565b60058152640312e302e360dc1b6020820152604051918291602083526020830190611818565b34610176575f366003190112610176577f00000000000000000000000000000000000000000000000000000000000000006001600160a01b03163003610fe15760206040515f516020611d645f395f51905f528152f35b63703e46dd60e11b5f5260045ffd5b604036600319011261017657611004611802565b6024356001600160401b0381116101765736602382011215610176576110349036906024816004013591016118a6565b906001600160a01b037f0000000000000000000000000000000000000000000000000000000000000000163081149081156111c3575b50610fe157611077611b01565b60018060a01b03811691827f36ad2521ebac3d572eeb7e618d4f6d0a8e1e6180634926360341d6beb52bf9d8602060405160018152a26040516352d1902d60e01b8152602081600481875afa5f918161118f575b506110e35783634c9c8ce360e01b5f5260045260245ffd5b805f516020611d645f395f51905f5285920361117d5750823b1561116b575f516020611d645f395f51905f5280546001600160a01b031916821790557fbc7cd75a20ee27fd9adebab32041f755214dbc6bffa90cc0225b39da2e5c2d3b5f80a28051156111535761023e91611cb7565b50503461115c57005b63b398979f60e01b5f5260045ffd5b634c9c8ce360e01b5f5260045260245ffd5b632a87526960e21b5f5260045260245ffd5b9091506020813d6020116111bb575b816111ab60209383611885565b81010312610176575190856110cb565b3d915061119e565b5f516020611d645f395f51905f52546001600160a01b0316141590508361106a565b34610176576020366003190112610176576004356001600160401b03811161017657611217602091369060040161183c565b80604051928337600290820190815281900382019020546040516001600160a01b03909116158152f35b34610176575f36600319011261017657602060405162278d008152f35b34610176576020366003190112610176576004356001600160401b0381116101765761128e90369060040161183c565b335f52600460205260ff60405f205416156102e157801561142157335f525f60205260405f209160068301928354420342811161140d5762278d00116113fe57600401926001600160401b038311610a03576112f4836112ee8654611917565b86611a2d565b5f93601f84116001146113755790611365929161134985807f264d25186634d0df21a630297ddd1c8b75cb3f76c7f8176f0e1318e71609d84297985f9161136a575b508160011b915f199060031b1c19161790565b90555b4290556040519182916020835233956020840191611a8b565b0390a2005b905085013589611336565b601f198416815f5260205f20905f5b8181106113e657509085967f264d25186634d0df21a630297ddd1c8b75cb3f76c7f8176f0e1318e71609d8429661136596959493106113cd575b5050600186811b01905561134c565b8401355f19600389901b60f8161c1916905586806113be565b85880135835560209788019760019093019201611384565b63604fc48960e01b5f5260045ffd5b634e487b7160e01b5f52601160045260245ffd5b632944578960e21b5f5260045ffd5b34610176576020366003190112610176576004356001600160401b0381116101765761146090369060040161183c565b906040518282823760018184019081528190036020019020546001600160a01b031691821561157e575b50506001600160a01b031680156102e1575f525f60205260405f206040516114b181611869565b81546001600160a01b03168152610c646114cd6001840161194f565b92602083019384526115706114e46002830161194f565b91604085019283526114f86003820161194f565b946060810195865261150c6004830161194f565b608082015260076005830154928360a0840152600681015460c0840152015460e082015260018060a01b039051169451955192519261155d604051978897885260a0602089015260a0880190611818565b9160408701528582036060870152611818565b908382036080850152611818565b8091925060405192833760029082019081528190036020019020546001600160a01b0316818061148a565b34610176576020366003190112610176576004355f526003602052602060018060a01b0360405f205416604051908152f35b3461017657602036600319011261017657600435633b9aca0081108015611629575b610f04575f908152600360205260409020546001600160a01b031680156102e157602090604051908152f35b506402540be3ff81116115fd565b3461017657602036600319011261017657611650611802565b5f60e060405161165f81611869565b8281526060602082015260606040820152606080820152606060808201528260a08201528260c0820152015260018060a01b0316805f52600460205260ff60405f205416156102e1575f525f60205260405f206040516116be81611869565b81546001600160a01b031681526116d76001830161194f565b91602082019283526116eb6002820161194f565b604083019081526116fe6003830161194f565b91606084019283526117b16117156004830161194f565b6080860190815261179e60058401549560a0880196875261178b600760068701549660c08b0197885201549660e08a019788526117786040519b8c9b60208d5260018060a01b0390511660208d01525161010060408d01526101208c0190611818565b90518a8203601f190160608c0152611818565b9051888203601f190160808a0152611818565b9051868203601f190160a0880152611818565b925160c08501525160e0840152516101008301520390f35b34610176576020366003190112610176576020906001600160a01b036117ed611802565b165f526004825260ff60405f20541615158152f35b600435906001600160a01b038216820361017657565b805180835260209291819084018484015e5f828201840152601f01601f1916010190565b9181601f84011215610176578235916001600160401b038311610176576020838186019501011161017657565b61010081019081106001600160401b03821117610a0357604052565b90601f801991011681019081106001600160401b03821117610a0357604052565b9291926001600160401b038211610a0357604051916118cf601f8201601f191660200184611885565b829481845281830111610176578281602093845f960137010152565b6006548110156119035760065f5260205f2001905f90565b634e487b7160e01b5f52603260045260245ffd5b90600182811c92168015611945575b602083101461193157565b634e487b7160e01b5f52602260045260245ffd5b91607f1691611926565b9060405191825f82549261196284611917565b80845293600181169081156119cd5750600114611989575b5061198792500383611885565b565b90505f9291925260205f20905f915b8183106119b1575050906020611987928201015f61197a565b6020919350806001915483858901015201910190918492611998565b90506020925061198794915060ff191682840152151560051b8201015f61197a565b602060031982011261017657600435906001600160401b038211610176578060238301121561017657816024611a2a936004013591016118a6565b90565b919091601f8311611a3e575b505050565b818311611a4a57505050565b5f5260205f206020601f830160051c9210611a83575b81601f9101920160051c03905f5b82811015611a39575f82820155600101611a6e565b5f9150611a60565b908060209392818452848401375f828201840152601f01601f1916010190565b600554640218711a00811015611ad157640218711a0003640218711a00811161140d5790565b505f90565b6001600160a01b03811615611aee5761198790611b34565b631e4fbdf760e01b5f525f60045260245ffd5b5f516020611d445f395f51905f52546001600160a01b03163303611b2157565b63118cdaa760e01b5f523360045260245ffd5b5f516020611d445f395f51905f5280546001600160a01b039283166001600160a01b0319821681179092559091167f8be0079c531659141344cd1fd0a4f28419497f9722a3daafe3b4186f6b6457e05f80a3565b5f19811461140d5760010190565b3360601b5f5b60648110611c03575050633b9aca005b6402540be3ff811115611bc8576347e2e49160e11b5f5260045ffd5b5f818152600360205260409020546001600160a01b031615611bf257611bed90611b88565b611bac565b611bfd600554611b88565b60055590565b600554640218711a00600654604051602081019142835244604083015286606083015284607483015285609483015260b482015260b48152611c4660d482611885565b5190200690633b9aca00820180921161140d575f828152600360205260409020546001600160a01b031615611c7f575050600101611b9c565b909250611bfd9150611b88565b60ff5f516020611d845f395f51905f525460401c1615611ca857565b631afcd79f60e31b5f5260045ffd5b905f8091602081519101845af48080611d30575b15611ceb5750506040513d81523d5f602083013e60203d82010160405290565b15611d1057639996b31560e01b5f9081526001600160a01b0391909116600452602490fd5b3d15611d21576040513d5f823e3d90fd5b63d6bda27560e01b5f5260045ffd5b503d151580611ccb5750813b1515611ccb56fe9016d09d72d40fdae2fd8ceac6b6234c7706214fd39c1cd1e609a0528c199300360894a13ba1a3210667c828492db98dca3e2076cc3735a920a3ca505d382bbcf0c57e16840df040f15088dc2f81fe391c3923bec73e23a9662efc9c229c6a00a2646970667358221220df840031355e69712c6f1b48c3218b73a949ad4774cc44820a5974eec15e625364736f6c63430008210033f0c57e16840df040f15088dc2f81fe391c3923bec73e23a9662efc9c229c6a00",
    "sourcePath": "/Users/macuser/Desktop/workspace/circlepot/smart-contract/src/UserProfileV1.sol",
    "compiler": {
        "name": "solc",
        "version": "0.8.33+commit.64118f21"
    },
    "functionHashes": {
        "PHOTO_UPDATE_COOLDOWN()": "3235fbc8",
        "UPGRADE_INTERFACE_VERSION()": "ad3cb1cc",
        "VERSION()": "ffa1ad74",
        "accountIdToAddress(uint256)": "2af4b1fe",
        "allUsers(uint256)": "a2bdedf4",
        "createProfile(string,string,string,string)": "b0c0647f",
        "emailToAddress(string)": "ea78dcbf",
        "getAddressByAccountId(uint256)": "173dbeae",
        "getAddressByEmail(string)": "c5caea01",
        "getAddressByUsername(string)": "6322961d",
        "getProfile(address)": "0f53a470",
        "getRemainingAccountIds()": "5be8dccb",
        "getTotalProfiles()": "bab17ce9",
        "getUserDetailsByAccountId(uint256)": "5c8be370",
        "getUserDetailsByIdentifier(string)": "2bc6632f",
        "hasProfile(address)": "a787c80b",
        "hasUserProfile(address)": "0f232b12",
        "initialize(address)": "c4d66de8",
        "isEmailAvailable(string)": "3272187b",
        "isUsernameAvailable(string)": "f69c6dec",
        "owner()": "8da5cb5b",
        "profiles(address)": "bbe15627",
        "proxiableUUID()": "52d1902d",
        "renounceOwnership()": "715018a6",
        "transferOwnership(address)": "f2fde38b",
        "updatePhoto(string)": "2c65db80",
        "upgradeToAndCall(address,bytes)": "4f1ef286",
        "usernameToAddress(string)": "f825f143",
        "version()": "54fd4d50"
    },
    "gasEstimates": {
        "creation": {
            "codeDepositCost": "1528200",
            "executionCost": "infinite",
            "totalCost": "infinite"
        },
        "external": {
            "PHOTO_UPDATE_COOLDOWN()": "285",
            "UPGRADE_INTERFACE_VERSION()": "852",
            "VERSION()": "766",
            "accountIdToAddress(uint256)": "2405",
            "allUsers(uint256)": "6985",
            "createProfile(string,string,string,string)": "infinite",
            "emailToAddress(string)": "infinite",
            "getAddressByAccountId(uint256)": "2477",
            "getAddressByEmail(string)": "infinite",
            "getAddressByUsername(string)": "infinite",
            "getProfile(address)": "infinite",
            "getRemainingAccountIds()": "2578",
            "getTotalProfiles()": "2696",
            "getUserDetailsByAccountId(uint256)": "infinite",
            "getUserDetailsByIdentifier(string)": "infinite",
            "hasProfile(address)": "2792",
            "hasUserProfile(address)": "2410",
            "initialize(address)": "infinite",
            "isEmailAvailable(string)": "infinite",
            "isUsernameAvailable(string)": "infinite",
            "owner()": "infinite",
            "profiles(address)": "infinite",
            "proxiableUUID()": "infinite",
            "renounceOwnership()": "28426",
            "transferOwnership(address)": "28845",
            "updatePhoto(string)": "infinite",
            "upgradeToAndCall(address,bytes)": "infinite",
            "usernameToAddress(string)": "infinite",
            "version()": "676"
        },
        "internal": {
            "_authorizeUpgrade(address)": "infinite",
            "_generateAccountId()": "infinite"
        }
    }
}